:100000000C9409030C943A030C943A030C943A03AD
:100010000C943A030C943A030C943A030C943A036C
:100020000C943A030C943A030C943A030C943A035C
:100030000C943A030C943A030C943A030C943A034C
:100040000C943A030C943A030C943A030C943A033C
:100050000C943A030C943A030C943A030C94618D7B
:100060000C943A030C94EC7C0C94C07D0C943A03F1
:100070000C943A030C943A030C943A030C943A030C
:100080000C943A030C943A030C943A030C943A03FC
:100090000C94197D0C940B7E0C943A030C94994D9E
:1000A0000C943A030C943A030C943A030C943A03DC
:1000B0000C943A030C943A030C943A030C943A03CC
:1000C0000C943A030C943A030C943A030C94467D36
:1000D0000C94567E0C943A030C94737D0C94A17E80
:1000E0000C943A03FE4E034F034F034F034F034F4D
:1000F000034F034FD04D034F034F034F034F034FA5
:10010000034F034FD04D034F034F034F034F034F94
:10011000034F034FDA4D034F034F034F034F034F7A
:10012000034F034F0E4E034F034F034F034F034F35
:10013000034F034FDA4D034F034F034F034F034F5A
:10014000034F034F144E034F034F034F034F034F0F
:10015000034F034F1A4E034F034F034F034F034FF9
:10016000034F034F304E034F034F034F034F034FD3
:10017000034F034F684E034F034F034F034F034F8B
:10018000034F034F204E034F034F034F034F034FC3
:10019000034F034F424E034F034F034F034F034F91
:1001A000034F034F6B4E034F034F034F034F034F58
:1001B000034F034F6B4E034F034F034F034F034F48
:1001C000034F034F6B4E034F034F034F034F034F38
:1001D000034F034F6B4E034F034F034F034F034F28
:1001E000034F034F744E034F034F034F034F034F0F
:1001F000034F034FB84E034F034F034F034F034FBB
:10020000034F034F744E034F034F034F034F034FEE
:10021000034F034FB84E034F034F034F034F034F9A
:10022000034F034F944E034F034F034F034F034FAE
:10023000034F034FBC4E034F034F034F034F034F76
:10024000034F034FBC4E034F034F034F034F034F66
:10025000034F034FD64E034F034F034F034F034F3C
:10026000034F034FF84E034F034F034F034F034F0A
:10027000034F034FF84E034F034F034F034F034FFA
:10028000034F034F034F034F034F034F034F034FDE
:10029000034F034F034F034F034F034F034F034FCE
:1002A000034F034F034F034F034F034F034F034FBE
:1002B000034F034F034F034F034F034F034F034FAE
:1002C000034F034F034F034F034F034F034F034F9E
:1002D000034F034F034F1F1C1F1E1F1E1F1F1E1FF8
:1002E0001E1F005EBCE2613FDD83C29C7E20A3FD39
:1002F0001F419DC3217FFCA2401E5F01E3BD3E6004
:1003000082DC237D9FC1421CFEA0E1BF5D0380DE35
:100310003C62BEE0025CDF81633D7C22C09E1D43E7
:10032000A1FF4618FAA427799BC584DA3866E5BB95
:100330005907DB856739BAE406581947A5FB7826C3
:10034000C49A653BD987045AB8E6A7F91B45C698F5
:100350007A24F8A6441A99C7257B3A6486D85B05A7
:10036000E7B98CD2306EEDB3510F4E10F2AC2F7155
:1003700093CD114FADF3702ECC92D38D6F31B2EC83
:100380000E50AFF1134DCE90722C6D33D18F0C52B5
:10039000B0EE326C8ED0530DEFB1F0AE4C1291CF67
:1003A0002D73CA947628ABF517490856B4EA693715
:1003B000D58B5709EBB536688AD495CB2977F4AA43
:1003C0004816E9B7550B88D6346A2B7597C94A1475
:1003D000F6A8742AC896154BA9F7B6E80A54D78927
:1003E0006B3500002100240027002A002D0030007A
:1003F000330001010000040107010A01000022008E
:10040000250028002B002E003100340002010000DE
:10041000050108010B01000020002300260029002F
:100420002C002F0032000001000003010601090129
:1004300005050505070508080808020202020A0A60
:10044000080804040404010101010101010103037E
:10045000030303030303040707070C0C0C0C0C0C29
:100460000C0C0202020206060606060606060B0B26
:100470000B0B0B0B0B0B0102102020080810204067
:100480001020408002010201080402010102040858
:1004900010204080804020100804020180040201E6
:1004A000804020100804020108040201010204082F
:1004B0001020408001020408102040800000090A3A
:1004C00002080B0C0D0706030401000000000000E9
:1004D000000000000000000000000000000000001C
:1004E000000000000000000011100F0000000000DC
:1004F00000000000000000000000000000000000FC
:10050000000000407A10F35A00A0724E1809001043
:10051000A5D4E80000E87648170000E40B54020078
:1005200000CA9A3B000000E1F505000080969800A3
:10053000000040420F000000A086010000001027CC
:1005400000000000E803000000006400000000005C
:100550000A00000000000100000000002C76D8888E
:10056000DC674F0823DFC1DFAE59E1B1B796E5E3A1
:10057000E453C63AE651997696E8E6C28426EB89BA
:100580008C9B62ED407C6FFCEFBC9C9F40F2BAA557
:100590006FA5F490055A2AF75C936B6CF9676DC1EF
:1005A0001BFCE0E40D47FEF520E6B500D0ED902EF3
:1005B0000300943577050080841E080000204E0A51
:1005C000000000C80C333333330F986E128311418F
:1005D000EF8D2114893BE65516CFFEE6DB18D1845A
:1005E0004B381BF77C1D901DA4BBE4242032847281
:1005F0005E228100C9F124ECA1E53D27742F7152E0
:1006000039652B6BF56FA2748D77F87B1180808133
:10061000812F11241FBECFEFD1E2DEBFCDBF00E09E
:100620000CBF10E1A0E0B2E0E0ECF9E301E00BBFA9
:1006300002C007900D92AE3EB107D9F716E1AEEEBB
:10064000B0E101C01D92A437B107E1F715E0C0E1A8
:10065000D6E000E006C022970109FE010BBF0E9410
:100660002A93CC3FD10780E00807A9F70E944B10DE
:100670000C94CE9C0C940000DF93CF930F920F92BA
:10068000CDB7DEB79A83898389819A810E944D0311
:100690000F900F90CF91DF910895DF93CF930F923A
:1006A0000F92CDB7DEB79A83898389819A816CE0F6
:1006B00070E041E00E94DB0421E0009709F420E0B3
:1006C00089819A81FC01208389819A816DE070E0A3
:1006D00041E00E94DB0421E0009709F420E08981D9
:1006E0009A81FC01218389819A816EE070E046E065
:1006F0000E94DB049C0189819A81FC01338322835F
:1007000089819A816FE070E040E00E94DB049C01E7
:1007100089819A81FC013583248389819A8160E1F2
:1007200070E041E00E94DB0421E0009709F420E042
:1007300089819A81FC01268389819A8161E170E037
:100740004CE10E94DB049C0189819A81FC01308785
:10075000278389819A8162E170E04DE10E94DB0488
:100760009C0189819A81FC013287218789819A8144
:1007700063E170E042E00E94DB049C0189819A8180
:10078000FC013487238789819A8164E170E04EE11E
:100790000E94DB049C0189819A81FC0136872587B0
:1007A00089819A8165E170E042E00E94DB049C014E
:1007B00089819A81FC01308B278789819A8166E142
:1007C00070E040E00E94DB049C0189819A81FC0179
:1007D000328B218B89819A8167E170E04CE00E9425
:1007E000DB049C0189819A81FC01348B238B8981F4
:1007F0009A8168E170E040E00E94DB049C018981FD
:100800009A81FC01368B258B89819A8169E170E0A0
:1008100041E00E94DB049C0189819A81FC01308FB8
:10082000278B89819A816AE170E041E00E94DB04B4
:1008300021E0009709F420E089819A81FC01218F51
:1008400089819A816BE170E041E00E94DB049C01A8
:1008500089819A81FC01338F228F89819A816CE191
:1008600070E048E10E94DB049C0189819A81FC01CF
:10087000358F248F89819A816DE170E049E10E9472
:10088000DB049C0189819A81FC01378F268F898145
:100890009A816EE170E04AE10E94DB049C0189814B
:1008A0009A81FC0131A320A389819A816FE170E0D4
:1008B0004BE10E94DB049C0189819A81FC0133A3F6
:1008C00022A389819A8160E270E04CE10E94DB04FE
:1008D0009C0189819A81FC0135A324A389819A8195
:1008E00061E270E04DE10E94DB049C0189819A8104
:1008F000FC0137A326A389819A8162E270E04EE170
:100900000E94DB049C0189819A81FC0131A720A708
:1009100089819A8163E270E04FE10E94DB049C01CF
:1009200089819A81FC0133A722A789819A8164E297
:1009300070E040E20E94DB049C0189819A81FC0105
:1009400035A724A789819A8165E270E041E20E947F
:10095000DB049C0189819A81FC0137A726A7898144
:100960009A8166E270E044E20E94DB049C01898186
:100970009A81FC0131AB20AB89819A8167E270E0FA
:1009800048E20E94DB049C0189819A81FC0133AB1F
:1009900022AB89819A8168E270E049E20E94DB041F
:1009A0009C0189819A81FC0135AB24AB0F900F909B
:1009B000CF91DF910895DF93CF93CDB7DEB727971F
:1009C0000FB6F894DEBF0FBECDBF9C838B837E83B2
:1009D0006D834F8383EC93E12D813E81B9010E94A9
:1009E000057C882F90E09A83898389819A818F3F43
:1009F000910561F483EC93E12D813E81B9014F8132
:100A00000E941A7C8F81882F90E002C089819A8190
:100A100027960FB6F894DEBF0FBECDBFCF91DF9102
:100A20000895DF93CF930F920F92CDB7DEB79A83DD
:100A3000898389819A81FC0180810F900F90CF91E9
:100A4000DF910895DF93CF930F920F92CDB7DEB76A
:100A50009A83898389819A81FC0181810F900F900B
:100A6000CF91DF910895DF93CF930F920F92CDB77F
:100A7000DEB79A83898389819A81FC0186810F90F0
:100A80000F90CF91DF910895DF93CF930F920F9244
:100A9000CDB7DEB79A83898389819A81FC018781EA
:100AA00090850F900F90CF91DF910895DF93CF93B2
:100AB0000F920F92CDB7DEB79A83898389819A818D
:100AC000FC01818592850F900F90CF91DF91089561
:100AD000DF93CF930F920F92CDB7DEB79A838983BE
:100AE00089819A81FC01838594850F900F90CF9125
:100AF000DF910895DF93CF930F920F92CDB7DEB7BA
:100B00009A83898389819A81FC01858596850F90D6
:100B10000F90CF91DF910895DF93CF930F920F92B3
:100B2000CDB7DEB79A83898389819A81FC01878555
:100B300090890F900F90CF91DF910895DF93CF931D
:100B40000F920F92CDB7DEB79A83898389819A81FC
:100B5000FC01818992890F900F90CF91DF910895C8
:100B6000DF93CF930F920F92CDB7DEB79A8389832D
:100B700089819A81FC01838994890F900F90CF918C
:100B8000DF910895DF93CF930F920F92CDB7DEB729
:100B90009A83898389819A81FC01858996890F903E
:100BA0000F90CF91DF910895DF93CF930F920F9223
:100BB000CDB7DEB79A83898389819A81FC018789C1
:100BC000908D0F900F90CF91DF910895DF93CF9389
:100BD0000F920F92CDB7DEB79A83898389819A816C
:100BE000FC01828193810F900F90CF91DF91089546
:100BF000DF93CF930F920F92CDB7DEB79A8389839D
:100C000089819A81FC01828193810F900F90CF910D
:100C1000DF910895DF93CF930F920F92CDB7DEB798
:100C20009A83898389819A81FC01818D0F900F902D
:100C3000CF91DF910895DF93CF930F920F92CDB7AD
:100C4000DEB79A83898389819A81FC01828D938D95
:100C50000F900F90CF91DF910895DF93CF9300D045
:100C60000F92CDB7DEB79A8389837C836B838981AA
:100C70009A812B813C81FC01358F248F2B8183EC61
:100C800093E16CE170E0422F0E941A7C0F900F906C
:100C90000F900F90CF91DF910895DF93CF930F9234
:100CA0000F92CDB7DEB79A83898389819A81FC013F
:100CB000848D958D0F900F90CF91DF910895DF93E4
:100CC000CF9300D00F92CDB7DEB79A8389837C8310
:100CD0006B8389819A812B813C81FC01378F268F20
:100CE0002B8183EC93E16DE170E0422F0E941A7C2E
:100CF0000F900F900F900F90CF91DF910895DF9399
:100D0000CF930F920F92CDB7DEB79A8389838981F3
:100D10009A81FC01868D978D0F900F90CF91DF9176
:100D20000895DF93CF9300D00F92CDB7DEB79A83AB
:100D300089837C836B8389819A812B813C81FC012F
:100D400031A320A32B8183EC93E16EE170E0422F6D
:100D50000E941A7C0F900F900F900F90CF91DF910F
:100D60000895DF93CF930F920F92CDB7DEB79A839A
:100D7000898389819A81FC0180A191A10F900F90B4
:100D8000CF91DF910895DF93CF9300D00F92CDB72D
:100D9000DEB79A8389837C836B8389819A812B81D7
:100DA0003C81FC0133A322A32B8183EC93E16FE10F
:100DB00070E0422F0E941A7C0F900F900F900F90BE
:100DC000CF91DF910895DF93CF930F920F92CDB71C
:100DD000DEB79A83898389819A81FC0182A193A1DC
:100DE0000F900F90CF91DF910895DF93CF9300D0B4
:100DF0000F92CDB7DEB79A8389837C836B83898119
:100E00009A812B813C81FC0135A324A32B8183ECA7
:100E100093E160E270E0422F0E941A7C0F900F90E5
:100E20000F900F90CF91DF910895DF93CF930F92A2
:100E30000F92CDB7DEB79A83898389819A81FC01AD
:100E400084A195A10F900F90CF91DF910895DF932A
:100E5000CF9300D00F92CDB7DEB79A8389837C837E
:100E60006B8389819A812B813C81FC0137A326A366
:100E70002B8183EC93E161E270E0422F0E941A7CA7
:100E80000F900F900F900F90CF91DF910895DF9307
:100E9000CF930F920F92CDB7DEB79A838983898162
:100EA0009A81FC0186A197A10F900F90CF91DF91BD
:100EB0000895DF93CF9300D00F92CDB7DEB79A831A
:100EC00089837C836B8389819A812B813C81FC019E
:100ED00031A720A72B8183EC93E162E270E0422FDF
:100EE0000E941A7C0F900F900F900F90CF91DF917E
:100EF0000895DF93CF930F920F92CDB7DEB79A8309
:100F0000898389819A81FC0180A591A50F900F901A
:100F1000CF91DF910895DF93CF9300D00F92CDB79B
:100F2000DEB79A8389837C836B8389819A812B8145
:100F30003C81FC0133A722A72B8183EC93E163E280
:100F400070E0422F0E941A7C0F900F900F900F902C
:100F5000CF91DF910895DF93CF930F920F92CDB78A
:100F6000DEB79A83898389819A81FC0182A593A542
:100F70000F900F90CF91DF910895DF93CF9300D022
:100F80000F92CDB7DEB79A8389837C836B83898187
:100F90009A812B813C81FC0135A724A72B8183EC0E
:100FA00093E164E270E0422F0E941A7C0F900F9050
:100FB0000F900F90CF91DF910895DF93CF930F9211
:100FC0000F92CDB7DEB79A83898389819A81FC011C
:100FD00084A595A50F900F90CF91DF910895DF9391
:100FE000CF9300D00F92CDB7DEB79A8389837C83ED
:100FF0006B8389819A812B813C81FC0137A726A7CD
:101000002B8183EC93E165E270E0422F0E941A7C11
:101010000F900F900F900F90CF91DF910895DF9375
:10102000CF930F920F92CDB7DEB79A8389838981D0
:101030009A81FC0186A597A50F900F90CF91DF9123
:101040000895DF93CF9300D00F92CDB7DEB79A8388
:1010500089837C836B8389819A812B813C81FC010C
:1010600031AB20AB2B8183EC93E166E270E0422F41
:101070000E941A7C0F900F900F900F90CF91DF91EC
:101080000895DF93CF930F920F92CDB7DEB79A8377
:10109000898389819A81FC0180A991A90F900F9081
:1010A000CF91DF910895DF93CF9300D00F92CDB70A
:1010B000DEB79A8389837C836B8389819A812B81B4
:1010C0003C81FC0133AB22AB2B8183EC93E167E2E3
:1010D00070E0422F0E941A7C0F900F900F900F909B
:1010E000CF91DF910895DF93CF930F920F92CDB7F9
:1010F000DEB79A83898389819A81FC0182A993A9A9
:101100000F900F90CF91DF910895DF93CF9300D090
:101110000F92CDB7DEB79A8389837C836B838981F5
:101120009A812B813C81FC0135AB24AB2B8183EC74
:1011300093E168E270E0422F0E941A7C0F900F90BA
:101140000F900F90CF91DF910895DF93CF930F927F
:101150000F92CDB7DEB79A83898389819A81FC018A
:1011600084A995A90F900F90CF91DF910895DF93F7
:10117000CF9300D00F92CDB7DEB79C838B838CE0EA
:1011800090E09A8389830DC083EC93E129813A81B1
:10119000B9014FEF0E941A7C89819A8101969A8346
:1011A000898321E089819A81893291050CF020E0C0
:1011B000222351F70F900F900F900F90CF91DF9156
:1011C00008950F931F93DF93CF93CDB7DEB7299781
:1011D0000FB6F894DEBF0FBECDBF9987888788858C
:1011E0009985089620E032E0B9010E94AA8583EC37
:1011F00093E168E070E00E94057C282F888599853E
:10120000FC01208388859985FC0180818F3F31F026
:1012100088859985FC0180818823A9F48885998532
:1012200020ECFC0120838885998528EAFC01218334
:10123000888599852BE0FC0122838885998521E0AA
:10124000FC01238321C083EC93E169E070E00E94FC
:10125000057C282F88859985FC01218383EC93E107
:101260006AE070E00E94057C282F88859985FC0142
:10127000228383EC93E16BE070E00E94057C282FD1
:1012800088859985FC01238388859985FC012081C7
:1012900088859985FC01248388859985FC012181B5
:1012A00088859985FC01258388859985FC012281A3
:1012B00088859985FC01268388859985FC01238191
:1012C00088859985FC012783888599858C01085F2D
:1012D0001F4F88859985FC012081CE010196622FE0
:1012E0004AE00E94C586C8019E012F5F3F4FB901A9
:1012F0000E94C585CE0101960E9438858885998512
:10130000089621E032E0B9010E94448788859985DA
:10131000089628853985F9012181622F0E94698705
:1013200088859985089621E032E0B9010E944487BA
:1013300088859985089628853985F9012281622F4B
:101340000E94698788859985089621E032E0B90175
:101350000E94448788859985089628853985F901F2
:101360002381622F0E94698729960FB6F894DEBF09
:101370000FBECDBFCF91DF911F910F910895DF93E5
:10138000CF930F920F92CDB7DEB79A83898389816D
:101390009A8108960E9438850F900F90CF91DF9127
:1013A00008950F931F93DF93CF93CDB7DEB72D979B
:1013B0000FB6F894DEBF0FBECDBF998788876A87C6
:1013C0004B872C870D87888599852A85FC0120838A
:1013D000888599852B85FC012183888599852C85B5
:1013E000FC012283888599852D85FC0123838885CE
:1013F0009985FC01208188859985FC012483888555
:101400009985FC01218188859985FC012583888542
:101410009985FC01228188859985FC012683888530
:101420009985FC01238188859985FC01278388851E
:1014300099858C01085F1F4F88859985FC01208163
:10144000CE010196622F4AE00E94C586C8019E0126
:101450002F5F3F4FB9010E94C585CE0101960E94C2
:10146000388588859985089621E032E0B9010E9487
:10147000448788859985089628853985F9012181D1
:10148000622F0E94698788859985089621E032E05D
:10149000B9010E94448788859985089628853985F1
:1014A000F9012281622F0E946987888599850896B3
:1014B00021E032E0B9010E94448788859985089629
:1014C00028853985F9012381622F0E94698783EC81
:1014D00093E168E070E04A850E941A7C83EC93E116
:1014E00069E070E04B850E941A7C83EC93E16AE02E
:1014F00070E04C850E941A7C83EC93E16BE070E015
:101500004D850E941A7C2D960FB6F894DEBF0FBE53
:10151000CDBFCF91DF911F910F910895DF93CF93AE
:101520000F920F92CDB7DEB79A83898389819A8112
:10153000FC01208189819A81FC01248389819A811F
:10154000FC01218189819A81FC01258389819A810D
:10155000FC01228189819A81FC01268389819A81FB
:10156000FC01238189819A81FC01278389819A81E9
:1015700004960F900F90CF91DF910895DF93CF9352
:101580000F920F92CDB7DEB79A83898383EC93E1F4
:1015900068E070E04FEF0E941A7C83EC93E169E011
:1015A00070E04FEF0E941A7C83EC93E16AE070E0F8
:1015B0004FEF0E941A7C83EC93E16BE070E04FEFF9
:1015C0000E941A7C0F900F90CF91DF9108950F9396
:1015D0001F93DF93CF930F920F92CDB7DEB78C019D
:1015E0007A836983C80129813A81285F3F4FB90115
:1015F0000E94E085C801C8010F900F90CF91DF9144
:101600001F910F9108950F931F93DF93CF93CDB741
:10161000DEB729970FB6F894DEBF0FBECDBF99870E
:10162000888788859985089623E032E0B9010E9471
:10163000AA8583EC93E160E070E00E94057C282F8E
:1016400088859985FC01208388859985FC018081A6
:101650008F3F31F088859985FC0180818823A9F42A
:101660008885998520ECFC0120838885998528EA66
:10167000FC012183888599852BE0FC0122838885E4
:10168000998521EFFC01238321C083EC93E161E084
:1016900070E00E94057C282F88859985FC012183B4
:1016A00083EC93E162E070E00E94057C282F88853E
:1016B0009985FC01228383EC93E163E070E00E9452
:1016C000057C282F88859985FC0123838885998549
:1016D000FC01208188859985FC0124838885998572
:1016E000FC01218188859985FC0125838885998560
:1016F000FC01228188859985FC012683888599854E
:10170000FC01238188859985FC012783888599853B
:101710008C01085F1F4F88859985FC012081CE01CF
:101720000196622F4AE00E94C586C8019E012F5F84
:101730003F4FB9010E94C585CE0101960E943885B0
:1017400088859985089624E032E0B9010E94448793
:1017500088859985089628853985F9012181622F28
:101760000E94698788859985089624E032E0B9014E
:101770000E94448788859985089628853985F901CE
:101780002281622F0E94698788859985089624E0C6
:1017900032E0B9010E94448788859985089628859A
:1017A0003985F9012381622F0E94698729960FB636
:1017B000F894DEBF0FBECDBFCF91DF911F910F9187
:1017C0000895DF93CF930F920F92CDB7DEB79A8330
:1017D000898389819A8108960E9438850F900F909D
:1017E000CF91DF9108950F931F93DF93CF93CDB7E0
:1017F000DEB72D970FB6F894DEBF0FBECDBF998729
:1018000088876A874B872C870D87888599852A85E5
:10181000FC012083888599852B85FC01218388859F
:1018200099852C85FC012283888599852D85FC016D
:10183000238388859985FC01208188859985FC0111
:10184000248388859985FC01218188859985FC01FF
:10185000258388859985FC01228188859985FC01ED
:10186000268388859985FC01238188859985FC01DB
:101870002783888599858C01085F1F4F8885998506
:10188000FC012081CE010196622F4AE00E94C586AC
:10189000C8019E012F5F3F4FB9010E94C585CE014F
:1018A00001960E94388588859985089624E032E063
:1018B000B9010E94448788859985089628853985CD
:1018C000F9012181622F0E94698788859985089690
:1018D00024E032E0B9010E94448788859985089602
:1018E00028853985F9012281622F0E9469878885C0
:1018F0009985089624E032E0B9010E9444878885E2
:101900009985089628853985F9012381622F0E94DF
:10191000698783EC93E160E070E04A850E941A7C5D
:1019200083EC93E161E070E04B850E941A7C83ECCC
:1019300093E162E070E04C850E941A7C83EC93E1B5
:1019400063E070E04D850E941A7C2D960FB6F894E6
:10195000DEBF0FBECDBFCF91DF911F910F910895D4
:10196000DF93CF930F920F92CDB7DEB79A8389831F
:1019700089819A81FC01208189819A81FC012483DB
:1019800089819A81FC01218189819A81FC012583C9
:1019900089819A81FC01228189819A81FC012683B7
:1019A00089819A81FC01238189819A81FC012783A5
:1019B00089819A8104960F900F90CF91DF910895BD
:1019C000DF93CF930F920F92CDB7DEB79A838983BF
:1019D00083EC93E160E070E04FEF0E941A7C83ECAF
:1019E00093E161E070E04FEF0E941A7C83EC93E199
:1019F00062E070E04FEF0E941A7C83EC93E163E0B9
:101A000070E04FEF0E941A7C0F900F90CF91DF9102
:101A100008950F931F93DF93CF930F920F92CDB73B
:101A2000DEB78C017A836983C80129813A81285FF6
:101A30003F4FB9010E94E085C801C8010F900F9087
:101A4000CF91DF911F910F9108950F931F93DF9313
:101A5000CF93CDB7DEB729970FB6F894DEBF0FBE90
:101A6000CDBF9987888788859985089626E032E0DA
:101A7000B9010E94AA8583EC93E164E070E00E94C2
:101A8000057C282F88859985FC0120838885998588
:101A9000FC0180818F3F31F088859985FC01808130
:101AA0008823A1F4888599852FEFFC012083888500
:101AB00099852FEFFC012183888599852FEFFC0103
:101AC000228388859985FC01138221C083EC93E1F0
:101AD00065E070E00E94057C282F88859985FC01CF
:101AE000218383EC93E166E070E00E94057C282F5F
:101AF00088859985FC01228383EC93E167E070E09F
:101B00000E94057C282F88859985FC012383888580
:101B10009985FC01208188859985FC01248388852D
:101B20009985FC01218188859985FC01258388851B
:101B30009985FC01228188859985FC012683888509
:101B40009985FC01238188859985FC0127838885F7
:101B500099858C01085F1F4F88859985FC0120813C
:101B6000CE010196622F4AE00E94C586C8019E01FF
:101B70002F5F3F4FB9010E94C585CE0101960E949B
:101B8000388588859985089627E032E0B9010E945A
:101B9000448788859985089628853985F9012181AA
:101BA000622F0E94698788859985089627E032E030
:101BB000B9010E94448788859985089628853985CA
:101BC000F9012281622F0E9469878885998508968C
:101BD00027E032E0B9010E944487888599850896FC
:101BE00028853985F9012381622F0E94698729960A
:101BF0000FB6F894DEBF0FBECDBFCF91DF911F911E
:101C00000F910895DF93CF930F920F92CDB7DEB768
:101C10009A83898389819A8108960E9438850F90DA
:101C20000F90CF91DF9108950F931F93DF93CF9380
:101C3000CDB7DEB72D970FB6F894DEBF0FBECDBF80
:101C4000998788876A874B872C870D878885998530
:101C50002A85FC012083888599852B85FC012183B9
:101C6000888599852C85FC012283888599852D8519
:101C7000FC01238388859985FC01208188859985CD
:101C8000FC01248388859985FC01218188859985BB
:101C9000FC01258388859985FC01228188859985A9
:101CA000FC01268388859985FC0123818885998597
:101CB000FC012783888599858C01085F1F4F8885E3
:101CC0009985FC012081CE010196622F4AE00E9495
:101CD000C586C8019E012F5F3F4FB9010E94C5858F
:101CE000CE0101960E94388588859985089627E05F
:101CF00032E0B9010E944487888599850896288535
:101D00003985F9012181622F0E946987888599852B
:101D1000089627E032E0B9010E94448788859985BA
:101D2000089628853985F9012281622F0E946987EA
:101D300088859985089627E032E0B9010E9444879A
:101D400088859985089628853985F9012381622F30
:101D50000E94698783EC93E164E070E04A850E9409
:101D60001A7C83EC93E165E070E04B850E941A7C5D
:101D700083EC93E166E070E04C850E941A7C83EC72
:101D800093E167E070E04D850E941A7C2D960FB6B6
:101D9000F894DEBF0FBECDBFCF91DF911F910F91A1
:101DA0000895DF93CF930F920F92CDB7DEB79A834A
:101DB000898389819A81FC01208189819A81FC0132
:101DC000248389819A81FC01218189819A81FC0186
:101DD000258389819A81FC01228189819A81FC0174
:101DE000268389819A81FC01238189819A81FC0162
:101DF000278389819A8104960F900F90CF91DF916C
:101E00000895DF93CF930F920F92CDB7DEB79A83E9
:101E1000898383EC93E164E070E04FEF0E941A7CC9
:101E200083EC93E165E070E04FEF0E941A7C83EC55
:101E300093E166E070E04FEF0E941A7C83EC93E13F
:101E400067E070E04FEF0E941A7C0F900F90CF91E7
:101E5000DF9108950F931F93DF93CF930F920F920B
:101E6000CDB7DEB78C017A836983C80129813A81B5
:101E7000285F3F4FB9010E94E085C801C8010F905B
:101E80000F90CF91DF911F910F910895DF93CF9322
:101E900000D00F92CDB7DEB79A8389837C836B83A2
:101EA00089819A812B813C81B9010E943C8789817B
:101EB0009A810F900F900F900F90CF91DF9108951E
:101EC000DF93CF9300D00F92CDB7DEB79A8389838B
:101ED0007C836B8389819A812B813C81B9010E942B
:101EE000448789819A810F900F900F900F90CF9126
:101EF000DF910895DF93CF93CDB7DEB728970FB664
:101F0000F894DEBF0FBECDBF9A8389837C836B8339
:101F10005E834D8338872F836B817C8189819A8191
:101F20004D815E812F8138850E94338A28960FB6B5
:101F3000F894DEBF0FBECDBFCF91DF910895DF9340
:101F4000CF9300D00F92CDB7DEB79A8389837C837D
:101F50006B8389819A812B813C81B9010E94E08544
:101F60000F900F900F900F90CF91DF910895DF9316
:101F7000CF9300D00F92CDB7DEB79A8389837C834D
:101F80006B8389819A812B813C81B9010E94AA854A
:101F90000F900F900F900F90CF91DF910895DF93E6
:101FA000CF930F920F92CDB7DEB79A838983898141
:101FB0009A81FC018081882F90E08053984F0F9088
:101FC0000F90CF91DF910895DF93CF930F920F92EF
:101FD000CDB7DEB79A83898389819A81FC0181819B
:101FE0000F900F90CF91DF910895DF93CF930F92D1
:101FF0000F92CDB7DEB79A83898389819A81FC01DC
:1020000082810F900F90CF91DF910895DF93CF934E
:102010000F920F92CDB7DEB79A83898389819A8117
:10202000FC0183810F900F90CF91DF910895DF9392
:10203000CF930F920F92CDB7DEB79A8389838981B0
:102040009A81FC0184810F900F90CF91DF910895C8
:10205000DF93CF930F920F92CDB7DEB79A83898328
:1020600089819A81FC0185810F900F90CF91DF913A
:102070000895DF93CF930F920F92CDB7DEB79A8377
:10208000898389819A81FC01868197810F900F90C5
:10209000CF91DF910895DF93CF93CDB7DEB70E9444
:1020A0001A8E0E9456100E94521AFDCFEF92FF9294
:1020B0000F931F93DF93CF93CDB7DEB7AD970FB6D6
:1020C000F894DEBF0FBECDBF84EE95E140E052EC48
:1020D00061E070E00E942B7F84EE95E129E032E020
:1020E000B9010E942082CE0187962BE032E1B9012E
:1020F0000E94090D84EE95E19E01295D3F4FB901D3
:102100000E945E82CE0187960E94388584EE95E11A
:1021100023E132E0B9010E942082CE0180962AE1BB
:1021200032E1B9010E942A0F84EE95E19E01205E02
:102130003F4FB9010E945E82CE0180960E94388591
:1021400084EE95E12DE132E0B9010E942082CE01BA
:10215000499629E232E1B9010E94E70A84EE95E14D
:102160009E01275E3F4FB9010E945E82CE014996D3
:102170000E9438858BE092E10E94B00C9C01CE0158
:102180004396B9010E944A8189E292E10E948E0A37
:102190009C01CE010D96B9010E944A8189E292E12B
:1021A0000E948E0A9C01CE010796B9010E944A81C5
:1021B0008AE192E10E94D10E9C01CE010196B90103
:1021C0000E944A818BEA93E16FEA7CE0AE014D5EAA
:1021D0005F4F9E01235F3F4FFE0137968F01FE0147
:1021E00031967F010E94D16E88E392E10E940375CF
:1021F00088EF91E10E94B93688E592E10E944D0690
:1022000061E00E94FE8F88E592E10E947F0661E016
:102210000E94FE8F88E592E10E94B10661E00E9473
:10222000FE8F88E592E10E94E30661E00E94FE8F46
:1022300088E592E10E94150761E00E94FE8F88E523
:1022400092E10E94470761E00E94FE8F88E592E1DB
:102250000E94790761E00E94FE8F88E592E10E946A
:10226000AB0761E00E94FE8F88E592E10E94DD07E6
:1022700061E00E94FE8F88E592E10E940F0861E014
:102280000E94FE8F88E592E10E94410861E00E9471
:10229000FE8F88E592E10E94730860E00E94FE8F45
:1022A00088E592E10E94A50860E00E94FE8F8EE61C
:1022B00093E10E94854F0E942D34AD960FB6F8949D
:1022C000DEBF0FBECDBFCF91DF911F910F91FF9069
:1022D000EF900895DF93CF930F920F92CDB7DEB7B3
:1022E0009A83898384EE95E127E232E0B9010E9466
:1022F000208284EE95E12BEA32E1B9010E94ED8162
:1023000084EE95E129E232E0B9010E94208284EE58
:1023100095E129813A81B9010E945E820F900F9068
:10232000CF91DF910895DF93CF93CDB7DEB78EE3E2
:1023300092E12CE232E0B9010E947182CF91DF91EB
:102340000895DF93CF93CDB7DEB78EE392E128E413
:1023500032E0B9010E9471828EE392E12FE532E012
:10236000B9010E9471828EE392E127E732E0B90160
:102370000E9471828EE392E10E9436820E94931144
:102380008EE392E128E932E0B9010E947182CF9197
:10239000DF910895DF93CF9300D000D0CDB7DEB7A3
:1023A0009A8389837C836B835E834D838EE392E182
:1023B0002BEA32E0B9010E9420828EE392E129816A
:1023C0003A81B9014AE050E00E94B2838EE392E183
:1023D00025EB32E0B9010E9420828EE392E12B814D
:1023E0003C81B9010E94ED818EE392E12FE532E05C
:1023F000B9010E9471828EE392E127E732E0B901D0
:102400000E9471828EE392E10E9436820E949311B3
:102410008EE392E12D813E81B9010E945E82269673
:102420000FB6F894DEBF0FBECDBFCF91DF910895F8
:10243000DF93CF93CDB7DEB763970FB6F894DEBFC7
:102440000FBECDBF998B888B7B8B6A8BCE01099693
:1024500027EB32E0B9010E94AA85CE0109960E94BD
:102460006A11CE0109960E9438858CED95E09A8319
:102470008983CE01039625EB3CE0B9010E944A8195
:102480008BE492E19E012D5F3F4FB90149E150E09D
:102490000E94B97121E0009709F420E0222309F499
:1024A00087C08BE492E12AEC32E0B9010E9471828C
:1024B00089819A81AA2797FDA095BA2FBC01CD01E9
:1024C0000E94E98D8BE492E121EF32E0B9010E9494
:1024D000718289819A81AA2797FDA095BA2FBC01A4
:1024E000CD010E94E98D8BE492E127E133E0B9014F
:1024F0000E94718289819A81AA2797FDA095BA2F9F
:10250000BC01CD010E94E98D8BE492E12BE333E025
:10251000B9010E94718289819A81AA2797FDA095AD
:10252000BA2FBC01CD010E94E98D8BE492E120E439
:1025300033E0B9010E9420828BE492E12889398935
:10254000B9010E945E828BE492E129E533E0B90192
:102550000E9471828BE492E12A893B89B9010E9431
:102560005E828BE492E12AE533E0B9010E94718238
:102570008BE492E12EE633E0B9010E9471828BE494
:1025800092E120E733E0B9010E94718289819A814A
:10259000AA2797FDA095BA2FBC01CD010E94E98D15
:1025A0008BE492E10E9436828BE492E10E94977361
:1025B00063960FB6F894DEBF0FBECDBFCF91DF910B
:1025C0000895DF93CF93CDB7DEB7A3970FB6F894F6
:1025D000DEBF0FBECDBFCE01469625E733E0B90181
:1025E0000E94AA85CE0146960E946A11CE014696A7
:1025F0000E94388588E592E10E94410860E00E94CF
:1026000022908FEF9FEF9093D6118093D511109267
:10261000E1110E94EA16CE014D9629E833E0B90196
:102620000E94AA85CE010F9624EA33E0B9010E94E8
:10263000AA85CE0108969E01235E3F4FB9010E94F4
:10264000E085CE010F969E01285F3F4FB9010E94A1
:102650001812CE0108960E943885CE010F960E946E
:1026600038859E01235E3F4FCE010196B9010E943D
:10267000E085CE0101960E946A11CE0101960E946A
:102680003885CE014D960E943885A3960FB6F894F2
:10269000DEBF0FBECDBFCF91DF910895DF93CF9303
:1026A000CDB7DEB7A3970FB6F894DEBF0FBECDBF90
:1026B000CE01469629EB33E0B9010E94AA85CE01EE
:1026C00046960E946A11CE0146960E94388588E59A
:1026D00092E10E94560560E00E9422908FEF9FEFEA
:1026E00090939D0C80939C0C1092E2110E94EA162C
:1026F000CE014D9620ED33E0B9010E94AA85CE01AE
:102700000F962FEE33E0B9010E94AA85CE010896FC
:102710009E01235E3F4FB9010E94E085CE010F96D6
:102720009E01285F3F4FB9010E941812CE01089602
:102730000E943885CE010F960E9438859E01235E47
:102740003F4FCE010196B9010E94E085CE0101966E
:102750000E946A11CE0101960E943885CE014D96E5
:102760000E943885A3960FB6F894DEBF0FBECDBF8A
:10277000CF91DF910895DF93CF93CDB7DEB788E592
:1027800092E10E94DD0760E00E942290CF91DF91EC
:102790000895DF93CF93CDB7DEB788E592E10E942D
:1027A000DD0761E00E942290CF91DF910895DF93D1
:1027B000CF93CDB7DEB788E592E10E94440561E092
:1027C0000E942290CF91DF910895DF93CF93CDB7F0
:1027D000DEB788E592E10E94440560E00E94229005
:1027E000CF91DF910895DF93CF93CDB7DEB788E522
:1027F00092E10E940F0861E00E942290CF91DF9148
:102800000895DF93CF93CDB7DEB788E592E10E94BC
:102810000F0860E00E942290CF91DF910895DF932E
:10282000CF93CDB7DEB7A3970FB6F894DEBF0FBE38
:10283000CDBFCE01469623E034E0B9010E94AA85BF
:10284000CE0146960E946A11CE0146960E943885B6
:102850000E94BB131092E9118FEF9FEF9093E41148
:102860008093E311CE014D9624E134E0B9010E943A
:10287000AA85CE010F962FE234E0B9010E94AA8505
:10288000CE0108969E01235E3F4FB9010E94E0856C
:10289000CE010F969E01285F3F4FB9010E9418128A
:1028A000CE0108960E943885CE010F960E94388589
:1028B0009E01235E3F4FCE010196B9010E94E08543
:1028C000CE0101960E946A11CE0101960E943885C0
:1028D000CE014D960E943885A3960FB6F894DEBFC0
:1028E0000FBECDBFCF91DF910895DF93CF93CDB7CA
:1028F000DEB7A7970FB6F894DEBF0FBECDBFCE01EF
:102900004A9621E434E0B9010E94AA85CE014A9694
:102910000E946A11CE014A960E94388580919E0CD1
:10292000882309F07BC081E08093E9110E94C913DC
:1029300088E592E10E941B06AA2797FDA095BA2F71
:1029400020E63AEE40E050E0BC01CD010E949B92AF
:10295000DC01CB0189839A83AB83BC838DE091E159
:1029600029813A814B815C81EFE0F4E1BA01A90150
:102970009F010E944C499093E4118093E311CE0192
:10298000819623E534E0B9010E94AA85CE014396E1
:102990002EE634E0B9010E94AA85CE010C969E0174
:1029A0002F5D3F4FB9010E94E085CE0143969E0105
:1029B000245F3F4FB9010E941812CE010C960E946D
:1029C0003885CE0143960E943885CE0105969E013A
:1029D0002F5D3F4FB9010E94E085CE0105960E9410
:1029E0006A11CE0105960E9438858FE892E10E9417
:1029F000E40F882F90E09093E6118093E5118FE823
:102A000092E10E94F50F882F90E09093E811809357
:102A1000E711CE0181960E94388501C00000A7967B
:102A20000FB6F894DEBF0FBECDBFCF91DF910895F2
:102A3000DF93CF93CDB7DEB7AF970FB6F894DEBF75
:102A40000FBECDBF9DA78CA77FA76EA7CE014E96C8
:102A500026E834E0B9010E94AA85CE014E960E9474
:102A60006A11CE014E960E94388580919E0C882373
:102A700009F074C18091DF11882309F071C181E0F0
:102A80008093DF1181E08093E21181E08093E11176
:102A90008CA59DA59093D8118093D7118EA59FA545
:102AA0009093DA118093D91188E592E10E9468052C
:102AB000AA2797FDA095BA2F20E63AEE40E050E015
:102AC000BC01CD010E949B92DC01CB0189839A83DA
:102AD000AB83BC8388E592E10E947A05AC0128EEC5
:102AE00033E0429FC001439F900D529F900D1124EF
:102AF000AA2797FDA095BA2F29813A814B815C8145
:102B0000820F931FA41FB51F89839A83AB83BC8355
:102B100088E592E10E948C05AA2797FDA095BA2F1F
:102B200020E63AEE40E050E0BC01CD010E949B92CD
:102B3000DC01CB018D839E83AF83B88788E592E16A
:102B40000E949E05AC0128EE33E0429FC001439FE6
:102B5000900D529F900D1124AA2797FDA095BA2F92
:102B60002D813E814F815885820F931FA41FB51F71
:102B70008D839E83AF83B8878DE091E129813A816F
:102B80004B815C81E1EEF2E1BA01A9019F010E9453
:102B90004C499093D6118093D5118DE091E12D8110
:102BA0003E814F815885EEE4F3E1BA01A9019F010E
:102BB0000E944C4990939D0C80939C0C88E592E177
:102BC0000E94410861E00E94229088E592E10E9403
:102BD000560561E00E942290CE01859629E934E0F5
:102BE000B9010E94AA85CE0185962CA53DA5B90103
:102BF0000E949687CE01859623EB34E0B9010E94AE
:102C0000448788E592E10E948C059C01CE0185965F
:102C1000B9010E949687CE01859621ED34E0B90175
:102C20000E94448788E592E10E949E059C01CE01A6
:102C30008596B9010E949687CE01859623ED34E0F2
:102C4000B9010E94448788E592E10E9468059C01D1
:102C5000CE018596B9010E949687CE01859621ED19
:102C600034E0B9010E94448788E592E10E947A0528
:102C70009C01CE018596B9010E949687CE0185966A
:102C80002AEE34E0B9010E9444872091D511309199
:102C9000D611CE018596B9010E949687CE01859600
:102CA0002DEF34E0B9010E94448720919C0C3091B3
:102CB0009D0CCE018596B9010E949687CE0185961E
:102CC0002FE035E0B9010E944487CE0185962EA5FC
:102CD0003FA5B9010E949687CE01859629E135E08E
:102CE000B9010E944487CE0185962BEA32E1B901F1
:102CF0000E943C87CE01479626E235E0B9010E944A
:102D0000AA85CE0140969E012B5D3F4FB9010E94DE
:102D1000E085CE0147969E01205F3F4FB9010E949A
:102D20001812CE0140960E943885CE0147960E9427
:102D30003885CE0109969E012B5D3F4FB9010E9457
:102D4000E085CE0109960E946A11CE0109960E9483
:102D50003885CE0185960E94388503C0000001C0E9
:102D60000000AF960FB6F894DEBF0FBECDBFCF9177
:102D7000DF910895DF93CF93CDB7DEB727970FB6D6
:102D8000F894DEBF0FBECDBF29E335E0CE0101963A
:102D9000B9010E94AA85CE0101960E946A11CE0156
:102DA00001960E94388580919E0C882349F488E51D
:102DB00092E10E94D40561E070E00E94181501C004
:102DC000000027960FB6F894DEBF0FBECDBFCF919F
:102DD000DF910895DF93CF93CDB7DEB7A5970FB6F8
:102DE000F894DEBF0FBECDBFCE01489620E535E09A
:102DF000B9010E94AA85CE0148960E946A11CE01AF
:102E000048960E9438859091E11181E089278823B6
:102E100009F4B0C09091E21181E08927882309F478
:102E2000A9C02091D7113091D8118091D9119091DA
:102E3000DA1182179307ACF48091D9119091DA11CD
:102E400001969093DA118093D9118091D7119091C6
:102E5000D8112091D9113091DA11B9010E941815B9
:102E600089C08091D7119091D8119A83898310924B
:102E7000DF118FE892E10E94E40F882F90E0909399
:102E8000DC118093DB118FE892E10E94F50F882F0F
:102E900090E09093DE118093DD111092DA11109280
:102EA000D9111092D8111092D711CE014F962CE65D
:102EB00035E0B9010E94AA85CE014F9629813A8159
:102EC000B9010E949687CE014F9625EB32E0B901F9
:102ED0000E94448789819A81823091051CF022E802
:102EE00035E002C02AE835E0CE014F96B9010E94D4
:102EF0004487CE014F9621E935E0B9010E9444870D
:102F0000CE014F962BEA32E1B9010E943C87CE01F7
:102F1000419626E235E0B9010E94AA85CE010A96C3
:102F20009E01215E3F4FB9010E94E085CE0141968E
:102F30009E01265F3F4FB9010E941812CE010A96EA
:102F40000E943885CE0141960E943885CE010396B5
:102F50009E01215E3F4FB9010E94E085CE0103969C
:102F60000E946A11CE0103960E943885CE014F96C9
:102F70000E943885A5960FB6F894DEBF0FBECDBF70
:102F8000CF91DF910895DF93CF93CDB7DEB7299727
:102F90000FB6F894DEBF0FBECDBF2EEA35E0CE01EE
:102FA0000196B9010E94AA85CE0101960E946A117C
:102FB000CE0101960E94388580917016909171160D
:102FC000009761F49E01285F3F4F84E796E1A901D5
:102FD000481B590BCA01998788870DC09E01285F3D
:102FE0003F4F8091701690917116A901481B590BA3
:102FF000CA01998788878885998529960FB6F8949C
:10300000DEBF0FBECDBFCF91DF910895DF93CF9389
:10301000CDB7DEB727970FB6F894DEBF0FBECDBF92
:1030200020EC35E0CE010196B9010E94AA85CE01BF
:1030300001960E946A11CE0101960E9438858BE0AC
:1030400092E10E94E00C8AE192E10E94010F89E284
:1030500092E10E94BE0A88E592E10E94B708279695
:103060000FB6F894DEBF0FBECDBFCF91DF910895AC
:10307000DF93CF93CDB7DEB76E970FB6F894DEBF70
:103080000FBECDBF88E592E10E9473080E945A905E
:103090009A8389838091FF109091001129813A8150
:1030A0002817390761F00E94B58DDC01CB018093B0
:1030B000011190930211A0930311B09304110E9487
:1030C000B58D9B01AC018091011190910211A091ED
:1030D0000311B0910411281B390B4A0B5B0B809133
:1030E000980C9091990CA0919A0CB0919B0C61E076
:1030F00082179307A407B50708F060E0662331F054
:1031000089819A819093FE108093FD108091FD102B
:103110009091FE10009709F052C08091E011882331
:1031200009F44DC00E94BB131092E011CE014896E5
:103130002FEC35E0B9010E94AA8588E592E10E9452
:103140003305882349F00E94D713CE0148962BEE11
:1031500035E0B9010E94600FCE01419621E036E0D2
:10316000B9010E94AA85CE010A969E01285E3F4FB2
:10317000B9010E94E085CE0141969E01265F3F4F36
:10318000B9010E941812CE010A960E943885CE011C
:1031900041960E943885CE0103969E01285E3F4FDE
:1031A000B9010E94E085CE0103960E946A11CE010A
:1031B00003960E943885CE0148960E943885898101
:1031C0009A81909300118093FF106E960FB6F89439
:1031D000DEBF0FBECDBFCF91DF910895DF93CF93B8
:1031E000CDB7DEB76E970FB6F894DEBF0FBECDBF7A
:1031F00088E592E10E94A5080E945A909A838983EB
:10320000809107119091081129813A812817390777
:1032100061F00E94B58DDC01CB0180930911909380
:103220000A11A0930B11B0930C110E94B58D9B0154
:10323000AC018091091190910A11A0910B11B091EC
:103240000C11281B390B4A0B5B0B8091980C909149
:10325000990CA0919A0CB0919B0C61E08217930796
:10326000A407B50708F060E0662331F089819A81F0
:10327000909306118093051180910511909106118C
:103280008130910509F05FC090919E0C81E0892703
:10329000882309F458C0CE01489629E533E0B901E6
:1032A0000E94AA8588E592E10E942205882361F0A8
:1032B0000E94F31381E08093E011CE0148962DE146
:1032C00036E0B9010E94600F0E94E51381E080930F
:1032D0009E0CCE01489628E336E0B9010E94600FAB
:1032E000CE0141962FE436E0B9010E94AA85CE01B5
:1032F0000A969E01285E3F4FB9010E94E085CE01EB
:1033000041969E01265F3F4FB9010E941812CE01DF
:103310000A960E943885CE0141960E943885CE01DA
:1033200003969E01285E3F4FB9010E94E085CE01C1
:1033300003960E946A11CE0103960E943885CE0141
:1033400048960E94388589819A81909308118093CC
:1033500007116E960FB6F894DEBF0FBECDBFCF91AA
:10336000DF910895DF93CF930F920F92CDB7DEB721
:103370009A83898389819A810E9438850F900F9062
:10338000CF91DF910895DF93CF9300D00F92CDB707
:10339000DEB79A8389837C836B838B819C81FC015C
:1033A0002281338189819A81FC013383228389813F
:1033B0009A810F900F900F900F90CF91DF91089509
:1033C000DF93CF9300D00F92CDB7DEB79A83898376
:1033D0007C836B8389819A812B813C81B9010E9416
:1033E000C3198B819C81FC0184819581A681B78161
:1033F00029813A81F90184839583A683B7838B81E0
:103400009C81FC0180859185A285B38529813A81C3
:10341000F90180879187A287B38789819A810F906C
:103420000F900F900F90CF91DF910895DF93CF937E
:1034300000D00F92CDB7DEB79A8389837C836B83EC
:1034400089819A812B813C81B9010E94E01989818F
:103450009A810F900F900F900F90CF91DF91089568
:10346000DF93CF9300D00F92CDB7DEB79A838983D5
:103470007C836B8389819A812B813C81B9010E9475
:10348000161A8B819C81FC01248589819A81FC011B
:10349000248789819A810F900F900F900F90CF9180
:1034A000DF9108950F931F93DF93CF93CDB7DEB7CE
:1034B000CE5CD5400FB6F894DEBF0FBECDBF8DE019
:1034C00091E10E94F34ACE018D539A4F0E940B3531
:1034D0009E012D533A4F8FE892E14CE0F9010080B4
:1034E0002F5F3F4FFC010082019641504423B1F70A
:1034F0008FE892E10E94E40F282FCE018F579B4F57
:10350000622F4AE00E94C586CE0188579B4F9E01DC
:103510002F573B4FB9010E949F0FCE0188579B4FF9
:103520002BE636E0B9010E946F888C018FE892E1AA
:103530000E94F50F282FCE0186589B4F622F4AE03C
:103540000E94C5869E0126583B4FC801B9010E94C2
:103550005C882BE636E0B9010E946F888C018FE809
:1035600092E10E94CF0F9C01CE018D589B4FB90173
:103570004AE00E9465869E012D583B4FC801B90163
:103580000E945C889C018DE992E1B9010E94C58589
:10359000CE018D589B4F0E943885CE0186589B4F97
:1035A0000E943885CE0188579B4F0E94B219CE01E8
:1035B0008F579B4F0E9438858FE892E10E9406103A
:1035C000282FCE018B599B4F622F4AE00E94C5865F
:1035D000CE0184599B4F9E012B593B4FB9010E944C
:1035E0009F0FCE0184599B4F21ED34E0B9010E9419
:1035F0006F888C018FE892E10E941710282FCE016E
:10360000825A9B4F622F4AE00E94C5869E01225A31
:103610003B4FC801B9010E945C8821ED34E0B9013B
:103620000E946F888C018FE892E10E942810282F59
:10363000CE01895A9B4F622F4AE00E94C5869E01A7
:10364000295A3B4FC801B9010E945C889C0184EA59
:1036500092E1B9010E94C585CE01895A9B4F0E9413
:103660003885CE01825A9B4F0E943885CE018459FD
:103670009B4F0E94B219CE018B599B4F0E943885F7
:10368000CE01805B9B4F2DE932E1B9010E949F0F73
:10369000CE01805B9B4F25EB32E0B9010E946F8821
:1036A00024EA32E1B9010E945C889C018BEA92E134
:1036B000B9010E94C585CE01805B9B4F0E94B21963
:1036C00088E592E10E941105882341F090919E0CBB
:1036D00081E08927882311F081E001C080E0882300
:1036E00009F467C08FE892E10E94F50F282F30E0BF
:1036F0008091DD119091DE1141E02817390709F022
:1037000040E04B838FE892E10E940610082F10E002
:1037100088E592E10E94B00521E00817190709F039
:1037200020E02C838FE892E10E94E40F282F30E004
:103730008091DB119091DC1128173907ACF18FE8EB
:1037400092E10E94F50F282F30E08091DD119091D9
:10375000DE112817390741F18B81882369F08FE842
:1037600092E10E940610082F10E088E592E10E9485
:10377000B00508171907C4F08C81882369F08FE819
:1037800092E10E941710082F10E088E592E10E9454
:10379000C2050817190744F09091DF1181E08927CD
:1037A000882311F081E001C080E0882311F00E949D
:1037B000BA1688E592E10E940A06882341F09091AA
:1037C0009E0C81E08927882311F081E001C080E010
:1037D000882309F451C08FE892E10E94F50F282F49
:1037E00030E08091E7119091E81141E02817390706
:1037F00009F040E04D838FE892E10E940610982F77
:1038000081E09E3009F080E08E838FE892E10E9493
:10381000E40F282F30E08091E5119091E6112817F0
:1038200039072CF18FE892E10E94F50F282F30E044
:103830008091E7119091E81128173907C1F08D8127
:10384000882331F08FE892E10E9406108E3078F0E4
:103850008E81882321F08FE892E10E9417109091C9
:10386000E91181E08927882311F081E001C080E01F
:10387000882311F00E9475140E943818CE018D5BC8
:103880009B4F28E332E1B9010E9471768EE392E109
:103890009E012D5B3B4FB9010E94301A1A8219829A
:1038A0008BE89FE0FC01208131818EE392E1F901F8
:1038B0001995882311F40C94C72E1A8219820C943E
:1038C000B02E8EE392E10E94D47221E0009709F4B9
:1038D00020E0222311F40C94B02E8EE392E10E949A
:1038E000F3728F838F818A30C9F08F818D30B1F070
:1038F00089819A818F3F91058CF49E012C533B4F17
:1039000089819A81820F931F2F81FC0120838981F5
:103910009A8101969A8389830C94B02E8EE392E16A
:103920000E946973CE0181579B4F9E012C533B4FE0
:10393000B9010E94AA85CE0181579B4F60E20E9487
:103940007D8A9C01CE018A569B4FAE0141575B4F49
:10395000BA0140E050E00E943C8BCE0181579B4F62
:103960006FE20E947D8A8C01CE0181579B4F6FE2EE
:103970000E947D8A9C01CE0181579B4F60E2A90184
:103980000E945F8A9C01CE01845C9B4FAE0141572F
:103990005B4FBA01A8010E943C8BCE0181579B4F1F
:1039A0009E01245C3B4FB9010E94C585CE01845C19
:1039B0009B4F0E943885CE0181579B4F9E012C530F
:1039C0003B4FB9014FEF50E020E030E00E947A0F0A
:1039D000CE018C539B4F2BE636E0B9010E9418961E
:1039E000998788872BE636E080E090E0B9010E9455
:1039F00018969B878A872BE636E080E090E0B90135
:103A00000E9418969D878C872BE636E080E090E038
:103A1000B9010E9418969F878E8786EF90E12885CE
:103A20003985B9010E942489982F81E0992309F0F2
:103A300080E0882341F1CE018B5C9B4F2DE636E080
:103A4000B9010E94AA85CE01825D9B4F27E736E02F
:103A5000B9010E94AA85AE014B5C5B4F9E01225DBD
:103A60003B4F83E991E0BA01A9010E94CA11CE013E
:103A7000825D9B4F0E943885CE018B5C9B4F0E94DC
:103A800038850C94A52ECE0183569B4FFC011082E5
:103A900011821282138220E10496FC01322F1192CE
:103AA0003A95E9F7CE018F549B4F29E533E0B901F0
:103AB0000E94AA858C859D850E94BB95998B888BD9
:103AC0008C859D85009709F4BBC18A859B852AE872
:103AD00036E0B9014BE050E00E946796009749F448
:103AE0008C859D850E94BB9561E070E00E94181551
:103AF00015C08A859B8526E936E0B9014BE050E088
:103B00000E946796009751F48C859D850E94BB9515
:103B100021E0009709F420E020939E0C8E859F857C
:103B2000009709F476C0888961E00E94FE8F8A853B
:103B30009B8522EA36E0B90147E050E00E94679693
:103B40000097F9F48E859F852AEA36E0B90144E0B2
:103B500050E00E946796009721F4888961E00E94F6
:103B600022908E859F852FEA36E0B90143E050E030
:103B70000E946796009791F5888960E00E942290E4
:103B80002DC08A859B8523EB36E0B90146E050E0E5
:103B90000E946796009759F418898E859F850E9428
:103BA000BB959C01812FB9010E94AF8E17C08A85F9
:103BB0009B852AEB36E0B90146E050E00E9467960B
:103BC000009761F48E859F850E94BB95482F83ECFA
:103BD00093E128893989B9010E941A7C8EE392E128
:103BE00021EC36E0B9010E9471828EE392E12FE56B
:103BF00032E0B9010E9471828EE392E127E732E060
:103C0000B9010E9471828EE392E10E9436820C9487
:103C1000A02E8A859B852AEB36E0B90146E050E06C
:103C20000E946796009739F583EC93E128893989DA
:103C3000B9010E94057C282F30E000D000D08DB75C
:103C40009EB70196AE0143565B4FFC015183408302
:103C500041ED56E0FC0153834283FC01358324830C
:103C60000E947D978DB79EB706960FB6F8949EBFBB
:103C70000FBE8DBF92C08A859B8524ED36E0B901C9
:103C800044E050E00E946796009731F588EF91E19B
:103C90000E94073B888999898130910509F07DC090
:103CA00088EF91E12FE93CE0B9010E940D3EDC0173
:103CB000CB018A8B9B8BAC8BBD8B8A899B89AC8912
:103CC000BD89FE01E356FB4FBC01CD0142E022E07D
:103CD0008F010E942E9361C08A859B8523EB36E07D
:103CE000B90146E050E00E946796009711F5888977
:103CF0000E947C8E9C0100D000D08DB79EB70196AB
:103D0000AE0143565B4FFC015183408341ED56E0C9
:103D1000FC0153834283FC01358324830E947D97F9
:103D20008DB79EB706960FB6F8949EBF0FBE8DBF97
:103D300034C08A859B8522EA36E0B90147E050E02D
:103D40000E946796009749F58C859D850E94BB95DA
:103D50009F8B8E8B8E890E945A90998F888F888D29
:103D6000998D1816190654F0CE0183569B4F2FEAF1
:103D700036E0B90144E050E00E942A96888D998D82
:103D80001816190654F4CE0183569B4F2AEA36E0E2
:103D9000B90145E050E00E942A96CE018F549B4F16
:103DA00029ED36E0B9010E94600FCE018F549B4F80
:103DB0002C853D85B9010E94600FCE018F549B4F29
:103DC0002CED36E0B9010E94600FCE018F549B4F5D
:103DD0009E0123563B4FB9010E94600FCE018F54C4
:103DE0009B4F20EE36E0B9010E94600F8EE392E116
:103DF00021EC36E0B9010E9471828EE392E12FE559
:103E000032E0B9010E9471828EE392E123EE36E046
:103E1000B9010E9471828EE392E127E732E0B90195
:103E20000E9471828EE392E10E9436828EE392E1DB
:103E30009E012F543B4FB9010E945E820C94A02E2C
:103E40008A859B8522E037E0B90146E050E00E9478
:103E50006796009709F029C3CE018F549B4F29E044
:103E600037E0B9010E94600FCE01895D9B4F2BE0C6
:103E700037E0B9010E94B70FCE01805E9B4F2BE067
:103E800032E1B9010E94090DCE01895D9B4F9E016F
:103E9000205E3B4FB9010E945C8829E137E0B901FF
:103EA0000E946F889C01CE018F549B4FB9010E94E4
:103EB000460FCE01805E9B4F0E943885CE01895D02
:103EC0009B4F0E94B219CE01875E9B4F2DE137E0D8
:103ED000B9010E94B70FCE018E5E9B4F2AE132E1FD
:103EE000B9010E942A0FCE01875E9B4F9E012E5E74
:103EF0003B4FB9010E945C8829E137E0B9010E947B
:103F00006F889C01CE018F549B4FB9010E94460FD0
:103F1000CE018E5E9B4F0E943885CE01875E9B4FFF
:103F20000E94B219CE01855F9B4F29E237E0B901AB
:103F30000E94B70FCE018C5F9B4F29E232E1B9019D
:103F40000E94E70ACE01855F9B4F9E012C5F3B4F8D
:103F5000B9010E945C8829E137E0B9010E946F88AD
:103F60009C01CE018F549B4FB9010E94460FCE0198
:103F70008C5F9B4F0E943885CE01855F9B4F0E94CE
:103F8000B219CE0183509C4F25E337E0B9010E945E
:103F9000B70F0E94C3179C01CE018A509C4FB901F4
:103FA0004AE00E949586CE0183509C4F9E012A5084
:103FB0003C4FB9010E945C8829E137E0B9010E94B9
:103FC0006F889C01CE018F549B4FB9010E94460F10
:103FD000CE018A509C4F0E943885CE0183509C4F61
:103FE0000E94B219CE0181519C4F29E437E0B901FA
:103FF0000E94B70F0E94B58D9B01AC01CE01885184
:104000009C4FBA01A9012AE00E940386CE0181518A
:104010009C4F9E0128513C4FB9010E945C8829E1C8
:1040200037E0B9010E946F889C01CE018F549B4FED
:10403000B9010E94460FCE0188519C4F0E943885DD
:10404000CE0181519C4F0E94B219CE018F519C4FDD
:1040500024E537E0B9010E94B70F8FE892E10E9492
:104060000610282FCE0186529C4F622F4AE00E94F4
:10407000C586CE018F519C4F9E0126523C4FB901FF
:104080000E945C8829E137E0B9010E946F889C0199
:10409000CE018F549B4FB9010E94460FCE0186522C
:1040A0009C4F0E943885CE018F519C4F0E94B219BF
:1040B000CE018D529C4F2EE537E0B9010E94B70F1B
:1040C0008FE892E10E941710282FCE0184539C4F55
:1040D000622F4AE00E94C586CE018D529C4F9E0100
:1040E00024533C4FB9010E945C8829E137E0B901B3
:1040F0000E946F889C01CE018F549B4FB9010E9492
:10410000460FCE0184539C4F0E943885CE018D52BC
:104110009C4F0E94B219CE018B539C4F2AE637E088
:10412000B9010E94B70F8FE892E10E942810282F52
:10413000CE0182549C4F622F4AE00E94C586CE0178
:104140008B539C4F9E0122543C4FB9010E945C88C6
:1041500029E137E0B9010E946F889C01CE018F549C
:104160009B4FB9010E94460FCE0182549C4F0E9482
:104170003885CE018B539C4F0E94B219CE018954D1
:104180009C4F26E737E0B9010E94B70F8FE892E114
:104190000E943333282FCE0180559C4F622F4AE076
:1041A0000E94C586CE0189549C4F9E0120553C4FEC
:1041B000B9010E945C8829E137E0B9010E946F884B
:1041C0009C01CE018F549B4FB9010E94460FCE0136
:1041D00080559C4F0E943885CE0189549C4F0E9487
:1041E000B219CE0187559C4F24E837E0B9010E94EF
:1041F000B70F8FE892E10E94F50F282FCE018E5560
:104200009C4F622F4AE00E94C586CE0187559C4F85
:104210009E012E553C4FB9010E945C8829E137E090
:10422000B9010E946F889C01CE018F549B4FB90148
:104230000E94460FCE018E559C4F0E943885CE01BC
:1042400087559C4F0E94B219CE0185569C4F2CE891
:1042500037E0B9010E94B70F8FE892E10E94E40FA6
:10426000282FCE018C569C4F622F4AE00E94C586B3
:10427000CE0185569C4F9E012C563C4FB9010E94A1
:104280005C8829E137E0B9010E946F889C01CE016A
:104290008F549B4FB9010E94460FCE018C569C4F04
:1042A0000E943885CE0185569C4F0E94B219CE01DE
:1042B00083579C4F26E937E0B9010E94B70F8FE87A
:1042C00092E10E94CF0F9C01CE018A579C4FB90109
:1042D0004AE00E946586CE0183579C4F9E012A5773
:1042E0003C4FB9010E945C8829E137E0B9010E9486
:1042F0006F889C01CE018F549B4FB9010E94460FDD
:10430000CE018A579C4F0E943885CE0183579C4F1F
:104310000E94B219CE0181589C4F2FE937E0B901B4
:104320000E94B70F8FE892E10E9439109C01CE01E4
:1043300088589C4FB9014AE00E949586CE01815869
:104340009C4F9E0128583C4FB9010E945C8829E18E
:1043500037E0B9010E946F889C01CE018F549B4FBA
:10436000B9010E94460FCE0188589C4F0E943885A3
:10437000CE0181589C4F0E94B219CE018F589C4F9C
:1043800029EA37E0B9010E94B70F20919B123091C2
:104390009C12CE0186599C4FB9014AE00E94958635
:1043A000CE018F589C4F9E0126593C4FB9010E9467
:1043B0005C8829E137E0B9010E946F889C01CE0139
:1043C0008F549B4FB9010E94460FCE0186599C4FD6
:1043D0000E943885CE018F589C4F0E94B219CE01A1
:1043E0008D599C4F27EB37E0B9010E94B70FCE01E2
:1043F000845A9C4F64E14AE00E94C586CE018D59E3
:104400009C4F9E01245A3C4FB9010E945C8829E1CF
:1044100037E0B9010E946F889C01CE018F549B4FF9
:10442000B9010E94460FCE01845A9C4F0E943885E4
:10443000CE018D599C4F0E94B219CE018B5A9C4FD0
:104440002FEB37E0B9010E94B70FCE01825B9C4F82
:1044500065E14AE00E94C586CE018B5A9C4F9E01C1
:10446000225B3C4FB9010E945C8827EC37E0B90120
:104470000E946F889C01CE018F549B4FB9010E940E
:10448000460FCE01825B9C4F0E943885CE018B5A2D
:104490009C4F0E94B219CE018F549B4F2AEC37E0FB
:1044A000B9010E94600F0C94782E8A859B852CECB4
:1044B00037E0B90146E050E00E946796009709F0A6
:1044C0007CC688EF91E10E94073B88EF91E12FE9DC
:1044D0003CE0B9010E940D3EDC01CB018A8F9B8F2D
:1044E000AC8FBD8F8A8D9B8DAC8DBD8DFE01E85448
:1044F000FB4FBC01CD0142E022E08F010E942E93D0
:1045000088EF91E127EA3CE0B9010E940D3EDC0111
:10451000CB018E8F9F8FA8A3B9A38E8D9F8DA8A14D
:10452000B9A1FE01E254FB4FBC01CD0142E022E003
:104530008F010E942E93CE018F549B4F29E037E0CC
:10454000B9010E94600FCE01895B9C4F23ED37E0DB
:10455000B9010E94B70F88E592E10E944D060E94C2
:104560005A909C01CE01805C9C4FB9014AE00E94A8
:104570009586CE01895B9C4F9E01205C3C4FB90122
:104580000E945C8829E137E0B9010E946F889C0194
:10459000CE018F549B4FB9010E94460FCE01805C23
:1045A0009C4F0E943885CE01895B9C4F0E94B219B6
:1045B000CE01875C9C4F2FED37E0B9010E94B70F09
:1045C00088E592E10E947F060E945A909C01CE01EC
:1045D0008E5C9C4FB9014AE00E949586CE01875CB3
:1045E0009C4F9E012E5C3C4FB9010E945C8829E1E2
:1045F00037E0B9010E946F889C01CE018F549B4F18
:10460000B9010E94460FCE018E5C9C4F0E943885F6
:10461000CE01875C9C4F0E94B219CE01855D9C4FF4
:104620002BEE37E0B9010E94B70F88E592E10E94B6
:10463000B1060E945A909C01CE018C5D9C4FB9013D
:104640004AE00E949586CE01855D9C4F9E012C5DBF
:104650003C4FB9010E945C8829E137E0B9010E9412
:104660006F889C01CE018F549B4FB9010E94460F69
:10467000CE018C5D9C4F0E943885CE01855D9C4F9C
:104680000E94B219CE01835E9C4F27EF37E0B9013B
:104690000E94B70F88E592E10E94E3060E945A90BB
:1046A0009C01CE018A5E9C4FB9014AE00E9495862A
:1046B000CE01835E9C4F9E012A5E3C4FB9010E9451
:1046C0005C8829E137E0B9010E946F889C01CE0126
:1046D0008F549B4FB9010E94460FCE018A5E9C4FBA
:1046E0000E943885CE01835E9C4F0E94B219CE0194
:1046F000815F9C4F23E038E0B9010E94B70F88E545
:1047000092E10E9415070E945A909C01CE01885F99
:104710009C4FB9014AE00E949586CE01815F9C4F73
:104720009E01285F3C4FB9010E945C8829E137E077
:10473000B9010E946F889C01CE018F549B4FB90133
:104740000E94460FCE01885F9C4F0E943885CE01A3
:10475000815F9C4F0E94B219CE018F5F9C4F2FE06A
:1047600038E0B9010E94B70F88E592E10E9447073F
:104770000E945A909C01CE0186509D4FB9014AE09B
:104780000E949586CE018F5F9C4F9E0126503D4F23
:10479000B9010E945C8829E137E0B9010E946F8865
:1047A0009C01CE018F549B4FB9010E94460FCE0150
:1047B00086509D4F0E943885CE018F5F9C4F0E948E
:1047C000B219CE018D509D4F2BE138E0B9010E9406
:1047D000B70F88E592E10E9479070E945A909C01E8
:1047E000CE0184519D4FB9014AE00E949586CE01C9
:1047F0008D509D4F9E0124513D4FB9010E945C8810
:1048000029E137E0B9010E946F889C01CE018F54E5
:104810009B4FB9010E94460FCE0184519D4F0E94CB
:104820003885CE018D509D4F0E94B219CE018B511B
:104830009D4F27E238E0B9010E94B70F88E592E169
:104840000E94AB070E945A909C01CE0182529D4F5C
:10485000B9014AE00E949586CE018B519D4F9E0181
:1048600022523D4FB9010E945C8829E137E0B9012D
:104870000E946F889C01CE018F549B4FB9010E940A
:10488000460FCE0182529D4F0E943885CE018B513A
:104890009D4F0E94B219CE0189529D4F23E338E00B
:1048A000B9010E94B70F88E592E10E94DD070E94DE
:1048B0005A909C01CE0180539D4FB9014AE00E945D
:1048C0009586CE0189529D4F9E0120533D4FB901DF
:1048D0000E945C8829E137E0B9010E946F889C0141
:1048E000CE018F549B4FB9010E94460FCE018053D9
:1048F0009D4F0E943885CE0189529D4F0E94B2196A
:10490000CE0187539D4F2CE438E0B9010E94B70FC8
:1049100088E592E10E940F080E945A909C01CE0106
:104920008E539D4FB9014AE00E949586CE01875370
:104930009D4F9E012E533D4FB9010E945C8829E195
:1049400037E0B9010E946F889C01CE018F549B4FC4
:10495000B9010E94460FCE018E539D4F0E943885AB
:10496000CE0187539D4F0E94B219CE0185549D4FB1
:1049700026E638E0B9010E94B70F88E592E10E946F
:1049800041080E945A909C01CE018C549D4FB90160
:104990004AE00E949586CE0185549D4F9E012C547D
:1049A0003D4FB9010E945C8829E137E0B9010E94BE
:1049B0006F889C01CE018F549B4FB9010E94460F16
:1049C000CE018C549D4F0E943885CE0185549D4F59
:1049D0000E94B219CE0183559D4F20E838E0B901FD
:1049E0000E94B70F88E592E10E9473080E945A90D6
:1049F0009C01CE018A559D4FB9014AE00E949586DF
:104A0000CE0183559D4F9E012A553D4FB9010E940D
:104A10005C8829E137E0B9010E946F889C01CE01D2
:104A20008F549B4FB9010E94460FCE018A559D4F6E
:104A30000E943885CE0183559D4F0E94B219CE0148
:104A400081569D4F24E938E0B9010E94B70F88E5EF
:104A500092E10E94A5080E945A909C01CE018856BE
:104A60009D4FB9014AE00E949586CE0181569D4F27
:104A70009E0128563D4FB9010E945C8829E137E02C
:104A8000B9010E946F889C01CE018F549B4FB901E0
:104A90000E94460FCE0188569D4F0E943885CE0158
:104AA00081569D4F0E94B219CE018F569D4F28EA24
:104AB00038E0B9010E94B70FCE0186579D4F9E0185
:104AC00028543B4FB9010E94AA85CE018F569D4FB5
:104AD0009E0126573D4FB9010E945C8829E137E0CD
:104AE000B9010E946F889C01CE018F549B4FB90180
:104AF0000E94460FCE0186579D4F0E943885CE01F9
:104B00008F569D4F0E94B219CE018D579D4F2AEBB3
:104B100038E0B9010E94B70FCE0184589D4F9E0125
:104B200022543B4FB9010E94AA85CE018D579D4F5B
:104B30009E0124583D4FB9010E945C8829E137E06D
:104B4000B9010E946F889C01CE018F549B4FB9011F
:104B50000E94460FCE0184589D4F0E943885CE0199
:104B60008D579D4F0E94B219CE018B589D4F27EC57
:104B700038E0B9010E94B70F2091D7113091D811B8
:104B8000CE0182599D4FB9014AE00E949586CE011F
:104B90008B589D4F9E0122593D4FB9010E945C8860
:104BA00029E137E0B9010E946F889C01CE018F5442
:104BB0009B4FB9010E94460FCE0182599D4F0E9422
:104BC0003885CE018B589D4F0E94B219CE0189596C
:104BD0009D4F2AED38E0B9010E94B70F2091D911FD
:104BE0003091DA11CE01805A9D4FB9014AE00E94FE
:104BF0009586CE0189599D4F9E01205A3D4FB9019E
:104C00000E945C8829E137E0B9010E946F889C010D
:104C1000CE018F549B4FB9010E94460FCE01805A9E
:104C20009D4F0E943885CE0189599D4F0E94B2192F
:104C3000CE01875A9D4F26EE38E0B9010E94B70F8A
:104C40002091D5113091D611CE018E5A9D4FB901C8
:104C50004AE00E949586CE01875A9D4F9E012E5AAA
:104C60003D4FB9010E945C8829E137E0B9010E94FB
:104C70006F889C01CE018F549B4FB9010E94460F53
:104C8000CE018E5A9D4F0E943885CE01875A9D4F86
:104C90000E94B219CE01855B9D4F29EF38E0B90122
:104CA0000E94B70F20919C0C30919D0CCE018C5B23
:104CB0009D4FB9014AE00E949586CE01855B9D4FCC
:104CC0009E012C5B3D4FB9010E945C8829E137E0D1
:104CD000B9010E946F889C01CE018F549B4FB9018E
:104CE0000E94460FCE018C5B9D4F0E943885CE01FD
:104CF000855B9D4F0E94B219CE01835C9D4F2BE0D6
:104D000039E0B9010E94B70F2091DB113091DC111D
:104D1000CE018A5C9D4FB9014AE00E949586CE0182
:104D2000835C9D4F9E012A5C3D4FB9010E945C88C7
:104D300029E137E0B9010E946F889C01CE018F54B0
:104D40009B4FB9010E94460FCE018A5C9D4F0E9485
:104D50003885CE01835C9D4F0E94B219CE01815DE2
:104D60009D4F22E239E0B9010E94B70F2091DD1179
:104D70003091DE11CE01885D9D4FB9014AE00E945D
:104D80009586CE01815D9D4F9E01285D3D4FB90105
:104D90000E945C8829E137E0B9010E946F889C017C
:104DA000CE018F549B4FB9010E94460FCE01885D02
:104DB0009D4F0E943885CE01815D9D4F0E94B219A2
:104DC000CE018F5D9D4F27E339E0B9010E94B70FF7
:104DD0002091E3113091E411CE01865E9D4FB9011F
:104DE0004AE00E949586CE018F5D9D4F9E01265E12
:104DF0003D4FB9010E945C8829E137E0B9010E946A
:104E00006F889C01CE018F549B4FB9010E94460FC1
:104E1000CE01865E9D4F0E943885CE018F5D9D4FED
:104E20000E94B219CE018D5E9D4F29E439E0B9018F
:104E30000E94B70F2091E5113091E611CE01845FF9
:104E40009D4FB9014AE00E949586CE018D5E9D4F2F
:104E50009E01245F3D4FB9010E945C8829E137E043
:104E6000B9010E946F889C01CE018F549B4FB901FC
:104E70000E94460FCE01845F9D4F0E943885CE016F
:104E80008D5E9D4F0E94B219CE018B5F9D4F2DE527
:104E900039E0B9010E94B70F2091E7113091E81174
:104EA000CE0182509E4FB9014AE00E949586CE0104
:104EB0008B5F9D4F9E0122503E4FB9010E945C883E
:104EC00029E137E0B9010E946F889C01CE018F541F
:104ED0009B4FB9010E94460FCE0182509E4F0E9407
:104EE0003885CE018B5F9D4F0E94B219CE0189504B
:104EF0009E4F29EA37E0B9010E94B70F20919B121B
:104F000030919C12CE0180519E4FB9014AE00E941F
:104F10009586CE0189509E4F9E0120513E4FB9018A
:104F20000E945C8829E137E0B9010E946F889C01EA
:104F3000CE018F549B4FB9010E94460FCE01805184
:104F40009E4F0E943885CE0189509E4F0E94B21913
:104F5000CE0187519E4F2FE639E0B9010E94B70F6D
:104F60008091DF11282F30E0CE018E519E4FB90184
:104F70004AE00E949586CE0187519E4F9E012E5198
:104F80003E4FB9010E945C8829E137E0B9010E94D7
:104F90006F889C01CE018F549B4FB9010E94460F30
:104FA000CE018E519E4F0E943885CE0187519E4F73
:104FB0000E94B219CE0185529E4F29E839E0B9010D
:104FC0000E94B70F8091E911282F30E0CE018C525A
:104FD0009E4FB9014AE00E949586CE0185529E4FB0
:104FE0009E012C523E4FB9010E945C8829E137E0B6
:104FF000B9010E946F889C01CE018F549B4FB9016B
:105000000E94460FCE018C529E4F0E943885CE01E1
:1050100085529E4F0E94B219CE0183539E4F2EE9B6
:1050200039E0B9010E94B70F8091E011282F30E0DC
:10503000CE018A539E4FB9014AE00E949586CE0167
:1050400083539E4F9E012A533E4FB9010E945C88B4
:1050500029E137E0B9010E946F889C01CE018F548D
:105060009B4FB9010E94460FCE018A539E4F0E946A
:105070003885CE0183539E4F0E94B219CE018154D0
:105080009E4F2AEB39E0B9010E94B70F8091E211DF
:10509000282F30E0CE0188549E4FB9014AE00E948B
:1050A0009586CE0181549E4F9E0128543E4FB901F2
:1050B0000E945C8829E137E0B9010E946F889C0159
:1050C000CE018F549B4FB9010E94460FCE018854E8
:1050D0009E4F0E943885CE0181549E4F0E94B21986
:1050E000CE018F549E4F25ED39E0B9010E94B70FD4
:1050F0008091E111282F30E0CE0186559E4FB901F5
:105100004AE00E949586CE018F549E4F9E012655FF
:105110003E4FB9010E945C8829E137E0B9010E9445
:105120006F889C01CE018F549B4FB9010E94460F9E
:10513000CE0186559E4F0E943885CE018F549E4FDA
:105140000E94B219CE018D559E4F21EF39E0B90171
:105150000E94B70F80919E0C282F30E0CE0184561C
:105160009E4FB9014AE00E949586CE018D559E4F13
:105170009E0124563E4FB9010E945C8827EC37E01F
:10518000B9010E946F889C01CE018F549B4FB901D9
:105190000E94460FCE0184569E4F0E943885CE0154
:1051A0008D559E4F0E94B219CE018F549B4F2AEC11
:1051B00037E0B9010E94600F9BC58A859B852BE073
:1051C0003AE0B90146E050E00E946796009709F086
:1051D0006EC588E592E10E944D03CE018F549B4F2E
:1051E00029E037E0B9010E94600FCE018B569E4F37
:1051F00022E13AE0B9010E94B70F88E592E10E94EE
:105200001105282F30E0CE0182579E4FB9014AE0A8
:105210000E949586CE018B569E4F9E0122573E4F8F
:10522000B9010E945C8829E137E0B9010E946F88CA
:105230009C01CE018F549B4FB9010E94460FCE01B5
:1052400082579E4F0E943885CE018B569E4F0E94FA
:10525000B219CE0189579E4F2EE23AE0B9010E9461
:10526000B70F88E592E10E942205282F30E0CE0199
:1052700080589E4FB9014AE00E949586CE01895719
:105280009E4F9E0120583E4FB9010E945C8829E143
:1052900037E0B9010E946F889C01CE018F549B4F6B
:1052A000B9010E94460FCE0180589E4F0E9438855A
:1052B000CE0189579E4F0E94B219CE0187589E4F4A
:1052C0002BE43AE0B9010E94B70F88E592E10E9411
:1052D0003305282F30E0CE018E589E4FB9014AE0A9
:1052E0000E949586CE0187589E4F9E012E583E4FB4
:1052F000B9010E945C8829E137E0B9010E946F88FA
:105300009C01CE018F549B4FB9010E94460FCE01E4
:105310008E589E4F0E943885CE0187589E4F0E941E
:10532000B219CE0185599E4F26E63AE0B9010E9496
:10533000B70F88E592E10E9444059C01CE018C598B
:105340009E4FB9014AE00E949586CE0185599E4F35
:105350009E012C593E4FB9010E945C8829E137E03B
:10536000B9010E946F889C01CE018F549B4FB901F7
:105370000E94460FCE018C599E4F0E943885CE0167
:1053800085599E4F0E94B219CE01835A9E4F23E841
:105390003AE0B9010E94B70F88E592E10E945605F4
:1053A0009C01CE018A5A9E4FB9014AE00E9495861F
:1053B000CE01835A9E4F9E012A5A3E4FB9010E9448
:1053C0005C8829E137E0B9010E946F889C01CE0119
:1053D0008F549B4FB9010E94460FCE018A5A9E4FAF
:1053E0000E943885CE01835A9E4F0E94B219CE0189
:1053F000815B9E4F2EE93AE0B9010E94B70F88E524
:1054000092E10E9468059C01CE01885B9E4FB90124
:105410004AE00E949586CE01815B9E4F9E01285BEB
:105420003E4FB9010E945C8829E137E0B9010E9432
:105430006F889C01CE018F549B4FB9010E94460F8B
:10544000CE01885B9E4F0E943885CE01815B9E4FC6
:105450000E94B219CE018F5B9E4F28EB3AE0B90152
:105460000E94B70F88E592E10E947A059C01CE0167
:10547000865C9E4FB9014AE00E949586CE018F5B03
:105480009E4F9E01265C3E4FB9010E945C8829E137
:1054900037E0B9010E946F889C01CE018F549B4F69
:1054A000B9010E94460FCE01865C9E4F0E9438854E
:1054B000CE018F5B9E4F0E94B219CE018D5C9E4F34
:1054C00022ED3AE0B9010E94B70F88E592E10E940F
:1054D0008C059C01CE01845D9E4FB9014AE00E947B
:1054E0009586CE018D5C9E4F9E01245D3E4FB90195
:1054F0000E945C8829E137E0B9010E946F889C0115
:10550000CE018F549B4FB9010E94460FCE01845D9E
:105510009E4F0E943885CE018D5C9E4F0E94B2192D
:10552000CE018B5D9E4F2BEE3AE0B9010E94B70F82
:1055300088E592E10E949E059C01CE01825E9E4F0D
:10554000B9014AE00E949586CE018B5D9E4F9E0177
:10555000225E3E4FB9010E945C8829E137E0B90123
:105560000E946F889C01CE018F549B4FB9010E940D
:10557000460FCE01825E9E4F0E943885CE018B5D24
:105580009E4F0E94B219CE01895E9E4F24E03BE0FF
:10559000B9010E94B70F88E592E10E94B0059C0115
:1055A000CE01805F9E4FB9014AE00E949586CE01F0
:1055B000895E9E4F9E01205F3E4FB9010E945C882C
:1055C00029E137E0B9010E946F889C01CE018F5418
:1055D0009B4FB9010E94460FCE01805F9E4F0E94F3
:1055E0003885CE01895E9E4F0E94B219CE01875F39
:1055F0009E4F2CE13BE0B9010E94B70F88E592E194
:105600000E94C2059C01CE018E5F9E4FB9014AE007
:105610000E949586CE01875F9E4F9E012E5F3E4F72
:10562000B9010E945C8829E137E0B9010E946F88C6
:105630009C01CE018F549B4FB9010E94460FCE01B1
:105640008E5F9E4F0E943885CE01875F9E4F0E94DD
:10565000B219CE0185509F4F27E33BE0B9010E946C
:10566000B70F88E592E10E94D4059C01CE018C50D1
:105670009F4FB9014AE00E949586CE0185509F4F09
:105680009E012C503F4FB9010E945C8829E137E010
:10569000B9010E946F889C01CE018F549B4FB901C4
:1056A0000E94460FCE018C509F4F0E943885CE013C
:1056B00085509F4F0E94B219CE0183519F4F22E522
:1056C0003BE0B9010E94B70F88E592E10E940A060B
:1056D000282F30E0CE018A519F4FB9014AE00E9445
:1056E0009586CE0183519F4F9E012A513F4FB901AC
:1056F0000E945C8829E137E0B9010E946F889C0113
:10570000CE018F549B4FB9010E94460FCE018A51A2
:105710009F4F0E943885CE0183519F4F0E94B2193E
:10572000CE0181529F4F21E63BE0B9010E94B70FA5
:1057300088E592E10E941B069C01CE0188529F4F92
:10574000B9014AE00E949586CE0181529F4F9E0189
:1057500028523F4FB9010E945C8829E137E0B90126
:105760000E946F889C01CE018F549B4FB9010E940B
:10577000460FCE0188529F4F0E943885CE0181523C
:105780009F4F0E94B219CE018F529F4F24E73BE0FA
:10579000B9010E94B70F88E592E10E944D069C0175
:1057A000CE0186539F4FB9014AE00E949586CE01F3
:1057B0008F529F4F9E0126533F4FB9010E945C8834
:1057C00029E137E0B9010E946F889C01CE018F5416
:1057D0009B4FB9010E94460FCE0186539F4F0E94F6
:1057E0003885CE018F529F4F0E94B219CE018D5342
:1057F0009F4F23E83BE0B9010E94B70F88E592E193
:105800000E947F069C01CE0184549F4FB9014AE05B
:105810000E949586CE018D539F4F9E0124543F4F89
:10582000B9010E945C8829E137E0B9010E946F88C4
:105830009C01CE018F549B4FB9010E94460FCE01AF
:1058400084549F4F0E943885CE018D539F4F0E94F4
:10585000B219CE018B549F4F22E93BE0B9010E945F
:10586000B70F88E592E10E94B1069C01CE018255F6
:105870009F4FB9014AE00E949586CE018B549F4FFD
:105880009E0122553F4FB9010E945C8829E137E013
:10589000B9010E946F889C01CE018F549B4FB901C2
:1058A0000E94460FCE0182559F4F0E943885CE013F
:1058B0008B549F4F0E94B219CE0189559F4F21EA08
:1058C0003BE0B9010E94B70F88E592E10E94E30630
:1058D0009C01CE0180569F4FB9014AE00E949586F7
:1058E000CE0189559F4F9E0120563F4FB9010E941E
:1058F0005C8829E137E0B9010E946F889C01CE01E4
:105900008F549B4FB9010E94460FCE0180569F4F86
:105910000E943885CE0189559F4F0E94B219CE0151
:1059200087569F4F20EB3BE0B9010E94B70F88E5F7
:1059300092E10E9415079C01CE018E569F4FB9013E
:105940004AE00E949586CE0187569F4F9E012E56B3
:105950003F4FB9010E945C8829E137E0B9010E94FC
:105960006F889C01CE018F549B4FB9010E94460F56
:10597000CE018E569F4F0E943885CE0187569F4F8D
:105980000E94B219CE0185579F4F2FEB3BE0B90122
:105990000E94B70F88E592E10E9447079C01CE0163
:1059A0008C579F4FB9014AE00E949586CE018557DA
:1059B0009F4F9E012C573F4FB9010E945C8829E1FF
:1059C00037E0B9010E946F889C01CE018F549B4F34
:1059D000B9010E94460FCE018C579F4F0E94388517
:1059E000CE0185579F4F0E94B219CE0183589F4F19
:1059F0002EEC3BE0B9010E94B70F88E592E10E94CE
:105A000079079C01CE018A589F4FB9014AE00E9454
:105A10009586CE0183589F4F9E012A583F4FB9016A
:105A20000E945C8829E137E0B9010E946F889C01DF
:105A3000CE018F549B4FB9010E94460FCE018A5868
:105A40009F4F0E943885CE0183589F4F0E94B21904
:105A5000CE0181599F4F2DED3BE0B9010E94B70F58
:105A600088E592E10E94AB079C01CE0188599F4FC7
:105A7000B9014AE00E949586CE0181599F4F9E014F
:105A800028593F4FB9010E945C8829E137E0B901EC
:105A90000E946F889C01CE018F549B4FB9010E94D8
:105AA000460FCE0188599F4F0E943885CE018159FB
:105AB0009F4F0E94B219CE018F599F4F2CEE3BE0B1
:105AC000B9010E94B70F88E592E10E94DD079C01B1
:105AD000CE01865A9F4FB9014AE00E949586CE01B9
