:100000000C9408020C9434020C9434020C943402C4
:100010000C9434020C9434020C9434020C94340288
:100020000C9434020C9434020C9434020C94340278
:100030000C9434020C9434020C9434020C94340268
:100040000C9434020C9434020C9434020C94340258
:100050000C9434020C9434020C9434020C94FB750E
:100060000C9434020C9434020C9434020C94340238
:100070000C9434020C9434020C9434020C94340228
:100080000C9434020C9434020C9434020C94340218
:100090000C9434020C9434020C9434020C94340208
:1000A0000C9434020C9434020C9434020C943402F8
:1000B0000C9434020C9434020C9434020C943402E8
:1000C0000C9434020C9434020C9434020C943402D8
:1000D0000C9434020C9434020C9434020C943402C8
:1000E0000C943402005EBCE2613FDD83C29C7E2042
:1000F000A3FD1F419DC3217FFCA2401E5F01E3BD04
:100100003E6082DC237D9FC1421CFEA0E1BF5D03F7
:1001100080DE3C62BEE0025CDF81633D7C22C09EEB
:100120001D43A1FF4618FAA427799BC584DA3866D7
:10013000E5BB5907DB856739BAE406581947A5FBC3
:100140007826C49A653BD987045AB8E6A7F91B45B7
:10015000C6987A24F8A6441A99C7257B3A6486D8AB
:100160005B05E7B98CD2306EEDB3510F4E10F2AC97
:100170002F7193CD114FADF3702ECC92D38D6F3183
:10018000B2EC0E50AFF1134DCE90722C6D33D18F77
:100190000C52B0EE326C8ED0530DEFB1F0AE4C126B
:1001A00091CF2D73CA947628ABF517490856B4EA57
:1001B0006937D58B5709EBB536688AD495CB297743
:1001C000F4AA4816E9B7550B88D6346A2B7597C937
:1001D0004A14F6A8742AC896154BA9F7B6E80A542B
:1001E000D7896B3500002100240027002A002D004C
:1001F0003000330001010000040107010A01000082
:100200002200250028002B002E00310034000201BE
:100210000000050108010B0100002000230026005A
:1002200029002C002F00320000010000030106010C
:10023000090105050505070508080808020202026C
:100240000A0A080804040404010101010101010172
:100250000303030303030303040707070C0C0C0C3D
:100260000C0C0C0C02020202060606060606060626
:100270000B0B0B0B0B0B0B0B0102102020080810B3
:100280002040102040800201020108040201010206
:1002900004081020408080402010080402018004DF
:1002A000020180402010080402010804020101023A
:1002B0000408102040800102040810204080000043
:1002C000090A02080B0C0D070603040100000000D8
:1002D000000000000000000000000000000000001E
:1002E0000000000000000000000011100F000000DE
:1002F00000000000000000000000000000000000FE
:100300000000000000407A10F35A00A0724E180955
:100310000010A5D4E80000E87648170000E40B546C
:10032000020000CA9A3B000000E1F505000080963B
:100330009800000040420F000000A086010000006D
:10034000102700000000E803000000006400000027
:1003500000000A00000000000100000000002C76F0
:10036000D888DC674F0823DFC1DFAE59E1B1B7960B
:10037000E5E3E453C63AE651997696E8E6C2842668
:10038000EB898C9B62ED407C6FFCEFBC9C9F40F244
:10039000BAA56FA5F490055A2AF75C936B6CF967C0
:1003A0006DC11BFCE0E40D47FEF520E6B500D0ED85
:1003B000902E0300943577050080841E08000020ED
:1003C0004E0A000000C80C333333330F986E12838B
:1003D0001141EF8D2114893BE65516CFFEE6DB185F
:1003E000D1844B381BF77C1D901DA4BBE424203224
:1003F00084725E228100C9F124ECA1E53D27070C3F
:10040000F242364B5950E6555B5A795DB867FA0BA4
:1004100011241FBECFEFD1E2DEBFCDBF00E00CBF85
:100420001AE0A0E0B2E0E8ECF6E001E00BBF02C0A9
:1004300007900D92A03FB107D9F71CE0A0EFBAE0FA
:1004400001C01D92A73AB107E1F713E0CEE0D4E076
:1004500004C02297FE010E94B679CE3FD107C9F7AA
:100460000E94F31F0C9457830C940000DF93CF93EA
:1004700000D0CDB7DEB79A838983E981FA81808184
:100480008B838B81882311F081E08B838B810F908C
:100490000F900F90CF91DF910895DF93CF9300D00D
:1004A000CDB7DEB79A838983E981FA8181818B8315
:1004B0008B81882311F081E08B838B810F900F90CB
:1004C0000F90CF91DF910895DF93CF9300D0CDB7F8
:1004D000DEB79A838983E981FA8182818B838B815C
:1004E000882311F081E08B838B810F900F900F9008
:1004F000CF91DF910895DF93CF930F920F92CDB7F5
:10050000DEB79A838983E981FA818381882F90E01D
:100510000F900F90CF91DF910895DF93CF930F92BB
:100520000F92CDB7DEB79A838983E981FA818481FE
:10053000882F90E00F900F90CF91DF910895DF9377
:10054000CF930F920F92CDB7DEB79A838983E9815B
:10055000FA8185819681A781B085BC01CD010F907C
:100560000F90CF91DF910895DF93CF930F920F9269
:10057000CDB7DEB79A838983E981FA818185928537
:10058000A385B485BC01CD010F900F90CF91DF9171
:100590000895DF93CF930F920F92CDB7DEB79A8372
:1005A0008983E981FA8185859685A785B089BC0113
:1005B000CD010F900F90CF91DF910895DF93CF93EE
:1005C0000F920F92CDB7DEB79A83898380E99CE0C2
:1005D00064E070E04FEF0E94756080E99CE065E0A8
:1005E00070E04FEF0E94756080E99CE066E070E08B
:1005F0004FEF0E94756080E99CE067E070E04FEF8C
:100600000E94756080E99CE068E070E04FEF0E9416
:10061000756080E99CE069E070E04FEF0E947560D2
:1006200080E99CE06AE070E04FEF0E94756080E92D
:100630009CE06BE070E04FEF0E9475600F900F90B0
:10064000CF91DF910895DF93CF930F920F92CDB7A3
:10065000DEB79A83898380E99CE06CE070E00E94B9
:100660008E60E981FA818083E981FA818081882323
:1006700029F0E981FA8180818F3F71F4E981FA8163
:1006800081E08083E981FA81208180E99CE06CE04F
:1006900070E0422F0E94756080E99CE06DE070E0A0
:1006A0000E948E60E981FA818183E981FA818181EA
:1006B000882329F0E981FA8181818F3F69F4E981FA
:1006C000FA811182E981FA81218180E99CE06DE063
:1006D00070E0422F0E94756080E99CE06EE070E05F
:1006E0000E948E60E981FA818283E981FA818281A8
:1006F000882329F0E981FA8182818F3F71F4E981B1
:10070000FA8181E08283E981FA81228180E99CE09B
:100710006EE070E0422F0E94756080E99CE06FE01F
:1007200070E00E948E60E981FA818383E981FA8119
:100730008381882329F0E981FA8183818F3F71F4D5
:10074000E981FA818CE18383E981FA81238180E95F
:100750009CE06FE070E0422F0E94756080E99CE0B1
:1007600060E170E00E948E60E981FA818483E98112
:10077000FA818481882329F0E981FA8184818F3F7D
:1007800071F4E981FA818DE18483E981FA81248120
:1007900080E99CE060E170E0422F0E947560E98191
:1007A000FA8185819681A781B0850097A105B10561
:1007B00059F0E981FA8185819681A781B0858F3FC3
:1007C0009105A105B10551F4E981FA8180EA98E922
:1007D000ABE7B0E085839683A783B087E981FA8190
:1007E00081859285A385B4850097A105B10559F04F
:1007F000E981FA8181859285A385B4858F3F910532
:10080000A105B10551F4E981FA8180E693EEA6E1F4
:10081000B0E081879287A387B487E981FA818585D3
:100820009685A785B0890097A105B10559F0E981A2
:10083000FA8185859685A785B0898F3F9105A105A9
:10084000B10551F4E981FA8180E09CE5A6E2B5E0CA
:1008500085879687A787B08B0F900F90CF91DF91F8
:100860000895DF93CF930F920F92CDB7DEB79A839F
:10087000898380E99CE06CE070E00E948E60E981F1
:10088000FA818083E981FA818081882329F0E981D6
:10089000FA8180818F3F71F4E981FA8181E0808360
:1008A000E981FA81208180E99CE06CE070E0422FD0
:1008B0000E94756080E99CE06DE070E00E948E60AF
:1008C000E981FA818183E981FA818181882329F094
:1008D000E981FA8181818F3F69F4E981FA8111828E
:1008E000E981FA81218180E99CE06DE070E0422F8E
:1008F0000E94756080E99CE06EE070E00E948E606E
:10090000E981FA818283E981FA818281882329F051
:10091000E981FA8182818F3F71F4E981FA8181E076
:100920008283E981FA81228180E99CE06EE070E0B7
:10093000422F0E94756080E99CE06FE070E00E94A9
:100940008E60E981FA818383E981FA81838188233A
:1009500029F0E981FA8183818F3F71F4E981FA817D
:100960008CE18383E981FA81238180E99CE06FE057
:1009700070E0422F0E94756080E99CE060E170E0C9
:100980000E948E60E981FA818483E981FA81848101
:10099000882329F0E981FA8184818F3F71F4E9810C
:1009A000FA818DE18483E981FA81248180E99CE0E8
:1009B00060E170E0422F0E947560E981FA818581D3
:1009C0009681A781B0850097A105B10559F0E9810D
:1009D000FA8185819681A781B0858F3F9105A10518
:1009E000B10551F4E981FA8180EA98E9ABE7B0E01A
:1009F00085839683A783B087E981FA818185928573
:100A0000A385B4850097A105B10559F0E981FA8164
:100A100081859285A385B4858F3F9105A105B10598
:100A200051F4E981FA8180E693EEA6E1B0E0818796
:100A30009287A387B487E981FA8185859685A78502
:100A4000B0890097A105B10559F0E981FA81858542
:100A50009685A785B0898F3F9105A105B10551F411
:100A6000E981FA8180E09CE5A6E2B5E0858796877A
:100A7000A787B08B0F900F90CF91DF910895DF93F0
:100A8000CF930F920F92CDB7DEB79A8389830F90E1
:100A90000F90CF91DF910895DF93CF930F920F9234
:100AA000CDB7DEB79A8389830F900F90CF91DF91F6
:100AB0000895DF93CF930F920F92CDB7DEB79A834D
:100AC0008983E981FA818081E981FA818483E981DE
:100AD000FA818181E981FA818583E981FA818281C4
:100AE000E981FA818683E981FA818381E981FA814A
:100AF000878389819A8104960F900F90CF91DF911F
:100B000008950F931F93DF93CF93CDB7DEB7299747
:100B10000FB6F894DEBF0FBECDBF8C017987688712
:100B2000C801E885F9852081622F4AE00E94C174DE
:100B3000C80120E032E0B9010E940572C801E885D1
:100B4000F9852181622F0E94C571C80120E032E041
:100B5000B9010E940572C801E885F9852281622FDA
:100B60000E94C571C80120E032E0B9010E940572FF
:100B7000C801E885F9852381622F0E94C571C801EB
:100B8000C80129960FB6F894DEBF0FBECDBFCF9136
:100B9000DF911F910F910895DF93CF930F920F92E2
:100BA000CDB7DEB79A83898380E99CE068E070E086
:100BB0004FEF0E94756080E99CE069E070E04FEFC4
:100BC0000E94756080E99CE06AE070E04FEF0E944F
:100BD000756080E99CE06BE070E04FEF0E9475600B
:100BE0000F900F90CF91DF9108950F93DF93CF93E4
:100BF00000D000D0CDB7DEB79A8389836B834C8356
:100C00002D830E83E981FA818B818083E981FA81CA
:100C10008C818183E981FA818D818283E981FA81E6
:100C20008E818383E981FA818081E981FA818483DD
:100C3000E981FA818181E981FA818583E981FA81FB
:100C40008281E981FA818683E981FA818381E98160
:100C5000FA81878380E99CE060E070E04B810E942C
:100C6000756080E99CE061E070E04C810E947560F5
:100C700080E99CE062E070E04D810E94756080E94F
:100C80009CE063E070E04E810E94756026960FB68E
:100C9000F894DEBF0FBECDBFCF91DF910F910895C5
:100CA000DF93CF930F920F92CDB7DEB79A838983EC
:100CB00080E99CE068E070E00E948E60E981FA8142
:100CC0008083E981FA8180818F3F29F0E981FA816F
:100CD0008081882389F4E981FA8180EC8083E9812D
:100CE000FA8188EA8183E981FA818BE08283E98154
:100CF000FA8181E083831BC080E99CE069E070E0B9
:100D00000E948E60E981FA81818380E99CE06AE03B
:100D100070E00E948E60E981FA81828380E99CE024
:100D20006BE070E00E948E60E981FA818383E98143
:100D3000FA818081E981FA818483E981FA81818164
:100D4000E981FA818583E981FA818281E981FA81E9
:100D50008683E981FA818381E981FA8187830F9013
:100D60000F90CF91DF910895DF93CF930F920F9261
:100D7000CDB7DEB79A83898380E99CE068E070E0B4
:100D80000E948E60E981FA818083E981FA81808105
:100D90008F3F29F0E981FA818081882389F4E981F4
:100DA000FA8180EC8083E981FA8188EA8183E98194
:100DB000FA818BE08283E981FA8181E083831BC021
:100DC00080E99CE069E070E00E948E60E981FA8130
:100DD000818380E99CE06AE070E00E948E60E98196
:100DE000FA81828380E99CE06BE070E00E948E6073
:100DF000E981FA818383E981FA818081E981FA813D
:100E00008483E981FA818181E981FA818583E9819D
:100E1000FA818281E981FA818683E981FA8183817D
:100E2000E981FA8187830F900F90CF91DF91089528
:100E3000DF93CF930F920F92CDB7DEB79A8389835A
:100E40000F900F90CF91DF910895DF93CF930F9282
:100E50000F92CDB7DEB79A8389830F900F90CF9111
:100E6000DF910895DF93CF930F920F92CDB7DEB746
:100E70009A838983E981FA818081E981FA81848377
:100E8000E981FA818181E981FA818583E981FA81A9
:100E90008281E981FA818683E981FA818381E9810E
:100EA000FA81878389819A8104960F900F90CF9160
:100EB000DF9108950F931F93DF93CF93CDB7DEB7E4
:100EC00029970FB6F894DEBF0FBECDBF8C0179878E
:100ED0006887C801E885F9852081622F4AE00E9471
:100EE000C174C80122E032E0B9010E940572C80154
:100EF000E885F9852181622F0E94C571C80122E031
:100F000032E0B9010E940572C801E885F9852281A5
:100F1000622F0E94C571C80122E032E0B9010E942F
:100F20000572C801E885F9852381622F0E94C57189
:100F3000C801C80129960FB6F894DEBF0FBECDBF19
:100F4000CF91DF911F910F910895DF93CF930F926F
:100F50000F92CDB7DEB79A83898380E99CE060E089
:100F600070E04FEF0E94756080E99CE061E070E006
:100F70004FEF0E94756080E99CE062E070E04FEF07
:100F80000E94756080E99CE063E070E04FEF0E9492
:100F900075600F900F90CF91DF9108950F93DF93BD
:100FA000CF9300D000D0CDB7DEB79A8389836B830F
:100FB0004C832D830E83E981FA818B818083E981C3
:100FC000FA818C818183E981FA818D818283E98133
:100FD000FA818E818383E981FA818081E981FA81B6
:100FE0008483E981FA818181E981FA818583E981BC
:100FF000FA818281E981FA818683E981FA8183819C
:10100000E981FA81878380E99CE060E070E04B81B0
:101010000E94756080E99CE061E070E04C810E9474
:10102000756080E99CE062E070E04D810E9475602F
:1010300080E99CE063E070E04E810E947560269636
:101040000FB6F894DEBF0FBECDBFCF91DF910F91E9
:101050000895DF93CF930F920F92CDB7DEB79A83A7
:10106000898380E99CE060E070E00E948E60E98105
:10107000FA818083E981FA8180818F3F29F0E981BB
:10108000FA818081882389F4E981FA8180EC808368
:10109000E981FA8188EA8183E981FA818BE08283A0
:1010A000E981FA8181EF83831BC080E99CE061E0E4
:1010B00070E00E948E60E981FA81818380E99CE082
:1010C00062E070E00E948E60E981FA81828380E9AB
:1010D0009CE063E070E00E948E60E981FA81838386
:1010E000E981FA818081E981FA818483E981FA8149
:1010F0008181E981FA818583E981FA818281E981AF
:10110000FA818683E981FA818381E981FA81878383
:101110000F900F90CF91DF910895DF93CF930F92AF
:101120000F92CDB7DEB79A83898380E99CE060E0B7
:1011300070E00E948E60E981FA818083E981FA8102
:1011400080818F3F29F0E981FA818081882389F4A9
:10115000E981FA8180EC8083E981FA8188EA8183E0
:10116000E981FA818BE08283E981FA8181EF8383CF
:101170001BC080E99CE061E070E00E948E60E98124
:10118000FA81818380E99CE062E070E00E948E60D9
:10119000E981FA81828380E99CE063E070E00E944B
:1011A0008E60E981FA818383E981FA818081E98116
:1011B000FA818483E981FA818181E981FA818583D9
:1011C000E981FA818281E981FA818683E981FA8164
:1011D0008381E981FA8187830F900F90CF91DF910E
:1011E0000895DF93CF930F920F92CDB7DEB79A8316
:1011F00089830F900F90CF91DF910895DF93CF9364
:101200000F920F92CDB7DEB79A8389830F900F901C
:10121000CF91DF910895DF93CF930F920F92CDB7C7
:10122000DEB79A838983E981FA818081E981FA8135
:101230008483E981FA818181E981FA818583E98169
:10124000FA818281E981FA818683E981FA81838149
:10125000E981FA81878389819A8104960F900F90A2
:10126000CF91DF9108950F931F93DF93CF93CDB765
:10127000DEB729970FB6F894DEBF0FBECDBF8C0145
:1012800079876887C801E885F9852081622F4AE05F
:101290000E94C174C80124E032E0B9010E940572C5
:1012A000C801E885F9852181622F0E94C571C801B6
:1012B00024E032E0B9010E940572C801E885F98591
:1012C0002281622F0E94C571C80124E032E0B90179
:1012D0000E940572C801E885F9852381622F0E946A
:1012E000C571C801C80129960FB6F894DEBF0FBEBC
:1012F000CDBFCF91DF911F910F910895DF93CF93D1
:101300000F920F92CDB7DEB79A83898380E99CE074
:1013100064E070E04FEF0E94756080E99CE065E05A
:1013200070E04FEF0E94756080E99CE066E070E03D
:101330004FEF0E94756080E99CE067E070E04FEF3E
:101340000E9475600F900F90CF91DF9108950F93D9
:10135000DF93CF9300D000D0CDB7DEB79A838983D7
:101360006B834C832D830E83E981FA818B8180838B
:10137000E981FA818C818183E981FA818D8182837F
:10138000E981FA818E818383E981FA818081E98113
:10139000FA818483E981FA818181E981FA818583F7
:1013A000E981FA818281E981FA818683E981FA8182
:1013B0008381E981FA81878380E99CE064E070E0C1
:1013C0004B810E94756080E99CE065E070E04C8193
:1013D0000E94756080E99CE066E070E04D810E94AB
:1013E000756080E99CE067E070E04E810E94756066
:1013F00026960FB6F894DEBF0FBECDBFCF91DF911A
:101400000F910895DF93CF930F920F92CDB7DEB770
:101410009A83898380E99CE064E070E00E948E609A
:10142000E981FA818083E981FA8180818F3F29F007
:10143000E981FA818081882381F4E981FA818FEF43
:101440008083E981FA818FEF8183E981FA818FEFCF
:101450008283E981FA8113821BC080E99CE065E008
:1014600070E00E948E60E981FA81818380E99CE0CE
:1014700066E070E00E948E60E981FA81828380E9F3
:101480009CE067E070E00E948E60E981FA818383CE
:10149000E981FA818081E981FA818483E981FA8195
:1014A0008181E981FA818583E981FA818281E981FB
:1014B000FA818683E981FA818381E981FA818783D0
:1014C0000F900F90CF91DF910895DF93CF930F92FC
:1014D0000F92CDB7DEB79A83898380E99CE064E000
:1014E00070E00E948E60E981FA818083E981FA814F
:1014F00080818F3F29F0E981FA818081882381F4FE
:10150000E981FA818FEF8083E981FA818FEF81830E
:10151000E981FA818FEF8283E981FA8113821BC00E
:1015200080E99CE065E070E00E948E60E981FA81CC
:10153000818380E99CE066E070E00E948E60E98132
:10154000FA81828380E99CE067E070E00E948E600F
:10155000E981FA818383E981FA818081E981FA81D5
:101560008483E981FA818181E981FA818583E98136
:10157000FA818281E981FA818683E981FA81838116
:10158000E981FA8187830F900F90CF91DF910895C1
:10159000DF93CF930F920F92CDB7DEB78091A30C5C
:1015A0009091A40C009749F4CE01019627EA3CE003
:1015B000821B930B9A8389830DC09E012F5F3F4F3F
:1015C0008091A30C9091A40CA901481B590BCA014E
:1015D0009A83898389819A810F900F90CF91DF91AF
:1015E0000895DF93CF9300D00F92CDB7DEB79A83E3
:1015F00089837C836B83EB81FC8182819381E98188
:10160000FA819383828389819A810F900F900F9042
:101610000F90CF91DF910895DF93CF9300D00F9279
:10162000CDB7DEB79A8389837C836B8389819A8166
:101630002B813C81B9010E94F10AEB81FC818481FC
:101640009581A681B781E981FA8184839583A683F8
:10165000B783EB81FC8180859185A285B385E98183
:10166000FA8180879187A287B38789819A810F90B9
:101670000F900F900F90CF91DF910895DF93CF934C
:1016800000D00F92CDB7DEB79A8389837C836B83BA
:1016900089819A812B813C81B9010E940C0B89813F
:1016A0009A810F900F900F900F90CF91DF91089536
:1016B000DF93CF9300D00F92CDB7DEB79A838983A3
:1016C0007C836B8389819A812B813C81B9010E9443
:1016D0003E0BEB81FC818485E981FA8184878981D5
:1016E0009A810F900F900F900F90CF91DF910895F6
:1016F0000F93DF93CF9300D00F92CDB7DEB79A83CD
:1017000089837C836B8389819A818130910509F07B
:101710004BC08B819C812FEF8F3F920709F044C013
:1017200081E49CE060E040E020E000E00E94AC67E3
:1017300080EF9AE026E032E0B9010E94E87287E08B
:101740009BE00E94363580EC9BE066E20E949D3073
:101750008EEC9BE020EC3BE0B9010E942D2081EE55
:101760009BE00E94290889EF9BE00E94020A81E029
:101770009CE00E94500689E09CE060E570E00E94D9
:101780005D598FE09CE00E9409558CE19CE00E942D
:10179000095589E29CE02DE032E0B9010E94E8722F
:1017A00080E39CE00E94230389819A810097D1F411
:1017B0008B819C812FEF8F3F9207A1F489E29CE0FF
:1017C0000E94D97581E09CE00E944C0589EF9BE066
:1017D0000E94FE0881EE9BE00E94250780EF9AE0C0
:1017E0000E94D9750F900F900F900F90CF91DF91BD
:1017F0000F910895DF93CF93CDB7DEB780E090E0EF
:101800006FEF7FEF0E94780BCF91DF910895DF9308
:10181000CF93CDB7DEB781E090E06FEF7FEF0E940E
:10182000780BCF91DF910895DF93CF93CDB7DEB7DB
:101830008FE09CE02EE032E0B9010E94926BCF91E4
:10184000DF910895DF93CF93CDB7DEB78FE09CE0B3
:101850002AE232E0B9010E94926B8FE09CE021E421
:1018600032E0B9010E94926B8FE09CE029E532E002
:10187000B9010E94926B8FE09CE00E94F9680E947F
:10188000140C8FE09CE02AE732E0B9010E94926BD1
:10189000CF91DF910895DF93CF93CDB7DEB728972F
:1018A0000FB6F894DEBF0FBECDBF9A8389837C83C9
:1018B0006B835E834D8338872F8389819A812B8147
:1018C0003C814D815E81EF81F885B9019F010E94C5
:1018D000896E28960FB6F894DEBF0FBECDBFCF91AC
:1018E000DF910895DF93CF9300D00F92CDB7DEB78D
:1018F0009A8389837C836B8389819A812B813C8144
:10190000B9010E9402730F900F900F900F90CF912A
:10191000DF910895DF93CF9300D00F92CDB7DEB75C
:101920009A8389837C836B8389819A812B813C8113
:10193000B9010E94157289819A810F900F900F90C2
:101940000F90CF91DF910895DF93CF930F920F9275
:10195000CDB7DEB79A83898389819A810E94DF752A
:101960000F900F90CF91DF910895DF93CF9300D028
:101970000F92CDB7DEB79A8389837C836B8389818D
:101980009A812B813C81B9010E94057289819A81DB
:101990000F900F900F900F90CF91DF910895DF93EC
:1019A000CF93CDB7DEB781EE9BE00E94A50780E321
:1019B0009CE00E94DE02CF91DF910895DF93CF93E8
:1019C000CDB7DEB72B970FB6F894DEBF0FBECDBFF5
:1019D0009A87898788EE93E09A838983CE0103965C
:1019E0002AEA38E0B9010E9437688CE19CE09E0148
:1019F0002D5F3F4FB90149E150E00E94DB571B8644
:101A0000009711F081E08B878B85882309F480C0D3
:101A10008CE19CE02DE832E0B9010E94926B898153
:101A20009A81AA2797FDA095BA2FBC01CD010E94EB
:101A300083768CE19CE028EA32E0B9010E94926B47
:101A400089819A81AA2797FDA095BA2FBC01CD0163
:101A50000E9483768CE19CE02EEC32E0B9010E947A
:101A6000926B89819A81AA2797FDA095BA2FBC0114
:101A7000CD010E9483768CE19CE022EF32E0B90137
:101A80000E94926B89819A81AA2797FDA095BA2F0F
:101A9000BC01CD010E9483768CE19CE027EF32E00F
:101AA000B9010E94926B8CE19CE02DE032E0B9011B
:101AB0000E94926B8CE19CE029853A85B9010E94D5
:101AC000D86B8CE19CE029E233E0B9010E94926B73
:101AD0008CE19CE02DE333E0B9010E94926B8CE134
:101AE0009CE02FE333E0B9010E94926B89819A81D7
:101AF000AA2797FDA095BA2FBC01CD010E9483763D
:101B00008CE19CE00E94F9688CE19CE00E94755693
:101B10002B960FB6F894DEBF0FBECDBFCF91DF91ED
:101B20000895DF93CF93CDB7DEB72A970FB6F89419
:101B3000DEBF0FBECDBF80919A0890919B080E9496
:101B4000F1789A8389832091010B3091020B89816E
:101B50009A818217930761F00E944F76DC01CB01D6
:101B60008093030B9093040BA093050BB093060B8B
:101B70000E944F769B01AC018091030B9091040B66
:101B8000A091050BB091060B281B390B4A0B5B0B80
:101B900080917A0890917B08A0917C08B0917D0893
:101BA0001A8682179307A407B50710F481E08A8785
:101BB0008A85882331F089819A819093000B8093E4
:101BC000FF0A8091FF0A9091000B8130910519F571
:101BD00080E39CE00E944D028823B1F0809194083C
:101BE0009091950861E00E94BE78CE01039624E4AE
:101BF00033E0B9010E94E872CE0103960E94DE0C28
:101C0000CE0103960E94D97580E39CE00E947B027E
:101C100060E00E94BE7889819A819093020B809344
:101C2000010B2A960FB6F894DEBF0FBECDBFCF9141
:101C3000DF910895DF93CF93CDB7DEB761970FB6ED
:101C4000F894DEBF0FBECDBF80919808909199089F
:101C50000E94F1789A8389832091F90A3091FA0AD7
:101C600089819A818217930761F00E944F76DC0187
:101C7000CB018093FB0A9093FC0AA093FD0AB093DA
:101C8000FE0A0E944F769B01AC018091FB0A909165
:101C9000FC0AA091FD0AB091FE0A281B390B4A0BE1
:101CA0005B0B80917A0890917B08A0917C08B091A1
:101CB0007D08198A82179307A407B50710F481E0FD
:101CC000898B8989882331F089819A819093F80AD8
:101CD0008093F70A8091F70A9091F80A009791F59E
:101CE000809194089091950860E00E94BE78CE01A2
:101CF0000A962DE833E0B9010E94E872CE010A96F7
:101D00000E94DE0CCE010A960E94D97580E39CE009
:101D10000E9464028823B1F080E39CE00E947B0271
:101D200061E00E94BE78CE01039622EC33E0B90157
:101D30000E94E872CE0103960E94DE0CCE0103964B
:101D40000E94D97589819A819093FA0A8093F90A41
:101D500061960FB6F894DEBF0FBECDBFCF91DF9175
:101D60000895DF93CF93CDB7DEB780919608909119
:101D7000970860E00E94BE7880E39CE00E948D029C
:101D800060E00E94BE788091B30B9091B40B0097F5
:101D900049F02091B30B3091B40B87E09BE0B9017F
:101DA0000E942E328091B50B9091B60B009749F0AE
:101DB0002091B50B3091B60B87E09BE0B9010E94F2
:101DC0002E32CF91DF910895DF93CF93CDB7DEB759
:101DD00063970FB6F894DEBF0FBECDBF988B8F8789
:101DE0007A8B698B4B8B8091BE0B9091BF0B0097C8
:101DF00009F087C08091BD0B882321F08B8988234F
:101E000009F47FC0CE01089625E134E0B9010E94B3
:101E1000E872CE0108962F853889B9010E94947125
:101E2000CE01089626E334E0B9010E940572CE0186
:101E3000089629893A89B9010E949471CE010896C1
:101E40002EE334E0B9010E940572CE0108966B8939
:101E50000E94C5719E01285F3F4FCE010196B901D6
:101E60000E94C375CE0101960E94DE0CCE01019640
:101E70000E94D97581E08093BD0B8F8598899093DE
:101E8000BA0B8093B90B89899A899093BC0B809384
:101E9000BB0B80E39CE00E949F029B01AC0187E0AA
:101EA0009BE0E8E7F0E1BA01A9019F010E946033DD
:101EB0009093B40B8093B30B80E39CE00E94B40238
:101EC0009B01AC0187E09BE0E4E4F0E1BA01A901E9
:101ED0009F010E9460339093B60B8093B50B809165
:101EE00096089091970861E00E94BE7880E39CE09C
:101EF0000E948D0261E00E94BE78CE0108960E9489
:101F0000D97563960FB6F894DEBF0FBECDBFCF91E3
:101F1000DF910895DF93CF93CDB7DEB78091BE0BED
:101F20009091BF0B009739F481E090E061E070E0A0
:101F300040E00E94E40ECF91DF910895DF93CF93AC
:101F4000CDB7DEB763970FB6F894DEBF0FBECDBF37
:101F50002091B30B3091B40B87E09BE0B9010E9454
:101F6000E731882371F42091B50B3091B60B87E0EF
:101F70009BE0B9010E94E731882319F481E08B8B43
:101F800001C01B8A8B89882309F475C02091B90B85
:101F90003091BA0B8091BB0B9091BC0B82179307C9
:101FA000B4F48091BB0B9091BC0B01969093BC0B49
:101FB0008093BB0B8091B90B9091BA0B2091BB0B16
:101FC0003091BC0BB90141E00E94E40E54C08091F5
:101FD000B90B9091BA0B9A8389831092BD0B109222
:101FE000BC0B1092BB0B1092BA0B1092B90BCE0126
:101FF0000A9629E434E0B9010E94E872CE010A96FB
:1020000029813A81B9010E949471CE010A962FE587
:1020100034E0B9010E94057289819A81823091056C
:102020002CF081E694E09A8B898B04C089E694E0D9
:102030009A8B898BCE010A9669897A890E940572EA
:10204000CE010A9620E734E0B9010E940572CE0164
:1020500003969E01265F3F4FB9010E94C375CE01D2
:1020600003960E94DE0CCE0103960E94D975CE0124
:102070000A960E94D97563960FB6F894DEBF0FBE1C
:10208000CDBFCF91DF910895DF93CF93CDB7DEB76A
:1020900027970FB6F894DEBF0FBECDBF80E39CE05C
:1020A0000E948D0260E00E94BE782091B50B3091B5
:1020B000B60B87E09BE0B9010E942E320E949E0F72
:1020C00022E834E0CE010196B9010E94E872CE0107
:1020D00001960E94DE0CCE0101960E94D9752796CA
:1020E0000FB6F894DEBF0FBECDBFCF91DF9108953C
:1020F000DF93CF93CDB7DEB727970FB6F894DEBF47
:102100000FBECDBF809196089091970860E00E9425
:10211000BE782091B30B3091B40B87E09BE0B901FE
:102120000E942E320E949E0F21EA34E0CE010196D9
:10213000B9010E94E872CE0101960E94DE0CCE0128
:1021400001960E94D97527960FB6F894DEBF0FBE90
:10215000CDBFCF91DF910895DF93CF9300D000D012
:10216000CDB7DEB79A8389837C836B835E834D838F
:102170008FE09CE02CEB34E0B9010E94DE6A8FE036
:102180009CE029813A81B9014AE050E00E94AC6AA2
:102190008FE09CE02FE534E0B9010E94DE6A8FE019
:1021A0009CE02B813C81B9010E94A56B8FE09CE0F3
:1021B00021E432E0B9010E94926B8FE09CE029E5B6
:1021C00032E0B9010E94926B8FE09CE00E94F968B6
:1021D0000E94140C8FE09CE02D813E81B9010E9489
:1021E000D86B26960FB6F894DEBF0FBECDBFCF9149
:1021F000DF9108950F931F93DF93CF93CDB7DEB791
:10220000CD53D4400FB6F894DEBF0FBECDBF87E0EC
:102210009BE00E94BC33CE0180509D4F29E03CE002
:10222000B9010E943C5B8FE09CE09E0120503D4F35
:10223000B9010E94580B198E188E8FE09CE00E9405
:10224000AA55882311F40C94471F198E188E0C94EC
:102250001E1F8FE09CE00E947057C45CDB4F188209
:10226000CC53D440009731F081E0C45CDB4F8883CD
:10227000CC53D440C45CDB4F9881CC53D4409923D9
:1022800011F40C941E1F8FE09CE00E9440578F8B2E
:102290008F898A30C9F08F898D30B1F0888D998D02
:1022A0008F3F91058CF4288D398DCE01845C9C4F35
:1022B000FC01E20FF31F8F898083888D998D019631
:1022C000998F888F0C941E1F8FE09CE00E947C5594
:1022D000CE01835F9C4F9E01245C3C4FB9010E945C
:1022E000E872CE01835F9C4F60E20E94846EFC0125
:1022F000CE018C5E9C4F9E01235F3C4FB90140E0B4
:1023000050E09F010E945975CE01835F9C4F6FE2A0
:102310000E94846E8C01CE01835F9C4F6FE20E940D
:10232000846E9C01CE01835F9C4F60E2A9010E94F4
:10233000666EFC01CE0187509D4F9E01235F3C4F8E
:10234000B901A8019F010E945975CE01835F9C4F7E
:102350009E0127503D4FB9010E94AC75CE018750B8
:102360009D4F0E94D975CE01835F9C4F9E01245CD6
:102370003C4FB9014FEF50E020E030E00E944B0CA1
:10238000CE01845C9C4F26EC34E0B9010E94847C31
:102390009E8B8D8B26EC34E080E090E0B9010E94AA
:1023A000847C9C8B8B8B26EC34E080E090E0B90140
:1023B0000E94847C9A8B898B26EC34E080E090E04C
:1023C000B9010E94847C988B8F8780EF9AE02D89D9
:1023D0003E89B9010E94D86EC55CDB4F1882CB5391
:1023E000D440882331F4A1E0C55CDB4FA883CB53F4
:1023F000D440C55CDB4FB881CB53D440BB2339F10B
:10240000CE018E509D4F28EC34E0B9010E94E87255
:10241000CE0185519D4F22ED34E0B9010E94E87252
:102420009E012E503D4FAE0145515D4F83E991E035
:10243000B9010E94AC10CE0185519D4F0E94D97503
:10244000CE018E509D4F0E94D9750C94131FFE0132
:10245000E55EFC4F108211821282138280E1349675
:10246000DF01982F1D929A95E9F7CE01815D9C4F6F
:102470002DE032E0B9010E94E87289899A890E94B0
:10248000277C9E878D8789899A89009709F4B4C132
:102490008B899C8925EE34E0B9014BE050E00E9425
:1024A000D37C009751F489899A890E94277C61E046
:1024B00070E040E00E94E40E13C08B899C8921EFFC
:1024C00034E0B9014BE050E00E94D37C009741F426
:1024D00089899A890E94277C9093BF0B8093BE0BB9
:1024E0008F859889009709F476C08D8561E00E94F8
:1024F00024788B899C892DEF34E0B90147E050E0C6
:102500000E94D37C0097F9F48F85988925E035E007
:10251000B90144E050E00E94D37C009721F48D85FE
:1025200061E00E94BE788F8598892AE035E0B90184
:1025300043E050E00E94D37C009791F58D8560E0E8
:102540000E94BE782DC08B899C892EE035E0B901B0
:1025500046E050E00E94D37C009759F41D858F859A
:1025600098890E94277C9C01812FB9010E9449779C
:1025700017C08B899C8925E135E0B90146E050E020
:102580000E94D37C009761F48F8598890E94277CF4
:10259000482F80E99CE02D853E85B9010E94756039
:1025A0008FE09CE02CE135E0B9010E94926B8FE056
:1025B0009CE021E432E0B9010E94926B8FE09CE044
:1025C00029E532E0B9010E94926B8FE09CE00E9405
:1025D000F9680C940E1F8B899C8925E135E0B901BF
:1025E00046E050E00E94D37C009721F580E99CE012
:1025F0002D853E85B9010E948E60282F30E000D0E5
:1026000000D0EDB7FEB73196CE01855E9C4F918329
:1026100080838CE295E093838283358324830E94B8
:10262000E97DADB7BEB716960FB6F894BEBF0FBE24
:10263000ADBF8FC08B899C892FE235E0B90144E0A2
:1026400050E00E94D37C009731F58EEC9BE00E9415
:102650000B268D859E858130910509F07AC08EEC20
:102660009BE02CE938E0B9010E94CF27DC01CB01C7
:1026700089879A87AB87BC8789859A85AB85BC8516
:10268000FE01E55EFC4FBC01CD0142E022E08F017E
:102690000E94BA795EC08B899C892EE035E0B90131
:1026A00046E050E00E94D37C0097F9F48D850E94AB
:1026B00015779C0100D000D0EDB7FEB73196CE0162
:1026C000855E9C4F918380838CE295E09383828327
:1026D000358324830E94E97D8DB79EB706960FB699
:1026E000F8949EBF0FBE8DBF34C08B899C892DEF9F
:1026F00034E0B90147E050E00E94D37C009749F5EF
:1027000089899A890E94277C98878F838F810E946C
:10271000F1789E838D838D819E811816190654F061
:10272000CE01855E9C4F2AE035E0B90144E050E0DF
:102730000E94967C8D819E811816190654F4CE0154
:10274000855E9C4F25E035E0B90145E050E00E94F0
:10275000967CCE01815D9C4F24E335E0B9010E9457
:10276000B50CCE01815D9C4F29893A89B9010E943F
:10277000B50CCE01815D9C4F27E335E0B9010E9485
:10278000B50CCE01815D9C4F9E01255E3C4FB90189
:102790000E94B50CCE01815D9C4F2BE335E0B90161
:1027A0000E94B50C8FE09CE02CE135E0B9010E945D
:1027B000926B8FE09CE021E432E0B9010E94926BC1
:1027C0008FE09CE02EE335E0B9010E94926B8FE030
:1027D0009CE029E532E0B9010E94926B8FE09CE019
:1027E0000E94F9688FE09CE09E01215D3C4FB90199
:1027F0000E94D86B0C940E1F8B899C892DE535E0C7
:10280000B90146E050E00E94D37C009709F024C152
:10281000CE01815D9C4F24E635E0B9010E94B50CE4
:10282000CE018C519D4F26E635E0B9010E94720C15
:10283000CE0183529D4F21EE3BE0B9010E945A0721
:10284000CE018C519D4F9E0123523D4FB9010E94F4
:10285000B17224E735E0B9010E9495729C01CE0166
:10286000815D9C4FB9010E948A0CCE0183529D4F1D
:102870000E94D975CE018C519D4F0E94A40CCE01AF
:102880008A529D4F28E735E0B9010E94720CCE01B3
:1028900081539D4F29EF3BE0B9010E943309CE01DE
:1028A0008A529D4F9E0121533D4FB9010E94B17242
:1028B00024E735E0B9010E9495729C01CE01815D4B
:1028C0009C4FB9010E948A0CCE0181539D4F0E94FA
:1028D000D975CE018A529D4F0E94A40CCE01885317
:1028E0009D4F24E835E0B9010E94720CCE018F5350
:1028F0009D4F21E03CE0B9010E948105CE01885343
:102900009D4F9E012F533D4FB9010E94B17224E7A4
:1029100035E0B9010E9495729C01CE01815D9C4F0A
:10292000B9010E948A0CCE018F539D4F0E94D97528
:10293000CE0188539D4F0E94A40CCE0186549D4F1A
:1029400020E935E0B9010E94720C0E94C80A9C017E
:10295000CE018D549D4FB9014AE00E945F74CE01B3
:1029600086549D4F9E012D543D4FB9010E94B17276
:1029700024E735E0B9010E9495729C01CE01815D8A
:102980009C4FB9010E948A0CCE018D549D4F0E942C
:10299000D975CE0186549D4F0E94A40CCE0184555A
:1029A0009D4F24EA35E0B9010E94720C0E944F76D7
:1029B0009B01AC01CE018B559D4FBA01A9012AE0C4
:1029C0000E943573CE0184559D4F9E012B553D4F7E
:1029D000B9010E94B17224E735E0B9010E949572F5
:1029E0009C01CE01815D9C4FB9010E948A0CCE01F1
:1029F0008B559D4F0E94D975CE0184559D4F0E94E5
:102A0000A40CCE0182569D4F2FEA35E0B9010E94F9
:102A1000720CCE0182569D4F29E23CE0B9010E9422
:102A2000B1722DEB35E0B9010E9495729C01CE0187
:102A3000815D9C4FB9010E948A0CCE0182569D4F48
:102A40000E94A40CCE01815D9C4F20EC35E0B901C1
:102A50000E94B50C0C94E61E8B899C8922EC35E013
:102A6000B90146E050E00E94D37C009709F048C5C8
:102A70008EEC9BE00E940B268EEC9BE02CE938E06C
:102A8000B9010E94CF27DC01CB0189839A83AB83F4
:102A9000BC8389819A81AB81BC81FE01EA5CFC4FD9
:102AA000BC01CD0142E022E08F010E94BA79CE0143
:102AB000815D9C4F24E635E0B9010E94B50CCE0142
:102AC00089569D4F29EC35E0B9010E94720C809126
:102AD0008208909183080E94F1789C01CE01805772
:102AE0009D4FB9014AE00E945F74CE0189569D4F07
:102AF0009E0120573D4FB9010E94B17224E735E095
:102B0000B9010E9495729C01CE01815D9C4FB90173
:102B10000E948A0CCE0180579D4F0E94D975CE012C
:102B200089569D4F0E94A40CCE0187579D4F25EDDD
:102B300035E0B9010E94720C80918408909185085B
:102B40000E94F1789C01CE018E579D4FB9014AE059
:102B50000E945F74CE0187579D4F9E012E573D4FB7
:102B6000B9010E94B17224E735E0B9010E94957263
:102B70009C01CE01815D9C4FB9010E948A0CCE015F
:102B80008E579D4F0E94D975CE0187579D4F0E9449
:102B9000A40CCE0185589D4F21EE35E0B9010E946D
:102BA000720C80918608909187080E94F1789C01B0
:102BB000CE018C589D4FB9014AE00E945F74CE014E
:102BC00085589D4F9E012C583D4FB9010E94B1720E
:102BD00024E735E0B9010E9495729C01CE01815D28
:102BE0009C4FB9010E948A0CCE018C589D4F0E94C7
:102BF000D975CE0185589D4F0E94A40CCE018359F2
:102C00009D4F2DEE35E0B9010E94720C809188082D
:102C1000909189080E94F1789C01CE018A599D4FBC
:102C2000B9014AE00E945F74CE0183599D4F9E0115
:102C30002A593D4FB9010E94B17224E735E0B9012C
:102C40000E9495729C01CE01815D9C4FB9010E944A
:102C50008A0CCE018A599D4F0E94D975CE018359A5
:102C60009D4F0E94A40CCE01815A9D4F29EF35E063
:102C7000B9010E94720C80918A0890918B080E9481
:102C8000F1789C01CE01885A9D4FB9014AE00E941B
:102C90005F74CE01815A9D4F9E01285A3D4FB90164
:102CA0000E94B17224E735E0B9010E9495729C013F
:102CB000CE01815D9C4FB9010E948A0CCE01885AD9
:102CC0009D4F0E94D975CE01815A9D4F0E94A40C40
:102CD000CE018F5A9D4F25E036E0B9010E94720C5B
:102CE00080918C0890918D080E94F1789C01CE0112
:102CF000865B9D4FB9014AE00E945F74CE018F5AF6
:102D00009D4F9E01265B3D4FB9010E94B17224E7A1
:102D100035E0B9010E9495729C01CE01815D9C4F06
:102D2000B9010E948A0CCE01865B9D4F0E94D97525
:102D3000CE018F5A9D4F0E94A40CCE018D5B9D4FFA
:102D400021E136E0B9010E94720C80918E089091C9
:102D50008F080E94F1789C01CE01845C9D4FB901DF
:102D60004AE00E945F74CE018D5B9D4F9E01245C02
:102D70003D4FB9010E94B17224E735E0B9010E94CC
:102D800095729C01CE01815D9C4FB9010E948A0C15
:102D9000CE01845C9D4F0E94D975CE018D5B9D4F05
:102DA0000E94A40CCE018B5C9D4F2DE136E0B90151
:102DB0000E94720C80919008909191080E94F17885
:102DC0009C01CE01825D9D4FB9014AE00E945F7473
:102DD000CE018B5C9D4F9E01225D3D4FB9010E944B
:102DE000B17224E735E0B9010E9495729C01CE01D1
:102DF000815D9C4FB9010E948A0CCE01825D9D4F7E
:102E00000E94D975CE018B5C9D4F0E94A40CCE010F
:102E1000895D9D4F29E236E0B9010E94720C8091D4
:102E20009208909193080E94F1789C01CE01805EF7
:102E30009D4FB9014AE00E945F74CE01895D9D4FAC
:102E40009E01205E3D4FB9010E94B17224E735E03A
:102E5000B9010E9495729C01CE01815D9C4FB90120
:102E60000E948A0CCE01805E9D4F0E94D975CE01D2
:102E7000895D9D4F0E94A40CCE01875E9D4F22E488
:102E800036E0B9010E94720C8091940890919508E7
:102E90000E94F1789C01CE018E5E9D4FB9014AE0FF
:102EA0000E945F74CE01875E9D4F9E012E5E3D4F56
:102EB000B9010E94B17224E735E0B9010E94957210
:102EC0009C01CE01815D9C4FB9010E948A0CCE010C
:102ED0008E5E9D4F0E94D975CE01875E9D4F0E94E8
:102EE000A40CCE01855F9D4F2CE536E0B9010E9410
:102EF000720C80919608909197080E94F1789C013D
:102F0000CE018C5F9D4FB9014AE00E945F74CE01F3
:102F1000855F9D4F9E012C5F3D4FB9010E94B172AC
:102F200024E735E0B9010E9495729C01CE01815DD4
:102F30009C4FB9010E948A0CCE018C5F9D4F0E946C
:102F4000D975CE01855F9D4F0E94A40CCE018350A0
:102F50009E4F26E736E0B9010E94720C80919808D6
:102F6000909199080E94F1789C01CE018A509E4F61
:102F7000B9014AE00E945F74CE0183509E4F9E01CA
:102F80002A503E4FB9010E94B17224E735E0B901E1
:102F90000E9495729C01CE01815D9C4FB9010E94F7
:102FA0008A0CCE018A509E4F0E94D975CE01835063
:102FB0009E4F0E94A40CCE0181519E4F2AE836E01C
:102FC000B9010E94720C80919A0890919B080E940E
:102FD000F1789C01CE0188519E4FB9014AE00E94D0
:102FE0005F74CE0181519E4F9E0128513E4FB90121
:102FF0000E94B17224E735E0B9010E9495729C01EC
:10300000CE01815D9C4FB9010E948A0CCE0188518E
:103010009E4F0E94D975CE0181519E4F0E94A40CF3
:10302000CE018F519E4F2EE936E0B9010E94720CFD
:10303000CE0186529E4F9E012A5C3C4FB9010E94F0
:10304000E872CE018F519E4F9E0126523E4FB9012C
:103050000E94B17224E735E0B9010E9495729C018B
:10306000CE01815D9C4FB9010E948A0CCE0186522F
:103070009E4F0E94D975CE018F519E4F0E94A40C85
:10308000CE018D529E4F20EB36E0B9010E94720CAA
:103090002091BD0BCE0184539E4F622F4AE00E94C7
:1030A000C174CE018D529E4F9E0124533E4FB901F3
:1030B0000E94B17224E735E0B9010E9495729C012B
:1030C000CE01815D9C4FB9010E948A0CCE018453D0
:1030D0009E4F0E94D975CE018D529E4F0E94A40C26
:1030E000CE018B539E4F2AEC36E0B9010E94720C40
:1030F0002091B90B3091BA0BCE0182549E4FB90189
:103100004AE00E945F74CE018B539E4F9E01225471
:103110003E4FB9010E94B17224E735E0B9010E9427
:1031200095729C01CE01815D9C4FB9010E948A0C71
:10313000CE0182549E4F0E94D975CE018B539E4F73
:103140000E94A40CCE0189549E4F2DED36E0B901AA
:103150000E94720C2091BB0B3091BC0BCE018055AC
:103160009E4FB9014AE00E945F74CE0189549E4F80
:103170009E0120553E4FB9010E94B17224E735E00F
:10318000B9010E9495729C01CE01815D9C4FB901ED
:103190000E948A0CCE0180559E4F0E94D975CE01A7
:1031A00089549E4F0E94A40CCE0187559E4F29EE54
:1031B00036E0B9010E94720C2091B30B3091B40B30
:1031C000CE018E559E4FB9014AE00E945F74CE0138
:1031D00087559E4F9E012E553E4FB9010E94B172F8
:1031E00024E735E0B9010E9495729C01CE01815D12
:1031F0009C4FB9010E948A0CCE018E559E4F0E94B1
:10320000D975CE0187559E4F0E94A40CCE018556DC
:103210009E4F2CEF36E0B9010E94720C2091B30B47
:103220003091B40B87E09BE0B9010E94E731282F71
:10323000CE018C569E4F622F4AE00E94C174CE018F
:1032400085569E4F9E012C563E4FB9010E94B17289
:1032500024E735E0B9010E9495729C01CE01815DA1
:103260009C4FB9010E948A0CCE018C569E4F0E9441
:10327000D975CE0185569E4F0E94A40CCE0183576E
:103280009E4F24E137E0B9010E94720C2091B50BEA
:103290003091B60BCE018A579E4FB9014AE00E9489
:1032A0005F74CE0183579E4F9E012A573E4FB9014E
:1032B0000E94B17224E735E0B9010E9495729C0129
:1032C000CE01815D9C4FB9010E948A0CCE018A57C4
:1032D0009E4F0E94D975CE0183579E4F0E94A40C29
:1032E000CE0181589E4F26E237E0B9010E94720C50
:1032F0002091B50B3091B60B87E09BE0B9010E949D
:10330000E731282FCE0188589E4F622F4AE00E9455
:10331000C174CE0181589E4F9E0128583E4FB9017D
:103320000E94B17224E735E0B9010E9495729C01B8
:10333000CE01815D9C4FB9010E948A0CCE01885854
:103340009E4F0E94D975CE0181589E4F0E94A40CB9
:10335000CE018F589E4F2DE337E0B9010E94720CC9
:103360002091B70B3091B80BCE0186599E4FB90111
:103370004AE00E945F74CE018F589E4F9E012659ED
:103380003E4FB9010E94B17224E735E0B9010E94B5
:1033900095729C01CE01815D9C4FB9010E948A0CFF
:1033A000CE0186599E4F0E94D975CE018F589E4FEF
:1033B0000E94A40CCE018D599E4F20E537E0B90143
:1033C0000E94720C2091B70B3091B80B87E09BE004
:1033D000B9010E94E731282FCE01845A9E4F622FF7
:1033E0004AE00E94C174CE018D599E4F9E01245A1D
:1033F0003E4FB9010E94B17224E735E0B9010E9445
:1034000095729C01CE01815D9C4FB9010E948A0C8E
:10341000CE01845A9E4F0E94D975CE018D599E4F80
:103420000E94A40CCE018B5A9E4F28E637E0B901CA
:103430000E94720C87E09BE00E9488329C01CE01C2
:10344000825B9E4FB9014AE00E945F74CE018B5AA5
:103450009E4F9E01225B3E4FB9010E94B17224E74C
:1034600035E0B9010E9495729C01CE01815D9C4FAF
:10347000B9010E948A0CCE01825B9E4F0E94D975D1
:10348000CE018B5A9E4F0E94A40CCE01895B9E4FA9
:1034900029E737E0B9010E94720C2091BE0B3091F0
:1034A000BF0BCE01805C9E4FB9014AE00E945F7461
:1034B000CE01895B9E4F9E01205C3E4FB9010E9468
:1034C000B1722DEB35E0B9010E9495729C01CE01DD
:1034D000815D9C4FB9010E948A0CCE01805C9E4F99
:1034E0000E94D975CE01895B9E4F0E94A40CCE012B
:1034F000815D9C4F20EC35E0B9010E94B50C66C49B
:103500008B899C8923E937E0B90146E050E00E94AD
:10351000D37C009709F09BC2CE01815D9C4F24E6CD
:1035200035E0B9010E94B50CCE01875C9E4F29ECB5
:1035300035E0B9010E94720C209182083091830815
:10354000CE018E5C9E4FB9014AE00E945F74CE01AD
:10355000875C9E4F9E012E5C3E4FB9010E94B17266
:1035600024E735E0B9010E9495729C01CE01815D8E
:103570009C4FB9010E948A0CCE018E5C9E4F0E9426
:10358000D975CE01875C9E4F0E94A40CCE01855D4B
:103590009E4F25ED35E0B9010E94720C2091840800
:1035A00030918508CE018C5D9E4FB9014AE00E94A2
:1035B0005F74CE01855D9E4F9E012C5D3E4FB9012B
:1035C0000E94B17224E735E0B9010E9495729C0116
:1035D000CE01815D9C4FB9010E948A0CCE018C5DA9
:1035E0009E4F0E94D975CE01855D9E4F0E94A40C0E
:1035F000CE01835E9E4F21EE35E0B9010E94720C30
:103600002091860830918708CE018A5E9E4FB901CD
:103610004AE00E945F74CE01835E9E4F9E012A5E47
:103620003E4FB9010E94B17224E735E0B9010E9412
:1036300095729C01CE01815D9C4FB9010E948A0C5C
:10364000CE018A5E9E4F0E94D975CE01835E9E4F49
:103650000E94A40CCE01815F9E4F2DEE35E0B90192
:103660000E94720C2091880830918908CE01885FF1
:103670009E4FB9014AE00E945F74CE01815F9E4F68
:103680009E01285F3E4FB9010E94B17224E735E0E8
:10369000B9010E9495729C01CE01815D9C4FB901D8
:1036A0000E948A0CCE01885F9E4F0E94D975CE0180
:1036B000815F9E4F0E94A40CCE018F5F9E4F29EF29
:1036C00035E0B9010E94720C20918A0830918B0874
:1036D000CE0186509F4FB9014AE00E945F74CE012F
:1036E0008F5F9E4F9E0126503F4FB9010E94B172DD
:1036F00024E735E0B9010E9495729C01CE01815DFD
:103700009C4FB9010E948A0CCE0186509F4F0E94A7
:10371000D975CE018F5F9E4F0E94A40CCE018D50B3
:103720009F4F25E036E0B9010E94720C20918C0871
:1037300030918D08CE0184519F4FB9014AE00E941B
:103740005F74CE018D509F4F9E0124513F4FB901B0
:103750000E94B17224E735E0B9010E9495729C0184
:10376000CE01815D9C4FB9010E948A0CCE0184512B
:103770009F4F0E94D975CE018D509F4F0E94A40C7F
:10378000CE018B519F4F21E136E0B9010E94720CAE
:1037900020918E0830918F08CE0182529F4FB9013F
:1037A0004AE00E945F74CE018B519F4F9E012252CE
:1037B0003F4FB9010E94B17224E735E0B9010E9480
:1037C00095729C01CE01815D9C4FB9010E948A0CCB
:1037D000CE0182529F4F0E94D975CE018B519F4FCF
:1037E0000E94A40CCE0189529F4F2DE136E0B90111
:1037F0000E94720C2091900830919108CE01805364
:103800009F4FB9014AE00E945F74CE0189529F4FD9
:103810009E0120533F4FB9010E94B17224E735E069
:10382000B9010E9495729C01CE01815D9C4FB90146
:103830000E948A0CCE0180539F4F0E94D975CE0101
:1038400089529F4F0E94A40CCE0187539F4F29E2BB
:1038500036E0B9010E94720C2091920830919308D1
:10386000CE018E539F4FB9014AE00E945F74CE0192
:1038700087539F4F9E012E533F4FB9010E94B17253
:1038800024E735E0B9010E9495729C01CE01815D6B
:103890009C4FB9010E948A0CCE018E539F4F0E940B
:1038A000D975CE0187539F4F0E94A40CCE01855439
:1038B0009F4F22E436E0B9010E94720C20919408D7
:1038C00030919508CE018C549F4FB9014AE00E9477
:1038D0005F74CE0185549F4F9E012C543F4FB90118
:1038E0000E94B17224E735E0B9010E9495729C01F3
:1038F000CE01815D9C4FB9010E948A0CCE018C548F
:103900009F4F0E94D975CE0185549F4F0E94A40CF1
:10391000CE0183559F4F2CE536E0B9010E94720C11
:103920002091960830919708CE018A559F4FB90192
:103930004AE00E945F74CE0183559F4F9E012A5535
:103940003F4FB9010E94B17224E735E0B9010E94EE
:1039500095729C01CE01815D9C4FB9010E948A0C39
:10396000CE018A559F4F0E94D975CE0183559F4F36
:103970000E94A40CCE0181569F4F26E736E0B90184
:103980000E94720C2091980830919908CE018856B7
:103990009F4FB9014AE00E945F74CE0181569F4F4C
:1039A0009E0128563F4FB9010E94B17224E735E0CD
:1039B000B9010E9495729C01CE01815D9C4FB901B5
:1039C0000E948A0CCE0188569F4F0E94D975CE0165
:1039D00081569F4F0E94A40CCE018F569F4F2AE81C
:1039E00036E0B9010E94720C20919A0830919B0830
:1039F000CE0186579F4FB9014AE00E945F74CE0105
:103A00008F569F4F9E0126573F4FB9010E94B172BA
:103A10002DEB35E0B9010E9495729C01CE01815DCC
:103A20009C4FB9010E948A0CCE0186579F4F0E947D
:103A3000D975CE018F569F4F0E94A40CCE01815D97
:103A40009C4F20EC35E0B9010E94B50CBFC18B89B9
:103A50009C892AE937E0B90146E050E00E94D37C16
:103A6000009709F0A3C1CE01815D9C4F24E635E0AB
:103A7000B9010E94B50CCE018D579F4F21EA37E066
:103A8000B9010E94720C80E39CE00E943602282F4C
:103A900030E0CE0184589F4FB9014AE00E945F7424
:103AA000CE018D579F4F9E0124583F4FB9010E9470
:103AB000B17224E735E0B9010E9495729C01CE01F4
:103AC000815D9C4FB9010E948A0CCE0184589F4FA2
:103AD0000E94D975CE018D579F4F0E94A40CCE0134
:103AE0008B589F4F2DEB37E0B9010E94720C80E399
:103AF0009CE00E944D02282F30E0CE0182599F4F5A
:103B0000B9014AE00E945F74CE018B589F4F9E011D
:103B100022593F4FB9010E94B17224E735E0B90143
:103B20000E9495729C01CE01815D9C4FB9010E945B
:103B30008A0CCE0182599F4F0E94D975CE018B58B5
:103B40009F4F0E94A40CCE0189599F4F2AED37E068
:103B5000B9010E94720C80E39CE00E946402282F4D
:103B600030E0CE01805A9F4FB9014AE00E945F7455
:103B7000CE0189599F4F9E01205A3F4FB9010E94A3
:103B8000B17224E735E0B9010E9495729C01CE0123
:103B9000815D9C4FB9010E948A0CCE01805A9F4FD3
:103BA0000E94D975CE0189599F4F0E94A40CCE0165
:103BB000875A9F4F25EF37E0B9010E94720C80E3CE
:103BC0009CE00E947B029C01CE018E5A9F4FB9015E
:103BD0004AE00E945F74CE01875A9F4F9E012E5A81
:103BE0003F4FB9010E94B17224E735E0B9010E944C
:103BF00095729C01CE01815D9C4FB9010E948A0C97
:103C0000CE018E5A9F4F0E94D975CE01875A9F4F81
:103C10000E94A40CCE01855B9F4F22E138E0B901E0
:103C20000E94720C80E39CE00E948D029C01CE01F8
:103C30008C5B9F4FB9014AE00E945F74CE01855BA7
:103C40009F4F9E012C5B3F4FB9010E94B17224E748
:103C500035E0B9010E9495729C01CE01815D9C4FB7
:103C6000B9010E948A0CCE018C5B9F4F0E94D975CE
:103C7000CE01855B9F4F0E94A40CCE01CD962DE214
:103C800038E0B9010E94720C80E39CE00E949F0220
:103C90009B01AC01CE01C696BA01A9012AE00E949F
:103CA0009973CE01CD969E012A5C3F4FB9010E94C7
:103CB000B17224E735E0B9010E9495729C01CE01F2
:103CC000815D9C4FB9010E948A0CCE01C6960E946C
:103CD000D975CE01CD960E94A40CCE018F9626E414
:103CE00038E0B9010E94720C80E39CE00E94B402AB
:103CF0009B01AC01CE018896BA01A9012AE00E947D
:103D00009973CE018F969E01285D3F4FB9010E94A5
:103D1000B17224E735E0B9010E9495729C01CE0191
:103D2000815D9C4FB9010E948A0CCE0188960E9449
:103D3000D975CE018F960E94A40CCE0181962EE5F6
:103D400038E0B9010E94720C80E39CE00E94C90235
:103D50009B01AC01CE014A96BA01A9012AE00E945A
:103D60009973CE0181969E01265E3F4FB9010E9454
:103D7000B1722DEB35E0B9010E9495729C01CE0124
:103D8000815D9C4FB9010E948A0CCE014A960E9427
:103D9000D975CE0181960E94A40CCE01815D9C4F05
:103DA00020EC35E0B9010E94B50C10C08B899C89CC
:103DB00024E738E0B9014CE050E00E94D37C009742
:103DC00019F40E94CF0C02C00E94220C8FE09CE0EC
:103DD0002CE135E0B9010E94926B8FE09CE021E478
:103DE00032E0B9010E94926B8FE09CE02EE335E057
:103DF000B9010E94926B8FE09CE029E532E0B901A5
:103E00000E94926B8FE09CE00E94F9688FE09CE03A
:103E10009E01215D3C4FB9010E94D86BCE01815DAE
:103E20009C4F0E94D975CE018C5E9C4F0E94D97523
:103E3000CE01835F9C4F0E94D9751FC08FE09CE02C
:103E40000E943756C35CDB4F8883CD53D440C35C9C
:103E5000DB4F9881CD53D440992331F0A1E0C35C6E
:103E6000DB4FA883CD53D440C35CDB4F8881CD5357
:103E7000D440882311F00C94291164E670E080E0AE
:103E800090E00E9483768FE09CE00E947556C35CB0
:103E9000DB4F0FB6F894DEBF0FBECDBFCF91DF91E1
:103EA0001F910F910895DF93CF9300D000D0CDB72D
:103EB000DEB781EE9BE00E9432079C01CE010196A5
:103EC000B9010E94376882E79CE024EA38E0B90132
:103ED0009E012F5F3F4FA9010E94145389E09CE08F
:103EE0000E94AC5B8EEC9BE00E94982A8091820835
:103EF0009091830861E00E942478809184089091D9
:103F0000850861E00E942478809186089091870856
:103F100061E00E942478809188089091890861E08E
:103F20000E94247880918A0890918B0861E00E9419
:103F3000247880918C0890918D0861E00E9424780B
:103F400080918E0890918F0861E00E942478809182
:103F500090089091910861E00E94247880919208E5
:103F60009091930861E00E94247880919408909148
:103F7000950861E00E9424788091960890919708B6
:103F800061E00E942478809198089091990860E0FF
:103F90000E94247880919A0890919B0860E00E948A
:103FA000247880E39CE00E943602882399F080E325
:103FB0009CE00E94C9029B01AC0187E09BE0EAE81B
:103FC000FFE0BA01A9019F010E948E339093B80BC4
:103FD0008093B70B26960FB6F894DEBF0FBECDBF09
:103FE000CF91DF910895DF93CF93CDB7DEB70E94D5
:103FF000B3760E94531F0E94FA10FDCFDF93CF9338
:1040000000D00F92CDB7DEB79A8389837C836B8310
:10401000E981FA8183E692E2928B818BE981FA81D0
:104020008B819C8196838583E981FA811482E98161
:10403000FA811082E981FA8189E08183E981FA813C
:1040400081E08283E981FA8181E083830F900F9080
:104050000F900F90CF91DF910895DF93CF9300D011
:104060000F92CDB7DEB79A8389837C836B83E98116
:10407000FA8183E692E2928B818BE981FA818B81CE
:104080009C8196838583E981FA811482E981FA8192
:104090001082E981FA8189E08183E981FA8181E0F6
:1040A0008283E981FA8181E083830F900F900F90E2
:1040B0000F90CF91DF910895DF93CF930F920F92DE
:1040C000CDB7DEB79A838983E981FA8184810F9025
:1040D0000F90CF91DF910895DF93CF930F920F92BE
:1040E000CDB7DEB79A838983E981FA8181810F9008
:1040F0000F90CF91DF910895DF93CF9300D0CDB78C
:10410000DEB79A8389836B83E981FA818B8182830D
:104110000F900F900F90CF91DF910895DF93CF9381
:104120000F920F92CDB7DEB79A838983E981FA8126
:1041300082810F900F90CF91DF910895DF93CF93FD
:1041400000D0CDB7DEB79A8389836B83E981FA818A
:104150008B8183830F900F900F90CF91DF91089503
:10416000DF93CF930F920F92CDB7DEB79A838983F7
:10417000E981FA8183810F900F90CF91DF910895AB
:10418000AF92BF92CF92DF92EF92FF920F931F9365
:10419000DF93CF93CDB7DEB764970FB6F894DEBF49
:1041A0000FBECDBF9C838B837E836D8358874F83E7
:1041B0008F819885FC0131968081882F90E0382F7F
:1041C0002227EF81F8858081882F90E0822B932B26
:1041D0009A838983ED81FE818081282F30E0388B9E
:1041E0002F874F8558894232510561F08F85988914
:1041F0008832910539F0AF85B889A031B10509F44D
:104200009FC0F6C08F819885FC0134968081282F4D
:1042100030E03E872D874D855E854F33510509F48B
:104220004FC08D859E85803491053CF4AD85BE855B
:10423000AF31B10509F463C0DBC02D853E852F3554
:10424000310509F14D855E854F37510509F0D0C024
:1042500089819A81AA2797FDA095BA2FBC01CD012B
:104260000E947F64DC01CB01BC01CD0120E030E085
:1042700040E85DE30E947962DC01CB0189879A877F
:10428000AB87BC87B6C089819A8195958795AA2707
:1042900097FDA095BA2FBC01CD010E947F64DC017F
:1042A000CB01BC01CD0120E030E040E05EE30E94A4
:1042B0007962DC01CB0189879A87AB87BC8799C07B
:1042C00089819A819595879595958795AA2797FDD8
:1042D000A095BA2FBC01CD010E947F64DC01CB0107
:1042E000BC01CD0120E030E040E85EE30E9479624D
:1042F000DC01CB0189879A87AB87BC877AC089812B
:104300009A81959587959595879595958795AA27EF
:1043100097FDA095BA2FBC01CD010E947F64DC01FE
:10432000CB01BC01CD0120E030E040E05FE30E9422
:104330007962DC01CB0189879A87AB87BC8759C03A
:1043400089819A8195958795AA2797FDA095BA2F7F
:10435000BC01CD010E947F64DC01CB01BC01CD0119
:1043600020E030E040E85EE30E941B62DC01CB010C
:104370005C016D018F819885FC0137968081282F23
:1043800030E08F819885FC0136968081882F90E0FF
:10439000D901A81BB90BCD01AA2797FDA095BA2F6B
:1043A000BC01CD010E947F647B018C018F819885C7
:1043B000FC0137968081882F90E0A0E0B0E0BC013E
:1043C000CD010E9431659B01AC01C801B7010E947B
:1043D0007363DC01CB019C01AD01C601B5010E94F4
:1043E0004C62DC01CB0189879A87AB87BC8701C00F
:1043F00008C029853A854B855C85298B3A8B4B8B88
:104400005C8B69897A898B899C8964960FB6F8944C
:10441000DEBF0FBECDBFCF91DF911F910F91FF90F7
:10442000EF90DF90CF90BF90AF900895DF93CF9340
:104430000F920F92CDB7DEB79A838983E981FA8113
:1044400080810F900F90CF91DF910895DF93CF93EC
:1044500000D0CDB7DEB79B838A83EA81FB818FEFE3
:104460008787EA81FB81108A19820DC08981282FF4
:1044700030E08A819B81820F931FFC013796108266
:1044800089818F5F89838981873080F30F900F90B6
:104490000F90CF91DF910895DF93CF9300D00F92CB
:1044A000CDB7DEB79A8389837C836B83E981FA81F8
:1044B0008B819C81928B818B0F900F900F900F902E
:1044C000CF91DF910895DF93CF930F920F92CDB7E5
:1044D000DEB79A8389830F900F90CF91DF91089573
:1044E000DF93CF9300D00F92CDB7DEB769837A8385
:1044F0008B839C8369817A818B819C8126E636E659
:1045000046EE5FE30E947962DC01CB01BC01CD0184
:1045100020E030E040E052E40E944C62DC01CB013C
:10452000BC01CD010F900F900F900F90CF91DF91B4
:104530000895DF93CF9300D00F92CDB7DEB7698394
:104540007A838B839C8369817A818B819C8120E033
:1045500030E040E052E40E941B62DC01CB01BC0170
:10456000CD0126E636E646EE5FE30E947363DC018A
:10457000CB01BC01CD010F900F900F900F90CF9108
:10458000DF910895DF93CF93CDB7DEB72D970FB6A8
:10459000F894DEBF0FBECDBF998788877B876A8777
:1045A0008FEF8E8381E08D83E885F985808988236C
:1045B00011F01D86E4C0E885F985858196810E9409
:1045C000E22E1C86882311F481E08C878C85882359
:1045D00011F01D86D4C0E885F985858196816CEE41
:1045E00040E00E94D92D1F82A2C0E885F98585810F
:1045F00096810E94872C8C83E885F9858581968138
:104600000E94872C8B838F818695869586958A83D9
:104610008F81882F90E09C012770307081E090E0BE
:10462000022E02C0880F991F0A94E2F789838C81B9
:10463000882329F08B81882311F01D86A0C08C81EE
:104640008823B9F58B818823A1F5E885F9859785BD
:104650008F81981739F481E08C83E885F9858E8104
:10466000878727C0E885F98597858F818917D8F4D2
:104670008A81282F30E088859985820F931FFC015D
:1046800037968081282F30E08981882F90E082231F
:104690009323009719F081E08C830BC01C821D824C
:1046A0008F818E8306C01C82E885F9858F8187877C
:1046B0001D828C818823C1F08A81482F50E08A8135
:1046C000282F30E088859985820F931FFC0137964B
:1046D00090818981292F282B88859985840F951FA2
:1046E000FC013796208319C08A81482F50E08A81C7
:1046F000282F30E088859985820F931FFC0137961B
:104700008081982F898180958923282F8885998594
:10471000840F951FFC0137962083E885F9858581F4
:1047200096816C810E94552D8F818F5F8F838F8141
:10473000803408F45ACF8D81882321F0E885F985EB
:1047400081E0808B1F8216C08F81282F30E08A8500
:104750009B85DC01A20FB31F8F81282F30E0888555
:104760009985820F931FFC01379680818C938F81EE
:104770008F5F8F838F81883038F381E08D878D85BF
:104780002D960FB6F894DEBF0FBECDBFCF91DF914F
:104790000895DF93CF93CDB7DEB72A970FB6F8947D
:1047A000DEBF0FBECDBF9A87898789859A850E9413
:1047B000262289859A859E012F5F3F4FB9010E946D
:1047C000C2222A960FB6F894DEBF0FBECDBFCF919E
:1047D000DF910895DF93CF9300D000D0CDB7DEB73F
:1047E0009B838A837D836C831982EA81FB81858127
:1047F00096810E94E22EEA81FB81858196812C813F
:104800003D81B9010E94482EEA81FB818581968114
:1048100064EB40E00E94D92DEA81FB81858196817D
:104820000E94872C1E82882311F481E08E838E8162
:10483000882311F081E08983EA81FB81858196815B
:104840000E94E22E898126960FB6F894DEBF0FBE35
:10485000CDBFCF91DF910895DF93CF9300D000D0EB
:10486000CDB7DEB79A8389837C836B835E834D8368
:10487000E981FA81858196810E94E22EE981FA819F
:10488000858196812B813C81B9010E94482EE98166
:10489000FA81858196816EE440E00E94D92DE981FC
:1048A000FA81258136818D819E81FC01329640817D
:1048B000C901642F40E00E94D92DE981FA81258148
:1048C00036818D819E81FC0133964081C901642F20
:1048D00040E00E94D92DEB81FC818081803171F014
:1048E000E981FA81258136818D819E81FC01349692
:1048F0004081C901642F40E00E94D92DE981FA81ED
:10490000858196810E94E22EE981FA812581368196
:10491000E981FA818081482FC90168E40E94D92D7C
:10492000E981FA818081882331F06AE070E080E0DB
:1049300090E00E948376E981FA81858196810E94C8
:10494000E22E26960FB6F894DEBF0FBECDBFCF91F4
:10495000DF9108950F931F93DF93CF9300D000D082
:10496000CDB7DEB79A8389837C836B835E834D8367
:10497000E981FA81858196810E94E22EE981FA819E
:10498000858196812B813C81B9010E94482EE98165
:10499000FA81858196816EEB40E00E94D92DE981F4
:1049A000FA81858196810E94EF2CED81FE818083C2
:1049B0008D819E818C010F5F1F4FE981FA81858176
:1049C00096810E94EF2CF80180838D819E818C015D
:1049D0000E5F1F4FE981FA81858196810E94EF2C3D
:1049E000F80180838D819E818C010D5F1F4FE981CD
:1049F000FA81858196810E94EF2CF80180838D8158
:104A00009E818C010C5F1F4FE981FA81858196811F
:104A10000E94EF2CF80180838D819E818C010B5FB9
:104A20001F4FE981FA81858196810E94EF2CF80160
:104A300080838D819E818C010A5F1F4FE981FA81FD
:104A4000858196810E94EF2CF80180838D819E8163
:104A50008C01095F1F4FE981FA81858196810E944F
:104A6000EF2CF80180838D819E818C01085F1F4FA0
:104A7000E981FA81858196810E94EF2CF80180837B
:104A8000E981FA81858196810E94E22E26960FB6F1
:104A9000F894DEBF0FBECDBFCF91DF911F910F9174
:104AA0000895DF93CF93CDB7DEB72E970FB6F89466
:104AB000DEBF0FBECDBF9B878A877D876C878A85C7
:104AC0009B852C853D85B9019E012F5F3F4FA90134
:104AD0000E94AA2489818E878E85882311F081E027
:104AE0008E878E852E960FB6F894DEBF0FBECDBF93
:104AF000CF91DF910895DF93CF93CDB7DEB72D9798
:104B00000FB6F894DEBF0FBECDBF9E838D8378872E
:104B10006F835A87498789859A850097E1F1ED81EE
:104B2000FE8183818823B9F1ED81FE81908181E04E
:104B30008927882381F10E944F76DC01CB0189838C
:104B40009A83AB83BC838D819E8160E070E00E947C
:104B50005125982F81E0982781E089278823B9F48F
:104B60000E944F76DC01CB0129813A814B815C8127
:104B7000821B930BA40BB50B8E3E22E0920720E024
:104B8000A20720E0B20718F431E03D8701C01D867E
:104B90008D858823C1F6EF81F8858081282F30E04C
:104BA0003C872B878B859C858930910581F02B85EF
:104BB0003C852930310504F18B859C858A3091052F
:104BC00069F02B853C852B30310579F015C06EE5F9
:104BD00070E080E090E00E94837614C06CEB70E09F
:104BE00080E090E00E9483760DC067E771E080E08E
:104BF00090E00E94837606C06EEE72E080E090E066
:104C00000E9483762D960FB6F894DEBF0FBECDBFFF
:104C1000CF91DF910895DF93CF930F920F92CDB78D
:104C2000DEB79A838983E981FA81858196810E9422
:104C3000E22EE981FA81858196810E94352EE981F3
:104C4000FA8125813681E981FA818081482FC90165
:104C500064E40E94D92DE981FA81928181E089275B
:104C6000882361F489819A819C012F5F3F4F89815C
:104C70009A81B90140E050E00E947B250F900F908F
:104C8000CF91DF910895DF93CF93CDB7DEB727970C
:104C90000FB6F894DEBF0FBECDBF9A8389837C83A5
:104CA0006B835E834D8389819A812B813C814D8109
:104CB0005E81B9010E94AA248D819E8168E00E94D4
:104CC0007C2B282F8D819E81FC01389680811F824C
:104CD000281711F481E08F838F8127960FB6F894FF
:104CE000DEBF0FBECDBFCF91DF910895DF93CF938D
:104CF000CDB7DEB762970FB6F894DEBF0FBECDBF5B
:104D00009F878E87798B688B8E859F8528893989C7
:104D1000AE014B5F5F4FB9010E944326882371F1BA
:104D20008E859F8528893989AE014B5F5F4FB90118
:104D30000E94C020DC01CB0189839A83AB83BC83B2
:104D400069817A818B819C810E94A360DC01CB0107
:104D5000982F8885891718F081E08A8B10C06981A7
:104D60007A818B819C810E94A360DC01CB01982F0A
:104D70008F81981718F081E08A8B01C01A8A8A897E
:104D800062960FB6F894DEBF0FBECDBFCF91DF9114
:104D90000895DF93CF93CDB7DEB72E970FB6F89473
:104DA000DEBF0FBECDBF9B878A877D876C878A85D4
:104DB0009B852C853D85B9019E012F5F3F4FA90141
:104DC0000E944326882319F08C818E8702C081E8D7
:104DD0008E878E852E960FB6F894DEBF0FBECDBFA0
:104DE000CF91DF910895DF93CF93CDB7DEB72E97A4
:104DF0000FB6F894DEBF0FBECDBF9B878A877D8735
:104E00006C878A859B852C853D85B9019E012F5F26
:104E10003F4FA9010E944326882319F08B818E877A
:104E200002C081E88E878E852E960FB6F894DEBF7D
:104E30000FBECDBFCF91DF910895DF93CF93CDB754
:104E4000DEB72E970FB6F894DEBF0FBECDBF9B879F
:104E50008A877D876C874E878E858E3710F08DE729
:104E60008E878A859B852C853D85B9019E012F5FA4
:104E70003F4FA9010E944326882369F08E858C83C9
:104E80008A859B852C853D85B9019E012F5F3F4F0B
:104E9000A9010E942C242E960FB6F894DEBF0FBEF7
:104EA000CDBFCF91DF910895DF93CF93CDB7DEB71C
:104EB0002E970FB6F894DEBF0FBECDBF9B878A87B3
:104EC0007D876C874E878E858E3710F08DE78E87B5
:104ED0008A859B852C853D85B9019E012F5F3F4FBB
:104EE000A9010E944326882369F08E858B838A85D9
:104EF0009B852C853D85B9019E012F5F3F4FA90100
:104F00000E942C242E960FB6F894DEBF0FBECDBFA4
:104F1000CF91DF910895DF93CF93CDB7DEB761973F
:104F20000FB6F894DEBF0FBECDBF9B878A877D8703
:104F30006C878A859B852C853D85B9019E012F5FF5
:104F40003F4FA9010E944326882391F08A859B85C3
:104F50002C853D85B9019E012F5F3F4FA9010E941D
:104F6000C020DC01CB018E879F87A88BB98B08C03E
:104F700080E090E0AEEFB2EC8E879F87A88BB98B74
:104F80008E859F85A889B989BC01CD0161960FB630
:104F9000F894DEBF0FBECDBFCF91DF910895DF93B0
:104FA000CF9300D00F92CDB7DEB79A8389837C83ED
:104FB0006B8389819A812B813C81B9010E948B2767
:104FC000DC01CB01BC01CD010E947022DC01CB01D0
:104FD000BC01CD010F900F900F900F90CF91DF91FA
:104FE0000895DF93CF93CDB7DEB760970FB6F894EF
:104FF000DEBF0FBECDBF9B878A877D876C87EC8520
:10500000FD858081803119F429E0288B39C08A859B
:105010009B852C853D85B9019E012F5F3F4FA901DE
:105020000E944326882359F18D81282F30E03F8745
:105030002E878E859F858F339105D9F02E853F85EC
:105040002034310534F48E859F858F319105A1F090
:1050500016C02E853F852F35310541F08E859F8501
:105060008F37910561F49CE0988B0AC02BE0288B68
:1050700007C03AE0388B04C089E0888B01C0188AE9
:10508000888960960FB6F894DEBF0FBECDBFCF9172
:10509000DF910895DF93CF93CDB7DEB72F970FB68B
:1050A000F894DEBF0FBECDBF9C878B877E876D8750
:1050B000EB85FC85858196810E94E22EEB85FC853F
:1050C000858196812D853E85B9010E94482EEB850C
:1050D000FC8525813681EB85FC858081482FC901BF
:1050E00064E40E94D92D8B859C852D853E85B90170
:1050F0009E012F5F3F4FA9010E944326982F81E018
:105100008927882311F01F861EC0EB85FC859281BC
:1051100081E08927882319F081E08F8714C08B856F
:105120009C852D853E85B9010E94F1278A878B8554
:105130009C859E01265F3F4F4D855E85B9010E948B
:105140007B2581E08F878F852F960FB6F894DEBF81
:105150000FBECDBFCF91DF910895DF93CF93CDB731
:10516000DEB761970FB6F894DEBF0FBECDBF9B8749
:105170008A877D876C874E878A859B852C853D85B0
:10518000B9019E012F5F3F4FA9010E94432688234A
:10519000B9F1EC85FD858081803179F18E85282FEC
:1051A00030E0398B288B888999898A309105A9F05C
:1051B000288939892A3031059CF0888999898B3072
:1051C000910541F0288939892C30310549F48FE760
:1051D0008D8308C08FE58D8305C08FE38D8302C06A
:1051E0008FE18D838A859B852C853D85B9019E0144
:1051F0002F5F3F4FA9010E942C2431E03F8701C05F
:105200001F868F8561960FB6F894DEBF0FBECDBFA7
:10521000CF91DF910895DF93CF93CDB7DEB72D9770
:105220000FB6F894DEBF0FBECDBF9B878A877D8700
:105230006C878A859B852C853D85B9019E012F5FF2
:105240003F4FA9010E9443262D960FB6F894DEBF6A
:105250000FBECDBFCF91DF910895DF93CF9300D0E4
:105260000F920F92CDB7DEB79A8389837C836B83CD
:105270008B819C8167E00E947C2B282F8B819C81F5
:10528000FC01379680811D82281711F481E08D83FF
:105290008D810F900F900F900F900F90CF91DF9115
:1052A0000895DF93CF93CDB7DEB72A970FB6F89462
:1052B000DEBF0FBECDBF9A87898789859A850E94F8
:1052C000262212C089859A859E012F5F3F4FB90122
:1052D0000E942D29882341F0E985FA850188F28909
:1052E000E02DCE010196199589859A859E012F5F43
:1052F0003F4FB9010E94C222882321F72A960FB698
:10530000F894DEBF0FBECDBFCF91DF910895DF933C
:10531000CF93CDB7DEB729970FB6F894DEBF0FBE97
:10532000CDBF9B838A837D836C834E831982EA8100
:10533000FB81858196810E944D2B1DC099818E81B4
:10534000981779F48A819B812C813D81B9010E9453
:105350002D29982F81E08927882319F481E08887F7
:1053600001C018868885882319F081E08F831AC0D0
:1053700089818F5F898399818E81891770F0EA8195
:10538000FB81858196812C813D81B9010E94812F0D
:10539000882319F081E0898701C0198689858823CF
:1053A00069F61F828F8129960FB6F894DEBF0FBE73
:1053B000CDBFCF91DF910895DF93CF93CDB7DEB707
:1053C0002B970FB6F894DEBF0FBECDBF9A878987A3
:1053D0006B8789859A859E012F5F3F4FB9014B8569
:1053E0000E94872989859A859E012F5F3F4FB901C9
:1053F0000E948B27DC01CB01BC01CD012B960FB69F
:10540000F894DEBF0FBECDBFCF91DF910895DF933B
:10541000CF9300D0CDB7DEB79A8389836B83898120
:105420009A816B810E94DC29DC01CB01BC01CD019A
:105430000E947022DC01CB01BC01CD010F900F90C6
:105440000F90CF91DF910895DF93CF93CDB7DEB763
:105450002B970FB6F894DEBF0FBECDBF9A87898712
:105460006B8789859A859E012F5F3F4FB9014B85D8
:105470000E94872989859A859E012F5F3F4FB90138
:105480000E944A282B960FB6F894DEBF0FBECDBF00
:10549000CF91DF910895DF93CF93CDB7DEB72E97ED
:1054A0000FB6F894DEBF0FBECDBF9C878B876D878C
:1054B0008D85893040F08D858E878E858D3028F0E2
:1054C0008CE08E8702C089E08E87EB85FC858E8517
:1054D00081831A82198219C049818B859C859E011E
:1054E0002D5F3F4FB9010E948729EB85FC854181E3
:1054F0008B859C859E012D5F3F4FB9010E94AD2891
:1055000089819A8101969A838983EB85FC858481C0
:10551000282F30E089819A8182179307ECF22E962A
:105520000FB6F894DEBF0FBECDBFCF91DF910895C7
:105530001F93DF93CF93CDB7DEB766970FB6F8947E
:10554000DEBF0FBECDBF9B8B8A8BEA89FB8985812D
:1055500096810E944D2BEA89FB8914825DC08A895D
:105560009B899E012F5F3F4FB9010E942D298823FF
:1055700009F452C0EA89FB89908181E0982781E093
:105580008927882381F48A899B899E012F5F3F4F59
:10559000B9010E94EA23982F81E08927882319F412
:1055A00081E08D8B01C01D8A8D89882321F0EA89D5
:1055B000FB8981E080838A899B89AE01475F5F4FC9
:1055C0009E012F5F3F4FB9010E94AA24EA89FB89FF
:1055D00011818A899B899E012F5F3F4FB9010E94EB
:1055E000F127811728F4EA89FB8981818C8B09C016
:1055F0008A899B899E012F5F3F4FB9010E94F12745
:105600008C8BEA89FB898C898183EA89FB89848177
:105610008F5FEA89FB898483EA89FB89858196818A
:105620009E012F5F3F4FB9010E94812F8E8B8E8983
:10563000882311F081E08E8B8E89882309F08FCF2B
:1056400066960FB6F894DEBF0FBECDBFCF91DF9147
:105650001F910895DF93CF930F920F92CDB7DEB7CE
:105660009A838983F894E981FA8181819281DC01AE
:105670001196E981FA8181819281FC0131968081C4
:10568000982FE981FA818081809589238C93789481
:105690000F900F90CF91DF910895DF93CF9300D0BB
:1056A0000F92CDB7DEB79C838B83EB81FC81138691
:1056B000EB81FC811586EB81FC81148687E090E00C
:1056C0009A83898329813A818B819C81820F931FE0
:1056D000FC013396108289819A81009731F089818B
:1056E0009A8101979A838983EDCF0F900F900F9045
:1056F0000F90CF91DF910895DF93CF93CDB7DEB7B1
:1057000028970FB6F894DEBF0FBECDBF9E838D8362
:105710006F831C8219C08C81282F30E0ED81FE81BF
:105720008081882F90E0822793278C519F4F9B8305
:105730008A838D819E8101969E838D83EA81FB8180
:105740008491898389818C838F8188878885882348
:1057500011F081E0888788859F8191509F838823FD
:10576000D1F68C8128960FB6F894DEBF0FBECDBF60
:10577000CF91DF910895DF93CF93CDB7DEB72A970E
:105780000FB6F894DEBF0FBECDBF98878F837A87A0
:1057900069871E821D821C821B8263C02F8138850F
:1057A0008B819C81F901E80FF91F8081882F90E09F
:1057B0009A8389838D819E819C01307089819A8131
:1057C0008227932790709A8389838D819E81892F68
:1057D00099279E838D8389819A818F709070FC01B7
:1057E000E255F74F208189819A81929582958F7039
:1057F00089279F708927FC01E255F74F8081281780
:1058000041F08D819E8121E030EC822793279E8399
:105810008D8389819A810024969587950794969522
:1058200087950794982F802D9A8389832D813E81B7
:1058300089819A81822793279E838D8389819A818A
:10584000880F991F9A8389832D813E8189819A814E
:10585000822793279E838D838B819C8101969C83D5
:105860008B832B813C8189859A852817390708F419
:1058700095CF8D819E812A960FB6F894DEBF0FBE1C
:10588000CDBFCF91DF910895DF93CF93CDB7DEB732
:1058900029970FB6F894DEBF0FBECDBF9C838B83D4
:1058A0007E836D8358874F838B819C812D813E81C0
:1058B000B9010E94BB2B809590959A838983898139
:1058C0009A819C013070EF81F8858081882F90E06B
:1058D0002817390789F489819A81292F33278F81E5
:1058E0009885FC0131968081882F90E02817390730
:1058F00019F481E0898701C01986898529960FB638
:10590000F894DEBF0FBECDBFCF91DF910895DF9336
:10591000CF93CDB7DEB727970FB6F894DEBF0FBE93
:10592000CDBF9E838D83ED81FE8180818C83ED814F
:10593000FE81818192819B838A83F8948A819B81F5
:10594000DC0111968A819B81FC01319690818C81CA
:10595000892B8C938A819B81DC0112968A819B81A1
:10596000FC0132968081982F8C81809589238C93BD
:1059700083E090E00E94A9768A819B81DC011196E8
:105980008A819B81FC0131968081982F8C81809542
:1059900089238C938AE090E00E94A976EA81FB81BA
:1059A0008081282F30E08C81882F90E08223932300
:1059B000009719F081E08F8301C01F828F81898356
:1059C000789485E390E00E94A976898127960FB6A6
:1059D000F894DEBF0FBECDBFCF91DF910895DF9366
:1059E000CF9300D00F920F92CDB7DEB79C838B83FD
:1059F000198281E08A8314C08B819C810E94872C4C
:105A00008D838D81882311F081E08D838D818823A2
:105A100021F089819A81892B89838A81880F8A83E1
:105A20008A81882349F789810F900F900F900F90FA
:105A30000F90CF91DF9108950F931F93DF93CF9332
:105A4000CDB7DEB728970FB6F894DEBF0FBECDBF37
:105A50009C838B837E836D8358874F831A82198240
:105A600012C02D813E8189819A818901080F191FF9
:105A70008B819C810E94EF2CF801808389819A811F
:105A800001969A83898329813A818F819885281785
:105A9000390738F328960FB6F894DEBF0FBECDBF96
:105AA000CF91DF911F910F910895DF93CF9300D095
:105AB00000D0CDB7DEB79D838C836E83EC81FD81F2
:105AC00080818B83EC81FD81818192819A8389839E
:105AD0008E81882F90E081709070882389F1F894EE
