:100000000C9409030C943A030C943A030C943A03AD
:100010000C943A030C943A030C943A030C943A036C
:100020000C943A030C943A030C943A030C943A035C
:100030000C943A030C943A030C943A030C943A034C
:100040000C943A030C943A030C943A030C943A033C
:100050000C943A030C943A030C943A030C94438D99
:100060000C943A030C94CE7C0C94A27D0C943A032D
:100070000C943A030C943A030C943A030C943A030C
:100080000C943A030C943A030C943A030C943A03FC
:100090000C94FB7C0C94ED7D0C943A030C947B4DFA
:1000A0000C943A030C943A030C943A030C943A03DC
:1000B0000C943A030C943A030C943A030C943A03CC
:1000C0000C943A030C943A030C943A030C94287D54
:1000D0000C94387E0C943A030C94557D0C94837EDA
:1000E0000C943A03E04EE54EE54EE54EE54EE54E06
:1000F000E54EE54EB24DE54EE54EE54EE54EE54E9C
:10010000E54EE54EB24DE54EE54EE54EE54EE54E8B
:10011000E54EE54EBC4DE54EE54EE54EE54EE54E71
:10012000E54EE54EF04DE54EE54EE54EE54EE54E2D
:10013000E54EE54EBC4DE54EE54EE54EE54EE54E51
:10014000E54EE54EF64DE54EE54EE54EE54EE54E07
:10015000E54EE54EFC4DE54EE54EE54EE54EE54EF1
:10016000E54EE54E124EE54EE54EE54EE54EE54ECA
:10017000E54EE54E4A4EE54EE54EE54EE54EE54E82
:10018000E54EE54E024EE54EE54EE54EE54EE54EBA
:10019000E54EE54E244EE54EE54EE54EE54EE54E88
:1001A000E54EE54E4D4EE54EE54EE54EE54EE54E4F
:1001B000E54EE54E4D4EE54EE54EE54EE54EE54E3F
:1001C000E54EE54E4D4EE54EE54EE54EE54EE54E2F
:1001D000E54EE54E4D4EE54EE54EE54EE54EE54E1F
:1001E000E54EE54E564EE54EE54EE54EE54EE54E06
:1001F000E54EE54E9A4EE54EE54EE54EE54EE54EB2
:10020000E54EE54E564EE54EE54EE54EE54EE54EE5
:10021000E54EE54E9A4EE54EE54EE54EE54EE54E91
:10022000E54EE54E764EE54EE54EE54EE54EE54EA5
:10023000E54EE54E9E4EE54EE54EE54EE54EE54E6D
:10024000E54EE54E9E4EE54EE54EE54EE54EE54E5D
:10025000E54EE54EB84EE54EE54EE54EE54EE54E33
:10026000E54EE54EDA4EE54EE54EE54EE54EE54E01
:10027000E54EE54EDA4EE54EE54EE54EE54EE54EF1
:10028000E54EE54EE54EE54EE54EE54EE54EE54ED6
:10029000E54EE54EE54EE54EE54EE54EE54EE54EC6
:1002A000E54EE54EE54EE54EE54EE54EE54EE54EB6
:1002B000E54EE54EE54EE54EE54EE54EE54EE54EA6
:1002C000E54EE54EE54EE54EE54EE54EE54EE54E96
:1002D000E54EE54EE54E1F1C1F1E1F1E1F1F1E1F55
:1002E0001E1F005EBCE2613FDD83C29C7E20A3FD39
:1002F0001F419DC3217FFCA2401E5F01E3BD3E6004
:1003000082DC237D9FC1421CFEA0E1BF5D0380DE35
:100310003C62BEE0025CDF81633D7C22C09E1D43E7
:10032000A1FF4618FAA427799BC584DA3866E5BB95
:100330005907DB856739BAE406581947A5FB7826C3
:10034000C49A653BD987045AB8E6A7F91B45C698F5
:100350007A24F8A6441A99C7257B3A6486D85B05A7
:10036000E7B98CD2306EEDB3510F4E10F2AC2F7155
:1003700093CD114FADF3702ECC92D38D6F31B2EC83
:100380000E50AFF1134DCE90722C6D33D18F0C52B5
:10039000B0EE326C8ED0530DEFB1F0AE4C1291CF67
:1003A0002D73CA947628ABF517490856B4EA693715
:1003B000D58B5709EBB536688AD495CB2977F4AA43
:1003C0004816E9B7550B88D6346A2B7597C94A1475
:1003D000F6A8742AC896154BA9F7B6E80A54D78927
:1003E0006B3500002100240027002A002D0030007A
:1003F000330001010000040107010A01000022008E
:10040000250028002B002E003100340002010000DE
:10041000050108010B01000020002300260029002F
:100420002C002F0032000001000003010601090129
:1004300005050505070508080808020202020A0A60
:10044000080804040404010101010101010103037E
:10045000030303030303040707070C0C0C0C0C0C29
:100460000C0C0202020206060606060606060B0B26
:100470000B0B0B0B0B0B0102102020080810204067
:100480001020408002010201080402010102040858
:1004900010204080804020100804020180040201E6
:1004A000804020100804020108040201010204082F
:1004B0001020408001020408102040800000090A3A
:1004C00002080B0C0D0706030401000000000000E9
:1004D000000000000000000000000000000000001C
:1004E000000000000000000011100F0000000000DC
:1004F00000000000000000000000000000000000FC
:10050000000000407A10F35A00A0724E1809001043
:10051000A5D4E80000E87648170000E40B54020078
:1005200000CA9A3B000000E1F505000080969800A3
:10053000000040420F000000A086010000001027CC
:1005400000000000E803000000006400000000005C
:100550000A00000000000100000000002C76D8888E
:10056000DC674F0823DFC1DFAE59E1B1B796E5E3A1
:10057000E453C63AE651997696E8E6C28426EB89BA
:100580008C9B62ED407C6FFCEFBC9C9F40F2BAA557
:100590006FA5F490055A2AF75C936B6CF9676DC1EF
:1005A0001BFCE0E40D47FEF520E6B500D0ED902EF3
:1005B0000300943577050080841E080000204E0A51
:1005C000000000C80C333333330F986E128311418F
:1005D000EF8D2114893BE65516CFFEE6DB18D1845A
:1005E0004B381BF77C1D901DA4BBE4242032847281
:1005F0005E228100C9F124ECA1E53D27562F53521C
:100600001B650D6BD76F84746F77DA7BF37F628124
:10061000632F11241FBECFEFD1E2DEBFCDBF00E0BC
:100620000CBF10E1A0E0B2E0E4E8F9E301E00BBFA9
:1006300002C007900D92A03FB107D9F716E1A0EFD5
:10064000B0E101C01D92A737B107E1F715E0C0E1A5
:10065000D6E000E006C022970109FE010BBF0E9410
:100660000C93CC3FD10780E00807A9F70E944B10FC
:100670000C94B09C0C940000DF93CF930F920F92D8
:10068000CDB7DEB79A83898389819A810E944D0311
:100690000F900F90CF91DF910895DF93CF930F923A
:1006A0000F92CDB7DEB79A83898389819A816CE0F6
:1006B00070E041E00E94DB0421E0009709F420E0B3
:1006C00089819A81FC01208389819A816DE070E0A3
:1006D00041E00E94DB0421E0009709F420E08981D9
:1006E0009A81FC01218389819A816EE070E046E065
:1006F0000E94DB049C0189819A81FC01338322835F
:1007000089819A816FE070E040E00E94DB049C01E7
:1007100089819A81FC013583248389819A8160E1F2
:1007200070E041E00E94DB0421E0009709F420E042
:1007300089819A81FC01268389819A8161E170E037
:100740004CE10E94DB049C0189819A81FC01308785
:10075000278389819A8162E170E04DE10E94DB0488
:100760009C0189819A81FC013287218789819A8144
:1007700063E170E042E00E94DB049C0189819A8180
:10078000FC013487238789819A8164E170E04EE11E
:100790000E94DB049C0189819A81FC0136872587B0
:1007A00089819A8165E170E042E00E94DB049C014E
:1007B00089819A81FC01308B278789819A8166E142
:1007C00070E040E00E94DB049C0189819A81FC0179
:1007D000328B218B89819A8167E170E04CE00E9425
:1007E000DB049C0189819A81FC01348B238B8981F4
:1007F0009A8168E170E040E00E94DB049C018981FD
:100800009A81FC01368B258B89819A8169E170E0A0
:1008100041E00E94DB049C0189819A81FC01308FB8
:10082000278B89819A816AE170E041E00E94DB04B4
:1008300021E0009709F420E089819A81FC01218F51
:1008400089819A816BE170E041E00E94DB049C01A8
:1008500089819A81FC01338F228F89819A816CE191
:1008600070E048E10E94DB049C0189819A81FC01CF
:10087000358F248F89819A816DE170E049E10E9472
:10088000DB049C0189819A81FC01378F268F898145
:100890009A816EE170E04AE10E94DB049C0189814B
:1008A0009A81FC0131A320A389819A816FE170E0D4
:1008B0004BE10E94DB049C0189819A81FC0133A3F6
:1008C00022A389819A8160E270E04CE10E94DB04FE
:1008D0009C0189819A81FC0135A324A389819A8195
:1008E00061E270E04DE10E94DB049C0189819A8104
:1008F000FC0137A326A389819A8162E270E04EE170
:100900000E94DB049C0189819A81FC0131A720A708
:1009100089819A8163E270E04FE10E94DB049C01CF
:1009200089819A81FC0133A722A789819A8164E297
:1009300070E040E20E94DB049C0189819A81FC0105
:1009400035A724A789819A8165E270E041E20E947F
:10095000DB049C0189819A81FC0137A726A7898144
:100960009A8166E270E044E20E94DB049C01898186
:100970009A81FC0131AB20AB89819A8167E270E0FA
:1009800048E20E94DB049C0189819A81FC0133AB1F
:1009900022AB89819A8168E270E049E20E94DB041F
:1009A0009C0189819A81FC0135AB24AB0F900F909B
:1009B000CF91DF910895DF93CF93CDB7DEB727971F
:1009C0000FB6F894DEBF0FBECDBF9C838B837E83B2
:1009D0006D834F8386EC93E12D813E81B9010E94A6
:1009E000E77B882F90E09A83898389819A818F3F62
:1009F000910561F486EC93E12D813E81B9014F812F
:100A00000E94FC7B8F81882F90E002C089819A81AF
:100A100027960FB6F894DEBF0FBECDBFCF91DF9102
:100A20000895DF93CF930F920F92CDB7DEB79A83DD
:100A3000898389819A81FC0180810F900F90CF91E9
:100A4000DF910895DF93CF930F920F92CDB7DEB76A
:100A50009A83898389819A81FC0181810F900F900B
:100A6000CF91DF910895DF93CF930F920F92CDB77F
:100A7000DEB79A83898389819A81FC0186810F90F0
:100A80000F90CF91DF910895DF93CF930F920F9244
:100A9000CDB7DEB79A83898389819A81FC018781EA
:100AA00090850F900F90CF91DF910895DF93CF93B2
:100AB0000F920F92CDB7DEB79A83898389819A818D
:100AC000FC01818592850F900F90CF91DF91089561
:100AD000DF93CF930F920F92CDB7DEB79A838983BE
:100AE00089819A81FC01838594850F900F90CF9125
:100AF000DF910895DF93CF930F920F92CDB7DEB7BA
:100B00009A83898389819A81FC01858596850F90D6
:100B10000F90CF91DF910895DF93CF930F920F92B3
:100B2000CDB7DEB79A83898389819A81FC01878555
:100B300090890F900F90CF91DF910895DF93CF931D
:100B40000F920F92CDB7DEB79A83898389819A81FC
:100B5000FC01818992890F900F90CF91DF910895C8
:100B6000DF93CF930F920F92CDB7DEB79A8389832D
:100B700089819A81FC01838994890F900F90CF918C
:100B8000DF910895DF93CF930F920F92CDB7DEB729
:100B90009A83898389819A81FC01858996890F903E
:100BA0000F90CF91DF910895DF93CF930F920F9223
:100BB000CDB7DEB79A83898389819A81FC018789C1
:100BC000908D0F900F90CF91DF910895DF93CF9389
:100BD0000F920F92CDB7DEB79A83898389819A816C
:100BE000FC01828193810F900F90CF91DF91089546
:100BF000DF93CF930F920F92CDB7DEB79A8389839D
:100C000089819A81FC01828193810F900F90CF910D
:100C1000DF910895DF93CF930F920F92CDB7DEB798
:100C20009A83898389819A81FC01818D0F900F902D
:100C3000CF91DF910895DF93CF930F920F92CDB7AD
:100C4000DEB79A83898389819A81FC01828D938D95
:100C50000F900F90CF91DF910895DF93CF9300D045
:100C60000F92CDB7DEB79A8389837C836B838981AA
:100C70009A812B813C81FC01358F248F2B8186EC5E
:100C800093E16CE170E0422F0E94FC7B0F900F908B
:100C90000F900F90CF91DF910895DF93CF930F9234
:100CA0000F92CDB7DEB79A83898389819A81FC013F
:100CB000848D958D0F900F90CF91DF910895DF93E4
:100CC000CF9300D00F92CDB7DEB79A8389837C8310
:100CD0006B8389819A812B813C81FC01378F268F20
:100CE0002B8186EC93E16DE170E0422F0E94FC7B4A
:100CF0000F900F900F900F90CF91DF910895DF9399
:100D0000CF930F920F92CDB7DEB79A8389838981F3
:100D10009A81FC01868D978D0F900F90CF91DF9176
:100D20000895DF93CF9300D00F92CDB7DEB79A83AB
:100D300089837C836B8389819A812B813C81FC012F
:100D400031A320A32B8186EC93E16EE170E0422F6A
:100D50000E94FC7B0F900F900F900F90CF91DF912E
:100D60000895DF93CF930F920F92CDB7DEB79A839A
:100D7000898389819A81FC0180A191A10F900F90B4
:100D8000CF91DF910895DF93CF9300D00F92CDB72D
:100D9000DEB79A8389837C836B8389819A812B81D7
:100DA0003C81FC0133A322A32B8186EC93E16FE10C
:100DB00070E0422F0E94FC7B0F900F900F900F90DD
:100DC000CF91DF910895DF93CF930F920F92CDB71C
:100DD000DEB79A83898389819A81FC0182A193A1DC
:100DE0000F900F90CF91DF910895DF93CF9300D0B4
:100DF0000F92CDB7DEB79A8389837C836B83898119
:100E00009A812B813C81FC0135A324A32B8186ECA4
:100E100093E160E270E0422F0E94FC7B0F900F9004
:100E20000F900F90CF91DF910895DF93CF930F92A2
:100E30000F92CDB7DEB79A83898389819A81FC01AD
:100E400084A195A10F900F90CF91DF910895DF932A
:100E5000CF9300D00F92CDB7DEB79A8389837C837E
:100E60006B8389819A812B813C81FC0137A326A366
:100E70002B8186EC93E161E270E0422F0E94FC7BC3
:100E80000F900F900F900F90CF91DF910895DF9307
:100E9000CF930F920F92CDB7DEB79A838983898162
:100EA0009A81FC0186A197A10F900F90CF91DF91BD
:100EB0000895DF93CF9300D00F92CDB7DEB79A831A
:100EC00089837C836B8389819A812B813C81FC019E
:100ED00031A720A72B8186EC93E162E270E0422FDC
:100EE0000E94FC7B0F900F900F900F90CF91DF919D
:100EF0000895DF93CF930F920F92CDB7DEB79A8309
:100F0000898389819A81FC0180A591A50F900F901A
:100F1000CF91DF910895DF93CF9300D00F92CDB79B
:100F2000DEB79A8389837C836B8389819A812B8145
:100F30003C81FC0133A722A72B8186EC93E163E27D
:100F400070E0422F0E94FC7B0F900F900F900F904B
:100F5000CF91DF910895DF93CF930F920F92CDB78A
:100F6000DEB79A83898389819A81FC0182A593A542
:100F70000F900F90CF91DF910895DF93CF9300D022
:100F80000F92CDB7DEB79A8389837C836B83898187
:100F90009A812B813C81FC0135A724A72B8186EC0B
:100FA00093E164E270E0422F0E94FC7B0F900F906F
:100FB0000F900F90CF91DF910895DF93CF930F9211
:100FC0000F92CDB7DEB79A83898389819A81FC011C
:100FD00084A595A50F900F90CF91DF910895DF9391
:100FE000CF9300D00F92CDB7DEB79A8389837C83ED
:100FF0006B8389819A812B813C81FC0137A726A7CD
:101000002B8186EC93E165E270E0422F0E94FC7B2D
:101010000F900F900F900F90CF91DF910895DF9375
:10102000CF930F920F92CDB7DEB79A8389838981D0
:101030009A81FC0186A597A50F900F90CF91DF9123
:101040000895DF93CF9300D00F92CDB7DEB79A8388
:1010500089837C836B8389819A812B813C81FC010C
:1010600031AB20AB2B8186EC93E166E270E0422F3E
:101070000E94FC7B0F900F900F900F90CF91DF910B
:101080000895DF93CF930F920F92CDB7DEB79A8377
:10109000898389819A81FC0180A991A90F900F9081
:1010A000CF91DF910895DF93CF9300D00F92CDB70A
:1010B000DEB79A8389837C836B8389819A812B81B4
:1010C0003C81FC0133AB22AB2B8186EC93E167E2E0
:1010D00070E0422F0E94FC7B0F900F900F900F90BA
:1010E000CF91DF910895DF93CF930F920F92CDB7F9
:1010F000DEB79A83898389819A81FC0182A993A9A9
:101100000F900F90CF91DF910895DF93CF9300D090
:101110000F92CDB7DEB79A8389837C836B838981F5
:101120009A812B813C81FC0135AB24AB2B8186EC71
:1011300093E168E270E0422F0E94FC7B0F900F90D9
:101140000F900F90CF91DF910895DF93CF930F927F
:101150000F92CDB7DEB79A83898389819A81FC018A
:1011600084A995A90F900F90CF91DF910895DF93F7
:10117000CF9300D00F92CDB7DEB79C838B838CE0EA
:1011800090E09A8389830DC086EC93E129813A81AE
:10119000B9014FEF0E94FC7B89819A8101969A8365
:1011A000898321E089819A81893291050CF020E0C0
:1011B000222351F70F900F900F900F90CF91DF9156
:1011C00008950F931F93DF93CF93CDB7DEB7299781
:1011D0000FB6F894DEBF0FBECDBF9987888788858C
:1011E0009985089620E032E0B9010E948C8586EC52
:1011F00093E168E070E00E94E77B282F888599855D
:10120000FC01208388859985FC0180818F3F31F026
:1012100088859985FC0180818823A9F48885998532
:1012200020ECFC0120838885998528EAFC01218334
:10123000888599852BE0FC0122838885998521E0AA
:10124000FC01238321C086EC93E169E070E00E94F9
:10125000E77B282F88859985FC01218386EC93E123
:101260006AE070E00E94E77B282F88859985FC0161
:10127000228386EC93E16BE070E00E94E77B282FED
:1012800088859985FC01238388859985FC012081C7
:1012900088859985FC01248388859985FC012181B5
:1012A00088859985FC01258388859985FC012281A3
:1012B00088859985FC01268388859985FC01238191
:1012C00088859985FC012783888599858C01085F2D
:1012D0001F4F88859985FC012081CE010196622FE0
:1012E0004AE00E94A786C8019E012F5F3F4FB901C7
:1012F0000E94A785CE0101960E941A85888599854E
:10130000089621E032E0B9010E94268788859985F8
:10131000089628853985F9012181622F0E944B8723
:1013200088859985089621E032E0B9010E942687D8
:1013300088859985089628853985F9012281622F4B
:101340000E944B8788859985089621E032E0B90193
:101350000E94268788859985089628853985F90110
:101360002381622F0E944B8729960FB6F894DEBF27
:101370000FBECDBFCF91DF911F910F910895DF93E5
:10138000CF930F920F92CDB7DEB79A83898389816D
:101390009A8108960E941A850F900F90CF91DF9145
:1013A00008950F931F93DF93CF93CDB7DEB72D979B
:1013B0000FB6F894DEBF0FBECDBF998788876A87C6
:1013C0004B872C870D87888599852A85FC0120838A
:1013D000888599852B85FC012183888599852C85B5
:1013E000FC012283888599852D85FC0123838885CE
:1013F0009985FC01208188859985FC012483888555
:101400009985FC01218188859985FC012583888542
:101410009985FC01228188859985FC012683888530
:101420009985FC01238188859985FC01278388851E
:1014300099858C01085F1F4F88859985FC01208163
:10144000CE010196622F4AE00E94A786C8019E0144
:101450002F5F3F4FB9010E94A785CE0101960E94E0
:101460001A8588859985089621E032E0B9010E94A5
:10147000268788859985089628853985F9012181EF
:10148000622F0E944B8788859985089621E032E07B
:10149000B9010E942687888599850896288539850F
:1014A000F9012281622F0E944B87888599850896D1
:1014B00021E032E0B9010E94268788859985089647
:1014C00028853985F9012381622F0E944B8786EC9C
:1014D00093E168E070E04A850E94FC7B86EC93E132
:1014E00069E070E04B850E94FC7B86EC93E16AE04A
:1014F00070E04C850E94FC7B86EC93E16BE070E031
:101500004D850E94FC7B2D960FB6F894DEBF0FBE72
:10151000CDBFCF91DF911F910F910895DF93CF93AE
:101520000F920F92CDB7DEB79A83898389819A8112
:10153000FC01208189819A81FC01248389819A811F
:10154000FC01218189819A81FC01258389819A810D
:10155000FC01228189819A81FC01268389819A81FB
:10156000FC01238189819A81FC01278389819A81E9
:1015700004960F900F90CF91DF910895DF93CF9352
:101580000F920F92CDB7DEB79A83898386EC93E1F1
:1015900068E070E04FEF0E94FC7B86EC93E169E02D
:1015A00070E04FEF0E94FC7B86EC93E16AE070E014
:1015B0004FEF0E94FC7B86EC93E16BE070E04FEF15
:1015C0000E94FC7B0F900F90CF91DF9108950F93B5
:1015D0001F93DF93CF930F920F92CDB7DEB78C019D
:1015E0007A836983C80129813A81285F3F4FB90115
:1015F0000E94C285C801C8010F900F90CF91DF9162
:101600001F910F9108950F931F93DF93CF93CDB741
:10161000DEB729970FB6F894DEBF0FBECDBF99870E
:10162000888788859985089623E032E0B9010E9471
:101630008C8586EC93E160E070E00E94E77B282FC8
:1016400088859985FC01208388859985FC018081A6
:101650008F3F31F088859985FC0180818823A9F42A
:101660008885998520ECFC0120838885998528EA66
:10167000FC012183888599852BE0FC0122838885E4
:10168000998521EFFC01238321C086EC93E161E081
:1016900070E00E94E77B282F88859985FC012183D3
:1016A00086EC93E162E070E00E94E77B282F88855A
:1016B0009985FC01228386EC93E163E070E00E944F
:1016C000E77B282F88859985FC0123838885998568
:1016D000FC01208188859985FC0124838885998572
:1016E000FC01218188859985FC0125838885998560
:1016F000FC01228188859985FC012683888599854E
:10170000FC01238188859985FC012783888599853B
:101710008C01085F1F4F88859985FC012081CE01CF
:101720000196622F4AE00E94A786C8019E012F5FA2
:101730003F4FB9010E94A785CE0101960E941A85EC
:1017400088859985089624E032E0B9010E942687B1
:1017500088859985089628853985F9012181622F28
:101760000E944B8788859985089624E032E0B9016C
:101770000E94268788859985089628853985F901EC
:101780002281622F0E944B8788859985089624E0E4
:1017900032E0B9010E9426878885998508962885B8
:1017A0003985F9012381622F0E944B8729960FB654
:1017B000F894DEBF0FBECDBFCF91DF911F910F9187
:1017C0000895DF93CF930F920F92CDB7DEB79A8330
:1017D000898389819A8108960E941A850F900F90BB
:1017E000CF91DF9108950F931F93DF93CF93CDB7E0
:1017F000DEB72D970FB6F894DEBF0FBECDBF998729
:1018000088876A874B872C870D87888599852A85E5
:10181000FC012083888599852B85FC01218388859F
:1018200099852C85FC012283888599852D85FC016D
:10183000238388859985FC01208188859985FC0111
:10184000248388859985FC01218188859985FC01FF
:10185000258388859985FC01228188859985FC01ED
:10186000268388859985FC01238188859985FC01DB
:101870002783888599858C01085F1F4F8885998506
:10188000FC012081CE010196622F4AE00E94A786CA
:10189000C8019E012F5F3F4FB9010E94A785CE016D
:1018A00001960E941A8588859985089624E032E081
:1018B000B9010E94268788859985089628853985EB
:1018C000F9012181622F0E944B87888599850896AE
:1018D00024E032E0B9010E94268788859985089620
:1018E00028853985F9012281622F0E944B878885DE
:1018F0009985089624E032E0B9010E942687888500
:101900009985089628853985F9012381622F0E94DF
:101910004B8786EC93E160E070E04A850E94FC7B97
:1019200086EC93E161E070E04B850E94FC7B86ECE5
:1019300093E162E070E04C850E94FC7B86EC93E1D1
:1019400063E070E04D850E94FC7B2D960FB6F89405
:10195000DEBF0FBECDBFCF91DF911F910F910895D4
:10196000DF93CF930F920F92CDB7DEB79A8389831F
:1019700089819A81FC01208189819A81FC012483DB
:1019800089819A81FC01218189819A81FC012583C9
:1019900089819A81FC01228189819A81FC012683B7
:1019A00089819A81FC01238189819A81FC012783A5
:1019B00089819A8104960F900F90CF91DF910895BD
:1019C000DF93CF930F920F92CDB7DEB79A838983BF
:1019D00086EC93E160E070E04FEF0E94FC7B86ECC8
:1019E00093E161E070E04FEF0E94FC7B86EC93E1B5
:1019F00062E070E04FEF0E94FC7B86EC93E163E0D5
:101A000070E04FEF0E94FC7B0F900F90CF91DF9121
:101A100008950F931F93DF93CF930F920F92CDB73B
:101A2000DEB78C017A836983C80129813A81285FF6
:101A30003F4FB9010E94C285C801C8010F900F90A5
:101A4000CF91DF911F910F9108950F931F93DF9313
:101A5000CF93CDB7DEB729970FB6F894DEBF0FBE90
:101A6000CDBF9987888788859985089626E032E0DA
:101A7000B9010E948C8586EC93E164E070E00E94DD
:101A8000E77B282F88859985FC01208388859985A7
:101A9000FC0180818F3F31F088859985FC01808130
:101AA0008823A1F4888599852FEFFC012083888500
:101AB00099852FEFFC012183888599852FEFFC0103
:101AC000228388859985FC01138221C086EC93E1ED
:101AD00065E070E00E94E77B282F88859985FC01EE
:101AE000218386EC93E166E070E00E94E77B282F7B
:101AF00088859985FC01228386EC93E167E070E09C
:101B00000E94E77B282F88859985FC01238388859F
:101B10009985FC01208188859985FC01248388852D
:101B20009985FC01218188859985FC01258388851B
:101B30009985FC01228188859985FC012683888509
:101B40009985FC01238188859985FC0127838885F7
:101B500099858C01085F1F4F88859985FC0120813C
:101B6000CE010196622F4AE00E94A786C8019E011D
:101B70002F5F3F4FB9010E94A785CE0101960E94B9
:101B80001A8588859985089627E032E0B9010E9478
:101B9000268788859985089628853985F9012181C8
:101BA000622F0E944B8788859985089627E032E04E
:101BB000B9010E94268788859985089628853985E8
:101BC000F9012281622F0E944B87888599850896AA
:101BD00027E032E0B9010E9426878885998508961A
:101BE00028853985F9012381622F0E944B87299628
:101BF0000FB6F894DEBF0FBECDBFCF91DF911F911E
:101C00000F910895DF93CF930F920F92CDB7DEB768
:101C10009A83898389819A8108960E941A850F90F8
:101C20000F90CF91DF9108950F931F93DF93CF9380
:101C3000CDB7DEB72D970FB6F894DEBF0FBECDBF80
:101C4000998788876A874B872C870D878885998530
:101C50002A85FC012083888599852B85FC012183B9
:101C6000888599852C85FC012283888599852D8519
:101C7000FC01238388859985FC01208188859985CD
:101C8000FC01248388859985FC01218188859985BB
:101C9000FC01258388859985FC01228188859985A9
:101CA000FC01268388859985FC0123818885998597
:101CB000FC012783888599858C01085F1F4F8885E3
:101CC0009985FC012081CE010196622F4AE00E9495
:101CD000A786C8019E012F5F3F4FB9010E94A785CB
:101CE000CE0101960E941A8588859985089627E07D
:101CF00032E0B9010E942687888599850896288553
:101D00003985F9012181622F0E944B878885998549
:101D1000089627E032E0B9010E94268788859985D8
:101D2000089628853985F9012281622F0E944B8708
:101D300088859985089627E032E0B9010E942687B8
:101D400088859985089628853985F9012381622F30
:101D50000E944B8786EC93E164E070E04A850E9424
:101D6000FC7B86EC93E165E070E04B850E94FC7B98
:101D700086EC93E166E070E04C850E94FC7B86EC8B
:101D800093E167E070E04D850E94FC7B2D960FB6D5
:101D9000F894DEBF0FBECDBFCF91DF911F910F91A1
:101DA0000895DF93CF930F920F92CDB7DEB79A834A
:101DB000898389819A81FC01208189819A81FC0132
:101DC000248389819A81FC01218189819A81FC0186
:101DD000258389819A81FC01228189819A81FC0174
:101DE000268389819A81FC01238189819A81FC0162
:101DF000278389819A8104960F900F90CF91DF916C
:101E00000895DF93CF930F920F92CDB7DEB79A83E9
:101E1000898386EC93E164E070E04FEF0E94FC7BE5
:101E200086EC93E165E070E04FEF0E94FC7B86EC6E
:101E300093E166E070E04FEF0E94FC7B86EC93E15B
:101E400067E070E04FEF0E94FC7B0F900F90CF9106
:101E5000DF9108950F931F93DF93CF930F920F920B
:101E6000CDB7DEB78C017A836983C80129813A81B5
:101E7000285F3F4FB9010E94C285C801C8010F9079
:101E80000F90CF91DF911F910F910895DF93CF9322
:101E900000D00F92CDB7DEB79A8389837C836B83A2
:101EA00089819A812B813C81B9010E941E87898199
:101EB0009A810F900F900F900F90CF91DF9108951E
:101EC000DF93CF9300D00F92CDB7DEB79A8389838B
:101ED0007C836B8389819A812B813C81B9010E942B
:101EE000268789819A810F900F900F900F90CF9144
:101EF000DF910895DF93CF93CDB7DEB728970FB664
:101F0000F894DEBF0FBECDBF9A8389837C836B8339
:101F10005E834D8338872F836B817C8189819A8191
:101F20004D815E812F8138850E94158A28960FB6D3
:101F3000F894DEBF0FBECDBFCF91DF910895DF9340
:101F4000CF9300D00F92CDB7DEB79A8389837C837D
:101F50006B8389819A812B813C81B9010E94C28562
:101F60000F900F900F900F90CF91DF910895DF9316
:101F7000CF9300D00F92CDB7DEB79A8389837C834D
:101F80006B8389819A812B813C81B9010E948C8568
:101F90000F900F900F900F90CF91DF910895DF93E6
:101FA000CF930F920F92CDB7DEB79A838983898141
:101FB0009A81FC018081882F90E08053984F0F9088
:101FC0000F90CF91DF910895DF93CF930F920F92EF
:101FD000CDB7DEB79A83898389819A81FC0181819B
:101FE0000F900F90CF91DF910895DF93CF930F92D1
:101FF0000F92CDB7DEB79A83898389819A81FC01DC
:1020000082810F900F90CF91DF910895DF93CF934E
:102010000F920F92CDB7DEB79A83898389819A8117
:10202000FC0183810F900F90CF91DF910895DF9392
:10203000CF930F920F92CDB7DEB79A8389838981B0
:102040009A81FC0184810F900F90CF91DF910895C8
:10205000DF93CF930F920F92CDB7DEB79A83898328
:1020600089819A81FC0185810F900F90CF91DF913A
:102070000895DF93CF930F920F92CDB7DEB79A8377
:10208000898389819A81FC01868197810F900F90C5
:10209000CF91DF910895DF93CF93CDB7DEB70E9444
:1020A000FC8D0E9456100E944A1AFDCFEF92FF92BB
:1020B0000F931F93DF93CF93CDB7DEB7AD970FB6D6
:1020C000F894DEBF0FBECDBF87EE95E140E052EC45
:1020D00061E070E00E940D7F87EE95E129E032E03B
:1020E000B9010E94538287EE95E129E132E0B901FE
:1020F0000E940282CE0187962EE032E1B9010E9451
:10210000090D87EE95E19E01295D3F4FB9010E94BF
:102110004082CE0187960E941A8587EE95E123E2E0
:1021200032E0B9010E940282CE0180962DE132E1B7
:10213000B9010E942A0F87EE95E19E01205E3F4F74
:10214000B9010E944082CE0180960E941A8587EED6
:1021500095E12DE232E0B9010E940282CE0149965A
:102160002CE232E1B9010E94E70A87EE95E19E0177
:10217000275E3F4FB9010E944082CE0149960E94DE
:102180001A858EE092E10E94B00C9C01CE0143962C
:10219000B9010E942C818CE292E10E948E0A9C017E
:1021A000CE010D96B9010E942C818CE292E10E9431
:1021B0008E0A9C01CE010796B9010E942C818DE107
:1021C00092E10E94D10E9C01CE010196B9010E94BC
:1021D0002C818EEA93E161EB7CE0AE014D5E5F4FB6
:1021E0009E01235F3F4FFE0137968F01FE0131961E
:1021F0007F010E94B36E8BE392E10E94E5748BEF46
:1022000091E10E949B368BE592E10E944D0661E0D0
:102210000E94E08F8BE592E10E947F0661E00E94C0
:10222000E08F8BE592E10E94B10661E00E94E08FB1
:102230008BE592E10E94E30661E00E94E08F8BE56E
:1022400092E10E94150761E00E94E08F8BE592E128
:102250000E94470761E00E94E08F8BE592E10E94B7
:10226000790761E00E94E08F8BE592E10E94AB0765
:1022700061E00E94E08F8BE592E10E94DD0761E062
:102280000E94E08F8BE592E10E940F0861E00E94BE
:10229000E08F8BE592E10E94410861E00E94E08FAF
:1022A0008BE592E10E94730860E00E94E08F8BE56D
:1022B00092E10E94A50860E00E94E08F81E793E12F
:1022C0000E94674F0E940F34AD960FB6F894DEBFA0
:1022D0000FBECDBFCF91DF911F910F91FF90EF9077
:1022E0000895DF93CF930F920F92CDB7DEB79A8305
:1022F000898387EE95E127E332E0B9010E940282EB
:1023000087EE95E12EEA32E1B9010E94CF8187EE96
:1023100095E129E332E0B9010E94028287EE95E15E
:1023200029813A81B9010E9440820F900F90CF918C
:10233000DF910895DF93CF93CDB7DEB781E492E1CB
:102340002CE332E0B9010E945382CF91DF910895CE
:10235000DF93CF93CDB7DEB781E492E128E532E099
:10236000B9010E94538281E492E12FE632E0B90183
:102370000E94538281E492E127E832E0B9010E9491
:10238000538281E492E10E9418820E949A1181E4B2
:1023900092E128EA32E0B9010E945382CF91DF91A5
:1023A0000895DF93CF9300D000D0CDB7DEB79A83E6
:1023B00089837C836B835E834D8381E492E12BEB85
:1023C00032E0B9010E94028281E492E129813A81DE
:1023D000B9014AE050E00E94948381E492E125EC47
:1023E00032E0B9010E94028281E492E12B813C81BA
:1023F000B9010E94CF8181E492E12FE632E0B90178
:102400000E94538281E492E127E832E0B9010E9400
:10241000538281E492E10E9418820E949A1181E421
:1024200092E12D813E81B9010E94408226960FB62D
:10243000F894DEBF0FBECDBFCF91DF910895DF933B
:10244000CF93CDB7DEB763970FB6F894DEBF0FBE5C
:10245000CDBF998B888B7B8B6A8BCE01099627EC3D
:1024600032E0B9010E948C85CE0109960E9471115B
:10247000CE0109960E941A858CED95E09A83898396
:10248000CE01039627EB3CE0B9010E942C818EE43B
:1024900092E19E012D5F3F4FB90149E150E00E945A
:1024A0009B7121E0009709F420E0222309F487C002
:1024B0008EE492E12AED32E0B9010E9453828981D3
:1024C0009A81AA2797FDA095BA2FBC01CD010E9441
:1024D000CB8D8EE492E121E033E0B9010E9453827A
:1024E00089819A81AA2797FDA095BA2FBC01CD01B9
:1024F0000E94CB8D8EE492E127E233E0B9010E9485
:10250000538289819A81AA2797FDA095BA2FBC0191
:10251000CD010E94CB8D8EE492E12BE433E0B90132
:102520000E94538289819A81AA2797FDA095BA2F8C
:10253000BC01CD010E94CB8D8EE492E120E533E019
:10254000B9010E9402828EE492E128893989B90199
:102550000E9440828EE492E122E733E0B9010E94BA
:1025600053828EE492E12A893B89B9010E9440821C
:102570008EE492E123E733E0B9010E9453828EE4B6
:1025800092E127E833E0B9010E9453828EE492E1A0
:1025900029E833E0B9010E94538289819A81AA27F0
:1025A00097FDA095BA2FBC01CD010E94CB8D8EE482
:1025B00092E10E9418828EE492E10E947973639600
:1025C0000FB6F894DEBF0FBECDBFCF91DF91089557
:1025D000DF93CF93CDB7DEB7A3970FB6F894DEBFE6
:1025E0000FBECDBFCE0146962EE833E0B9010E9462
:1025F0008C85CE0146960E947111CE0146960E94AE
:102600001A858BE592E10E94410860E00E940490E7
:102610008FEF9FEF9093D8118093D7111092E41110
:102620000E94E916CE014D9622EA33E0B9010E94DC
:102630008C85CE010F962DEB33E0B9010E948C857D
:10264000CE0108969E01235E3F4FB9010E94C285CC
:10265000CE010F969E01285F3F4FB9010E941F12C5
:10266000CE0108960E941A85CE010F960E941A8507
:102670009E01235E3F4FCE010196B9010E94C285A3
:10268000CE0101960E947111CE0101960E941A8519
:10269000CE014D960E941A85A3960FB6F894DEBF20
:1026A0000FBECDBFCF91DF910895DF93CF93CDB70C
:1026B000DEB76C970FB6F894DEBF0FBECDBF87EEC6
:1026C00095E122ED33E0B9010E9453828BE592E15E
:1026D0000E94560560E00E9404908FEF9FEF909358
:1026E000A00C80939F0C1092E5110E94E916CE0178
:1026F000469629EE33E0B9010E948C85CE010F96F3
:1027000028E034E0B9010E948C85CE0108969E0134
:102710002A5E3F4FB9010E94C285CE010F969E01ED
:10272000285F3F4FB9010E941F12CE0108960E94F8
:102730001A85CE010F960E941A859E012A5E3F4F90
:10274000CE010196B9010E94C285CE0101960E9478
:102750007111CE0101960E941A85CE0146960E9403
:102760001A856C960FB6F894DEBF0FBECDBFCF9121
:10277000DF910895DF93CF93CDB7DEB78BE592E17C
:102780000E94DD0760E00E940490CF91DF910895E0
:10279000DF93CF93CDB7DEB78BE592E10E94DD07E3
:1027A00061E00E940490CF91DF910895DF93CF9371
:1027B000CDB7DEB78BE592E10E94440561E00E944F
:1027C0000490CF91DF910895DF93CF93CDB7DEB71B
:1027D0008BE592E10E94440560E00E940490CF9155
:1027E000DF910895DF93CF93CDB7DEB78BE592E10C
:1027F0000E940F0861E00E940490CF91DF9108953C
:10280000DF93CF93CDB7DEB78BE592E10E940F083F
:1028100060E00E940490CF91DF910895DF93CF9301
:10282000CDB7DEB7A3970FB6F894DEBF0FBECDBF0E
:10283000CE0146962CE134E0B9010E948C85CE0190
:1028400046960E947111CE0146960E941A850E94FA
:10285000BA131092EC118FEF9FEF9093E7118093D2
:10286000E611CE014D962DE234E0B9010E948C852F
:10287000CE010F9628E434E0B9010E948C85CE0188
:1028800008969E01235E3F4FB9010E94C285CE018A
:102890000F969E01285F3F4FB9010E941F12CE0183
:1028A00008960E941A85CE010F960E941A859E01F5
:1028B000235E3F4FCE010196B9010E94C285CE0131
:1028C00001960E947111CE0101960E941A85CE01D7
:1028D0004D960E941A85A3960FB6F894DEBF0FBEE0
:1028E000CDBFCF91DF910895DF93CF93CDB7DEB702
:1028F000A7970FB6F894DEBF0FBECDBFCE014A96A4
:102900002AE534E0B9010E948C85CE014A960E94E6
:102910007111CE014A960E941A858091E111882397
:1029200009F07BC081E08093EC110E94C8138BE515
:1029300092E10E941B06AA2797FDA095BA2F20E6D8
:102940003AEE40E050E0BC01CD010E947D92DC01F6
:10295000CB0189839A83AB83BC838FE091E129818A
:102960003A814B815C81EEE0F4E1BA01A9019F015B
:102970000E942E499093E7118093E611CE01819633
:102980002CE634E0B9010E948C85CE01439627E8FD
:1029900034E0B9010E948C85CE010C969E012F5D1A
:1029A0003F4FB9010E94C285CE0143969E01245F2C
:1029B0003F4FB9010E941F12CE010C960E941A854A
:1029C000CE0143960E941A85CE0105969E012F5D89
:1029D0003F4FB9010E94C285CE0105960E94711138
:1029E000CE0105960E941A8582E992E10E94E40FC9
:1029F000882F90E09093E9118093E81182E992E1A9
:102A00000E94F50F882F90E09093EB118093EA11CC
:102A1000CE0181960E941A8501C00000A7960FB6CC
:102A2000F894DEBF0FBECDBFCF91DF910895DF9345
:102A3000CF93CDB7DEB7AF970FB6F894DEBF0FBE1A
:102A4000CDBF9DA78CA77FA76EA7CE014E962FE97D
:102A500034E0B9010E948C85CE014E960E9471111E
:102A6000CE014E960E941A858091E111882309F0CB
:102A700074C18091E211882309F071C181E08093D3
:102A8000E21181E08093E51181E08093E4118CA54F
:102A90009DA59093DA118093D9118EA59FA590934F
:102AA000DC118093DB118BE592E10E946805AA2777
:102AB00097FDA095BA2F20E63AEE40E050E0BC0129
:102AC000CD010E947D92DC01CB0189839A83AB8387
:102AD000BC838BE592E10E947A05AC0128EE33E0DD
:102AE000429FC001439F900D529F900D1124AA2731
:102AF00097FDA095BA2F29813A814B815C81820F85
:102B0000931FA41FB51F89839A83AB83BC838BE576
:102B100092E10E948C05AA2797FDA095BA2F20E686
:102B20003AEE40E050E0BC01CD010E947D92DC0114
:102B3000CB018D839E83AF83B8878BE592E10E94A2
:102B40009E05AC0128EE33E0429FC001439F900DEB
:102B5000529F900D1124AA2797FDA095BA2F2D8181
:102B60003E814F815885820F931FA41FB51F8D830F
:102B70009E83AF83B8878FE091E129813A814B81B1
:102B80005C81E8EEF2E1BA01A9019F010E942E49A1
:102B90009093D8118093D7118FE091E12D813E81E0
:102BA0004F815885E5E5F3E1BA01A9019F010E9433
:102BB0002E499093A00C80939F0C8BE592E10E948C
:102BC000410861E00E9404908BE592E10E94560565
:102BD00061E00E940490CE01859622EB34E0B901B9
:102BE0000E948C85CE0185962CA53DA5B9010E9439
:102BF0007887CE0185962CEC34E0B9010E942687B7
:102C00008BE592E10E948C059C01CE018596B9016D
:102C10000E947887CE0185962AEE34E0B9010E94A1
:102C200026878BE592E10E949E059C01CE01859648
:102C3000B9010E947887CE0185962CEE34E0B90167
:102C40000E9426878BE592E10E9468059C01CE01D7
:102C50008596B9010E947887CE0185962AEE34E0E8
:102C6000B9010E9426878BE592E10E947A059C01BA
:102C7000CE018596B9010E947887CE01859623E022
:102C800035E0B9010E9426872091D7113091D811E3
:102C9000CE018596B9010E947887CE01859626E1FE
:102CA00035E0B9010E94268720919F0C3091A00C3D
:102CB000CE018596B9010E947887CE01859628E2DB
:102CC00035E0B9010E942687CE0185962EA53FA545
:102CD000B9010E947887CE01859622E335E0B901DB
:102CE0000E942687CE0185962EEA32E1B9010E9424
:102CF0001E87CE0147962FE335E0B9010E948C85EF
:102D0000CE0140969E012B5D3F4FB9010E94C285C6
:102D1000CE0147969E01205F3F4FB9010E941F12CE
:102D2000CE0140960E941A85CE0147960E941A85D0
:102D3000CE0109969E012B5D3F4FB9010E94C285CD
:102D4000CE0109960E947111CE0109960E941A8542
:102D5000CE0185960E941A8503C0000001C00000C4
:102D6000AF960FB6F894DEBF0FBECDBFCF91DF9107
:102D70000895DF93CF93CDB7DEB727970FB6F894BA
:102D8000DEBF0FBECDBF22E535E0CE010196B90111
:102D90000E948C85CE0101960E947111CE01019690
:102DA0000E941A858091E111882349F48BE592E114
:102DB0000E94D40561E070E00E94171501C0000078
:102DC00027960FB6F894DEBF0FBECDBFCF91DF912F
:102DD0000895DF93CF93CDB7DEB7A5970FB6F894DC
:102DE000DEBF0FBECDBFCE01489629E635E0B90162
:102DF0000E948C85CE0148960E947111CE014896A2
:102E00000E941A859091E41181E08927882309F4B2
:102E1000B0C09091E51181E08927882309F4A9C009
:102E20002091D9113091DA118091DB119091DC1150
:102E300082179307ACF48091DB119091DC1101961D
:102E40009093DC118093DB118091D9119091DA116C
:102E50002091DB113091DC11B9010E94171589C056
:102E60008091D9119091DA119A8389831092E2119D
:102E700082E992E10E94E40F882F90E09093DE11A6
:102E80008093DD1182E992E10E94F50F882F90E096
:102E90009093E0118093DF111092DC111092DB11FE
:102EA0001092DA111092D911CE014F9625E835E033
:102EB000B9010E948C85CE014F9629813A81B901D2
:102EC0000E947887CE014F9625EC32E0B9010E942E
:102ED000268789819A81823091051CF02BE935E0A3
:102EE00002C023EA35E0CE014F96B9010E94268741
:102EF000CE014F962AEA35E0B9010E942687CE011D
:102F00004F962EEA32E1B9010E941E87CE0141960A
:102F10002FE335E0B9010E948C85CE010A969E010F
:102F2000215E3F4FB9010E94C285CE0141969E01AC
:102F3000265F3F4FB9010E941F12CE010A960E94E0
:102F40001A85CE0141960E941A85CE0103969E01F4
:102F5000215E3F4FB9010E94C285CE0103960E94B7
:102F60007111CE0103960E941A85CE014F960E94E0
:102F70001A85A5960FB6F894DEBF0FBECDBFCF91D0
:102F8000DF910895DF93CF93CDB7DEB729970FB6C2
:102F9000F894DEBF0FBECDBF27EC35E0CE01019621
:102FA000B9010E948C85CE0101960E947111CE015B
:102FB00001960E941A85809173169091741600975D
:102FC00061F49E01285F3F4F87E796E1A901481B06
:102FD000590BCA01998788870DC09E01285F3F4F12
:102FE0008091731690917416A901481B590BCA0160
:102FF000998788878885998529960FB6F894DEBFCA
:103000000FBECDBFCF91DF910895DF93CF93CDB7A2
:10301000DEB727970FB6F894DEBF0FBECDBF29ED00
:1030200035E0CE010196B9010E948C85CE01019652
:103030000E947111CE0101960E941A858EE092E1E4
:103040000E94E00C8DE192E10E94010F8CE292E17E
:103050000E94BE0A8BE592E10E94B70827960FB640
:10306000F894DEBF0FBECDBFCF91DF910895DF93FF
:10307000CF93CDB7DEB76E970FB6F894DEBF0FBE15
:10308000CDBF8BE592E10E9473080E943C909A8329
:103090008983809101119091021129813A81281729
:1030A000390761F00E94978DDC01CB0180930311F9
:1030B00090930411A0930511B09306110E94978D6F
:1030C0009B01AC018091031190910411A091051115
:1030D000B0910611281B390B4A0B5B0B80919B0C9E
:1030E00090919C0CA0919D0CB0919E0C61E0821778
:1030F0009307A407B50708F060E0662331F08981E3
:103100009A81909300118093FF108091FF1090910D
:103110000011009709F052C08091E311882309F44F
:103120004DC00E94BA131092E311CE01489628EECA
:1031300035E0B9010E948C858BE592E10E94330550
:10314000882349F00E94D613CE01489624E036E049
:10315000B9010E94600FCE0141962BE136E0B90122
:103160000E948C85CE010A969E01285E3F4FB901D0
:103170000E94C285CE0141969E01265F3F4FB90154
:103180000E941F12CE010A960E941A85CE01419616
:103190000E941A85CE0103969E01285E3F4FB90119
:1031A0000E94C285CE0103960E947111CE01039642
:1031B0000E941A85CE0148960E941A8589819A81BB
:1031C00090930211809301116E960FB6F894DEBFB2
:1031D0000FBECDBFCF91DF910895DF93CF93CDB7D1
:1031E000DEB76E970FB6F894DEBF0FBECDBF8BE58E
:1031F00092E10E94A5080E943C909A838983809165
:10320000091190910A1129813A812817390761F033
:103210000E94978DDC01CB0180930B1190930C11D0
:10322000A0930D11B0930E110E94978D9B01AC01DC
:1032300080910B1190910C11A0910D11B0910E1174
:10324000281B390B4A0B5B0B80919B0C90919C0CBB
:10325000A0919D0CB0919E0C61E082179307A4078A
:10326000B50708F060E0662331F089819A81909378
:1032700008118093071180910711909108118130F6
:10328000910509F058C0CE01489622E733E0B90114
:103290000E948C858BE592E10E942205882361F0D3
:1032A0000E94F21381E08093E311CE01489627E358
:1032B00036E0B9010E94600F0E94E41381E0809320
:1032C000E111CE01489624E036E0B9010E94600F7A
:1032D000CE01419622E536E0B9010E948C85CE01EF
:1032E0000A969E01285E3F4FB9010E94C285CE0119
:1032F00041969E01265F3F4FB9010E941F12CE01E9
:103300000A960E941A85CE0141960E941A85CE0126
:1033100003969E01285E3F4FB9010E94C285CE01EF
:1033200003960E947111CE0103960E941A85CE0168
:1033300048960E941A8589819A8190930A118093F8
:1033400009116E960FB6F894DEBF0FBECDBFCF91B8
:10335000DF910895DF93CF930F920F92CDB7DEB731
:103360009A83898389819A810E941A850F900F9090
:10337000CF91DF910895DF93CF9300D00F92CDB717
:10338000DEB79A8389837C836B838B819C81FC016C
:103390002281338189819A81FC013383228389814F
:1033A0009A810F900F900F900F90CF91DF91089519
:1033B000DF93CF9300D00F92CDB7DEB79A83898386
:1033C0007C836B8389819A812B813C81B9010E9426
:1033D000BB198B819C81FC0184819581A681B78179
:1033E00029813A81F90184839583A683B7838B81F0
:1033F0009C81FC0180859185A285B38529813A81D4
:10340000F90180879187A287B38789819A810F907C
:103410000F900F900F90CF91DF910895DF93CF938E
:1034200000D00F92CDB7DEB79A8389837C836B83FC
:1034300089819A812B813C81B9010E94D8198981A7
:103440009A810F900F900F900F90CF91DF91089578
:10345000DF93CF9300D00F92CDB7DEB79A838983E5
:103460007C836B8389819A812B813C81B9010E9485
:103470000E1A8B819C81FC01248589819A81FC0133
:10348000248789819A810F900F900F900F90CF9190
:10349000DF9108950F931F93DF93CF93CDB7DEB7DE
:1034A000CE5CD5400FB6F894DEBF0FBECDBF8FE027
:1034B00091E10E94D54ACE018D539A4F0E94ED347E
:1034C0009E012D533A4F82E992E14CE0F9010080D0
:1034D0002F5F3F4FFC010082019641504423B1F71A
:1034E00082E992E10E94E40F282FCE018F579B4F73
:1034F000622F4AE00E94A786CE0188579B4F9E010B
:103500002F573B4FB9010E949F0FCE0188579B4F09
:103510002EE636E0B9010E9451888C0182E992E1E1
:103520000E94F50F282FCE0186589B4F622F4AE04C
:103530000E94A7869E0126583B4FC801B9010E94F0
:103540003E882EE636E0B9010E9451888C0182E95E
:1035500092E10E94CF0F9C01CE018D589B4FB90183
:103560004AE00E9447869E012D583B4FC801B90191
:103570000E943E889C0180EA92E1B9010E94A785E1
:10358000CE018D589B4F0E941A85CE0186589B4FC5
:103590000E941A85CE0188579B4F0E94AA19CE011E
:1035A0008F579B4F0E941A8582E992E10E94061074
:1035B000282FCE018B599B4F622F4AE00E94A7868D
:1035C000CE0184599B4F9E012B593B4FB9010E945C
:1035D0009F0FCE0184599B4F2AEE34E0B9010E941F
:1035E00051888C0182E992E10E941710282FCE01A8
:1035F000825A9B4F622F4AE00E94A7869E01225A60
:103600003B4FC801B9010E943E882AEE34E0B9015F
:103610000E9451888C0182E992E10E942810282F93
:10362000CE01895A9B4F622F4AE00E94A7869E01D5
:10363000295A3B4FC801B9010E943E889C0187EA84
:1036400092E1B9010E94A785CE01895A9B4F0E9441
:103650001A85CE01825A9B4F0E941A85CE01845949
:103660009B4F0E94AA19CE018B599B4F0E941A852D
:10367000CE01805B9B4F20EA32E1B9010E949F0F8F
:10368000CE01805B9B4F25EC32E0B9010E9451884E
:1036900027EA32E1B9010E943E889C018EEA92E15C
:1036A000B9010E94A785CE01805B9B4F0E94AA1999
:1036B0008BE592E10E941105882309F467C082E935
:1036C00092E10E94F50F282F30E08091DF11909158
:1036D000E01141E02817390709F040E04B8382E907
:1036E00092E10E940610082F10E08BE592E10E9403
:1036F000B00521E00817190709F020E02C8382E9C2
:1037000092E10E94E40F282F30E08091DD1190912A
:10371000DE1128173907ACF182E992E10E94F50F1A
:10372000282F30E08091DF119091E01128173907A0
:1037300041F18B81882369F082E992E10E940610B1
:10374000082F10E08BE592E10E94B00508171907D9
:10375000C4F08C81882369F082E992E10E941710FD
:10376000082F10E08BE592E10E94C20508171907A7
:1037700044F09091E21181E08927882311F081E0E3
:1037800001C080E0882311F00E94B9168BE592E118
:103790000E940A06882309F451C082E992E10E943E
:1037A000F50F282F30E08091EA119091EB1141E064
:1037B0002817390709F040E04D8382E992E10E9421
:1037C0000610982F81E09E3009F080E08E8382E918
:1037D00092E10E94E40F282F30E08091E81190914F
:1037E000E911281739072CF182E992E10E94F50FBF
:1037F000282F30E08091EA119091EB1128173907BA
:10380000C1F08D81882331F082E992E10E94061097
:103810008E3078F08E81882321F082E992E10E9437
:1038200017109091EC1181E08927882311F081E035
:1038300001C080E0882311F00E9474140E943718A0
:10384000CE018D5B9B4F2BE332E1B9010E94537691
:1038500081E492E19E012D5B3B4FB9010E94281A41
:103860001A8219828DE89FE0FC012081318181E478
:1038700092E1F9011995882311F40C94A92E1A826A
:1038800019820C94922E81E492E10E94B67221E09A
:10389000009709F420E0222311F40C94922E81E485
:1038A00092E10E94D5728F838F818A30C9F08F8117
:1038B0008D30B1F089819A818F3F91058CF49E0102
:1038C0002C533B4F89819A81820F931F2F81FC01DA
:1038D000208389819A8101969A8389830C94922E00
:1038E00081E492E10E944B73CE0181579B4F9E0170
:1038F0002C533B4FB9010E948C85CE0181579B4FC1
:1039000060E20E945F8A9C01CE018A569B4FAE0105
:1039100041575B4FBA0140E050E00E941E8BCE0140
:1039200081579B4F6FE20E945F8A8C01CE018157C5
:103930009B4F6FE20E945F8A9C01CE0181579B4F93
:1039400060E2A9010E94418A9C01CE01845C9B4FE8
:10395000AE0141575B4FBA01A8010E941E8BCE01F8
:1039600081579B4F9E01245C3B4FB9010E94A78564
:10397000CE01845C9B4F0E941A85CE0181579B4FDC
:103980009E012C533B4FB9014FEF50E020E030E057
:103990000E947A0FCE018C539B4F2EE636E0B90180
:1039A0000E94FA95998788872EE636E080E090E0BD
:1039B000B9010E94FA959B878A872EE636E080E05F
:1039C00090E0B9010E94FA959D878C872EE636E03B
:1039D00080E090E0B9010E94FA959F878E8788EF7A
:1039E00090E128853985B9010E940689982F81E0E8
:1039F000992309F080E0882341F1CE018B5C9B4F35
:103A000020E736E0B9010E948C85CE01825D9B4F94
:103A10002AE736E0B9010E948C85AE014B5C5B4F12
:103A20009E01225D3B4F83E991E0BA01A9010E940A
:103A3000D111CE01825D9B4F0E941A85CE018B5C15
:103A40009B4F0E941A850C94872ECE0183569B4F64
:103A5000FC01108211821282138220E10496FC0183
:103A6000322F11923A95E9F7CE018F549B4F22E7FE
:103A700033E0B9010E948C858C859D850E949D95BF
:103A8000998B888B8C859D85009709F4BBC18A85AD
:103A90009B852DE836E0B9014BE050E00E94499645
:103AA000009749F48C859D850E949D9561E070E0AA
:103AB0000E94171515C08A859B8529E936E0B90152
:103AC0004BE050E00E944996009751F48C859D850B
:103AD0000E949D9521E0009709F420E02093E111D8
:103AE0008E859F85009709F476C0888961E00E94E1
:103AF000E08F8A859B8525EA36E0B90147E050E0F2
:103B00000E9449960097F9F48E859F852DEA36E04C
:103B1000B90144E050E00E944996009721F4888959
:103B200061E00E9404908E859F8522EB36E0B9010A
:103B300043E050E00E944996009791F5888960E043
:103B40000E9404902DC08A859B8526EB36E0B90142
:103B500046E050E00E944996009759F418898E85F6
:103B60009F850E949D959C01812FB9010E94918E95
:103B700017C08A859B852DEB36E0B90146E050E001
:103B80000E944996009761F48E859F850E949D95BD
:103B9000482F86EC93E128893989B9010E94FC7B82
:103BA00081E492E124EC36E0B9010E94538281E481
:103BB00092E12FE632E0B9010E94538281E492E162
:103BC00027E832E0B9010E94538281E492E10E9429
:103BD00018820C94822E8A859B852DEB36E0B901E4
:103BE00046E050E00E944996009739F586EC93E153
:103BF00028893989B9010E94E77B282F30E000D05D
:103C000000D08DB79EB70196AE0143565B4FFC01C5
:103C10005183408344ED56E0FC0153834283FC0111
:103C2000358324830E945F978DB79EB706960FB6A3
:103C3000F8949EBF0FBE8DBF92C08A859B8527EDED
:103C400036E0B90144E050E00E944996009731F512
:103C50008BEF91E10E94E93A888999898130910539
:103C600009F07DC08BEF91E121EA3CE0B9010E94AF
:103C7000EF3DDC01CB018A8B9B8BAC8BBD8B8A89A2
:103C80009B89AC89BD89FE01E356FB4FBC01CD0188
:103C900042E022E08F010E94109361C08A859B85DB
:103CA00026EB36E0B90146E050E00E9449960097C5
:103CB00011F588890E945E8E9C0100D000D08DB7DE
:103CC0009EB70196AE0143565B4FFC015183408382
:103CD00044ED56E0FC0153834283FC013583248389
:103CE0000E945F978DB79EB706960FB6F8949EBF59
:103CF0000FBE8DBF34C08A859B8525EA36E0B901A9
:103D000047E050E00E944996009749F58C859D85D3
:103D10000E949D959F8B8E8B8E890E943C90998FDF
:103D2000888F888D998D1816190654F0CE01835608
:103D30009B4F22EB36E0B90144E050E00E940C9624
:103D4000888D998D1816190654F4CE0183569B4F11
:103D50002DEA36E0B90145E050E00E940C96CE0114
:103D60008F549B4F2CED36E0B9010E94600FCE01BD
:103D70008F549B4F2C853D85B9010E94600FCE0169
:103D80008F549B4F2FED36E0B9010E94600FCE019A
:103D90008F549B4F9E0123563B4FB9010E94600FE9
:103DA000CE018F549B4F23EE36E0B9010E94600F85
:103DB00081E492E124EC36E0B9010E94538281E46F
:103DC00092E12FE632E0B9010E94538281E492E150
:103DD00026EE36E0B9010E94538281E492E127E8A1
:103DE00032E0B9010E94538281E492E10E9418827C
:103DF00081E492E19E012F543B4FB9010E94408221
:103E00000C94822E8A859B8525E037E0B90146E037
:103E100050E00E944996009709F029C3CE018F54C3
:103E20009B4F2CE037E0B9010E94600FCE01895D05
:103E30009B4F2EE037E0B9010E94B70FCE01805EA4
:103E40009B4F2EE032E1B9010E94090DCE01895D40
:103E50009B4F9E01205E3B4FB9010E943E882CE1A2
:103E600037E0B9010E9451889C01CE018F549B4FCD
:103E7000B9010E94460FCE01805E9B4F0E941A85B9
:103E8000CE01895D9B4F0E94AA19CE01875E9B4F90
:103E900020E237E0B9010E94B70FCE018E5E9B4F42
:103EA0002DE132E1B9010E942A0FCE01875E9B4FBE
:103EB0009E012E5E3B4FB9010E943E882CE137E007
:103EC000B9010E9451889C01CE018F549B4FB901CA
:103ED0000E94460FCE018E5E9B4F0E941A85CE0136
:103EE000875E9B4F0E94AA19CE01855F9B4F2CE2F3
:103EF00037E0B9010E94B70FCE018C5F9B4F2CE2D7
:103F000032E1B9010E94E70ACE01855F9B4F9E0115
:103F10002C5F3B4FB9010E943E882CE137E0B9018C
:103F20000E9451889C01CE018F549B4FB9010E9481
:103F3000460FCE018C5F9B4F0E941A85CE01855F94
:103F40009B4F0E94AA19CE0183509C4F28E337E073
:103F5000B9010E94B70F0E94C2179C01CE018A507E
:103F60009C4FB9014AE00E947786CE0183509C4F56
:103F70009E012A503C4FB9010E943E882CE137E057
:103F8000B9010E9451889C01CE018F549B4FB90109
:103F90000E94460FCE018A509C4F0E941A85CE0186
:103FA00083509C4F0E94AA19CE0181519C4F2CE452
:103FB00037E0B9010E94B70F0E94978D9B01AC01B9
:103FC000CE0188519C4FBA01A9012AE00E94E585E3
:103FD000CE0181519C4F9E0128513C4FB9010E9456
:103FE0003E882CE137E0B9010E9451889C01CE0146
:103FF0008F549B4FB9010E94460FCE0188519C4FB0
:104000000E941A85CE0181519C4F0E94AA19CE01AF
:104010008F519C4F27E537E0B9010E94B70F82E925
:1040200092E10E940610282FCE0186529C4F622FEB
:104030004AE00E94A786CE018F519C4F9E012652D6
:104040003C4FB9010E943E882CE137E0B9010E9443
:1040500051889C01CE018F549B4FB9010E94460F9D
:10406000CE0186529C4F0E941A85CE018F519C4FE3
:104070000E94AA19CE018D529C4F21E637E0B9016A
:104080000E94B70F82E992E10E941710282FCE01FB
:1040900084539C4F622F4AE00E94A786CE018D5226
:1040A0009C4F9E0124533C4FB9010E943E882CE155
:1040B00037E0B9010E9451889C01CE018F549B4F7B
:1040C000B9010E94460FCE0184539C4F0E941A856D
:1040D000CE018D529C4F0E94AA19CE018B539C4F4A
:1040E0002DE637E0B9010E94B70F82E992E10E9404
:1040F0002810282FCE0182549C4F622F4AE00E9444
:10410000A786CE018B539C4F9E0122543C4FB90190
:104110000E943E882CE137E0B9010E9451889C0141
:10412000CE018F549B4FB9010E94460FCE0182549D
:104130009C4F0E941A85CE018B539C4F0E94AA1956
:10414000CE0189549C4F29E737E0B9010E94B70F8F
:1041500082E992E10E941533282FCE0180559C4FB1
:10416000622F4AE00E94A786CE0189549C4F9E018F
:1041700020553C4FB9010E943E882CE137E0B9013F
:104180000E9451889C01CE018F549B4FB9010E941F
:10419000460FCE0180559C4F0E941A85CE0189544E
:1041A0009C4F0E94AA19CE0187559C4F27E837E003
:1041B000B9010E94B70F82E992E10E94F50F282F02
:1041C000CE018E559C4F622F4AE00E94A786CE01F9
:1041D00087559C4F9E012E553C4FB9010E943E8849
:1041E0002CE137E0B9010E9451889C01CE018F5427
:1041F0009B4FB9010E94460FCE018E559C4F0E94E5
:104200001A85CE0187559C4F0E94AA19CE0185566A
:104210009C4F2FE837E0B9010E94B70F82E992E185
:104220000E94E40F282FCE018C569C4F622F4AE04B
:104230000E94A786CE0185569C4F9E012C563C4F6E
:10424000B9010E943E882CE137E0B9010E945188F3
:104250009C01CE018F549B4FB9010E94460FCE01A5
:104260008C569C4F0E941A85CE0185569C4F0E9409
:10427000AA19CE0183579C4F29E937E0B9010E9462
:10428000B70F82E992E10E94CF0F9C01CE018A57BD
:104290009C4FB9014AE00E944786CE0183579C4F4C
:1042A0009E012A573C4FB9010E943E882CE137E01D
:1042B000B9010E9451889C01CE018F549B4FB901D6
:1042C0000E94460FCE018A579C4F0E941A85CE014C
:1042D00083579C4F0E94AA19CE0181589C4F22EA15
:1042E00037E0B9010E94B70F82E992E10E943910CC
:1042F0009C01CE0188589C4FB9014AE00E94778604
:10430000CE0181589C4F9E0128583C4FB9010E9414
:104310003E882CE137E0B9010E9451889C01CE0112
:104320008F549B4FB9010E94460FCE0188589C4F75
:104330000E941A85CE0181589C4F0E94AA19CE0175
:104340008F589C4F2CEA37E0B9010E94B70F20919B
:104350009E1230919F12CE0186599C4FB9014AE0BE
:104360000E947786CE018F589C4F9E0126593C4F64
:10437000B9010E943E882CE137E0B9010E945188C2
:104380009C01CE018F549B4FB9010E94460FCE0174
:1043900086599C4F0E941A85CE018F589C4F0E94CF
:1043A000AA19CE018D599C4F2AEB37E0B9010E9422
:1043B000B70FCE01845A9C4F64E14AE00E94A78661
:1043C000CE018D599C4F9E01245A3C4FB9010E9449
:1043D0003E882CE137E0B9010E9451889C01CE0152
:1043E0008F549B4FB9010E94460FCE01845A9C4FB7
:1043F0000E941A85CE018D599C4F0E94AA19CE01A8
:104400008B5A9C4F22EC37E0B9010E94B70FCE01C6
:10441000825B9C4F65E14AE00E94A786CE018B5AE1
:104420009C4F9E01225B3C4FB9010E943E882AECC2
:1044300037E0B9010E9451889C01CE018F549B4FF7
:10444000B9010E94460FCE01825B9C4F0E941A85E3
:10445000CE018B5A9C4F0E94AA19CE018F549B4FBC
:104460002DEC37E0B9010E94600F0C945A2E8A851A
:104470009B852FEC37E0B90146E050E00E94499659
:10448000009709F07CC68BEF91E10E94E93A8BEF2F
:1044900091E121EA3CE0B9010E94EF3DDC01CB0152
:1044A0008A8F9B8FAC8FBD8F8A8D9B8DAC8DBD8D80
:1044B000FE01E854FB4FBC01CD0142E022E08F0138
:1044C0000E9410938BEF91E129EA3CE0B9010E9430
:1044D000EF3DDC01CB018E8F9F8FA8A3B9A38E8DFA
:1044E0009F8DA8A1B9A1FE01E254FB4FBC01CD01F3
:1044F00042E022E08F010E941093CE018F549B4F27
:104500002CE037E0B9010E94600FCE01895B9C4F1F
:1045100026ED37E0B9010E94B70F8BE592E10E94CA
:104520004D060E943C909C01CE01805C9C4FB901DD
:104530004AE00E947786CE01895B9C4F9E01205CF9
:104540003C4FB9010E943E882CE137E0B9010E943E
:1045500051889C01CE018F549B4FB9010E94460F98
:10456000CE01805C9C4F0E941A85CE01895B9C4FD6
:104570000E94AA19CE01875C9C4F22EE37E0B90158
:104580000E94B70F8BE592E10E947F060E943C904B
:104590009C01CE018E5C9C4FB9014AE00E94778657
:1045A000CE01875C9C4F9E012E5C3C4FB9010E945E
:1045B0003E882CE137E0B9010E9451889C01CE0170
:1045C0008F549B4FB9010E94460FCE018E5C9C4FC9
:1045D0000E941A85CE01875C9C4F0E94AA19CE01C9
:1045E000855D9C4F2EEE37E0B9010E94B70F8BE539
:1045F00092E10E94B1060E943C909C01CE018C5D2C
:104600009C4FB9014AE00E947786CE01855D9C4FA0
:104610009E012C5D3C4FB9010E943E882CE137E0A1
:10462000B9010E9451889C01CE018F549B4FB90162
:104630000E94460FCE018C5D9C4F0E941A85CE01D0
:10464000855D9C4F0E94AA19CE01835E9C4F2AEF84
:1046500037E0B9010E94B70F8BE592E10E94E306B3
:104660000E943C909C01CE018A5E9C4FB9014AE0B9
:104670000E947786CE01835E9C4F9E012A5E3C4F4E
:10468000B9010E943E882CE137E0B9010E945188AF
:104690009C01CE018F549B4FB9010E94460FCE0161
:1046A0008A5E9C4F0E941A85CE01835E9C4F0E94B9
:1046B000AA19CE01815F9C4F26E038E0B9010E9423
:1046C000B70F8BE592E10E9415070E943C909C0178
:1046D000CE01885F9C4FB9014AE00E947786CE01E7
:1046E000815F9C4F9E01285F3C4FB9010E943E882C
:1046F0002CE137E0B9010E9451889C01CE018F5412
:104700009B4FB9010E94460FCE01885F9C4F0E94CB
:104710001A85CE01815F9C4F0E94AA19CE018F5F3E
:104720009C4F22E138E0B9010E94B70F8BE592E17E
:104730000E9447070E943C909C01CE0186509D4FED
:10474000B9014AE00E947786CE018F5F9C4F9E019F
:1047500026503D4FB9010E943E882CE137E0B90157
:104760000E9451889C01CE018F549B4FB9010E9439
:10477000460FCE0186509D4F0E941A85CE018F5F55
:104780009C4F0E94AA19CE018D509D4F2EE138E01A
:10479000B9010E94B70F8BE592E10E9479070E9450
:1047A0003C909C01CE0184519D4FB9014AE00E948A
:1047B0007786CE018D509D4F9E0124513D4FB9010A
:1047C0000E943E882CE137E0B9010E9451889C018B
:1047D000CE018F549B4FB9010E94460FCE018451E8
:1047E0009D4F0E941A85CE018D509D4F0E94AA199F
:1047F000CE018B519D4F2AE238E0B9010E94B70FDC
:104800008BE592E10E94AB070E943C909C01CE0197
:1048100082529D4FB9014AE00E947786CE018B51AA
:104820009D4F9E0122523D4FB9010E943E882CE1CE
:1048300037E0B9010E9451889C01CE018F549B4FF3
:10484000B9010E94460FCE0182529D4F0E941A85E7
:10485000CE018B519D4F0E94AA19CE0189529D4FC6
:1048600026E338E0B9010E94B70F8BE592E10E9480
:10487000DD070E943C909C01CE0180539D4FB90101
:104880004AE00E947786CE0189529D4F9E012053B7
:104890003D4FB9010E943E882CE137E0B9010E94EA
:1048A00051889C01CE018F549B4FB9010E94460F45
:1048B000CE0180539D4F0E941A85CE0189529D4F93
:1048C0000E94AA19CE0187539D4F2FE438E0B90109
:1048D0000E94B70F8BE592E10E940F080E943C9066
:1048E0009C01CE018E539D4FB9014AE00E9477860C
:1048F000CE0187539D4F9E012E533D4FB9010E941B
:104900003E882CE137E0B9010E9451889C01CE011C
:104910008F549B4FB9010E94460FCE018E539D4F7D
:104920000E941A85CE0187539D4F0E94AA19CE017D
:1049300085549D4F29E638E0B9010E94B70F8BE5F9
:1049400092E10E9441080E943C909C01CE018C544F
:104950009D4FB9014AE00E947786CE0185549D4F54
:104960009E012C543D4FB9010E943E882CE137E056
:10497000B9010E9451889C01CE018F549B4FB9010F
:104980000E94460FCE018C549D4F0E941A85CE0185
:1049900085549D4F0E94AA19CE0183559D4F23E84F
:1049A00038E0B9010E94B70F8BE592E10E947308CD
:1049B0000E943C909C01CE018A559D4FB9014AE06E
:1049C0000E947786CE0183559D4F9E012A553D4F0B
:1049D000B9010E943E882CE137E0B9010E9451885C
:1049E0009C01CE018F549B4FB9010E94460FCE010E
:1049F0008A559D4F0E941A85CE0183559D4F0E9476
:104A0000AA19CE0181569D4F27E938E0B9010E94CD
:104A1000B70F8BE592E10E94A5080E943C909C0193
:104A2000CE0188569D4FB9014AE00E947786CE019B
:104A300081569D4F9E0128563D4FB9010E943E88E8
:104A40002CE137E0B9010E9451889C01CE018F54BE
:104A50009B4FB9010E94460FCE0188569D4F0E9480
:104A60001A85CE0181569D4F0E94AA19CE018F56FC
:104A70009D4F2BEA38E0B9010E94B70FCE0186574F
:104A80009D4F9E0128543B4FB9010E948C85CE0159
:104A90008F569D4F9E0126573D4FB9010E943E887B
:104AA0002CE137E0B9010E9451889C01CE018F545E
:104AB0009B4FB9010E94460FCE0186579D4F0E9421
:104AC0001A85CE018F569D4F0E94AA19CE018D578F
:104AD0009D4F2DEB38E0B9010E94B70FCE018458ED
:104AE0009D4F9E0122543B4FB9010E948C85CE01FF
:104AF0008D579D4F9E0124583D4FB9010E943E881D
:104B00002CE137E0B9010E9451889C01CE018F54FD
:104B10009B4FB9010E94460FCE0184589D4F0E94C1
:104B20001A85CE018D579D4F0E94AA19CE018B5830
:104B30009D4F2AEC38E0B9010E94B70F2091D9119E
:104B40003091DA11CE0182599D4FB9014AE00E949D
:104B50007786CE018B589D4F9E0122593D4FB9015A
:104B60000E943E882CE137E0B9010E9451889C01E7
:104B7000CE018F549B4FB9010E94460FCE0182593E
:104B80009D4F0E941A85CE018B589D4F0E94AA19F5
:104B9000CE0189599D4F2DED38E0B9010E94B70F24
:104BA0002091DB113091DC11CE01805A9D4FB9016B
:104BB0004AE00E947786CE0189599D4F9E01205A76
:104BC0003D4FB9010E943E882CE137E0B9010E94B7
:104BD00051889C01CE018F549B4FB9010E94460F12
:104BE000CE01805A9D4F0E941A85CE0189599D4F52
:104BF0000E94AA19CE01875A9D4F29EE38E0B901CB
:104C00000E94B70F2091D7113091D811CE018E5A42
:104C10009D4FB9014AE00E947786CE01875A9D4F89
:104C20009E012E5A3D4FB9010E943E882CE137E08B
:104C3000B9010E9451889C01CE018F549B4FB9014C
:104C40000E94460FCE018E5A9D4F0E941A85CE01BA
:104C5000875A9D4F0E94AA19CE01855B9D4F2CEF6C
:104C600038E0B9010E94B70F20919F0C3091A00C41
:104C7000CE018C5B9D4FB9014AE00E947786CE0140
:104C8000855B9D4F9E012C5B3D4FB9010E943E8884
:104C90002CE137E0B9010E9451889C01CE018F546C
:104CA0009B4FB9010E94460FCE018C5B9D4F0E9425
:104CB0001A85CE01855B9D4F0E94AA19CE01835CA7
:104CC0009D4F2EE039E0B9010E94B70F2091DD1110
:104CD0003091DE11CE018A5C9D4FB9014AE00E94FD
:104CE0007786CE01835C9D4F9E012A5C3D4FB901C2
:104CF0000E943E882CE137E0B9010E9451889C0156
:104D0000CE018F549B4FB9010E94460FCE018A5CA1
:104D10009D4F0E941A85CE01835C9D4F0E94AA1967
:104D2000CE01815D9D4F25E239E0B9010E94B70FA8
:104D30002091DF113091E011CE01885D9D4FB901C6
:104D40004AE00E947786CE01815D9D4F9E01285DDD
:104D50003D4FB9010E943E882CE137E0B9010E9425
:104D600051889C01CE018F549B4FB9010E94460F80
:104D7000CE01885D9D4F0E941A85CE01815D9D4FB9
:104D80000E94AA19CE018F5D9D4F2AE339E0B90137
:104D90000E94B70F2091E6113091E711CE01865E97
:104DA0009D4FB9014AE00E947786CE018F5D9D4FED
:104DB0009E01265E3D4FB9010E943E882CE137E0FE
:104DC000B9010E9451889C01CE018F549B4FB901BB
:104DD0000E94460FCE01865E9D4F0E941A85CE012D
:104DE0008F5D9D4F0E94AA19CE018D5E9D4F2CE4D0
:104DF00039E0B9010E94B70F2091E8113091E91113
:104E0000CE01845F9D4FB9014AE00E947786CE01B2
:104E10008D5E9D4F9E01245F3D4FB9010E943E88EB
:104E20002CE137E0B9010E9451889C01CE018F54DA
:104E30009B4FB9010E94460FCE01845F9D4F0E9497
:104E40001A85CE018D5E9D4F0E94AA19CE018B5FFF
:104E50009D4F20E639E0B9010E94B70F2091EA1179
:104E60003091EB11CE0182509E4FB9014AE00E9471
:104E70007786CE018B5F9D4F9E0122503E4FB90138
:104E80000E943E882CE137E0B9010E9451889C01C4
:104E9000CE018F549B4FB9010E94460FCE01825024
:104EA0009E4F0E941A85CE018B5F9D4F0E94AA19CA
:104EB000CE0189509E4F2CEA37E0B9010E94B70F0E
:104EC00020919E1230919F12CE0180519E4FB901C8
:104ED0004AE00E947786CE0189509E4F9E01205164
:104EE0003E4FB9010E943E882CE137E0B9010E9493
:104EF00051889C01CE018F549B4FB9010E94460FEF
:104F0000CE0180519E4F0E941A85CE0189509E4F3E
:104F10000E94AA19CE0187519E4F22E739E0B901BC
:104F20000E94B70F8091E211282F30E0CE018E5100
:104F30009E4FB9014AE00E947786CE0187519E4F6D
:104F40009E012E513E4FB9010E943E882CE137E070
:104F5000B9010E9451889C01CE018F549B4FB90129
:104F60000E94460FCE018E519E4F0E941A85CE019F
:104F700087519E4F0E94AA19CE0185529E4F2CE860
:104F800039E0B9010E94B70F8091EC11282F30E071
:104F9000CE018C529E4FB9014AE00E947786CE0125
:104FA00085529E4F9E012C523E4FB9010E943E8871
:104FB0002CE137E0B9010E9451889C01CE018F5449
:104FC0009B4FB9010E94460FCE018C529E4F0E940A
:104FD0001A85CE0185529E4F0E94AA19CE01835395
:104FE0009E4F21EA39E0B9010E94B70F8091E31189
:104FF000282F30E0CE018A539E4FB9014AE00E942B
:105000007786CE0183539E4F9E012A533E4FB901AE
:105010000E943E882CE137E0B9010E9451889C0132
:10502000CE018F549B4FB9010E94460FCE018A5387
:105030009E4F0E941A85CE0183539E4F0E94AA194B
:10504000CE0181549E4F2DEB39E0B9010E94B70F7C
:105050008091E511282F30E0CE0188549E4FB90190
:105060004AE00E947786CE0181549E4F9E012854CB
:105070003E4FB9010E943E882CE137E0B9010E9401
:1050800051889C01CE018F549B4FB9010E94460F5D
:10509000CE0188549E4F0E941A85CE0181549E4FA6
:1050A0000E94AA19CE018F549E4F28ED39E0B90114
:1050B0000E94B70F8091E411282F30E0CE01865571
:1050C0009E4FB9014AE00E947786CE018F549E4FD1
:1050D0009E0126553E4FB9010E943E882CE137E0E3
:1050E000B9010E9451889C01CE018F549B4FB90198
:1050F0000E94460FCE0186559E4F0E941A85CE0112
:105100008F549E4F0E94AA19CE018D559E4F24EFB9
:1051100039E0B9010E94B70F8091E111282F30E0EA
:10512000CE0184569E4FB9014AE00E947786CE0197
:105130008D559E4F9E0124563E4FB9010E943E88D8
:105140002AEC37E0B9010E9451889C01CE018F54AE
:105150009B4FB9010E94460FCE0184569E4F0E947C
:105160001A85CE018D559E4F0E94AA19CE018F54EB
:105170009B4F2DEC37E0B9010E94600F9BC58A85DB
:105180009B852EE03AE0B90146E050E00E94499646
:10519000009709F06EC58BE592E10E944D03CE01A8
:1051A0008F549B4F2CE037E0B9010E94600FCE0175
:1051B0008B569E4F25E13AE0B9010E94B70F8BE56F
:1051C00092E10E941105282F30E0CE0182579E4FB8
:1051D000B9014AE00E947786CE018B569E4F9E0110
:1051E00022573E4FB9010E943E882CE137E0B901B9
:1051F0000E9451889C01CE018F549B4FB9010E949F
:10520000460FCE0182579E4F0E941A85CE018B56C3
:105210009E4F0E94AA19CE0189579E4F21E33AE082
:10522000B9010E94B70F8BE592E10E942205282F59
:1052300030E0CE0180589E4FB9014AE00E94778647
:10524000CE0189579E4F9E0120583E4FB9010E94C2
:105250003E882CE137E0B9010E9451889C01CE01C3
:105260008F549B4FB9010E94460FCE0180589E4F2C
:105270000E941A85CE0189579E4F0E94AA19CE011D
:1052800087589E4F2EE43AE0B9010E94B70F8BE594
:1052900092E10E943305282F30E0CE018E589E4FB8
:1052A000B9014AE00E947786CE0187589E4F9E0141
:1052B0002E583E4FB9010E943E882CE137E0B901DB
:1052C0000E9451889C01CE018F549B4FB9010E94CE
:1052D000460FCE018E589E4F0E941A85CE018758E8
:1052E0009E4F0E94AA19CE0185599E4F29E63AE0A9
:1052F000B9010E94B70F8BE592E10E9444059C0121
:10530000CE018C599E4FB9014AE00E947786CE01AA
:1053100085599E4F9E012C593E4FB9010E943E88EF
:105320002CE137E0B9010E9451889C01CE018F54D5
:105330009B4FB9010E94460FCE018C599E4F0E948F
:105340001A85CE0185599E4F0E94AA19CE01835A13
:105350009E4F26E83AE0B9010E94B70F8BE592E133
:105360000E9456059C01CE018A5A9E4FB9014AE01F
:105370000E947786CE01835A9E4F9E012A5A3E4F45
:10538000B9010E943E882CE137E0B9010E945188A2
:105390009C01CE018F549B4FB9010E94460FCE0154
:1053A0008A5A9E4F0E941A85CE01835A9E4F0E94B0
:1053B000AA19CE01815B9E4F21EA3AE0B9010E9411
:1053C000B70F8BE592E10E9468059C01CE01885BD6
:1053D0009E4FB9014AE00E947786CE01815B9E4FC5
:1053E0009E01285B3E4FB9010E943E882CE137E0C8
:1053F000B9010E9451889C01CE018F549B4FB90185
:105400000E94460FCE01885B9E4F0E941A85CE01F6
:10541000815B9E4F0E94AA19CE018F5B9E4F2BEBA2
:105420003AE0B9010E94B70F8BE592E10E947A053C
:105430009C01CE01865C9E4FB9014AE00E947786AE
:10544000CE018F5B9E4F9E01265C3E4FB9010E94AC
:105450003E882CE137E0B9010E9451889C01CE01C1
:105460008F549B4FB9010E94460FCE01865C9E4F20
:105470000E941A85CE018F5B9E4F0E94AA19CE0111
:105480008D5C9E4F25ED3AE0B9010E94B70F8BE588
:1054900092E10E948C059C01CE01845D9E4FB90172
:1054A0004AE00E947786CE018D5C9E4F9E01245D6E
:1054B0003E4FB9010E943E882CE137E0B9010E94BD
:1054C00051889C01CE018F549B4FB9010E94460F19
:1054D000CE01845D9E4F0E941A85CE018D5C9E4F49
:1054E0000E94AA19CE018B5D9E4F2EEE3AE0B901C3
:1054F0000E94B70F8BE592E10E949E059C01CE01B0
:10550000825E9E4FB9014AE00E947786CE018B5D94
:105510009E4F9E01225E3E4FB9010E943E882CE1C3
:1055200037E0B9010E9451889C01CE018F549B4FF6
:10553000B9010E94460FCE01825E9E4F0E941A85DD
:10554000CE018B5D9E4F0E94AA19CE01895E9E4FAF
:1055500027E03BE0B9010E94B70F8BE592E10E9482
:10556000B0059C01CE01805F9E4FB9014AE00E94C8
:105570007786CE01895E9E4F9E01205F3E4FB90126
:105580000E943E882CE137E0B9010E9451889C01BD
:10559000CE018F549B4FB9010E94460FCE01805F10
:1055A0009E4F0E941A85CE01895E9E4F0E94AA19C5
:1055B000CE01875F9E4F2FE13BE0B9010E94B70FFC
:1055C0008BE592E10E94C2059C01CE018E5F9E4F49
:1055D000B9014AE00E947786CE01875F9E4F9E0107
:1055E0002E5F3E4FB9010E943E882CE137E0B901A1
:1055F0000E9451889C01CE018F549B4FB9010E949B
:10560000460FCE018E5F9E4F0E941A85CE01875FA6
:105610009E4F0E94AA19CE0185509F4F2AE33BE07E
:10562000B9010E94B70F8BE592E10E94D4059C015D
:10563000CE018C509F4FB9014AE00E947786CE017F
:1056400085509F4F9E012C503F4FB9010E943E88CC
:105650002CE137E0B9010E9451889C01CE018F54A2
:105660009B4FB9010E94460FCE018C509F4F0E9464
:105670001A85CE0185509F4F0E94AA19CE018351F1
:105680009F4F25E53BE0B9010E94B70F8BE592E102
:105690000E940A06282F30E0CE018A519F4FB9019F
:1056A0004AE00E947786CE0183519F4F9E012A5186
:1056B0003F4FB9010E943E882CE137E0B9010E94BA
:1056C00051889C01CE018F549B4FB9010E94460F17
:1056D000CE018A519F4F0E941A85CE0183519F4F60
:1056E0000E94AA19CE0181529F4F24E63BE0B901E6
:1056F0000E94B70F8BE592E10E941B069C01CE0130
:1057000088529F4FB9014AE00E947786CE018152AC
:105710009F4F9E0128523F4FB9010E943E882CE1C5
:1057200037E0B9010E9451889C01CE018F549B4FF4
:10573000B9010E94460FCE0188529F4F0E941A85E0
:10574000CE0181529F4F0E94AA19CE018F529F4FC6
:1057500027E73BE0B9010E94B70F8BE592E10E9479
:105760004D069C01CE0186539F4FB9014AE00E942D
:105770007786CE018F529F4F9E0126533F4FB9012E
:105780000E943E882CE137E0B9010E9451889C01BB
:10579000CE018F549B4FB9010E94460FCE01865314
:1057A0009F4F0E941A85CE018F529F4F0E94AA19C7
:1057B000CE018D539F4F26E83BE0B9010E94B70F01
:1057C0008BE592E10E947F069C01CE0184549F4F9D
:1057D000B9014AE00E947786CE018D539F4F9E010A
:1057E00024543F4FB9010E943E882CE137E0B901B3
:1057F0000E9451889C01CE018F549B4FB9010E9499
:10580000460FCE0184549F4F0E941A85CE018D53BE
:105810009F4F0E94AA19CE018B549F4F25E93BE070
:10582000B9010E94B70F8BE592E10E94B1069C017D
:10583000CE0182559F4FB9014AE00E947786CE0182
:105840008B549F4F9E0122553F4FB9010E943E88C5
:105850002CE137E0B9010E9451889C01CE018F54A0
:105860009B4FB9010E94460FCE0182559F4F0E9467
:105870001A85CE018B549F4F0E94AA19CE018955DB
:105880009F4F24EA3BE0B9010E94B70F8BE592E1FC
:105890000E94E3069C01CE0180569F4FB9014AE069
:1058A0000E947786CE0189559F4F9E0120563F4F1B
:1058B000B9010E943E882CE137E0B9010E9451886D
:1058C0009C01CE018F549B4FB9010E94460FCE011F
:1058D00080569F4F0E941A85CE0189559F4F0E9486
:1058E000AA19CE0187569F4F23EB3BE0B9010E94D6
:1058F000B70F8BE592E10E9415079C01CE018E56F1
:105900009F4FB9014AE00E947786CE0187569F4F8C
:105910009E012E563F4FB9010E943E882CE137E090
:10592000B9010E9451889C01CE018F549B4FB9014F
:105930000E94460FCE018E569F4F0E941A85CE01BF
:1059400087569F4F0E94AA19CE0185579F4F22EC80
:105950003BE0B9010E94B70F8BE592E10E94470737
:105960009C01CE018C579F4FB9014AE00E94778677
:10597000CE0185579F4F9E012C573F4FB9010E9482
:105980003E882CE137E0B9010E9451889C01CE018C
:105990008F549B4FB9010E94460FCE018C579F4FE9
:1059A0000E941A85CE0185579F4F0E94AA19CE01E9
:1059B00083589F4F21ED3BE0B9010E94B70F8BE563
:1059C00092E10E9479079C01CE018A589F4FB9014C
:1059D0004AE00E947786CE0183589F4F9E012A5845
:1059E0003F4FB9010E943E882CE137E0B9010E9487
:1059F00051889C01CE018F549B4FB9010E94460FE4
:105A0000CE018A589F4F0E941A85CE0183589F4F1E
:105A10000E94AA19CE0181599F4F20EE3BE0B901A7
:105A20000E94B70F8BE592E10E94AB079C01CE016B
:105A300088599F4FB9014AE00E947786CE0181596B
:105A40009F4F9E0128593F4FB9010E943E882CE18B
:105A500037E0B9010E9451889C01CE018F549B4FC1
:105A6000B9010E94460FCE0188599F4F0E941A85A6
:105A7000CE0181599F4F0E94AA19CE018F599F4F85
:105A80002FEE3BE0B9010E94B70F8BE592E10E9437
:105A9000DD079C01CE01865A9F4FB9014AE00E9462
:105AA0007786CE018F599F4F9E01265A3F4FB901ED
:105AB0000E943E882CE137E0B9010E9451889C0188
:105AC000CE018F549B4FB9010E94460FCE01865ADA
:105AD0009F4F0E941A85CE018F599F4F0E94AA198D
