:100000000C9408020C9434020C9434020C943402C4
:100010000C9434020C9434020C9434020C94340288
:100020000C9434020C9434020C9434020C94340278
:100030000C9434020C9434020C9434020C94340268
:100040000C9434020C9434020C9434020C94340258
:100050000C9434020C9434020C9434020C94386ED8
:100060000C9434020C9434020C9434020C94340238
:100070000C9434020C9434020C9434020C94340228
:100080000C9434020C9434020C9434020C94340218
:100090000C9434020C9434020C9434020C94340208
:1000A0000C9434020C9434020C9434020C943402F8
:1000B0000C9434020C9434020C9434020C943402E8
:1000C0000C9434020C9434020C9434020C943402D8
:1000D0000C9434020C9434020C9434020C943402C8
:1000E0000C943402005EBCE2613FDD83C29C7E2042
:1000F000A3FD1F419DC3217FFCA2401E5F01E3BD04
:100100003E6082DC237D9FC1421CFEA0E1BF5D03F7
:1001100080DE3C62BEE0025CDF81633D7C22C09EEB
:100120001D43A1FF4618FAA427799BC584DA3866D7
:10013000E5BB5907DB856739BAE406581947A5FBC3
:100140007826C49A653BD987045AB8E6A7F91B45B7
:10015000C6987A24F8A6441A99C7257B3A6486D8AB
:100160005B05E7B98CD2306EEDB3510F4E10F2AC97
:100170002F7193CD114FADF3702ECC92D38D6F3183
:10018000B2EC0E50AFF1134DCE90722C6D33D18F77
:100190000C52B0EE326C8ED0530DEFB1F0AE4C126B
:1001A00091CF2D73CA947628ABF517490856B4EA57
:1001B0006937D58B5709EBB536688AD495CB297743
:1001C000F4AA4816E9B7550B88D6346A2B7597C937
:1001D0004A14F6A8742AC896154BA9F7B6E80A542B
:1001E000D7896B3500002100240027002A002D004C
:1001F0003000330001010000040107010A01000082
:100200002200250028002B002E00310034000201BE
:100210000000050108010B0100002000230026005A
:1002200029002C002F00320000010000030106010C
:10023000090105050505070508080808020202026C
:100240000A0A080804040404010101010101010172
:100250000303030303030303040707070C0C0C0C3D
:100260000C0C0C0C02020202060606060606060626
:100270000B0B0B0B0B0B0B0B0102102020080810B3
:100280002040102040800201020108040201010206
:1002900004081020408080402010080402018004DF
:1002A000020180402010080402010804020101023A
:1002B0000408102040800102040810204080000043
:1002C000090A02080B0C0D070603040100000000D8
:1002D000000000000000000000000000000000001E
:1002E0000000000000000000000011100F000000DE
:1002F00000000000000000000000000000000000FE
:100300000000000000407A10F35A00A0724E180955
:100310000010A5D4E80000E87648170000E40B546C
:10032000020000CA9A3B000000E1F505000080963B
:100330009800000040420F000000A086010000006D
:10034000102700000000E803000000006400000027
:1003500000000A00000000000100000000002C76F0
:10036000D888DC674F0823DFC1DFAE59E1B1B7960B
:10037000E5E3E453C63AE651997696E8E6C2842668
:10038000EB898C9B62ED407C6FFCEFBC9C9F40F244
:10039000BAA56FA5F490055A2AF75C936B6CF967C0
:1003A0006DC11BFCE0E40D47FEF520E6B500D0ED85
:1003B000902E0300943577050080841E08000020ED
:1003C0004E0A000000C80C333333330F986E12838B
:1003D0001141EF8D2114893BE65516CFFEE6DB185F
:1003E000D1844B381BF77C1D901DA4BBE424203224
:1003F00084725E228100C9F124ECA1E53D27D80773
:100400002F3B73439648234E9852B655F55FCB0762
:1004100011241FBECFEFD1E2DEBFCDBF00E00CBF85
:1004200018E0A0E0B2E0E2E4F7EF00E00BBF02C0AA
:1004300007900D92A233B107D9F719E0A2E3B8E013
:1004400001C01D92AF3AB107E1F713E0CEE0D4E06E
:1004500004C02297FE010E94F371CE3FD107C9F775
:100460000E9430180C94947B0C940000DF93CF937F
:1004700000D0CDB7DEB79A838983E981FA81808184
:100480008B838B81882311F081E08B838B810F908C
:100490000F900F90CF91DF910895DF93CF9300D00D
:1004A000CDB7DEB79A838983E981FA8181818B8315
:1004B0008B81882311F081E08B838B810F900F90CB
:1004C0000F90CF91DF910895DF93CF9300D0CDB7F8
:1004D000DEB79A838983E981FA8182818B838B815C
:1004E000882311F081E08B838B810F900F900F9008
:1004F000CF91DF910895DF93CF930F920F92CDB7F5
:10050000DEB79A838983E981FA818381882F90E01D
:100510000F900F90CF91DF910895DF93CF930F92BB
:100520000F92CDB7DEB79A838983E981FA818481FE
:10053000882F90E00F900F90CF91DF910895DF9377
:10054000CF930F920F92CDB7DEB79A838983E9815B
:10055000FA8185819681A781B085BC01CD010F907C
:100560000F90CF91DF910895DF93CF930F920F9269
:10057000CDB7DEB79A838983E981FA818185928537
:10058000A385B485BC01CD010F900F90CF91DF9171
:100590000895DF93CF930F920F92CDB7DEB79A8372
:1005A000898388E999E064E070E04FEF0E94B258D7
:1005B00088E999E065E070E04FEF0E94B25888E961
:1005C00099E066E070E04FEF0E94B25888E999E048
:1005D00067E070E04FEF0E94B25888E999E068E068
:1005E00070E04FEF0E94B25888E999E069E070E04E
:1005F0004FEF0E94B25888E999E06AE070E04FEF4F
:100600000E94B2580F900F90CF91DF910895DF9321
:10061000CF930F920F92CDB7DEB79A83898388E983
:1006200099E064E070E00E94CB58E981FA81808310
:10063000E981FA818081882329F0E981FA8180812A
:100640008F3F69F4E981FA811082E981FA81208182
:1006500088E999E064E070E0422F0E94B25888E98E
:1006600099E065E070E00E94CB58E981FA818183CE
:10067000E981FA818181882329F0E981FA818181E8
:100680008F3F69F4E981FA811182E981FA81218140
:1006900088E999E065E070E0422F0E94B25888E94D
:1006A00099E066E070E00E94CB58E981FA8182838C
:1006B000E981FA818281882329F0E981FA818281A6
:1006C0008F3F69F4E981FA811282E981FA812281FE
:1006D00088E999E066E070E0422F0E94B25888E90C
:1006E00099E067E070E00E94CB58E981FA8183834A
:1006F000E981FA818381882329F0E981FA81838164
:100700008F3F71F4E981FA818CE18383E981FA8179
:10071000238188E999E067E070E0422F0E94B25897
:1007200088E999E068E070E00E94CB58E981FA819D
:100730008483E981FA818481882329F0E981FA811F
:1007400084818F3F71F4E981FA818DE18483E981AD
:10075000FA81248188E999E068E070E0422F0E94E4
:10076000B258E981FA8185819681A781B085009789
:10077000A105B10559F0E981FA8185819681A781AA
:10078000B0858F3F9105A105B10551F4E981FA814A
:1007900080EA98E9ABE7B0E085839683A783B087CA
:1007A000E981FA8181859285A385B4850097A105A9
:1007B000B10559F0E981FA8181859285A385B485D7
:1007C0008F3F9105A105B10551F4E981FA8180E6D9
:1007D00093EEA6E1B0E081879287A387B4870F905C
:1007E0000F90CF91DF910895DF93CF930F920F92E7
:1007F000CDB7DEB79A83898388E999E064E070E039
:100800000E94CB58E981FA818083E981FA81808155
:10081000882329F0E981FA8180818F3F69F4E98199
:10082000FA811082E981FA81208188E999E064E007
:1008300070E0422F0E94B25888E999E065E070E0CC
:100840000E94CB58E981FA818183E981FA81818113
:10085000882329F0E981FA8181818F3F69F4E98158
:10086000FA811182E981FA81218188E999E065E0C4
:1008700070E0422F0E94B25888E999E066E070E08B
:100880000E94CB58E981FA818283E981FA818281D1
:10089000882329F0E981FA8182818F3F69F4E98117
:1008A000FA811282E981FA81228188E999E066E081
:1008B00070E0422F0E94B25888E999E067E070E04A
:1008C0000E94CB58E981FA818383E981FA8183818F
:1008D000882329F0E981FA8183818F3F71F4E981CE
:1008E000FA818CE18383E981FA81238188E999E0A7
:1008F00067E070E0422F0E94B25888E999E068E012
:1009000070E00E94CB58E981FA818483E981FA8101
:100910008481882329F0E981FA8184818F3F71F4F1
:10092000E981FA818DE18483E981FA81248188E972
:1009300099E068E070E0422F0E94B258E981FA81A4
:1009400085819681A781B0850097A105B10559F0F1
:10095000E981FA8185819681A781B0858F3F9105D4
:10096000A105B10551F4E981FA8180EA98E9ABE784
:10097000B0E085839683A783B087E981FA8181857A
:100980009285A385B4850097A105B10559F0E98149
:10099000FA8181859285A385B4858F3F9105A10554
:1009A000B10551F4E981FA8180E693EEA6E1B0E069
:1009B00081879287A387B4870F900F90CF91DF91A3
:1009C0000895DF93CF930F920F92CDB7DEB79A833E
:1009D00089830F900F90CF91DF910895DF93CF938C
:1009E0000F920F92CDB7DEB79A8389830F900F9045
:1009F000CF91DF910895DF93CF930F920F92CDB7F0
:100A0000DEB79A838983E981FA818081E981FA815D
:100A10008483E981FA818181E981FA818583E98191
:100A2000FA818281E981FA818683E981FA81838171
:100A3000E981FA81878389819A8104960F900F90CA
:100A4000CF91DF9108950F931F93DF93CF93CDB78D
:100A5000DEB729970FB6F894DEBF0FBECDBF8C016D
:100A600079876887C801E885F9852081622F4AE087
:100A70000E94FE6CC80120E032E0B9010E94426A87
:100A8000C801E885F9852181622F0E94026AC801A8
:100A900020E032E0B9010E94426AC801E885F98588
:100AA0002281622F0E94026AC80120E032E0B9016F
:100AB0000E94426AC801E885F9852381622F0E945D
:100AC000026AC801C80129960FB6F894DEBF0FBEAE
:100AD000CDBFCF91DF911F910F910895DF93CF93F9
:100AE0000F920F92CDB7DEB79A83898388E999E098
:100AF00060E070E04FEF0E94B25888E999E061E051
:100B000070E04FEF0E94B25888E999E062E070E02F
:100B10004FEF0E94B25888E999E063E070E04FEF30
:100B20000E94B2580F900F90CF91DF9108950F93CC
:100B3000DF93CF9300D000D0CDB7DEB79A838983FF
:100B40006B834C832D830E83E981FA818B818083B3
:100B5000E981FA818C818183E981FA818D818283A7
:100B6000E981FA818E818383E981FA818081E9813B
:100B7000FA818483E981FA818181E981FA8185831F
:100B8000E981FA818281E981FA818683E981FA81AA
:100B90008381E981FA81878388E999E060E070E0E8
:100BA0004B810E94B25888E999E061E070E04C8185
:100BB0000E94B25888E999E062E070E04D810E949D
:100BC000B25888E999E063E070E04E810E94B25823
:100BD00026960FB6F894DEBF0FBECDBFCF91DF9142
:100BE0000F910895DF93CF930F920F92CDB7DEB799
:100BF0009A83898388E999E060E070E00E94CB588D
:100C0000E981FA818083E981FA8180818F3F29F02F
:100C1000E981FA818081882389F4E981FA8180EC75
:100C20008083E981FA8188EA8183E981FA818BE016
:100C30008283E981FA8181EF83831BC088E999E08F
:100C400061E070E00E94CB58E981FA81818388E9F4
:100C500099E062E070E00E94CB58E981FA818283DA
:100C600088E999E063E070E00E94CB58E981FA815D
:100C70008383E981FA818081E981FA818483E98132
:100C8000FA818181E981FA818583E981FA81828112
:100C9000E981FA818683E981FA818381E981FA8198
:100CA00087830F900F90CF91DF910895DF93CF93BB
:100CB0000F920F92CDB7DEB79A83898388E999E0C6
:100CC00060E070E00E94CB58E981FA818083E9817D
:100CD000FA8180818F3F29F0E981FA818081882320
:100CE00089F4E981FA8180EC8083E981FA8188EADC
:100CF0008183E981FA818BE08283E981FA8181EF46
:100D000083831BC088E999E061E070E00E94CB58C2
:100D1000E981FA81818388E999E062E070E00E94CC
:100D2000CB58E981FA81828388E999E063E070E039
:100D30000E94CB58E981FA818383E981FA8180811D
:100D4000E981FA818483E981FA818181E981FA81EB
:100D50008583E981FA818281E981FA818683E9814B
:100D6000FA818381E981FA8187830F900F90CF9177
:100D7000DF910895DF93CF930F920F92CDB7DEB737
:100D80008091AB099091AC09009749F4CE0101968E
:100D90002FEA39E0821B930B9A8389830DC09E0151
:100DA0002F5F3F4F8091AB099091AC09A901481B7F
:100DB000590BCA019A83898389819A810F900F9078
:100DC000CF91DF910895DF93CF9300D00F92CDB7ED
:100DD000DEB79A8389837C836B83EB81FC8182817C
:100DE0009381E981FA819383828389819A810F902B
:100DF0000F900F900F90CF91DF910895DF93CF93D5
:100E000000D00F92CDB7DEB79A8389837C836B8342
:100E100089819A812B813C81B9010E94E306EB8193
:100E2000FC8184819581A681B781E981FA818483DF
:100E30009583A683B783EB81FC8180859185A2850C
:100E4000B385E981FA8180879187A287B3878981F9
:100E50009A810F900F900F900F90CF91DF9108958E
:100E6000DF93CF9300D00F92CDB7DEB79A838983FB
:100E70007C836B8389819A812B813C81B9010E949B
:100E8000FE0689819A810F900F900F900F90CF915D
:100E9000DF910895DF93CF9300D00F92CDB7DEB7E7
:100EA0009A8389837C836B8389819A812B813C819E
:100EB000B9010E943007EB81FC818485E981FA81C8
:100EC000848789819A810F900F900F900F90CF9116
:100ED000DF9108950F93DF93CF9300D00F92CDB79A
:100EE000DEB79A8389837C836B8389819A81813081
:100EF0009105B9F58B819C812FEF8F3F920789F582
:100F000089E499E060E040E020E000E00E94E95FD1
:100F100082E398E022E032E0B9010E94256B89E487
:100F200098E00E94732D80E099E066E20E94DA2842
:100F30008EE099E020E039E0B9010E946A1881E270
:100F400099E00E94F20589E299E060E570E00E9474
:100F50009A518FE299E00E94464D8CE399E00E94FD
:100F6000070389819A81009771F48B819C812FEF0F
:100F70008F3F920741F481E299E00E94EE0482E300
:100F800098E00E94166E0F900F900F900F90CF91E7
:100F9000DF910F910895DF93CF93CDB7DEB780E057
:100FA00090E06FEF7FEF0E946A07CF91DF91089585
:100FB000DF93CF93CDB7DEB781E090E06FEF7FEFA7
:100FC0000E946A07CF91DF910895DF93CF93CDB749
:100FD000DEB78FE299E028E032E0B9010E94CF63EA
:100FE000CF91DF910895DF93CF93CDB7DEB78FE236
:100FF00099E024E232E0B9010E94CF638FE299E0E8
:101000002BE332E0B9010E94CF638FE299E023E540
:1010100032E0B9010E94CF638FE299E00E9436610D
:101020000E94E5078FE299E024E732E0B9010E94CF
:10103000CF63CF91DF910895DF93CF9300D0CDB7E9
:10104000DEB78091E1059091E2050E942E719A83AE
:101050008983209143083091440889819A818217BD
:10106000930761F00E948C6EDC01CB0180934508F0
:1010700090934608A0934708B09348080E948C6E4E
:101080009B01AC018091450890914608A0914708CA
:10109000B0914808281B390B4A0B5B0B8091C105A6
:1010A0009091C205A091C305B091C4051B8282171F
:1010B0009307A407B50710F481E08B838B81882305
:1010C00031F089819A819093420880934108809100
:1010D00041089091420881309105A1F48CE399E098
:1010E0000E944D02882339F08091DB059091DC0548
:1010F00061E00E94FB708CE399E00E947B0260E05B
:101100000E94FB7089819A819093440880934308E0
:101110000F900F900F90CF91DF910895DF93CF93B1
:1011200000D0CDB7DEB78091DF059091E0050E9439
:101130002E719A83898320913B0830913C088981E4
:101140009A818217930761F00E948C6EDC01CB01BB
:1011500080933D0890933E08A0933F08B0934008C9
:101160000E948C6E9B01AC0180913D0890913E08DD
:10117000A0913F08B0914008281B390B4A0B5B0B2C
:101180008091C1059091C205A091C305B091C4059D
:101190001B8282179307A407B50710F481E08B83A5
:1011A0008B81882331F089819A8190933A088093CA
:1011B00039088091390890913A080097A1F48091FC
:1011C000DB059091DC0560E00E94FB708CE399E008
:1011D0000E946402882339F08CE399E00E947B022C
:1011E00061E00E94FB7089819A8190933C08809312
:1011F0003B080F900F900F90CF91DF910895DF93F0
:10120000CF93CDB7DEB728970FB6F894DEBF0FBEE9
:10121000CDBF9A8389837C836B835E834D833887BC
:101220002F8389819A812B813C814D815E81EF8161
:10123000F885B9019F010E94C66628960FB6F894FA
:10124000DEBF0FBECDBFCF91DF910895DF93CF9367
:1012500000D00F92CDB7DEB79A8389837C836B83EE
:1012600089819A812B813C81B9010E943F6B0F904B
:101270000F900F900F90CF91DF910895DF93CF9350
:1012800000D00F92CDB7DEB79A8389837C836B83BE
:1012900089819A812B813C81B9010E94526A89819E
:1012A0009A810F900F900F900F90CF91DF9108953A
:1012B000DF93CF930F920F92CDB7DEB79A838983D6
:1012C00089819A810E941C6E0F900F90CF91DF91BF
:1012D0000895DF93CF9300D00F92CDB7DEB79A83F6
:1012E00089837C836B8389819A812B813C81B901BD
:1012F0000E94426A89819A810F900F900F900F90FF
:10130000CF91DF910895DF93CF93CDB7DEB781E220
:1013100099E00E946E058CE399E00E94C902CF918A
:10132000DF910895DF93CF93CDB7DEB78091DD05D0
:101330009091DE0560E00E94FB708CE399E00E94D2
:101340008D0260E00E94FB708091F5089091F60894
:10135000009749F02091F5083091F60889E498E06B
:10136000B9010E946B2A8091F7089091F8080097C4
:1013700049F02091F7083091F80889E498E0B90124
:101380000E946B2ACF91DF910895DF93CF9300D015
:101390000F920F92CDB7DEB79A8389837C836B83DC
:1013A0004D838091FF08882321F08D81882309F4E3
:1013B00043C081E08093FF0889819A819093FC0863
:1013C0008093FB088B819C819093FE088093FD089D
:1013D0008CE399E00E949F029B01AC0189E498E0B4
:1013E000EEE8FAE0BA01A9019F010E949D2B9093BB
:1013F000F6088093F5088CE399E00E94B4029B0103
:10140000AC0189E498E0E5E7FAE0BA01A9019F019F
:101410000E949D2B9093F8088093F7088091DD053A
:101420009091DE0561E00E94FB708CE399E00E94E0
:101430008D0261E00E94FB700F900F900F900F9053
:101440000F90CF91DF910895DF93CF930F92CDB797
:10145000DEB72091F5083091F60889E498E0B901EB
:101460000E94242A882371F42091F7083091F8080B
:1014700089E498E0B9010E94242A882319F481E0C4
:10148000898301C019828981882359F12091FB0841
:101490003091FC088091FD089091FE088217930717
:1014A000B4F48091FD089091FE0801969093FE0897
:1014B0008093FD088091FB089091FC082091FD0825
:1014C0003091FE08B90141E00E94C5090AC010929E
:1014D000FF081092FE081092FD081092FC0810926E
:1014E000FB080F90CF91DF910895DF93CF93CDB795
:1014F000DEB78CE399E00E948D0260E00E94FB70F1
:101500002091F7083091F80889E498E0B9010E9429
:101510006B2A0E94240ACF91DF910895DF93CF9325
:10152000CDB7DEB78091DD059091DE0560E00E94C9
:10153000FB702091F5083091F60889E498E0B90134
:101540000E946B2A0E94240ACF91DF910895DF93B5
:10155000CF9300D000D0CDB7DEB79A8389837C8348
:101560006B835E834D838FE299E027E832E0B90117
:101570000E941B638FE299E029813A81B9014AE018
:1015800050E00E94E9628FE299E021E932E0B9017E
:101590000E941B638FE299E02B813C81B9010E947C
:1015A000E2638FE299E02BE332E0B9010E94CF635E
:1015B0008FE299E023E532E0B9010E94CF638FE228
:1015C00099E00E9436610E94E5078FE299E02D8143
:1015D0003E81B9010E94156426960FB6F894DEBFCD
:1015E0000FBECDBFCF91DF9108950F931F93DF936F
:1015F000CF93CDB7DEB7C25ED3400FB6F894DEBF4F
:101600000FBECDBF89E498E00E94F92B0E948E089E
:10161000CE018B559D4F29E239E0B9010E947953E3
:101620008FE299E09E012B553D4FB9010E944A0778
:10163000198E188E8FE299E00E94E74D882311F4ED
:101640000C94E817198E188E0C94BF178FE299E04E
:101650000E94AD4FCF51DC4F1882C15ED34000973E
:1016600031F081E0CF51DC4F8883C15ED340CF5150
:10167000DC4F9881C15ED340992311F40C94BF17BD
:101680008FE299E00E947D4F8F8B8F898A30C9F05D
:101690008F898D30B1F0888D998D8F3F91058CF4B5
:1016A000288D398DCE018F519D4FFC01E20FF31F24
:1016B0008F898083888D998D0196998F888F0C945E
:1016C000BF178FE299E00E94B94DCE018E549D4F15
:1016D0009E012F513D4FB9010E94256BCE018E54C2
:1016E0009D4F60E20E94C166FC01CE0187549D4F70
:1016F0009E012E543D4FB90140E050E09F010E94F1
:10170000966DCE018E549D4F6FE20E94C1668C0192
:10171000CE018E549D4F6FE20E94C1669C01CE01A6
:101720008E549D4F60E2A9010E94A366FC01CE0188
:1017300082569D4F9E012E543D4FB901A8019F0135
:101740000E94966DCE018E549D4F9E0122563D4FB4
:10175000B9010E94E96DCE0182569D4F0E94166E1E
:10176000CE018E549D4F9E012F513D4FB9014FEF39
:1017700050E020E030E00E94FF08CE018F519D4FE5
:1017800023E932E0B9010E94C1749E8B8D8B23E95D
:1017900032E080E090E0B9010E94C1749C8B8B8B99
:1017A00023E932E080E090E0B9010E94C1749A8B95
:1017B000898B23E932E080E090E0B9010E94C17496
:1017C000988B8F8782E398E02D893E89B9010E942A
:1017D0001567C052DC4F1882C05ED340882331F4B5
:1017E000A1E0C052DC4FA883C05ED340C052DC4FA2
:1017F000B881C05ED340BB2339F1CE0189569D4FDD
:1018000025E932E0B9010E94256BCE0180579D4F3A
:101810002FE932E0B9010E94256B9E0129563D4F08
:10182000AE0140575D4F83E991E0B9010E94A70ADC
:10183000CE0180579D4F0E94166ECE0189569D4F56
:101840000E94166E0C94B417FE01E054FD4F1082F6
:1018500011821282138280E13496DF01982F1D924B
:101860009A95E9F7CE018C529D4F22EB32E0B901F7
:101870000E94256B89899A890E9464749E878D874E
:1018800089899A89009709F4A8C18B899C8923EBDF
:1018900032E0B9014BE050E00E941075009789F4E6
:1018A00089899A890E94647461E070E040E00E9436
:1018B000C509CE018C529D4F2FEB32E0B9010E9439
:1018C000596B8F859889009709F476C08D8561E002
:1018D0000E9461708B899C8923EC32E0B90147E05A
:1018E00050E00E9410750097F9F48F8598892BECD1
:1018F00032E0B90144E050E00E941075009721F4F5
:101900008D8561E00E94FB708F85988920ED32E023
:10191000B90143E050E00E941075009791F58D8564
:1019200060E00E94FB702DC08B899C8924ED32E021
:10193000B90146E050E00E941075009759F41D85EA
:101940008F8598890E9464749C01812FB9010E943F
:10195000866F17C08B899C892BED32E0B90146E078
:1019600050E00E941075009761F48F8598890E945D
:101970006474482F88E999E02D853E85B9010E945D
:10198000B2588FE299E022EE32E0B9010E94CF63B3
:101990008FE299E02BE332E0B9010E94CF638FE23E
:1019A00099E023E532E0B9010E94CF638FE299E02C
:1019B0000E9436610C94AF178B899C892BED32E025
:1019C000B90146E050E00E941075009721F588E9C2
:1019D00099E02D853E85B9010E94CB58282F30E033
:1019E00000D000D0EDB7FEB73196CE0180549D4FA8
:1019F0009183808382EF92E0938382833583248373
:101A00000E942676ADB7BEB716960FB6F894BEBF45
:101A10000FBEADBF8FC08B899C8925EF32E0B90125
:101A200044E050E00E941075009731F58EE099E097
:101A30000E94481E8D859E858130910509F07AC0EF
:101A40008EE099E023EE35E0B9010E940C20DC0124
:101A5000CB0189879A87AB87BC8789859A85AB85B7
:101A6000BC85FE01E054FD4FBC01CD0142E022E007
:101A70008F010E94F7715EC08B899C8924ED32E052
:101A8000B90146E050E00E9410750097F9F48D8589
:101A90000E94526F9C0100D000D0EDB7FEB7319686
:101AA000CE0180549D4F918380838AEF92E093838F
:101AB0008283358324830E9426768DB79EB706964F
:101AC0000FB6F8949EBF0FBE8DBF34C08B899C8922
:101AD00023EC32E0B90147E050E00E941075009716
:101AE00049F589899A890E94647498878F838F81C8
:101AF0000E942E719E838D838D819E8118161906FA
:101B000054F0CE0180549D4F20ED32E0B90144E005
:101B100050E00E94D3748D819E811816190654F4EA
:101B2000CE0180549D4F2BEC32E0B90145E050E0EE
:101B30000E94D374CE018C529D4F2DEF32E0B9013B
:101B40000E946909CE018C529D4F29893A89B901B9
:101B50000E946909CE018C529D4F20E033E0B9010B
:101B60000E946909CE018C529D4F9E0120543D4F29
:101B7000B9010E946909CE018C529D4F24E033E0E7
:101B8000B9010E9469098FE299E022EE32E0B901C1
:101B90000E94CF638FE299E02BE332E0B9010E940B
:101BA000CF638FE299E027E033E0B9010E94CF6371
:101BB0008FE299E023E532E0B9010E94CF638FE222
:101BC00099E00E9436618FE299E09E012C523D4FD0
:101BD000B9010E9415640C94AF178B899C8926E289
:101BE00033E0B90146E050E00E941075009709F01B
:101BF000A5C0CE018C529D4F2DE233E0B9010E9469
:101C00006909CE0187579D4F2FE233E0B9010E9449
:101C10002609CE018E579D4F21E239E0B9010E947D
:101C20002305CE0187579D4F9E012E573D4FB90189
:101C30000E94EE6A2DE333E0B9010E94D26A9C0152
:101C4000CE018C529D4FB9010E943E09CE018E57A4
:101C50009D4F0E94166ECE0187579D4F0E945809D6
:101C6000CE0185589D4F21E433E0B9010E94260939
:101C70000E94BA069C01CE018C589D4FB9014AE0E2
:101C80000E949C6CCE0185589D4F9E012C583D4F63
:101C9000B9010E94EE6A2DE333E0B9010E94D26AD5
:101CA0009C01CE018C529D4FB9010E943E09CE018C
:101CB0008C589D4F0E94166ECE0185589D4F0E94F4
:101CC0005809CE0183599D4F25E533E0B9010E94A3
:101CD00026090E948C6E9B01AC01CE018A599D4F52
:101CE000BA01A9012AE00E94726BCE0183599D4F6F
:101CF0009E012A593D4FB9010E94EE6A20E633E069
:101D0000B9010E94D26A9C01CE018C529D4FB9014B
:101D10000E943E09CE018A599D4F0E94166ECE0147
:101D200083599D4F0E945809CE018C529D4F23E646
:101D300033E0B9010E9469090C9487178B899C894B
:101D400025E633E0B90146E050E00E9410750097A7
:101D500009F0ACC48EE099E00E94481E8EE099E044
:101D600023EE35E0B9010E940C20DC01CB01898310
:101D70009A83AB83BC8389819A81AB81BC81FE014C
:101D8000E552FD4FBC01CD0142E022E08F010E94EF
:101D9000F771CE018C529D4F2DE233E0B9010E94C4
:101DA0006909CE01815A9D4F2CE633E0B9010E94AA
:101DB00026098091C9059091CA050E942E719C0147
:101DC000CE01885A9D4FB9014AE00E949C6CCE0119
:101DD000815A9D4F9E01285A3D4FB9010E94EE6ADB
:101DE0002DE333E0B9010E94D26A9C01CE018C52EE
:101DF0009D4FB9010E943E09CE01885A9D4F0E9415
:101E0000166ECE01815A9D4F0E945809CE018F5AFD
:101E10009D4F28E733E0B9010E9426098091CB0548
:101E20009091CC050E942E719C01CE01865B9D4F46
:101E3000B9014AE00E949C6CCE018F5A9D4F9E01D1
:101E4000265B3D4FB9010E94EE6A2DE333E0B901F4
:101E50000E94D26A9C01CE018C529D4FB9010E9412
:101E60003E09CE01865B9D4F0E94166ECE018F5AB1
:101E70009D4F0E945809CE018D5B9D4F24E833E0B1
:101E8000B9010E9426098091CD059091CE050E944E
:101E90002E719C01CE01845C9D4FB9014AE00E94E5
:101EA0009C6CCE018D5B9D4F9E01245C3D4FB90122
:101EB0000E94EE6A2DE333E0B9010E94D26A9C01D0
:101EC000CE018C529D4FB9010E943E09CE01845C27
:101ED0009D4F0E94166ECE018D5B9D4F0E9458094A
:101EE000CE018B5C9D4F20E933E0B9010E942609A9
:101EF0008091CF059091D0050E942E719C01CE015A
:101F0000825D9D4FB9014AE00E949C6CCE018B5CC2
:101F10009D4F9E01225D3D4FB9010E94EE6A2DE367
:101F200033E0B9010E94D26A9C01CE018C529D4FD0
:101F3000B9010E943E09CE01825D9D4F0E94166E3E
:101F4000CE018B5C9D4F0E945809CE01895D9D4F4B
:101F50002CE933E0B9010E9426098091D1059091C6
:101F6000D2050E942E719C01CE01805E9D4FB90169
:101F70004AE00E949C6CCE01895D9D4F9E01205ECF
:101F80003D4FB9010E94EE6A2DE333E0B9010E9492
:101F9000D26A9C01CE018C529D4FB9010E943E092C
:101FA000CE01805E9D4F0E94166ECE01895D9D4FD1
:101FB0000E945809CE01875E9D4F28EA33E0B9019F
:101FC0000E9426098091D3059091D4050E942E711C
:101FD0009C01CE018E5E9D4FB9014AE00E949C6C2F
:101FE000CE01875E9D4F9E012E5E3D4FB9010E943E
:101FF000EE6A2DE333E0B9010E94D26A9C01CE0162
:102000008C529D4FB9010E943E09CE018E5E9D4FBC
:102010000E94166ECE01875E9D4F0E945809CE0128
:10202000855F9D4F24EB33E0B9010E942609809122
:10203000D5059091D6050E942E719C01CE018C5F32
:102040009D4FB9014AE00E949C6CCE01855F9D4F77
:102050009E012C5F3D4FB9010E94EE6A2DE333E0F3
:10206000B9010E94D26A9C01CE018C529D4FB901E8
:102070000E943E09CE018C5F9D4F0E94166ECE01DC
:10208000855F9D4F0E945809CE0183509E4F20ECE2
:1020900033E0B9010E9426098091D7059091D805B7
:1020A0000E942E719C01CE018A509E4FB9014AE0D8
:1020B0000E949C6CCE0183509E4F9E012A503E4F41
:1020C000B9010E94EE6A2DE333E0B9010E94D26AA1
:1020D0009C01CE018C529D4FB9010E943E09CE0158
:1020E0008A509E4F0E94166ECE0183509E4F0E94D2
:1020F0005809CE0181519E4F2CEC33E0B9010E946A
:1021000026098091D9059091DA050E942E719C01D3
:10211000CE0188519E4FB9014AE00E949C6CCE01CD
:1021200081519E4F9E0128513E4FB9010E94EE6A97
:102130002DE333E0B9010E94D26A9C01CE018C529A
:102140009D4FB9010E943E09CE0188519E4F0E94C9
:10215000166ECE0181519E4F0E945809CE018F51BB
:102160009E4F25EE33E0B9010E9426098091DB05E0
:102170009091DC050E942E719C01CE0186529E4FEB
:10218000B9014AE00E949C6CCE018F519E4F9E0186
:1021900026523E4FB9010E94EE6A2DE333E0B901A9
:1021A0000E94D26A9C01CE018C529D4FB9010E94BF
:1021B0003E09CE0186529E4F0E94166ECE018F516F
:1021C0009E4F0E945809CE018D529E4F2FEF33E053
:1021D000B9010E9426098091DD059091DE050E94DB
:1021E0002E719C01CE0184539E4FB9014AE00E949A
:1021F0009C6CCE018D529E4F9E0124533E4FB901DF
:102200000E94EE6A2DE333E0B9010E94D26A9C017C
:10221000CE018C529D4FB9010E943E09CE018453DC
:102220009E4F0E94166ECE018D529E4F0E945809FD
:10223000CE018B539E4F29E134E0B9010E9426095B
:102240008091DF059091E0050E942E719C01CE01E6
:1022500082549E4FB9014AE00E949C6CCE018B5380
:102260009E4F9E0122543E4FB9010E94EE6A2DE31B
:1022700033E0B9010E94D26A9C01CE018C529D4F7D
:10228000B9010E943E09CE0182549E4F0E94166EF3
:10229000CE018B539E4F0E945809CE0189549E4F08
:1022A0002DE234E0B9010E9426098091E105909168
:1022B000E2050E942E719C01CE0180559E4FB9010E
:1022C0004AE00E949C6CCE0189549E4F9E0120558D
:1022D0003E4FB9010E94EE6A2DE333E0B9010E943E
:1022E000D26A9C01CE018C529D4FB9010E943E09D9
:1022F000CE0180559E4F0E94166ECE0189549E4F8E
:102300000E945809CE0187559E4F21E434E0B9015F
:102310000E942609CE018E559E4F9E0125523D4FAB
:10232000B9010E94256BCE0187559E4F9E012E5507
:102330003E4FB9010E94EE6A2DE333E0B9010E94DD
:10234000D26A9C01CE018C529D4FB9010E943E0978
:10235000CE018E559E4F0E94166ECE0187559E4F20
:102360000E945809CE0185569E4F23E534E0B901FD
:102370000E9426092091FF08CE018C569E4F622FA5
:102380004AE00E94FE6CCE0185569E4F9E012C565F
:102390003E4FB9010E94EE6A2DE333E0B9010E947D
:1023A000D26A9C01CE018C529D4FB9010E943E0918
:1023B000CE018C569E4F0E94166ECE0185569E4FC2
:1023C0000E945809CE0183579E4F2DE634E0B90193
:1023D0000E9426092091FB083091FC08CE018A5703
:1023E0009E4FB9014AE00E949C6CCE0183579E4FDC
:1023F0009E012A573E4FB9010E94EE6A2DE333E059
:10240000B9010E94D26A9C01CE018C529D4FB90144
:102410000E943E09CE018A579E4F0E94166ECE0141
:1024200083579E4F0E945809CE0181589E4F20E845
:1024300034E0B9010E9426092091FD083091FE0880
:10244000CE0188589E4FB9014AE00E949C6CCE0193
:1024500081589E4F9E0128583E4FB9010E94EE6A56
:102460002DE333E0B9010E94D26A9C01CE018C5267
:102470009D4FB9010E943E09CE0188589E4F0E948F
:10248000166ECE0181589E4F0E945809CE018F587A
:102490009E4F2CE834E0B9010E9426092091F508EE
:1024A0003091F608CE0186599E4FB9014AE00E944C
:1024B0009C6CCE018F589E4F9E0126593E4FB9010C
:1024C0000E94EE6A2DE333E0B9010E94D26A9C01BA
:1024D000CE018C529D4FB9010E943E09CE01865912
:1024E0009E4F0E94166ECE018F589E4F0E94580933
:1024F000CE018D599E4F2FE934E0B9010E94260983
:102500002091F5083091F60889E498E0B9010E941D
:10251000242A282FCE01845A9E4F622F4AE00E941F
:10252000FE6CCE018D599E4F9E01245A3E4FB9013B
:102530000E94EE6A2DE333E0B9010E94D26A9C0149
:10254000CE018C529D4FB9010E943E09CE01845AA2
:102550009E4F0E94166ECE018D599E4F0E945809C3
:10256000CE018B5A9E4F27EB34E0B9010E94260919
:102570002091F7083091F808CE01825B9E4FB90197
:102580004AE00E949C6CCE018B5A9E4F9E01225BBA
:102590003E4FB9010E94EE6A2DE333E0B9010E947B
:1025A000D26A9C01CE018C529D4FB9010E943E0916
:1025B000CE01825B9E4F0E94166ECE018B5A9E4FBB
:1025C0000E945809CE01895B9E4F29EC34E0B90185
:1025D0000E9426092091F7083091F80889E498E0D4
:1025E000B9010E94242A282FCE01805C9E4F622FC1
:1025F0004AE00E94FE6CCE01895B9E4F9E01205CEA
:102600003E4FB9010E94EE6A2DE333E0B9010E940A
:10261000D26A9C01CE018C529D4FB9010E943E09A5
:10262000CE01805C9E4F0E94166ECE01895B9E4F4C
:102630000E945809CE01875C9E4F20EE34E0B9011C
:102640000E94260989E498E00E94C52A9C01CE01D7
:102650008E5C9E4FB9014AE00E949C6CCE01875C63
:102660009E4F9E012E5C3E4FB9010E94EE6A20E60D
:1026700033E0B9010E94D26A9C01CE018C529D4F79
:10268000B9010E943E09CE018E5C9E4F0E94166EDB
:10269000CE01875C9E4F0E945809CE018C529D4FFF
:1026A00023E633E0B9010E94690931C48B899C8912
:1026B0002EEE34E0B90146E050E00E94107500971C
:1026C00009F09BC2CE018C529D4F2DE233E0B9013F
:1026D0000E946909CE01855D9E4F2CE633E0B90169
:1026E0000E9426092091C9053091CA05CE018C5D52
:1026F0009E4FB9014AE00E949C6CCE01855D9E4FC1
:102700009E012C5D3E4FB9010E94EE6A2DE333E03D
:10271000B9010E94D26A9C01CE018C529D4FB90131
:102720000E943E09CE018C5D9E4F0E94166ECE0126
:10273000855D9E4F0E945809CE01835E9E4F28E71B
:1027400033E0B9010E9426092091CB053091CC05D8
:10275000CE018A5E9E4FB9014AE00E949C6CCE0178
:10276000835E9E4F9E012A5E3E4FB9010E94EE6A33
:102770002DE333E0B9010E94D26A9C01CE018C5254
:102780009D4FB9010E943E09CE018A5E9E4F0E9474
:10279000166ECE01835E9E4F0E945809CE01815F66
:1027A0009E4F24E833E0B9010E9426092091CD050F
:1027B0003091CE05CE01885F9E4FB9014AE00E945C
:1027C0009C6CCE01815F9E4F9E01285F3E4FB901F8
:1027D0000E94EE6A2DE333E0B9010E94D26A9C01A7
:1027E000CE018C529D4FB9010E943E09CE01885FF7
:1027F0009E4F0E94166ECE01815F9E4F0E94580927
:10280000CE018F5F9E4F20E933E0B9010E94260977
:102810002091CF053091D005CE0186509F4FB90150
:102820004AE00E949C6CCE018F5F9E4F9E01265015
:102830003F4FB9010E94EE6A2DE333E0B9010E94D7
:10284000D26A9C01CE018C529D4FB9010E943E0973
:10285000CE0186509F4F0E94166ECE018F5F9E4F15
:102860000E945809CE018D509F4F2CE933E0B901E9
:102870000E9426092091D1053091D205CE018451C4
:102880009F4FB9014AE00E949C6CCE018D509F4F32
:102890009E0124513F4FB9010E94EE6A2DE333E0BF
:1028A000B9010E94D26A9C01CE018C529D4FB901A0
:1028B0000E943E09CE0184519F4F0E94166ECE01A8
:1028C0008D509F4F0E945809CE018B519F4F28EA8F
:1028D00033E0B9010E9426092091D3053091D40537
:1028E000CE0182529F4FB9014AE00E949C6CCE01FA
:1028F0008B519F4F9E0122523F4FB9010E94EE6AB9
:102900002DE333E0B9010E94D26A9C01CE018C52C2
:102910009D4FB9010E943E09CE0182529F4F0E94F5
:10292000166ECE018B519F4F0E945809CE018952DD
:102930009F4F24EB33E0B9010E9426092091D50571
:102940003091D605CE0180539F4FB9014AE00E94D5
:102950009C6CCE0189529F4F9E0120533F4FB9017D
:102960000E94EE6A2DE333E0B9010E94D26A9C0115
:10297000CE018C529D4FB9010E943E09CE01805379
:102980009F4F0E94166ECE0189529F4F0E94580998
:10299000CE0187539F4F20EC33E0B9010E942609F6
:1029A0002091D7053091D805CE018E539F4FB901A4
:1029B0004AE00E949C6CCE0187539F4F9E012E538C
:1029C0003F4FB9010E94EE6A2DE333E0B9010E9446
:1029D000D26A9C01CE018C529D4FB9010E943E09E2
:1029E000CE018E539F4F0E94166ECE0187539F4F8C
:1029F0000E945809CE0185549F4F2CEC33E0B90159
:102A00000E9426092091D9053091DA05CE018C5417
:102A10009F4FB9014AE00E949C6CCE0185549F4FA4
:102A20009E012C543F4FB9010E94EE6A2DE333E022
:102A3000B9010E94D26A9C01CE018C529D4FB9010E
:102A40000E943E09CE018C549F4F0E94166ECE010B
:102A500085549F4F0E945809CE0183559F4F25EE04
:102A600033E0B9010E9426092091DB053091DC0595
:102A7000CE018A559F4FB9014AE00E949C6CCE015D
:102A800083559F4F9E012A553F4FB9010E94EE6A20
:102A90002DE333E0B9010E94D26A9C01CE018C5231
:102AA0009D4FB9010E943E09CE018A559F4F0E9459
:102AB000166ECE0183559F4F0E945809CE01815654
:102AC0009F4F2FEF33E0B9010E9426092091DD05C9
:102AD0003091DE05CE0188569F4FB9014AE00E9431
:102AE0009C6CCE0181569F4F9E0128563F4FB901E5
:102AF0000E94EE6A2DE333E0B9010E94D26A9C0184
:102B0000CE018C529D4FB9010E943E09CE018856DC
:102B10009F4F0E94166ECE0181569F4F0E9458090A
:102B2000CE018F569F4F29E134E0B9010E9426095A
:102B30002091DF053091E005CE0186579F4FB90106
:102B40004AE00E949C6CCE018F569F4F9E012657F3
:102B50003F4FB9010E94EE6A2DE333E0B9010E94B4
:102B6000D26A9C01CE018C529D4FB9010E943E0950
:102B7000CE0186579F4F0E94166ECE018F569F4FF3
:102B80000E945809CE018D579F4F2DE234E0B901C4
:102B90000E9426092091E1053091E205CE0184587A
:102BA0009F4FB9014AE00E949C6CCE018D579F4F08
:102BB0009E0124583F4FB9010E94EE6A20E633E09F
:102BC000B9010E94D26A9C01CE018C529D4FB9017D
:102BD0000E943E09CE0184589F4F0E94166ECE017E
:102BE0008D579F4F0E945809CE018C529D4F23E66E
:102BF00033E0B9010E9469098AC18B899C8925EF5C
:102C000034E0B90146E050E00E941075009709F0E9
:102C10006EC1CE018C529D4F2DE233E0B9010E946E
:102C20006909CE018B589F4F2CEF34E0B9010E9407
:102C300026098CE399E00E944D02282F30E0CE0156
:102C400082599F4FB9014AE00E949C6CCE018B587B
:102C50009F4F9E0122593F4FB9010E94EE6A2DE31A
:102C600033E0B9010E94D26A9C01CE018C529D4F83
:102C7000B9010E943E09CE0182599F4F0E94166EF3
:102C8000CE018B589F4F0E945809CE0189599F4F02
:102C900029E135E0B9010E9426098CE399E00E9400
:102CA0004D02282F30E0CE01805A9F4FB9014AE0F3
:102CB0000E949C6CCE0189599F4F9E01205A3F4F24
:102CC000B9010E94EE6A2DE333E0B9010E94D26A95
:102CD0009C01CE018C529D4FB9010E943E09CE014C
:102CE000805A9F4F0E94166ECE0189599F4F0E94B5
:102CF0005809CE01875A9F4F26E335E0B9010E945B
:102D000026098CE399E00E946402282F30E0CE016E
:102D10008E5A9F4FB9014AE00E949C6CCE01875A9F
:102D20009F4F9E012E5A3F4FB9010E94EE6A2DE33C
:102D300033E0B9010E94D26A9C01CE018C529D4FB2
:102D4000B9010E943E09CE018E5A9F4F0E94166E15
:102D5000CE01875A9F4F0E945809CE01855B9F4F35
:102D600021E535E0B9010E9426098CE399E00E9433
:102D70007B029C01CE018C5B9F4FB9014AE00E940F
:102D80009C6CCE01855B9F4F9E012C5B3F4FB90130
:102D90000E94EE6A2DE333E0B9010E94D26A9C01E1
:102DA000CE018C529D4FB9010E943E09CE018C5B31
:102DB0009F4F0E94166ECE01855B9F4F0E9458095F
:102DC000CE01CD962EE635E0B9010E9426098CE3AE
:102DD00099E00E948D029C01CE01C696B9014AE09D
:102DE0000E949C6CCE01CD969E012A5C3F4FB9019A
:102DF0000E94EE6A2DE333E0B9010E94D26A9C0181
:102E0000CE018C529D4FB9010E943E09CE01C6965B
:102E10000E94166ECE01CD960E945809CE018F9663
:102E200029E835E0B9010E9426098CE399E00E9467
:102E30009F029B01AC01CE018896BA01A9012AE04C
:102E40000E94D66BCE018F969E01285D3F4FB9013F
:102E50000E94EE6A2DE333E0B9010E94D26A9C0120
:102E6000CE018C529D4FB9010E943E09CE01889639
:102E70000E94166ECE018F960E945809CE0181964F
:102E800022EA35E0B9010E9426098CE399E00E940C
:102E9000B4029B01AC01CE014A96BA01A9012AE015
:102EA0000E94D66BCE0181969E01265E3F4FB901EE
:102EB0000E94EE6A20E633E0B9010E94D26A9C01CA
:102EC000CE018C529D4FB9010E943E09CE014A9617
:102ED0000E94166ECE0181960E945809CE018C5236
:102EE0009D4F23E633E0B9010E94690910C08B8928
:102EF0009C892BEB35E0B9014CE050E00E94107545
:102F0000009719F40E94830902C00E94F3078FE220
:102F100099E022EE32E0B9010E94CF638FE299E09E
:102F20002BE332E0B9010E94CF638FE299E027E002
:102F300033E0B9010E94CF638FE299E023E532E0EC
:102F4000B9010E94CF638FE299E00E9436618FE25F
:102F500099E09E012C523D4FB9010E941564CE01AB
:102F60008C529D4F0E94166ECE0187549D4F0E9439
:102F7000166ECE018E549D4F0E94166E1FC08FE2BA
:102F800099E00E94744ECE51DC4F8883C25ED340DC
:102F9000CE51DC4F9881C25ED340992331F0A1E03D
:102FA000CE51DC4FA883C25ED340CE51DC4F888126
:102FB000C25ED340882311F00C94260B64E670E0C7
:102FC00080E090E00E94C06E8FE299E00E94B24ED5
:102FD0000E941C08CE51DC4F0FB6F894DEBF0FBE26
:102FE000CDBFCF91DF911F910F910895DF93CF93C4
:102FF00000D000D0CDB7DEB781E299E00E94FB049B
:103000009C01CE010196B9010E9474608AE799E0A3
:103010002BEE35E0B9019E012F5F3F4FA9010E94C1
:10302000514B89E299E00E94E9538EE099E00E94B9
:10303000D5228091DF059091E00560E00E946170EB
:103040008091E1059091E20560E00E946170269612
:103050000FB6F894DEBF0FBECDBFCF91DF910895BC
:10306000DF93CF93CDB7DEB70E94F06E0E94F617C4
:103070000E94F50AFDCFDF93CF9300D00F92CDB71A
:10308000DEB79A8389837C836B83E981FA8180EA46
:103090009AE1928B818BE981FA818B819C81968365
:1030A0008583E981FA811482E981FA811082E981BC
:1030B000FA8189E08183E981FA8181E08283E98173
:1030C000FA8181E083830F900F900F900F90CF9142
:1030D000DF910895DF93CF9300D00F92CDB7DEB785
:1030E0009A8389837C836B83E981FA8180EA9AE100
:1030F000928B818BE981FA818B819C819683858378
:10310000E981FA811482E981FA811082E981FA81E8
:1031100089E08183E981FA8181E08283E981FA8112
:1031200081E083830F900F900F900F90CF91DF91EC
:103130000895DF93CF930F920F92CDB7DEB79A83A6
:103140008983E981FA8184810F900F90CF91DF917B
:103150000895DF93CF930F920F92CDB7DEB79A8386
:103160008983E981FA8181810F900F90CF91DF915E
:103170000895DF93CF9300D0CDB7DEB79A838983CC
:103180006B83E981FA818B8182830F900F900F907E
:10319000CF91DF910895DF93CF930F920F92CDB728
:1031A000DEB79A838983E981FA8182810F900F903B
:1031B000CF91DF910895DF93CF9300D0CDB7DEB7E5
:1031C0009A8389836B83E981FA818B8183830F9052
:1031D0000F900F90CF91DF910895DF93CF930F92CF
:1031E0000F92CDB7DEB79A838983E981FA81838113
:1031F0000F900F90CF91DF910895AF92BF92CF9231
:10320000DF92EF92FF920F931F93DF93CF93CDB78F
:10321000DEB764970FB6F894DEBF0FBECDBF9C83B8
:103220008B837E836D8358874F838F819885FC01C4
:1032300031968081882F90E0382F2227EF81F88502
:103240008081882F90E0822B932B9A838983ED8154
:10325000FE818081282F30E0388B2F874F85588959
:103260004232510561F08F8598898832910539F095
:10327000AF85B889A031B10509F49FC0F6C08F8130
:103280009885FC0134968081282F30E03E872D8779
:103290004D855E854F33510509F44FC08D859E8560
:1032A000803491053CF4AD85BE85AF31B10509F49C
:1032B00063C0DBC02D853E852F35310509F14D8575
:1032C0005E854F37510509F0D0C089819A81AA27C0
:1032D00097FDA095BA2FBC01CD010E94BC5CDC011A
:1032E000CB01BC01CD0120E030E040E85DE30E946D
:1032F000B65ADC01CB0189879A87AB87BC87B6C0F9
:1033000089819A8195958795AA2797FDA095BA2FCF
:10331000BC01CD010E94BC5CDC01CB01BC01CD0134
:1033200020E030E040E05EE30E94B65ADC01CB01D1
:1033300089879A87AB87BC8799C089819A8195953F
:10334000879595958795AA2797FDA095BA2FBC01DB
:10335000CD010E94BC5CDC01CB01BC01CD0120E0B1
:1033600030E040E85EE30E94B65ADC01CB01898779
:103370009A87AB87BC877AC089819A819595879512
:103380009595879595958795AA2797FDA095BA2F2E
:10339000BC01CD010E94BC5CDC01CB01BC01CD01B4
:1033A00020E030E040E05FE30E94B65ADC01CB0150
:1033B00089879A87AB87BC8759C089819A819595FF
:1033C0008795AA2797FDA095BA2FBC01CD010E9431
:1033D000BC5CDC01CB01BC01CD0120E030E040E869
:1033E0005EE30E94585ADC01CB015C016D018F81C4
:1033F0009885FC0137968081282F30E08F81988551
:10340000FC0136968081882F90E0D901A81BB90B6A
:10341000CD01AA2797FDA095BA2FBC01CD010E942E
:10342000BC5C7B018C018F819885FC013796808183
:10343000882F90E0A0E0B0E0BC01CD010E946E5D5D
:103440009B01AC01C801B7010E94B05BDC01CB015C
:103450009C01AD01C601B5010E94895ADC01CB0176
:1034600089879A87AB87BC8701C008C029853A85C0
:103470004B855C85298B3A8B4B8B5C8B69897A8970
:103480008B899C8964960FB6F894DEBF0FBECDBFC2
:10349000CF91DF911F910F91FF90EF90DF90CF9030
:1034A000BF90AF900895DF93CF930F920F92CDB757
:1034B000DEB79A838983E981FA8180810F900F902A
:1034C000CF91DF910895DF93CF9300D0CDB7DEB7D2
:1034D0009B838A83EA81FB818FEF8787EA81FB8167
:1034E000108A19820DC08981282F30E08A819B8142
:1034F000820F931FFC013796108289818F5F898329
:103500008981873080F30F900F900F90CF91DF91DA
:103510000895DF93CF9300D00F92CDB7DEB79A8393
:1035200089837C836B83E981FA818B819C81928B77
:10353000818B0F900F900F900F90CF91DF91089596
:10354000DF93CF930F920F92CDB7DEB79A83898323
:103550000F900F90CF91DF910895DF93CF9300D01C
:103560000F92CDB7DEB769837A838B839C836981A1
:103570007A818B819C8126E636E646EE5FE30E94E7
:10358000B65ADC01CB01BC01CD0120E030E040E0C7
:1035900052E40E94895ADC01CB01BC01CD010F909D
:1035A0000F900F900F90CF91DF910895DF93CF93FD
:1035B00000D00F92CDB7DEB769837A838B839C836B
:1035C00069817A818B819C8120E030E040E052E487
:1035D0000E94585ADC01CB01BC01CD0126E636E63B
:1035E00046EE5FE30E94B05BDC01CB01BC01CD0184
:1035F0000F900F900F900F90CF91DF910895DF9370
:10360000CF93CDB7DEB72D970FB6F894DEBF0FBEC0
:10361000CDBF998788877B876A878FEF8E8381E00C
:103620008D83E885F9858089882311F01D86E4C0A3
:10363000E885F985858196810E941F271C8688234D
:1036400011F481E08C878C85882311F01D86D4C00D
:10365000E885F985858196816CEE40E00E9416260A
:103660001F82A2C0E885F985858196810E94C424C5
:103670008C83E885F985858196810E94C4248B839B
:103680008F818695869586958A838F81882F90E095
:103690009C012770307081E090E0022E02C0880FFC
:1036A000991F0A94E2F789838C81882329F08B8102
:1036B000882311F01D86A0C08C818823B9F58B81E9
:1036C0008823A1F5E885F98597858F81981739F4C6
:1036D00081E08C83E885F9858E81878727C0E8851E
:1036E000F98597858F818917D8F48A81282F30E052
:1036F00088859985820F931FFC0137968081282F3A
:1037000030E08981882F90E082239323009719F07D
:1037100081E08C830BC01C821D828F818E8306C04A
:103720001C82E885F9858F8187871D828C8188239B
:10373000C1F08A81482F50E08A81282F30E08885A7
:103740009985820F931FFC01379690818981292FDB
:10375000282B88859985840F951FFC013796208337
:1037600019C08A81482F50E08A81282F30E088854F
:103770009985820F931FFC0137968081982F89814C
:1037800080958923282F88859985840F951FFC01B2
:1037900037962083E885F985858196816C810E9422
:1037A00092258F818F5F8F838F81803408F45ACF69
:1037B0008D81882321F0E885F98581E0808B1F8247
:1037C00016C08F81282F30E08A859B85DC01A20FEF
:1037D000B31F8F81282F30E088859985820F931F32
:1037E000FC01379680818C938F818F5F8F838F81CF
:1037F000883038F381E08D878D852D960FB6F8944B
:10380000DEBF0FBECDBFCF91DF910895DF93CF9381
:10381000CDB7DEB72A970FB6F894DEBF0FBECDBF87
:103820009A87898789859A850E94631A89859A85EE
:103830009E012F5F3F4FB9010E94FF1A2A960FB6D3
:10384000F894DEBF0FBECDBFCF91DF910895DF9317
:10385000CF9300D000D0CDB7DEB79B838A837D8322
:103860006C831982EA81FB81858196810E941F27E2
:10387000EA81FB81858196812C813D81B9010E947D
:103880008526EA81FB818581968164EB40E00E9478
:103890001626EA81FB81858196810E94C4241E82BE
:1038A000882311F481E08E838E81882311F081E0DA
:1038B0008983EA81FB81858196810E941F27898106
:1038C00026960FB6F894DEBF0FBECDBFCF91DF9125
:1038D0000895DF93CF9300D000D0CDB7DEB79A83A1
:1038E00089837C836B835E834D83E981FA81858143
:1038F00096810E941F27E981FA81858196812B811B
:103900003C81B9010E948526E981FA8185819681F1
:103910006EE440E00E941626E981FA812581368115
:103920008D819E81FC0132964081C901642F40E067
:103930000E941626E981FA81258136818D819E813A
:10394000FC0133964081C901642F40E00E94162695
:10395000EB81FC818081803171F0E981FA812581E0
:1039600036818D819E81FC0134964081C901642F8E
:1039700040E00E941626E981FA81858196810E94A5
:103980001F27E981FA8125813681E981FA818081C9
:10399000482FC90168E40E941626E981FA818081D6
:1039A000882331F06AE070E080E090E00E94C06E11
:1039B000E981FA81858196810E941F2726960FB69C
:1039C000F894DEBF0FBECDBFCF91DF9108950F9366
:1039D0001F93DF93CF9300D000D0CDB7DEB79A838B
:1039E00089837C836B835E834D83E981FA81858142
:1039F00096810E941F27E981FA81858196812B811A
:103A00003C81B9010E948526E981FA8185819681F0
:103A10006EEB40E00E941626E981FA81858196814D
:103A20000E942C25ED81FE8180838D819E818C01F9
:103A30000F5F1F4FE981FA81858196810E942C25B5
:103A4000F80180838D819E818C010E5F1F4FE9817B
:103A5000FA81858196810E942C25F80180838D81D1
:103A60009E818C010D5F1F4FE981FA8185819681CE
:103A70000E942C25F80180838D819E818C010C5F32
:103A80001F4FE981FA81858196810E942C25F801DA
:103A900080838D819E818C010B5F1F4FE981FA81AC
:103AA000858196810E942C25F80180838D819E81DD
:103AB0008C010A5F1F4FE981FA81858196810E94FE
:103AC0002C25F80180838D819E818C01095F1F4F19
:103AD000E981FA81858196810E942C25F8018083F5
:103AE0008D819E818C01085F1F4FE981FA8185815C
:103AF00096810E942C25F8018083E981FA818581D5
:103B000096810E941F2726960FB6F894DEBF0FBE3F
:103B1000CDBFCF91DF911F910F910895DF93CF9388
:103B2000CDB7DEB72E970FB6F894DEBF0FBECDBF70
:103B30009B878A877D876C878A859B852C853D85B9
:103B4000B9019E012F5F3F4FA9010E94E71C8981A7
:103B50008E878E85882311F081E08E878E852E9644
:103B60000FB6F894DEBF0FBECDBFCF91DF910895A1
:103B7000DF93CF93CDB7DEB72D970FB6F894DEBFA6
:103B80000FBECDBF9E838D8378876F835A87498709
:103B900089859A850097E1F1ED81FE8183818823F3
:103BA000B9F1ED81FE81908181E08927882381F13F
:103BB0000E948C6EDC01CB0189839A83AB83BC832A
:103BC0008D819E8160E070E00E948E1D982F81E0C3
:103BD000982781E089278823B9F40E948C6EDC0144
:103BE000CB0129813A814B815C81821B930BA40B11
:103BF000B50B8E3E22E0920720E0A20720E0B2073C
:103C000018F431E03D8701C01D868D858823C1F6FB
:103C1000EF81F8858081282F30E03C872B878B85CA
:103C20009C858930910581F02B853C8529303105B3
:103C300004F18B859C858A30910569F02B853C8544
:103C40002B30310579F015C06EE570E080E090E032
:103C50000E94C06E14C06CEB70E080E090E00E94A7
:103C6000C06E0DC067E771E080E090E00E94C06E1A
:103C700006C06EEE72E080E090E00E94C06E2D966D
:103C80000FB6F894DEBF0FBECDBFCF91DF91089580
:103C9000DF93CF930F920F92CDB7DEB79A838983CC
:103CA000E981FA81858196810E941F27E981FA8145
:103CB000858196810E947226E981FA81258136816B
:103CC000E981FA818081482FC90164E40E941626A7
:103CD000E981FA81928181E08927882361F48981D1
:103CE0009A819C012F5F3F4F89819A81B90140E001
:103CF00050E00E94B81D0F900F90CF91DF91089572
:103D0000DF93CF93CDB7DEB727970FB6F894DEBF1A
:103D10000FBECDBF9A8389837C836B835E834D8383
:103D200089819A812B813C814D815E81B9010E94FC
:103D3000E71C8D819E8168E00E94B923282F8D8128
:103D40009E81FC01389680811F82281711F481E042
:103D50008F838F8127960FB6F894DEBF0FBECDBF3D
:103D6000CF91DF910895DF93CF93CDB7DEB7629700
:103D70000FB6F894DEBF0FBECDBF9F878E87798BBD
:103D8000688B8E859F8528893989AE014B5F5F4F8F
:103D9000B9010E94801E882371F18E859F85288934
:103DA0003989AE014B5F5F4FB9010E94FD18DC01FC
:103DB000CB0189839A83AB83BC8369817A818B81B0
:103DC0009C810E94E058DC01CB01982F88858917DF
:103DD00018F081E08A8B10C069817A818B819C8187
:103DE0000E94E058DC01CB01982F8F81981718F0C2
:103DF00081E08A8B01C01A8A8A8962960FB6F8948C
:103E0000DEBF0FBECDBFCF91DF910895DF93CF937B
:103E1000CDB7DEB72E970FB6F894DEBF0FBECDBF7D
:103E20009B878A877D876C878A859B852C853D85C6
:103E3000B9019E012F5F3F4FA9010E94801E882378
:103E400019F08C818E8702C081E88E878E852E9630
:103E50000FB6F894DEBF0FBECDBFCF91DF910895AE
:103E6000DF93CF93CDB7DEB72E970FB6F894DEBFB2
:103E70000FBECDBF9B878A877D876C878A859B8590
:103E80002C853D85B9019E012F5F3F4FA9010E94FE
:103E9000801E882319F08B818E8702C081E88E876F
:103EA0008E852E960FB6F894DEBF0FBECDBFCF9194
:103EB000DF910895DF93CF93CDB7DEB72E970FB67E
:103EC000F894DEBF0FBECDBF9B878A877D876C8746
:103ED0004E878E858E3710F08DE78E878A859B857D
:103EE0002C853D85B9019E012F5F3F4FA9010E949E
:103EF000801E882369F08E858C838A859B852C851E
:103F00003D85B9019E012F5F3F4FA9010E94691CA9
:103F10002E960FB6F894DEBF0FBECDBFCF91DF91C6
:103F20000895DF93CF93CDB7DEB72E970FB6F894F1
:103F3000DEBF0FBECDBF9B878A877D876C874E878C
:103F40008E858E3710F08DE78E878A859B852C8530
:103F50003D85B9019E012F5F3F4FA9010E94801E40
:103F6000882369F08E858B838A859B852C853D858A
:103F7000B9019E012F5F3F4FA9010E94691C2E9637
:103F80000FB6F894DEBF0FBECDBFCF91DF9108957D
:103F9000DF93CF93CDB7DEB761970FB6F894DEBF4E
:103FA0000FBECDBF9B878A877D876C878A859B855F
:103FB0002C853D85B9019E012F5F3F4FA9010E94CD
:103FC000801E882391F08A859B852C853D85B901CB
:103FD0009E012F5F3F4FA9010E94FD18DC01CB011C
:103FE0008E879F87A88BB98B08C080E090E0AEEFEA
:103FF000B2EC8E879F87A88BB98B8E859F85A88909
:10400000B989BC01CD0161960FB6F894DEBF0FBE31
:10401000CDBFCF91DF910895DF93CF9300D00F9262
:10402000CDB7DEB79A8389837C836B8389819A813C
:104030002B813C81B9010E94C81FDC01CB01BC016E
:10404000CD010E94AD1ADC01CB01BC01CD010F9066
:104050000F900F900F90CF91DF910895DF93CF9342
:10406000CDB7DEB760970FB6F894DEBF0FBECDBFF9
:104070009B878A877D876C87EC85FD858081803171
:1040800019F429E0288B39C08A859B852C853D85CC
:10409000B9019E012F5F3F4FA9010E94801E882316
:1040A00059F18D81282F30E03F872E878E859F859F
:1040B0008F339105D9F02E853F852034310534F4B6
:1040C0008E859F858F319105A1F016C02E853F8585
:1040D0002F35310541F08E859F858F37910561F42D
:1040E0009CE0988B0AC02BE0288B07C03AE0388B05
:1040F00004C089E0888B01C0188A888960960FB651
:10410000F894DEBF0FBECDBFCF91DF910895DF934E
:10411000CF93CDB7DEB72F970FB6F894DEBF0FBEA3
:10412000CDBF9C878B877E876D87EB85FC858581DE
:1041300096810E941F27EB85FC85858196812D85C0
:104140003E85B9010E948526EB85FC852581368157
:10415000EB85FC858081482FC90164E40E94162606
:104160008B859C852D853E85B9019E012F5F3F4F34
:10417000A9010E94801E982F81E08927882311F0D1
:104180001F861EC0EB85FC85928181E089278823EC
:1041900019F081E08F8714C08B859C852D853E8525
:1041A000B9010E942E208A878B859C859E01265FFF
:1041B0003F4F4D855E85B9010E94B81D81E08F8714
:1041C0008F852F960FB6F894DEBF0FBECDBFCF916F
:1041D000DF910895DF93CF93CDB7DEB761970FB628
:1041E000F894DEBF0FBECDBF9B878A877D876C8723
:1041F0004E878A859B852C853D85B9019E012F5F61
:104200003F4FA9010E94801E8823B9F1EC85FD85EE
:104210008081803179F18E85282F30E0398B288B91
:10422000888999898A309105A9F0288939892A30A5
:1042300031059CF0888999898B30910541F0288956
:1042400039892C30310549F48FE78D8308C08FE51B
:104250008D8305C08FE38D8302C08FE18D838A85B6
:104260009B852C853D85B9019E012F5F3F4FA9019C
:104270000E94691C31E03F8701C01F868F856196CF
:104280000FB6F894DEBF0FBECDBFCF91DF9108957A
:10429000DF93CF93CDB7DEB72D970FB6F894DEBF7F
:1042A0000FBECDBF9B878A877D876C878A859B855C
:1042B0002C853D85B9019E012F5F3F4FA9010E94CA
:1042C000801E2D960FB6F894DEBF0FBECDBFCF91E6
:1042D000DF910895DF93CF9300D00F920F92CDB767
:1042E000DEB79A8389837C836B838B819C8167E0B3
:1042F0000E94B923282F8B819C81FC0137968081F5
:104300001D82281711F481E08D838D810F900F900D
:104310000F900F900F90CF91DF910895DF93CF937F
:10432000CDB7DEB72A970FB6F894DEBF0FBECDBF6C
:104330009A87898789859A850E94631A12C0898520
:104340009A859E012F5F3F4FB9010E946A21882301
:1043500041F0E985FA850188F289E02DCE010196C8
:10436000199589859A859E012F5F3F4FB9010E945B
:10437000FF1A882321F72A960FB6F894DEBF0FBEE6
:10438000CDBFCF91DF910895DF93CF93CDB7DEB747
:1043900029970FB6F894DEBF0FBECDBF9B838A83EB
:1043A0007D836C834E831982EA81FB8185819681AE
:1043B0000E948A231DC099818E81981779F48A8181
:1043C0009B812C813D81B9010E946A21982F81E057
:1043D0008927882319F481E0888701C01886888599
:1043E000882319F081E08F831AC089818F5F8983C8
:1043F00099818E81891770F0EA81FB818581968190
:104400002C813D81B9010E94BE27882319F081E0EB
:10441000898701C019868985882369F61F828F8163
:1044200029960FB6F894DEBF0FBECDBFCF91DF91B6
:104430000895DF93CF93CDB7DEB72B970FB6F894DF
:10444000DEBF0FBECDBF9A8789876B8789859A8526
:104450009E012F5F3F4FB9014B850E94C421898582
:104460009A859E012F5F3F4FB9010E94C81FDC0152
:10447000CB01BC01CD012B960FB6F894DEBF0FBE69
:10448000CDBFCF91DF910895DF93CF9300D0CDB70B
:10449000DEB79A8389836B8389819A816B810E94BD
:1044A0001922DC01CB01BC01CD010E94AD1ADC0157
:1044B000CB01BC01CD010F900F900F90CF91DF91F8
:1044C0000895DF93CF93CDB7DEB72B970FB6F8944F
:1044D000DEBF0FBECDBF9A8789876B8789859A8596
:1044E0009E012F5F3F4FB9014B850E94C4218985F2
:1044F0009A859E012F5F3F4FB9010E9487202B961E
:104500000FB6F894DEBF0FBECDBFCF91DF910895F7
:10451000DF93CF93CDB7DEB72E970FB6F894DEBFFB
:104520000FBECDBF9C878B876D878D85893040F00E
:104530008D858E878E858D3028F08CE08E8702C029
:1045400089E08E87EB85FC858E8581831A821982AE
:1045500019C049818B859C859E012D5F3F4FB90114
:104560000E94C421EB85FC8541818B859C859E0141
:104570002D5F3F4FB9010E94EA2089819A810196FF
:104580009A838983EB85FC858481282F30E089819B
:104590009A8182179307ECF22E960FB6F894DEBF3D
:1045A0000FBECDBFCF91DF9108951F93DF93CF93BF
:1045B000CDB7DEB766970FB6F894DEBF0FBECDBF9E
:1045C0009B8B8A8BEA89FB89858196810E948A234D
:1045D000EA89FB8914825DC08A899B899E012F5FCD
:1045E0003F4FB9010E946A21882309F452C0EA8929
:1045F000FB89908181E0982781E08927882381F4D5
:104600008A899B899E012F5F3F4FB9010E94271C19
:10461000982F81E08927882319F481E08D8B01C0D0
:104620001D8A8D89882321F0EA89FB8981E08083B6
:104630008A899B89AE01475F5F4F9E012F5F3F4F85
:10464000B9010E94E71CEA89FB8911818A899B894B
:104650009E012F5F3F4FB9010E942E20811728F441
:10466000EA89FB8981818C8B09C08A899B899E019B
:104670002F5F3F4FB9010E942E208C8BEA89FB8966
:104680008C898183EA89FB8984818F5FEA89FB8930
:104690008483EA89FB89858196819E012F5F3F4F44
:1046A000B9010E94BE278E8B8E89882311F081E08C
:1046B0008E8B8E89882309F08FCF66960FB6F8947B
:1046C000DEBF0FBECDBFCF91DF911F910895DF9365
:1046D000CF930F920F92CDB7DEB79A838983F89468
:1046E000E981FA8181819281DC011196E981FA8167
:1046F00081819281FC0131968081982FE981FA8134
:104700008081809589238C9378940F900F90CF911E
:10471000DF910895DF93CF9300D00F92CDB7DEB72E
:104720009C838B83EB81FC811386EB81FC81158656
:10473000EB81FC81148687E090E09A83898329814C
:104740003A818B819C81820F931FFC0133961082EA
:1047500089819A81009731F089819A8101979A83A2
:104760008983EDCF0F900F900F900F90CF91DF9135
:104770000895DF93CF93CDB7DEB728970FB6F8949F
:10478000DEBF0FBECDBF9E838D836F831C8219C099
:104790008C81282F30E0ED81FE818081882F90E090
:1047A000822793278C519F4F9B838A838D819E8183
:1047B00001969E838D83EA81FB818491898389811F
:1047C0008C838F8188878885882311F081E0888792
:1047D00088859F8191509F838823D1F68C8128966C
:1047E0000FB6F894DEBF0FBECDBFCF91DF91089515
:1047F000DF93CF93CDB7DEB72A970FB6F894DEBF1D
:104800000FBECDBF98878F837A8769871E821D82EE
:104810001C821B8263C02F8138858B819C81F901AA
:10482000E80FF91F8081882F90E09A8389838D811A
:104830009E819C01307089819A8182279327907094
:104840009A8389838D819E81892F99279E838D8369
:1048500089819A818F709070FC01EF50FA4F20810E
:1048600089819A81929582958F7089279F70892777
:10487000FC01EF50FA4F8081281741F08D819E8115
:1048800021E030EC822793279E838D8389819A8152
:104890000024969587950794969587950794982F69
:1048A000802D9A8389832D813E8189819A818227F7
:1048B00093279E838D8389819A81880F991F9A837C
:1048C00089832D813E8189819A81822793279E83C6
:1048D0008D838B819C8101969C838B832B813C8172
:1048E00089859A852817390708F495CF8D819E818F
:1048F0002A960FB6F894DEBF0FBECDBFCF91DF91E1
:104900000895DF93CF93CDB7DEB729970FB6F8940C
:10491000DEBF0FBECDBF9C838B837E836D835887A4
:104920004F838B819C812D813E81B9010E94F823A8
:10493000809590959A83898389819A819C013070B2
:10494000EF81F8858081882F90E02817390789F456
:1049500089819A81292F33278F819885FC0131968F
:104960008081882F90E02817390719F481E0898722
:1049700001C01986898529960FB6F894DEBF0FBE4F
:10498000CDBFCF91DF910895DF93CF93CDB7DEB741
:1049900027970FB6F894DEBF0FBECDBF9E838D83E1
:1049A000ED81FE8180818C83ED81FE818181928108
:1049B0009B838A83F8948A819B81DC0111968A818A
:1049C0009B81FC01319690818C81892B8C938A810B
:1049D0009B81DC0112968A819B81FC013296808149
:1049E000982F8C81809589238C9383E090E00E949E
:1049F000E66E8A819B81DC0111968A819B81FC0194
:104A000031968081982F8C81809589238C938AE0C0
:104A100090E00E94E66EEA81FB818081282F30E0E1
:104A20008C81882F90E082239323009719F081E0F6
:104A30008F8301C01F828F818983789485E390E002
:104A40000E94E66E898127960FB6F894DEBF0FBEEE
:104A5000CDBFCF91DF910895DF93CF9300D00F9218
:104A60000F92CDB7DEB79C838B83198281E08A8356
:104A700014C08B819C810E94C4248D838D818823E6
:104A800011F081E08D838D81882321F089819A81C5
:104A9000892B89838A81880F8A838A81882349F7B1
:104AA00089810F900F900F900F900F90CF91DF9111
:104AB00008950F931F93DF93CF93CDB7DEB7289759
:104AC0000FB6F894DEBF0FBECDBF9C838B837E8371
:104AD0006D8358874F831A82198212C02D813E81BF
:104AE00089819A818901080F191F8B819C810E94FD
:104AF0002C25F801808389819A8101969A83898384
:104B000029813A818F8198852817390738F32896AB
:104B10000FB6F894DEBF0FBECDBFCF91DF911F91CE
:104B20000F910895DF93CF9300D000D0CDB7DEB7BB
:104B30009D838C836E83EC81FD8180818B83EC81EE
:104B4000FD81818192819A8389838E81882F90E073
:104B500081709070882389F1F89489819A81DC01B1
:104B6000129689819A81FC0132968081982F8B81DF
:104B7000809589238C9389819A81DC0111968981A2
:104B80009A81FC01319690818B81892B8C938AE0EC
:104B900090E00E94E66E89819A81DC0112968981FB
:104BA0009A81FC01329690818B81892B8C93789429
:104BB00087E390E00E94E66E30C0F89489819A8184
:104BC000DC01129689819A81FC0132968081982FAE
:104BD0008B81809589238C9389819A81DC01119640
:104BE00089819A81FC01319690818B81892B8C93EC
:104BF00081E490E00E94E66E89819A81DC01129640
:104C000089819A81FC01329690818B81892B8C93CA
:104C1000789485E090E00E94E66E26960FB6F894B0
:104C2000DEBF0FBECDBFCF91DF910895DF93CF934D
:104C300000D000D0CDB7DEB79B838A836C834D83D1
:104C400081E0898316C08981282F30E08C81882FEC
:104C500090E082239323009719F081E08E8301C0B6
:104C60001E828A819B816E810E9492258981880F94
:104C700089838981882339F78D81882351F5F894B8
:104C8000EA81FB8181819281DC011196EA81FB81BD
:104C900081819281FC0131968081982FEA81FB818C
:104CA0008081809589238C93EA81FB818181928127
:104CB000DC011296EA81FB8181819281FC013296AE
:104CC0008081982FEA81FB818081809589238C9354
:104CD000789426960FB6F894DEBF0FBECDBFCF9165
:104CE000DF910895DF93CF930F920F92CDB7DEB788
:104CF0009A83898389819A816CEC40E00E94162610
:104D00000F900F90CF91DF910895DF93CF9300D054
:104D100000D0CDB7DEB79C838B837E836D838B8180
:104D20009C8165E540E00E9416261A82198213C014
:104D300029813A818D819E81FC01E20FF31F208140
:104D40008B819C81622F40E00E94162689819A8186
:104D500001969A83898389819A818830910544F3E9
:104D600026960FB6F894DEBF0FBECDBFCF91DF9170
:104D70000895DF93CF93CDB7DEB729970FB6F89498
:104D8000DEBF0FBECDBF9C838B837E836D83588730
:104D90004F8329871A82198213C02D813E81898110
:104DA0009A81F901E80FF91F20818B819C81622F84
:104DB00040E00E94162689819A8101969A83898310
:104DC00029813A818F8198852817390730F38985A1
:104DD00091E08927882351F1F894EB81FC8181814E
:104DE0009281DC011196EB81FC8181819281FC0131
:104DF00031968081982FEB81FC8180818095892379
:104E00008C93EB81FC8181819281DC011296EB8194
:104E1000FC8181819281FC0132968081982FEB8107
:104E2000FC818081809589238C93789429960FB694
:104E3000F894DEBF0FBECDBFCF91DF910895DF9311
:104E4000CF93CDB7DEB72A970FB6F894DEBF0FBE6B
:104E5000CDBF9F838E83EE81FF8180818D83EE8124
:104E6000FF81818192819C838B838DE78983F89474
:104E70008B819C81DC0111968B819C81FC01319698
:104E80008081982F8D81809589238C937894898156
:104E90008150898319868981882311F481E089876B
:104EA0008985882311F018865FC082E090E00E9417
:104EB000E66EEB81FC818081282F30E08D81882F88
:104EC00090E0822393231A86009711F481E08A8769
:104ED0008A858823E1F6F8948B819C81DC01129607
:104EE0008B819C81FC0132968081982F8D818095E9
:104EF00089238C938B819C81DC0111968B819C8111
:104F0000FC01319690818D81892B8C93789484EF6C
:104F100091E00E94E66EF8948B819C81DC011196F1
:104F20008B819C81FC0131968081982F8D818095A9
:104F300089238C9380E590E00E94E66EEB81FC81F2
:104F40008081282F30E08D81882F90E08223932369
:104F50001A82009711F481E08A83789484EA91E0C0
:104F60000E94E66E8A81888788852A960FB6F89413
:104F7000DEBF0FBECDBFCF91DF910895DF93CF93FA
:104F8000CDB7DEB760970FB6F894DEBF0FBECDBFCA
:104F90009C878B877E876D8781E08A871986188634
:104FA00081E08C831F82EB85FC858585882309F051
:104FB000C5C08B859C850E941F27188A882311F401
:104FC00081E0888B8889882359F0EB85FC851386DE
:104FD000EB85FC851586EB85FC8514861F86E0C075
:104FE0008B859C8560EF40E00E9416268B859C8512
:104FF0000E94C4248E838B859C850E94C4248D834B
:105000008E81813021F48D81813009F485C09E81AB
:105010008D81981719F08E818B8333C0EB85FC85C9
:1050200093858A858917C0F48885282F30E08B8581
:105030009C85820F931FFC0133968081282F30E0DE
:105040008C81882F90E0822393231B8218161906E7
:1050500064F481E08B8309C0EB85FC8593851B821A
:105060008A85981711F481E08B838B81882349F41A
:105070008A8589878985893020F4EB85FC85898537
:1050800084878B818130C1F48885482F50E08885E2
:10509000282F30E08B859C85820F931FFC0133966F
:1050A00090818C81292F282B8B859C85840F951FBF
:1050B000FC013396208319C08885482F50E08885ED
:1050C000282F30E08B859C85820F931FFC0133963F
:1050D0008081982F8C8180958923282F8B859C85B2
:1050E000840F951FFC01339620838B859C856B81F3
:1050F0000E9492258A858F5F8A878C81880F8C8396
:105100008C81882329F488858F5F888781E08C8350
:105110008885883008F46ACF8A85813478F0EB85F9
:10512000FC8589858387EB85FC858385882321F42D
:10513000EB85FC8581E0858781E08F838F818823E3
:1051400029F0EB85FC858381882351F4EB85FC8570
:105150001386EB85FC851586EB85FC8514861F82FE
:105160001A82198216C029813A818D859E85DC01BB
:10517000A20FB31F29813A818B859C85820F931FD3
:10518000FC01339680818C9389819A8101969A8360
:10519000898389819A81883091052CF38F818F874B
:1051A0008F8560960FB6F894DEBF0FBECDBFCF914E
:1051B000DF910895DF93CF93CDB7DEB72D970FB66C
:1051C000F894DEBF0FBECDBF9C878B876D878D8522
:1051D00060E00E946170AB85BC858D85882F90E072
:1051E00088589D4F9A878987E985FA8584918887B1
:1051F00088858C938D85882F90E08E5C9D4F9B8356
:105200008A83EA81FB81849189838981882F90E058
:10521000880F991F885E9D4F9F838E838E819F810B
:10522000FC01859194919D838C83FF83EE838C8117
:105230009D81EB85FC85928381838B859C850E9473
:105240008A232D960FB6F894DEBF0FBECDBFCF9147
:10525000DF910895DF93CF93CDB7DEB72D970FB6CB
:10526000F894DEBF0FBECDBF9C878B876D878D8581
:1052700060E00E946170AB85BC858D85882F90E0D1
:1052800088589D4F9A878987E985FA858491888710
:1052900088858C938D85882F90E08E5C9D4F9B83B5
:1052A0008A83EA81FB81849189838981882F90E0B8
:1052B000880F991F885E9D4F9F838E838E819F816B
:1052C000FC01859194919D838C83FF83EE838C8177
:1052D0009D81EB85FC85928381838B859C850E94D3
:1052E0008A232D960FB6F894DEBF0FBECDBFCF91A7
:1052F000DF910895DF93CF9300D000D0CDB7DEB714
:105300009C838B838B819C81FC01E655FF4F8081C0
:1053100091818A3091052CF08FEF9FEF9E838D83D2
:1053200024C01A82198218C089819A812B813C81FC
:105330004496880F991FF901E80FF91F8081918128
:10534000009729F489819A819E838D830EC089817B
:105350009A8101969A83898389819A818A309105FD
:105360001CF38FEF9FEF9E838D838D819E81269608
:105370000FB6F894DEBF0FBECDBFCF91DF91089579
:10538000DF93CF9300D00F92CDB7DEB79A83898396
:105390007C836B838B819C818A3091050CF04DC09E
:1053A00089819A81FC01E655FF4F808191810097A8
:1053B00009F443C08B819C8129813A814496880FEE
:1053C000991FF901E80FF91F118210822B813C818E
:1053D00089819A81820F931FFC01E457FF4F10824D
:1053E0008B819C8129813A810F96880F991F880FA4
:1053F000991FF901E80FF91F10821182128213829E
:105400008B819C8129813A81CC96880F991FF90163
:10541000E80FF91F1182108289819A81FC01E655FB
:10542000FF4F808191819C012150304089819A8178
:10543000FC01E655FF4F318320830F900F900F90B2
:105440000F90CF91DF910895DF93CF9300D00F920B
:105450000F92CDB7DEB79A8389837C836B838B8170
:105460009C818A30910514F01D820BC02B813C81F8
:1054700089819A81820F931FFC01E457FF4F80813D
:105480008D838D810F900F900F900F900F90CF9183
:10549000DF910895DF93CF9300D00F92CDB7DEB7A1
:1054A0009A8389837C836B838B819C818A3091056D
:1054B0005CF42B813C8189819A81820F931FFC01CE
:1054C000E457FF4F81E080830F900F900F900F9073
:1054D000CF91DF910895DF93CF9300D00F92CDB796
:1054E000DEB79A8389837C836B838B819C818A302E
:1054F000910554F42B813C8189819A81820F931FFD
:10550000FC01E457FF4F10820F900F900F900F9007
:10551000CF91DF910895DF93CF93CDB7DEB7279773
:105520000FB6F894DEBF0FBECDBF9A8389837C830C
:105530006B838B819C818A309105F4F42B813C81B3
:105540003F832E832B813C8189819A81820F931F17
:10555000FC01E457FF4F80811D82882311F431E064
:105560003D8389819A812E813F81820F931FFC01A7
:10557000E457FF4F3D81308327960FB6F894DEBF86
:105580000FBECDBFCF91DF910895DF93CF930F92E0
:105590000F92CDB7DEB79A83898389819A81FC0106
:1055A000E655FF4F808191810F900F90CF91DF9151
:1055B00008950F931F93DF93CF9300D00F92CDB731
:1055C000DEB79A8389837C836B838B819C818A304D
:1055D0009105A4F40B811C810E948C6E9B01AC018F
:1055E00069817A81C801880F991F880F991FFB0173
:1055F000E80FF91F20833183428353830F900F906C
:105600000F900F90CF91DF911F910F9108950F93FD
:105610001F93DF93CF93CDB7DEB72E970FB6F894D5
:10562000DEBF0FBECDBF9C838B834D835E836F83B4
:1056300078873A8729871C870B878B819C810E94FA
:105640007A299A83898389819A8199232CF48FEF0F
:105650009FEF9E878D8764C089819A812B813C81D1
:105660000F96880F991F880F991FF901E80FF91FEE
:105670008D819E81AF81B88580839183A283B3831E
:1056800089819A812B813C814496880F991FF90169
:10569000E80FF91F89859A859183808389819A8192
:1056A0002B813C81C296880F991FF901E80FF91FE1
:1056B0008B859C859183808329813A818B819C8114
:1056C000820F931FFC01E457FF4F81E08083098123
:1056D0001A810E948C6E9B01AC016B817C81C80198
:1056E000880F991F880F991FFB01E80FF91F20836E
:1056F0003183428353838B819C81FC01E655FF4FAC
:10570000808191819C012F5F3F4F8B819C81FC01A7
:10571000E655FF4F3183208389819A819E878D874B
:105720008D859E852E960FB6F894DEBF0FBECDBF39
:10573000CF91DF911F910F9108950F931F93DF93E6
:10574000CF93CDB7DEB728970FB6F894DEBF0FBE64
:10575000CDBF9A8389834B835C836D837E83388737
:105760002F8389819A812B813C814D815E81EF81DC
:10577000F885BA01A9019F0101E010E00E94072B02
:1057800028960FB6F894DEBF0FBECDBFCF91DF9144
:105790001F910F9108950F931F93DF93CF93CDB770
:1057A000DEB728970FB6F894DEBF0FBECDBF9A8341
:1057B00089834B835C836D837E8338872F838981C4
:1057C0009A812B813C814D815E81EF81F885BA0100
:1057D000A9019F0100E010E00E94072B28960FB658
:1057E000F894DEBF0FBECDBFCF91DF911F910F9117
:1057F0000895EF92FF920F931F93DF93CF93CDB74E
:10580000DEB72A970FB6F894DEBF0FBECDBF9887DC
:105810008F830E948C6EDC01CB0189839A83AB83DA
:10582000BC831E821D8200C18D819E812F8138859F
:10583000855B9F4F880F991FF901E80FF91F1182AF
:1058400010828D819E812F8138854496880F991F03
:10585000F901E80FF91F80819181009709F4DFC0F9
:105860008D819E812F813885880F991F880F991F00
:10587000F901E80FF91F208131814281538189812B
:105880009A81AB81BC817C018D01E21AF30A040B81
:10589000150BB801A7018D819E812F8138850F9648
:1058A000880F991F880F991FF901E80FF91F808150
:1058B0009181A281B381481759076A077B0708F4D1
:1058C000AEC08D819E812F813885880F991F880FEA
:1058D000991FF901E80FF91F89819A81AB81BC8179
:1058E00080839183A283B3832D813E818F819885AC
:1058F000820F931FFC01E457FF4F8081882309F436
:105900008EC08D819E812F813885C296880F991F08
:10591000F901E80FF91F80819181009781F48D8151
:105920009E812F813885855B9F4F880F991FF901D4
:10593000E80FF91F81E090E09183808370C08D8132
:105940009E812F813885CC96880F991FF901E80F29
:10595000F91F408151818D819E812F813885C296AA
:10596000880F991FF901E80FF91F8081918148176D
:1059700059070CF054C08D819E812F813885855B3D
:105980009F4F880F991FF901E80FF91F81E090E000
:10599000918380836D817E812F813885CB01CC9668
:1059A000880F991FF901E80FF91F80819181AC01DF
:1059B0004F5F5F4F2F813885CB01CC96880F991FA1
:1059C000F901E80FF91F518340838D819E812F815A
:1059D0003885CC96880F991FF901E80FF91F40818F
:1059E00051818D819E812F813885C296880F991FA4
:1059F000F901E80FF91F80819181481759077CF060
:105A00008D819E812F813885855B9F4F880F991FDF
:105A1000F901E80FF91F82E090E0918380838D8186
:105A20009E8101969E838D838D819E818A30910512
:105A30000CF4FACE1E821D8243C08D819E812F817F
:105A40003885855B9F4F880F991FF901E80FF91F73
:105A5000008111811A87098789859A85813091058E
:105A600031F009851A850230110581F024C08D813D
:105A70009E812F8138854496880F991FF901E80F80
:105A8000F91F0190F081E02D199515C08D819E813F
:105A90002F8138854496880F991FF901E80FF91F67
:105AA0000190F081E02D19958F8198852D813E819F
:105AB000B9010E94C0298D819E8101969E838D83AC
:105AC0008D819E818A3091050CF4B7CF2A960FB64E
:105AD000F894DEBF0FBECDBFCF91DF911F910F9124
