:100000000C948C010C94B8010C94B8010C94B801B8
:100010000C94B8010C94B8010C94B8010C94B8017C
:100020000C94B8010C94B8010C94B8010C94B8016C
:100030000C94B8010C94B8010C94B8010C94B8015C
:100040000C94B8010C94B8010C94B8010C94B8014C
:100050000C94B8010C94B8010C94B8010C94FA5C9F
:100060000C94B8010C9418490C94444A0C94B801AF
:100070000C94B8010C94B8010C94B8010C94B8011C
:100080000C94B8010C94B8010C94B8010C94B8010C
:100090000C9451490C94914A0C94B8010C94B801F9
:1000A0000C94B8010C94B8010C94B8010C94B801EC
:1000B0000C94B8010C94B8010C94B8010C94B801DC
:1000C0000C94B8010C94B8010C94B8010C948A49B2
:1000D0000C94DE4A0C94B8010C94C3490C942B4B3D
:1000E0000C94B801005EBCE2613FDD83C29C7E20BF
:1000F000A3FD1F419DC3217FFCA2401E5F01E3BD04
:100100003E6082DC237D9FC1421CFEA0E1BF5D03F7
:1001100080DE3C62BEE0025CDF81633D7C22C09EEB
:100120001D43A1FF4618FAA427799BC584DA3866D7
:10013000E5BB5907DB856739BAE406581947A5FBC3
:100140007826C49A653BD987045AB8E6A7F91B45B7
:10015000C6987A24F8A6441A99C7257B3A6486D8AB
:100160005B05E7B98CD2306EEDB3510F4E10F2AC97
:100170002F7193CD114FADF3702ECC92D38D6F3183
:10018000B2EC0E50AFF1134DCE90722C6D33D18F77
:100190000C52B0EE326C8ED0530DEFB1F0AE4C126B
:1001A00091CF2D73CA947628ABF517490856B4EA57
:1001B0006937D58B5709EBB536688AD495CB297743
:1001C000F4AA4816E9B7550B88D6346A2B7597C937
:1001D0004A14F6A8742AC896154BA9F7B6E80A542B
:1001E000D7896B3500002100240027002A002D004C
:1001F0003000330001010000040107010A01000082
:100200002200250028002B002E00310034000201BE
:100210000000050108010B0100002000230026005A
:1002200029002C002F00320000010000030106010C
:10023000090105050505070508080808020202026C
:100240000A0A080804040404010101010101010172
:100250000303030303030303040707070C0C0C0C3D
:100260000C0C0C0C02020202060606060606060626
:100270000B0B0B0B0B0B0B0B0102102020080810B3
:100280002040102040800201020108040201010206
:1002900004081020408080402010080402018004DF
:1002A000020180402010080402010804020101023A
:1002B0000408102040800102040810204080000043
:1002C000090A02080B0C0D070603040100000000D8
:1002D000000000000000000000000000000000001E
:1002E0000000000000000000000011100F000000DE
:1002F00000000000000000000000000000000000FE
:1003000000000000D2139724DB2CFE318B37003C19
:100310001E3F814DB74EC51311241FBECFEFD1E252
:10032000DEBFCDBF00E00CBF15E0A0E0B2E0EAEC1C
:10033000FFEC00E00BBF02C007900D92AA3AB10794
:10034000D9F718E0AAEAB5E001C01D92A53CB107B3
:10035000E1F713E0C6E1D3E004C02297FE010E945A
:10036000DC60C430D107C9F70E949C170C94D86791
:100370000C940000DF93CF9300D00F92CDB7DEB77F
:100380009A8389837C836B83E981FA818FE194E08E
:10039000928B818BE981FA818B819C819683858305
:1003A000E981FA811482E981FA811082E981FA8176
:1003B00089E08183E981FA8181E08283E981FA81A0
:1003C00081E083830F900F900F900F90CF91DF917A
:1003D0000895DF93CF9300D00F92CDB7DEB79A8305
:1003E00089837C836B83E981FA818FE194E0928B2E
:1003F000818BE981FA818B819C8196838583E98158
:10040000FA811482E981FA811082E981FA8189E016
:100410008183E981FA8181E08283E981FA8181E047
:1004200083830F900F900F900F90CF91DF910895DD
:10043000DF93CF930F920F92CDB7DEB79A83898364
:10044000E981FA8184810F900F90CF91DF91089517
:10045000DF93CF930F920F92CDB7DEB79A83898344
:10046000E981FA8181810F900F90CF91DF910895FA
:10047000DF93CF9300D0CDB7DEB79A8389836B83A8
:10048000E981FA818B8182830F900F900F90CF9139
:10049000DF910895DF93CF930F920F92CDB7DEB720
:1004A0009A838983E981FA8182810F900F90CF919D
:1004B000DF910895DF93CF9300D0CDB7DEB79A8355
:1004C00089836B83E981FA818B8183830F900F90FD
:1004D0000F90CF91DF910895DF93CF930F920F92FA
:1004E000CDB7DEB79A838983E981FA8183810F9042
:1004F0000F90CF91DF910895AF92BF92CF92DF928C
:10050000EF92FF920F931F93DF93CF93CDB7DEB798
:1005100064970FB6F894DEBF0FBECDBF9C838B836C
:100520007E836D8358874F838F819885FC01319638
:100530008081882F90E0382F2227EF81F8858081F5
:10054000882F90E0822B932B9A838983ED81FE8103
:100550008081282F30E0388B2F874F855889423291
:10056000510561F08F8598898832910539F0AF8502
:10057000B889A031B10509F49FC0F6C08F81988574
:10058000FC0134968081282F30E03E872D874D85F1
:100590005E854F33510509F44FC08D859E858034AB
:1005A00091053CF4AD85BE85AF31B10509F463C05A
:1005B000DBC02D853E852F35310509F14D855E85E2
:1005C0004F37510509F0D0C089819A81AA2797FD3C
:1005D000A095BA2FBC01CD010E94F645DC01CB01EC
:1005E000BC01CD0120E030E040E85DE30E94F04333
:1005F000DC01CB0189879A87AB87BC87B6C089812C
:100600009A8195958795AA2797FDA095BA2FBC0149
:10061000CD010E94F645DC01CB01BC01CD0120E0FB
:1006200030E040E05EE30E94F043DC01CB018987CB
:100630009A87AB87BC8799C089819A819595879560
:1006400095958795AA2797FDA095BA2FBC01CD0156
:100650000E94F645DC01CB01BC01CD0120E030E079
:1006600040E85EE30E94F043DC01CB0189879A8772
:10067000AB87BC877AC089819A8195958795959536
:10068000879595958795AA2797FDA095BA2FBC01C8
:10069000CD010E94F645DC01CB01BC01CD0120E07B
:1006A00030E040E05FE30E94F043DC01CB0189874A
:1006B0009A87AB87BC8759C089819A819595879520
:1006C000AA2797FDA095BA2FBC01CD010E94F6453F
:1006D000DC01CB01BC01CD0120E030E040E85EE36D
:1006E0000E949243DC01CB015C016D018F819885F2
:1006F000FC0137968081282F30E08F819885FC019E
:1007000036968081882F90E0D901A81BB90BCD01C6
:10071000AA2797FDA095BA2FBC01CD010E94F645EE
:100720007B018C018F819885FC0137968081882F11
:1007300090E0A0E0B0E0BC01CD010E94A8469B0182
:10074000AC01C801B7010E94EA44DC01CB019C0165
:10075000AD01C601B5010E94C343DC01CB0189870D
:100760009A87AB87BC8701C008C029853A854B852D
:100770005C85298B3A8B4B8B5C8B69897A898B8959
:100780009C8964960FB6F894DEBF0FBECDBFCF91A3
:10079000DF911F910F91FF90EF90DF90CF90BF906E
:1007A000AF900895DF93CF930F920F92CDB7DEB73E
:1007B0009A838983E981FA8180810F900F90CF918C
:1007C000DF910895DF93CF9300D0CDB7DEB79B8341
:1007D0008A83EA81FB818FEF8787EA81FB81108A18
:1007E00019820DC08981282F30E08A819B81820F78
:1007F000931FFC013796108289818F5F89838981DD
:10080000873080F30F900F900F90CF91DF91089574
:10081000DF93CF9300D00F92CDB7DEB79A83898351
:100820007C836B83E981FA818B819C81928B818BA4
:100830000F900F900F900F90CF91DF910895DF935D
:10084000CF930F920F92CDB7DEB79A8389830F9023
:100850000F90CF91DF910895DF93CF9300D00F9247
:10086000CDB7DEB769837A838B839C8369817A8174
:100870008B819C8126E636E646EE5FE30E94F043DC
:10088000DC01CB01BC01CD0120E030E040E052E4CE
:100890000E94C343DC01CB01BC01CD010F900F903E
:1008A0000F900F90CF91DF910895DF93CF9300D0F9
:1008B0000F92CDB7DEB769837A838B839C8369817E
:1008C0007A818B819C8120E030E040E052E40E94FC
:1008D0009243DC01CB01BC01CD0126E636E646EEB3
:1008E0005FE30E94EA44DC01CB01BC01CD010F9023
:1008F0000F900F900F90CF91DF910895DF93CF93DA
:10090000CDB7DEB72D970FB6F894DEBF0FBECDBFC3
:10091000998788877B876A878FEF8E8381E08D83B5
:10092000E885F9858089882311F01D86E4C0E88573
:10093000F985858196810E949E101C86882311F47A
:1009400081E08C878C85882311F01D86D4C0E885D2
:10095000F985858196816CEE40E00E94950F1F829B
:10096000A2C0E885F985858196810E94430E8C831B
:10097000E885F985858196810E94430E8B838F815E
:100980008695869586958A838F81882F90E09C0135
:100990002770307081E090E0022E02C0880F991F0E
:1009A0000A94E2F789838C81882329F08B8188233C
:1009B00011F01D86A0C08C818823B9F58B81882316
:1009C000A1F5E885F98597858F81981739F481E03D
:1009D0008C83E885F9858E81878727C0E885F9852E
:1009E00097858F818917D8F48A81282F30E08885F0
:1009F0009985820F931FFC0137968081282F30E064
:100A00008981882F90E082239323009719F081E059
:100A10008C830BC01C821D828F818E8306C01C823A
:100A2000E885F9858F8187871D828C818823C1F0B5
:100A30008A81482F50E08A81282F30E08885998567
:100A4000820F931FFC01379690818981292F282BD3
:100A500088859985840F951FFC013796208319C0DE
:100A60008A81482F50E08A81282F30E08885998537
:100A7000820F931FFC0137968081982F8981809582
:100A80008923282F88859985840F951FFC01379627
:100A90002083E885F985858196816C810E94110FFC
:100AA0008F818F5F8F838F81803408F45ACF8D813F
:100AB000882321F0E885F98581E0808B1F8216C0AC
:100AC0008F81282F30E08A859B85DC01A20FB31F20
:100AD0008F81282F30E088859985820F931FFC0134
:100AE000379680818C938F818F5F8F838F81883041
:100AF00038F381E08D878D852D960FB6F894DEBF93
:100B00000FBECDBFCF91DF910895DF93CF93CDB7C7
:100B1000DEB72A970FB6F894DEBF0FBECDBF9A8717
:100B2000898789859A850E94E20389859A859E0135
:100B30002F5F3F4FB9010E947E042A960FB6F894AA
:100B4000DEBF0FBECDBFCF91DF910895DF93CF936E
:100B500000D000D0CDB7DEB79B838A837D836C83C2
:100B60001982EA81FB81858196810E949E10EA812B
:100B7000FB81858196812C813D81B9010E94041001
:100B8000EA81FB818581968164EB40E00E94950FAC
:100B9000EA81FB81858196810E94430E1E82882313
:100BA00011F481E08E838E81882311F081E08983A6
:100BB000EA81FB81858196810E949E10898126961B
:100BC0000FB6F894DEBF0FBECDBFCF91DF91089571
:100BD000DF93CF9300D000D0CDB7DEB79A8389835F
:100BE0007C836B835E834D83E981FA818581968165
:100BF0000E949E10E981FA81858196812B813C813A
:100C0000B9010E940410E981FA81858196816EE420
:100C100040E00E94950FE981FA81258136818D811E
:100C20009E81FC0132964081C901642F40E00E9400
:100C3000950FE981FA81258136818D819E81FC01A4
:100C400033964081C901642F40E00E94950FEB81EB
:100C5000FC818081803171F0E981FA8125813681C2
:100C60008D819E81FC0134964081C901642F40E052
:100C70000E94950FE981FA81858196810E949E10DC
:100C8000E981FA8125813681E981FA818081482FC5
:100C9000C90168E40E94950FE981FA818081882367
:100CA00031F06AE070E080E090E00E94825DE981CE
:100CB000FA81858196810E949E1026960FB6F8943F
:100CC000DEBF0FBECDBFCF91DF9108950F931F936D
:100CD000DF93CF9300D000D0CDB7DEB79A8389835E
:100CE0007C836B835E834D83E981FA818581968164
:100CF0000E949E10E981FA81858196812B813C8139
:100D0000B9010E940410E981FA81858196816EEB18
:100D100040E00E94950FE981FA81858196810E94C9
:100D2000AB0EED81FE8180838D819E818C010F5FF2
:100D30001F4FE981FA81858196810E94AB0EF801EF
:100D400080838D819E818C010E5F1F4FE981FA8126
:100D5000858196810E94AB0EF80180838D819E81F2
:100D60008C010D5F1F4FE981FA81858196810E9478
:100D7000AB0EF80180838D819E818C010C5F1F4F2B
:100D8000E981FA81858196810E94AB0EF80180830A
:100D90008D819E818C010B5F1F4FE981FA818581D6
:100DA00096810E94AB0EF80180838D819E818C011B
:100DB0000A5F1F4FE981FA81858196810E94AB0EFF
:100DC000F80180838D819E818C01095F1F4FE9812D
:100DD000FA81858196810E94AB0EF80180838D8116
:100DE0009E818C01085F1F4FE981FA818581968180
:100DF0000E94AB0EF8018083E981FA81858196819A
:100E00000E949E1026960FB6F894DEBF0FBECDBF8F
:100E1000CF91DF911F910F910895DF93CF93CDB7BD
:100E2000DEB72E970FB6F894DEBF0FBECDBF9B87FF
:100E30008A877D876C878A859B852C853D85B9014E
:100E40009E012F5F3F4FA9010E94660689818E8710
:100E50008E85882311F081E08E878E852E960FB6C1
:100E6000F894DEBF0FBECDBFCF91DF910895DF9321
:100E7000CF93CDB7DEB72D970FB6F894DEBF0FBE78
:100E8000CDBF9E838D8378876F835A8749878985F5
:100E90009A850097E1F1ED81FE8183818823B9F184
:100EA000ED81FE81908181E08927882381F10E9474
:100EB0004E5DDC01CB0189839A83AB83BC838D813A
:100EC0009E8160E070E00E940D07982F81E09827D6
:100ED00081E089278823B9F40E944E5DDC01CB01B3
:100EE00029813A814B815C81821B930BA40BB50B4A
:100EF0008E3E22E0920720E0A20720E0B20718F41D
:100F000031E03D8701C01D868D858823C1F6EF81C4
:100F1000F8858081282F30E03C872B878B859C8546
:100F20008930910581F02B853C852930310504F10C
:100F30008B859C858A30910569F02B853C852B300B
:100F4000310579F015C06EE570E080E090E00E9418
:100F5000825D14C06CEB70E080E090E00E94825DE6
:100F60000DC067E771E080E090E00E94825D06C0FE
:100F70006EEE72E080E090E00E94825D2D960FB6EA
:100F8000F894DEBF0FBECDBFCF91DF910895DF9300
:100F9000CF930F920F92CDB7DEB79A838983E98101
:100FA000FA81858196810E949E10E981FA8185816E
:100FB00096810E94F10FE981FA8125813681E981CC
:100FC000FA818081482FC90164E40E94950FE9816C
:100FD000FA81928181E08927882361F489819A814D
:100FE0009C012F5F3F4F89819A81B90140E050E019
:100FF0000E9437070F900F90CF91DF910895DF93F4
:10100000CF93CDB7DEB727970FB6F894DEBF0FBEEC
:10101000CDBF9A8389837C836B835E834D83898173
:101020009A812B813C814D815E81B9010E946606C7
:101030008D819E8168E00E94380D282F8D819E81D0
:10104000FC01389680811F82281711F481E08F837C
:101050008F8127960FB6F894DEBF0FBECDBFCF911C
:10106000DF910895DF93CF93CDB7DEB762970FB6C8
:10107000F894DEBF0FBECDBF9F878E87798B688BBC
:101080008E859F8528893989AE014B5F5F4FB901F5
:101090000E94FF07882371F18E859F8528893989F1
:1010A000AE014B5F5F4FB9010E947C02DC01CB01B6
:1010B00089839A83AB83BC8369817A818B819C818C
:1010C0000E941A42DC01CB01982F8885891718F0FD
:1010D00081E08A8B10C069817A818B819C810E941A
:1010E0001A42DC01CB01982F8F81981718F081E00C
:1010F0008A8B01C01A8A8A8962960FB6F894DEBF7D
:101100000FBECDBFCF91DF910895DF93CF93CDB7C1
:10111000DEB72E970FB6F894DEBF0FBECDBF9B870C
:101120008A877D876C878A859B852C853D85B9015B
:101130009E012F5F3F4FA9010E94FF07882319F0EE
:101140008C818E8702C081E88E878E852E960FB6A1
:10115000F894DEBF0FBECDBFCF91DF910895DF932E
:10116000CF93CDB7DEB72E970FB6F894DEBF0FBE84
:10117000CDBF9B878A877D876C878A859B852C85D9
:101180003D85B9019E012F5F3F4FA9010E94FF07D6
:10119000882319F08B818E8702C081E88E878E8527
:1011A0002E960FB6F894DEBF0FBECDBFCF91DF9164
:1011B0000895DF93CF93CDB7DEB72E970FB6F8948F
:1011C000DEBF0FBECDBF9B878A877D876C874E872A
:1011D0008E858E3710F08DE78E878A859B852C85CE
:1011E0003D85B9019E012F5F3F4FA9010E94FF0776
:1011F000882369F08E858C838A859B852C853D8527
:10120000B9019E012F5F3F4FA9010E94E8052E966C
:101210000FB6F894DEBF0FBECDBFCF91DF9108951A
:10122000DF93CF93CDB7DEB72E970FB6F894DEBF1E
:101230000FBECDBF9B878A877D876C874E878E8543
:101240008E3710F08DE78E878A859B852C853D85AE
:10125000B9019E012F5F3F4FA9010E94FF0788231C
:1012600069F08E858B838A859B852C853D85B901A8
:101270009E012F5F3F4FA9010E94E8052E960FB6F1
:10128000F894DEBF0FBECDBFCF91DF910895DF93FD
:10129000CF93CDB7DEB761970FB6F894DEBF0FBE20
:1012A000CDBF9B878A877D876C878A859B852C85A8
:1012B0003D85B9019E012F5F3F4FA9010E94FF07A5
:1012C000882391F08A859B852C853D85B9019E01F7
:1012D0002F5F3F4FA9010E947C02DC01CB018E876A
:1012E0009F87A88BB98B08C080E090E0AEEFB2EC8E
:1012F0008E879F87A88BB98B8E859F85A889B98992
:10130000BC01CD0161960FB6F894DEBF0FBECDBF14
:10131000CF91DF910895DF93CF9300D00F92CDB797
:10132000DEB79A8389837C836B8389819A812B8141
:101330003C81B9010E944709DC01CB01BC01CD0110
:101340000E942C04DC01CB01BC01CD010F900F9059
:101350000F900F90CF91DF910895DF93CF93CDB78A
:10136000DEB760970FB6F894DEBF0FBECDBF9B8788
:101370008A877D876C87EC85FD858081803119F4B3
:1013800029E0288B39C08A859B852C853D85B9014C
:101390009E012F5F3F4FA9010E94FF07882359F14B
:1013A0008D81282F30E03F872E878E859F858F3354
:1013B0009105D9F02E853F852034310534F48E8592
:1013C0009F858F319105A1F016C02E853F852F3561
:1013D000310541F08E859F858F37910561F49CE042
:1013E000988B0AC02BE0288B07C03AE0388B04C0EA
:1013F00089E0888B01C0188A888960960FB6F894B6
:10140000DEBF0FBECDBFCF91DF910895DF93CF93A5
:10141000CDB7DEB72F970FB6F894DEBF0FBECDBFA6
:101420009C878B877E876D87EB85FC858581968180
:101430000E949E10EB85FC85858196812D853E85D9
:10144000B9010E940410EB85FC8525813681EB856E
:10145000FC858081482FC90164E40E94950F8B852B
:101460009C852D853E85B9019E012F5F3F4FA901C7
:101470000E94FF07982F81E08927882311F01F869B
:101480001EC0EB85FC85928181E08927882319F0B5
:1014900081E08F8714C08B859C852D853E85B901A1
:1014A0000E94AD098A878B859C859E01265F3F4FF0
:1014B0004D855E85B9010E94370781E08F878F8552
:1014C0002F960FB6F894DEBF0FBECDBFCF91DF9140
:1014D0000895DF93CF93CDB7DEB761970FB6F89439
:1014E000DEBF0FBECDBF9B878A877D876C874E8707
:1014F0008A859B852C853D85B9019E012F5F3F4FD5
:10150000A9010E94FF078823B9F1EC85FD85808140
:10151000803179F18E85282F30E0398B288B8889AE
:1015200099898A309105A9F0288939892A303105AD
:101530009CF0888999898B30910541F028893989F7
:101540002C30310549F48FE78D8308C08FE58D83FA
:1015500005C08FE38D8302C08FE18D838A859B85D3
:101560002C853D85B9019E012F5F3F4FA9010E9447
:10157000E80531E03F8701C01F868F8561960FB671
:10158000F894DEBF0FBECDBFCF91DF910895DF93FA
:10159000CF93CDB7DEB72D970FB6F894DEBF0FBE51
:1015A000CDBF9B878A877D876C878A859B852C85A5
:1015B0003D85B9019E012F5F3F4FA9010E94FF07A2
:1015C0002D960FB6F894DEBF0FBECDBFCF91DF9141
:1015D0000895DF93CF9300D00F920F92CDB7DEB76F
:1015E0009A8389837C836B838B819C8167E00E94D3
:1015F000380D282F8B819C81FC01379680811D82BC
:10160000281711F481E08D838D810F900F900F903A
:101610000F900F90CF91DF910895DF93CF93CDB7C7
:10162000DEB72A970FB6F894DEBF0FBECDBF9A87FC
:10163000898789859A850E94E20312C089859A85E7
:101640009E012F5F3F4FB9010E94E90A882341F0B4
:10165000E985FA850188F289E02DCE010196199578
:1016600089859A859E012F5F3F4FB9010E947E04B4
:10167000882321F72A960FB6F894DEBF0FBECDBFA0
:10168000CF91DF910895DF93CF93CDB7DEB7299740
:101690000FB6F894DEBF0FBECDBF9B838A837D83D8
:1016A0006C834E831982EA81FB81858196810E9439
:1016B000090D1DC099818E81981779F48A819B81CB
:1016C0002C813D81B9010E94E90A982F81E0892788
:1016D000882319F481E0888701C0188688858823CB
:1016E00019F081E08F831AC089818F5F8983998186
:1016F0008E81891770F0EA81FB81858196812C812A
:101700003D81B9010E943D11882319F081E089874C
:1017100001C019868985882369F61F828F812996E1
:101720000FB6F894DEBF0FBECDBFCF91DF91089505
:10173000DF93CF93CDB7DEB72B970FB6F894DEBF0C
:101740000FBECDBF9A8789876B8789859A859E0151
:101750002F5F3F4FB9014B850E94430B89859A85C6
:101760009E012F5F3F4FB9010E944709DC01CB0169
:10177000BC01CD012B960FB6F894DEBF0FBECDBFD6
:10178000CF91DF910895DF93CF9300D0CDB7DEB72F
:101790009A8389836B8389819A816B810E94980BDC
:1017A000DC01CB01BC01CD010E942C04DC01CB018A
:1017B000BC01CD010F900F900F90CF91DF91089554
:1017C000DF93CF93CDB7DEB72B970FB6F894DEBF7C
:1017D0000FBECDBF9A8789876B8789859A859E01C1
:1017E0002F5F3F4FB9014B850E94430B89859A8536
:1017F0009E012F5F3F4FB9010E94060A2B960FB63C
:10180000F894DEBF0FBECDBFCF91DF910895DF9377
:10181000CF93CDB7DEB72E970FB6F894DEBF0FBECD
:10182000CDBF9C878B876D878D85893040F08D85F6
:101830008E878E858D3028F08CE08E8702C089E0FF
:101840008E87EB85FC858E8581831A82198219C06B
:1018500049818B859C859E012D5F3F4FB9010E9478
:10186000430BEB85FC8541818B859C859E012D5F1B
:101870003F4FB9010E94690A89819A8101969A8332
:101880008983EB85FC858481282F30E089819A81CA
:1018900082179307ECF22E960FB6F894DEBF0FBEB8
:1018A000CDBFCF91DF9108951F93DF93CF93CDB735
:1018B000DEB766970FB6F894DEBF0FBECDBF9B8B29
:1018C0008A8BEA89FB89858196810E94090DEA89C4
:1018D000FB8914825DC08A899B899E012F5F3F4FDF
:1018E000B9010E94E90A882309F452C0EA89FB89F8
:1018F000908181E0982781E08927882381F48A8973
:101900009B899E012F5F3F4FB9010E94A605982F2A
:1019100081E08927882319F481E08D8B01C01D8A1D
:101920008D89882321F0EA89FB8981E080838A8977
:101930009B89AE01475F5F4F9E012F5F3F4FB9010B
:101940000E946606EA89FB8911818A899B899E012A
:101950002F5F3F4FB9010E94AD09811728F4EA8932
:10196000FB8981818C8B09C08A899B899E012F5FAD
:101970003F4FB9010E94AD098C8BEA89FB898C89A4
:101980008183EA89FB8984818F5FEA89FB8984836B
:10199000EA89FB89858196819E012F5F3F4FB901BE
:1019A0000E943D118E8B8E89882311F081E08E8BF1
:1019B0008E89882309F08FCF66960FB6F894DEBF24
:1019C0000FBECDBFCF91DF911F910895DF93CF93CD
:1019D0000F920F92CDB7DEB79A838983F894E9818D
:1019E000FA8181819281DC011196E981FA818181FC
:1019F0009281FC0131968081982FE981FA81808162
:101A0000809589238C9378940F900F90CF91DF91DC
:101A10000895DF93CF9300D00F92CDB7DEB79C83AC
:101A20008B83EB81FC811386EB81FC811586EB8136
:101A3000FC81148687E090E09A83898329813A812A
:101A40008B819C81820F931FFC01339610828981C8
:101A50009A81009731F089819A8101979A838983CD
:101A6000EDCF0F900F900F900F90CF91DF910895D1
:101A7000DF93CF93CDB7DEB728970FB6F894DEBFCC
:101A80000FBECDBF9E838D836F831C8219C08C8156
:101A9000282F30E0ED81FE818081882F90E0822721
:101AA00093278C519F4F9B838A838D819E810196C2
:101AB0009E838D83EA81FB818491898389818C83D4
:101AC0008F8188878885882311F081E088878885C1
:101AD0009F8191509F838823D1F68C8128960FB6E1
:101AE000F894DEBF0FBECDBFCF91DF910895DF9395
:101AF000CF93CDB7DEB72A970FB6F894DEBF0FBEEF
:101B0000CDBF98878F837A8769871E821D821C824A
:101B10001B8263C02F8138858B819C81F901E80F7E
:101B2000F91F8081882F90E09A8389838D819E811F
:101B30009C01307089819A818227932790709A83C3
:101B400089838D819E81892F99279E838D838981A9
:101B50009A818F709070FC01E050FE4F2081898146
:101B60009A81929582958F7089279F708927FC01B1
:101B7000E050FE4F8081281741F08D819E8121E049
:101B800030EC822793279E838D8389819A8100245C
:101B9000969587950794969587950794982F802D0D
:101BA0009A8389832D813E8189819A818227932717
:101BB0009E838D8389819A81880F991F9A83898357
:101BC0002D813E8189819A81822793279E838D83EF
:101BD0008B819C8101969C838B832B813C818985A1
:101BE0009A852817390708F495CF8D819E812A960A
:101BF0000FB6F894DEBF0FBECDBFCF91DF91089531
:101C0000DF93CF93CDB7DEB729970FB6F894DEBF39
:101C10000FBECDBF9C838B837E836D8358874F839C
:101C20008B819C812D813E81B9010E94770D809529
:101C300090959A83898389819A819C013070EF8184
:101C4000F8858081882F90E02817390789F48981E9
:101C50009A81292F33278F819885FC0131968081C5
:101C6000882F90E02817390719F481E0898701C08F
:101C70001986898529960FB6F894DEBF0FBECDBFB1
:101C8000CF91DF910895DF93CF93CDB7DEB727973C
:101C90000FB6F894DEBF0FBECDBF9E838D83ED815E
:101CA000FE8180818C83ED81FE81818192819B8385
:101CB0008A83F8948A819B81DC0111968A819B81B9
:101CC000FC01319690818C81892B8C938A819B8138
:101CD000DC0112968A819B81FC0132968081982FCB
:101CE0008C81809589238C9383E090E00E94A85D8D
:101CF0008A819B81DC0111968A819B81FC0131964E
:101D00008081982F8C81809589238C938AE090E044
:101D10000E94A85DEA81FB818081282F30E08C81C0
:101D2000882F90E082239323009719F081E08F831E
:101D300001C01F828F818983789485E390E00E949F
:101D4000A85D898127960FB6F894DEBF0FBECDBF80
:101D5000CF91DF910895DF93CF9300D00F920F9230
:101D6000CDB7DEB79C838B83198281E08A8314C050
:101D70008B819C810E94430E8D838D81882311F07D
:101D800081E08D838D81882321F089819A81892B3F
:101D900089838A81880F8A838A81882349F7898188
:101DA0000F900F900F900F900F90CF91DF910895AB
:101DB0000F931F93DF93CF93CDB7DEB728970FB65E
:101DC000F894DEBF0FBECDBF9C838B837E836D8373
:101DD00058874F831A82198212C02D813E818981D2
:101DE0009A818901080F191F8B819C810E94AB0E7B
:101DF000F801808389819A8101969A838983298158
:101E00003A818F8198852817390738F328960FB6BD
:101E1000F894DEBF0FBECDBFCF91DF911F910F9120
:101E20000895DF93CF9300D000D0CDB7DEB79D8368
:101E30008C836E83EC81FD8180818B83EC81FD81BD
:101E4000818192819A8389838E81882F90E081702D
:101E50009070882389F1F89489819A81DC01129627
:101E600089819A81FC0132968081982F8B8180959F
:101E700089238C9389819A81DC01119689819A81C9
:101E8000FC01319690818B81892B8C938AE090E0C4
:101E90000E94A85D89819A81DC01129689819A81CC
:101EA000FC01329690818B81892B8C93789487E307
:101EB00090E00E94A85D30C0F89489819A81DC018D
:101EC000129689819A81FC0132968081982F8B81AC
:101ED000809589238C9389819A81DC01119689816F
:101EE0009A81FC01319690818B81892B8C9381E4BE
:101EF00090E00E94A85D89819A81DC011296898117
:101F00009A81FC01329690818B81892B8C937894F5
:101F100085E090E00E94A85D26960FB6F894DEBF9B
:101F20000FBECDBFCF91DF910895DF93CF9300D047
:101F300000D0CDB7DEB79B838A836C834D8381E06D
:101F4000898316C08981282F30E08C81882F90E00A
:101F500082239323009719F081E08E8301C01E82B3
:101F60008A819B816E810E94110F8981880F8983EC
:101F70008981882339F78D81882351F5F894EA8186
:101F8000FB8181819281DC011196EA81FB81818153
:101F90009281FC0131968081982FEA81FB818081BA
:101FA000809589238C93EA81FB8181819281DC0178
:101FB0001296EA81FB8181819281FC0132968081B7
:101FC000982FEA81FB818081809589238C93789476
:101FD00026960FB6F894DEBF0FBECDBFCF91DF912E
:101FE0000895DF93CF930F920F92CDB7DEB79A8308
:101FF000898389819A816CEC40E00E94950F0F9053
:102000000F90CF91DF910895DF93CF9300D000D050
:10201000CDB7DEB79C838B837E836D838B819C8160
:1020200065E540E00E94950F1A82198213C029814C
:102030003A818D819E81FC01E20FF31F20818B810B
:102040009C81622F40E00E94950F89819A810196C0
:102050009A83898389819A818830910544F32696F1
:102060000FB6F894DEBF0FBECDBFCF91DF910895BC
:10207000DF93CF93CDB7DEB729970FB6F894DEBFC5
:102080000FBECDBF9C838B837E836D8358874F8328
:1020900029871A82198213C02D813E8189819A81F4
:1020A000F901E80FF91F20818B819C81622F40E0AC
:1020B0000E94950F89819A8101969A83898329814B
:1020C0003A818F8198852817390730F3898591E007
:1020D0008927882351F1F894EB81FC8181819281D9
:1020E000DC011196EB81FC8181819281FC013196AA
:1020F0008081982FEB81FC818081809589238C934E
:10210000EB81FC8181819281DC011296EB81FC8163
:1021100081819281FC0132968081982FEB81FC8134
:102120008081809589238C93789429960FB6F894B2
:10213000DEBF0FBECDBFCF91DF910895DF93CF9368
:10214000CDB7DEB72A970FB6F894DEBF0FBECDBF6E
:102150009F838E83EE81FF8180818D83EE81FF815D
:10216000818192819C838B838DE78983F8948B8115
:102170009C81DC0111968B819C81FC0131968081D0
:10218000982F8D81809589238C93789489818150B3
:10219000898319868981882311F481E0898789855B
:1021A000882311F018865FC082E090E00E94A85D4D
:1021B000EB81FC818081282F30E08D81882F90E099
:1021C000822393231A86009711F481E08A878A85F7
:1021D0008823E1F6F8948B819C81DC0112968B8137
:1021E0009C81FC0132968081982F8D818095892376
:1021F0008C938B819C81DC0111968B819C81FC01ED
:10220000319690818D81892B8C93789484EF91E025
:102210000E94A85DF8948B819C81DC0111968B81D2
:102220009C81FC0131968081982F8D818095892336
:102230008C9380E590E00E94A85DEB81FC81808119
:10224000282F30E08D81882F90E0822393231A82FB
:10225000009711F481E08A83789484EA91E00E94E7
:10226000A85D8A81888788852A960FB6F894DEBF94
:102270000FBECDBFCF91DF910895DF93CF93CDB740
:10228000DEB760970FB6F894DEBF0FBECDBF9C8758
:102290008B877E876D8781E08A871986188681E023
:1022A0008C831F82EB85FC858585882309F0C5C05A
:1022B0008B859C850E949E10188A882311F481E0EA
:1022C000888B8889882359F0EB85FC851386EB85FC
:1022D000FC851586EB85FC8514861F86E0C08B8502
:1022E0009C8560EF40E00E94950F8B859C850E9445
:1022F000430E8E838B859C850E94430E8D838E8139
:10230000813021F48D81813009F485C09E818D81D9
:10231000981719F08E818B8333C0EB85FC859385EC
:102320008A858917C0F48885282F30E08B859C85A5
:10233000820F931FFC0133968081282F30E08C811F
:10234000882F90E0822393231B821816190664F4C9
:1023500081E08B8309C0EB85FC8593851B828A8590
:10236000981711F481E08B838B81882349F48A8547
:1023700089878985893020F4EB85FC858985848768
:102380008B818130C1F48885482F50E08885282FC3
:1023900030E08B859C85820F931FFC0133969081E2
:1023A0008C81292F282B8B859C85840F951FFC0100
:1023B0003396208319C08885482F50E08885282FC0
:1023C00030E08B859C85820F931FFC0133968081C2
:1023D000982F8C8180958923282F8B859C85840F4D
:1023E000951FFC01339620838B859C856B810E9411
:1023F000110F8A858F5F8A878C81880F8C838C81EF
:10240000882329F488858F5F888781E08C8388857D
:10241000883008F46ACF8A85813478F0EB85FC85B2
:1024200089858387EB85FC858385882321F4EB856B
:10243000FC8581E0858781E08F838F81882329F067
:10244000EB85FC858381882351F4EB85FC8513861D
:10245000EB85FC851586EB85FC8514861F821A8228
:10246000198216C029813A818D859E85DC01A20FD3
:10247000B31F29813A818B859C85820F931FFC01B4
:10248000339680818C9389819A8101969A8389837E
:1024900089819A81883091052CF38F818F878F8570
:1024A00060960FB6F894DEBF0FBECDBFCF91DF911F
:1024B0000895DF93CF93CDB7DEB72D970FB6F8947D
:1024C000DEBF0FBECDBF9C878B876D878D8560E09B
:1024D0000E94235FAB85BC858D85882F90E088584E
:1024E0009D4F9A878987E985FA85849188878885B1
:1024F0008C938D85882F90E08E5C9D4F9B838A8383
:10250000EA81FB81849189838981882F90E0880FFB
:10251000991F885E9D4F9F838E838E819F81FC01D2
:10252000859194919D838C83FF83EE838C819D8123
:10253000EB85FC85928381838B859C850E94090DA8
:102540002D960FB6F894DEBF0FBECDBFCF91DF91B1
:102550000895DF93CF93CDB7DEB72D970FB6F894DC
:10256000DEBF0FBECDBF9C878B876D878D8560E0FA
:102570000E94235FAB85BC858D85882F90E08858AD
:102580009D4F9A878987E985FA8584918887888510
:102590008C938D85882F90E08E5C9D4F9B838A83E2
:1025A000EA81FB81849189838981882F90E0880F5B
:1025B000991F885E9D4F9F838E838E819F81FC0132
:1025C000859194919D838C83FF83EE838C819D8183
:1025D000EB85FC85928381838B859C850E94090D08
:1025E0002D960FB6F894DEBF0FBECDBFCF91DF9111
:1025F0000895DF93CF9300D00F92CDB7DEB79A83C3
:1026000089837C836B83EB81FC8182819381E98167
:10261000FA819383828389819A810F900F900F9022
:102620000F90CF91DF910895DF93CF9300D00F9259
:10263000CDB7DEB79A8389837C836B8389819A8146
:102640002B813C81B9010E94F912EB81FC818481CC
:102650009581A681B781E981FA8184839583A683D8
:10266000B783EB81FC8180859185A285B385E98163
:10267000FA8180879187A287B38789819A810F9099
:102680000F900F900F90CF91DF910895DF93CF932C
:1026900000D00F92CDB7DEB79A8389837C836B839A
:1026A00089819A812B813C81B9010E94141389810F
:1026B0009A810F900F900F900F90CF91DF91089516
:1026C000DF93CF9300D00F92CDB7DEB79A83898383
:1026D0007C836B8389819A812B813C81B9010E9423
:1026E0004613EB81FC818485E981FA8184878981A5
:1026F0009A810F900F900F900F90CF91DF910895D6
:102700000F93DF93CF9300D00F92CDB7DEB79A83AC
:1027100089837C836B8389819A8181309105F9F467
:102720008B819C812FEF8F3F9207C9F484EC95E059
:1027300060E040E020E000E00E94AB4E8AEA95E0D5
:1027400020E132E0B9010E94E75981EB95E060E5B4
:1027500070E00E94023B87EB95E00E94AE368981D3
:102760009A81009751F48B819C812FEF8F3F9207C4
:1027700021F48AEA95E00E94D85C0F900F900F90A8
:102780000F90CF91DF910F910895DF93CF93CDB745
:10279000DEB780E090E06FEF7FEF0E948013CF9173
:1027A000DF910895DF93CF93CDB7DEB781E090E05E
:1027B0006FEF7FEF0E948013CF91DF910895DF9339
:1027C000CF93CDB7DEB787EB95E027E132E0B901D3
:1027D0000E949152CF91DF910895DF93CF93CDB7AF
:1027E000DEB787EB95E023E332E0B9010E94915216
:1027F00087EB95E02AE432E0B9010E94915287EB21
:1028000095E022E632E0B9010E94915287EB95E013
:102810000E94F84F0E94DF1387EB95E023E832E037
:10282000B9010E949152CF91DF910895DF93CF9328
:10283000CDB7DEB728970FB6F894DEBF0FBECDBF79
:102840009A8389837C836B835E834D8338872F8350
:1028500089819A812B813C814D815E81EF81F88550
:10286000B9019F010E94885528960FB6F894DEBFE3
:102870000FBECDBFCF91DF910895DF93CF9300D0EE
:102880000F92CDB7DEB79A8389837C836B8389816E
:102890009A812B813C81B9010E94045989819A81D6
:1028A0000F900F900F900F90CF91DF9108950F939D
:1028B0001F93DF93CF93CDB7DEB7C854D1400FB687
:1028C000F894DEBF0FBECDBFCE014B9621EB35E0B5
:1028D000B9010E94E13C87EB95E09E01255E3F4FE8
:1028E000B9010E9460131B8A1A8A87EB95E00E9447
:1028F0004F37882309F4A1C21B8A1A8A76C287EB54
:1029000095E00E941539C95BDE4F1882C754D1404B
:10291000009731F081E0C95BDE4F8883C754D14016
:10292000C95BDE4F9881C754D140992309F45DC239
:1029300087EB95E00E94E538898B89898A30C1F060
:1029400089898D30A9F08A899B898F3F910584F40C
:102950002A893B89CE01895B9F4FFC01E20FF31F5F
:10296000898980838A899B8901969B8B8A8B3DC24A
:1029700087EB95E00E942137CE0188969E01295B66
:102980003F4FB9010E94E759CE01889660E20E944C
:102990008355FC01CE018F969E01285D3F4FB90102
:1029A00040E050E09F010E94585C85E398E026E9F2
:1029B00032E0B9010E94DD5185E398E09E01215D7E
:1029C0003F4FB9010E94D752CE0188966FE20E9414
:1029D00083558C01CE0188966FE20E9483559C013D
:1029E000CE01889660E2A9010E946555FC01CE01E6
:1029F00044969E01285D3F4FB901A8019F010E94A6
:102A0000585CCE0188969E012C5E3F4FB9010E9412
:102A1000AB5CCE0144960E94D85C85E398E02BE93C
:102A200032E0B9010E94DD5185E398E09E01285D06
:102A30003F4FB9010E94D752CE0188960E9443545D
:102A4000CE0188969E01295B3F4FB9014FEF50E0C0
:102A500020E030E00E941614CE01895B9F4F27EAE8
:102A600032E0B9010E948963988B8F8727EA32E0B0
:102A700080E090E0B9010E9489639E878D8727EAF4
:102A800032E080E090E0B9010E9489639C878B87E7
:102A900085E398E029EA32E0B9010E94DD5185E33F
:102AA00098E02D853E85B9010E94915285E398E01A
:102AB00020EB32E0B9010E94DD5185E398E02B85DF
:102AC0003C85B9010E94915285E398E029EB32E000
:102AD000B9010E94DD5185E398E02F853889B9015D
:102AE0000E9491528AEA95E02F853889B9010E94A7
:102AF000D755CA5BDE4F1882C654D140882331F4C3
:102B0000A1E0CA5BDE4FA883C654D140CA5BDE4F4A
:102B1000B881C654D140BB2309F187EB95E023EC83
:102B200032E0B9010E94915287EB95E02AE432E04D
:102B3000B9010E94915287EB95E022E632E0B9019B
:102B40000E94915287EB95E00E94F84F87EB95E049
:102B50002AED32E0B9010E9491523EC18DE495E523
:102B6000A0E0B0E08EAB9FABA8AFB9AF86E0FE01AE
:102B7000FA96DF01982F1D929A95E9F7CE01805CB5
:102B80009F4F21EF32E0B9010E94E7598D859E8564
:102B9000009709F41AC18B859C85009709F465C0DC
:102BA0008D859E850E942C639A878987898561E03F
:102BB0000E94235F8B859C8522EF32E0B90144E0BF
:102BC00050E00E94D863009759F08B859C8527EFD1
:102BD00032E0B90143E050E00E94D8630097F9F475
:102BE0008B859C8522EF32E0B90144E050E00E94E1
:102BF000D863009721F4898561E00E94BD5F8B85D1
:102C00009C8527EF32E0B90143E050E00E94D86391
:102C1000009789F4898560E00E94BD5F0CC08B85B8
:102C20009C850E942C6398878F8389852F813885A6
:102C3000B9010E94485E87EB95E02BEF32E0B901C5
:102C40000E94915287EB95E02AE432E0B9010E949C
:102C5000915287EB95E022E632E0B9010E94915251
:102C600087EB95E00E94F84FB2C0ED85FE8580812C
:102C7000813629F0ED85FE858081813441F58D8591
:102C80009E85FC0131968081882F90E0C0979E83BD
:102C90008D838D810E94145E9C0100D000D0EDB721
:102CA000FEB73196CE01C696918380838BE093E088
:102CB00093838283358324830E94EE64ADB7BEB7CD
:102CC00016960FB6F894BEBF0FBEADBF2CC0ED85F3
:102CD000FE858081882339F18D859E850E942C6335
:102CE0009C838B838B810E94F05F9A838983898187
:102CF0009A81181619064CF0CE01C69627EF32E0DD
:102D0000B90144E050E00E949B6389819A811816C2
:102D100019064CF4CE01C69622EF32E0B90145E027
:102D200050E00E949B63CE01805C9F4F2EE033E019
:102D3000B9010E943D14CE01805C9F4F2D853E85D8
:102D4000B9010E943D14CE01805C9F4F21E133E028
:102D5000B9010E943D14CE01805C9F4F9E012A5C08
:102D60003F4FB9010E943D14CE01805C9F4F25E189
:102D700033E0B9010E943D1487EB95E02BEF32E080
:102D8000B9010E94915287EB95E02AE432E0B90143
:102D90000E94915287EB95E028E133E0B9010E944F
:102DA000915287EB95E022E632E0B9010E94915200
:102DB00087EB95E00E94F84F87EB95E09E01205C41
:102DC0003F4FB9010E94D75202C00E94ED13CE01BD
:102DD000805C9F4F0E94D85CCE018F960E94D85C89
:102DE000CE0188960E94D85C1EC087EB95E00E94B9
:102DF000DC37C85BDE4F8883C854D140C85BDE4FE8
:102E0000B881C854D140BB2331F081E0C85BDE4FAC
:102E10008883C854D140C85BDE4F8881C854D140F4
:102E2000882309F06CCD64E670E080E090E00E94B9
:102E3000825D87EB95E00E941A38C85BDE4F0FB6C3
:102E4000F894DEBF0FBECDBFCF91DF911F910F91E0
:102E50000895DF93CF9300D000D0CDB7DEB79A832B
:102E600089837C836B835E834D8387EB95E027E3C7
:102E700033E0B9010E94DD5187EB95E029813A8169
:102E8000B9014AE050E00E94AB5187EB95E021E4A4
:102E900033E0B9010E94DD5187EB95E02B813C8145
:102EA000B9010E94A45287EB95E02AE432E0B9010F
:102EB0000E94915287EB95E022E632E0B9010E9430
:102EC000915287EB95E00E94F84F0E94DF1387EB49
:102ED00095E02D813E81B9010E94D75226960FB60A
:102EE000F894DEBF0FBECDBFCF91DF910895DF9381
:102EF000CF9300D000D0CDB7DEB72DE433E0CE01C4
:102F00000196B9010E94364F85EF95E027E433E042
:102F1000B9019E012F5F3F4FA9010E94B93481EB97
:102F200095E00E94513D26960FB6F894DEBF0FBE85
:102F3000CDBFCF91DF910895DF93CF93CDB7DEB7AB
:102F40000E94B25D0E9477170E945714FDCFDF9355
:102F5000CF93CDB7DEB7ACE4B0E0ECE4F0E0808135
:102F60008F7B8C93CF91DF910895DF93CF930F9256
:102F7000CDB7DEB789838981882341F4ACE4B0E022
:102F8000ECE4F0E0808180628C9307C0ACE4B0E0B8
:102F9000ECE4F0E080818F7D8C930F90CF91DF91F6
:102FA0000895DF93CF930F92CDB7DEB78983ACE45A
:102FB000B0E0ECE4F0E08081982F937F8981892B49
:102FC0008C930F90CF91DF910895DF93CF930F9261
:102FD000CDB7DEB78983ACE4B0E0ECE4F0E080810B
:102FE000982F9C7F89818370892B8C93ADE4B0E00E
:102FF000EDE4F0E08081282F2E7F8981882F90E0FA
:1030000095958795959587958170822B8C930F90D8
:10301000CF91DF910895DF93CF93CDB7DEB784E3EF
:1030200061E00E94235F83E361E00E94235F85E308
:1030300061E00E94235F84E360E00E94BD5F83E360
:1030400060E00E94BD5F85E361E00E94BD5FACE48B
:10305000B0E0ECE4F0E0808180618C93ACE4B0E01F
:10306000ECE4F0E0808180648C93CF91DF9108954F
:10307000DF93CF930F92CDB7DEB789838DEC95E0C8
:10308000698148E00E944B230F90CF91DF91089512
:10309000DF93CF9300D0CDB7DEB789837B836A837C
:1030A0008981882F90E00496382F22278A819B817E
:1030B000820F931F0E9422200F900F900F90CF91AC
:1030C000DF910895DF93CF930F92CDB7DEB7898359
:1030D000898162E070E00E9448180F90CF91DF91E3
:1030E0000895DF93CF930F92CDB7DEB7898389819F
:1030F00063E070E00E9448180F90CF91DF9108952F
:10310000DF93CF9300D0CDB7DEB7898389810E944A
:1031100071181B82833111F081E08B838B818823AE
:1031200011F01A8208C08DEC95E0698142E00E949E
:103130004B2381E08A838A810F900F900F90CF916B
:10314000DF9108950F931F93DF93CF9300D0CDB7F6
:10315000DEB78B838B8168E270E00E944818882F6D
:1031600090E09A83898389819A81182F00278B8127
:1031700069E270E00E944818882F90E0800F911F4C
:103180009A83898389819A810F900F900F90CF91B4
:10319000DF911F910F910895DF93CF930F92CDB7D9
:1031A000DEB78983898160E070E00E9448180F9043
:1031B000CF91DF910895DF93CF9300D00F92CDB7D9
:1031C000DEB789837B836A834C838981882F90E073
:1031D0000496382F22278A819B81820F931F6C814E
:1031E0000E94191F0F900F900F900F90CF91DF91B9
:1031F0000895DF93CF930F920F92CDB7DEB78983F7
:103200006A83898162E070E04A810E94DB180F9036
:103210000F90CF91DF910895DF93CF9300D00F925D
:103220000F92CDB7DEB789838DEC95E0698140E2DE
:103230000E944B2316C089810E946218882F90E05B
:10324000887090701C82009711F081E08C839C81C3
:10325000992339F0898168E10E94F9181B821A824A
:1032600017C089810E946218882F90E08071907049
:103270001D82009711F481E08D839D819923D9F6F9
:10328000898160E10E94F91881E090E09B838A8344
:103290008A819B810F900F900F900F900F90CF918C
:1032A000DF910895DF93CF930F92CDB7DEB7898377
:1032B0008DEC95E0698140E10E944B2389816FEF9D
:1032C0000E94F9180F90CF91DF910895DF93CF936B
:1032D00000D0CDB7DEB789837B836A838A819B81E7
:1032E000892F9927982F898160E170E0492F0E94EA
:1032F000DB189A81898161E170E0492F0E94DB1817
:103300000F900F900F90CF91DF910895DF93CF939F
:1033100000D0CDB7DEB789837B836A838A819B81A6
:10332000892F9927982F898168E270E0492F0E94A0
:10333000DB189A81898169E270E0492F0E94DB18CD
:103340000F900F900F90CF91DF910895DF93CF935F
:103350000F920F92CDB7DEB789836A83898160E0CF
:1033600070E04A810E94DB180F900F90CF91DF919F
:103370000895DF93CF9300D0CDB7DEB789837B83E9
:103380006A838A819B81892F9927982F898164E09C
:1033900070E0492F0E94DB189A81898165E070E016
:1033A000492F0E94DB180F900F900F90CF91DF9163
:1033B0000895DF93CF9300D000D0CDB7DEB78983D7
:1033C0006A835C834B832D838A81813061F08A819B
:1033D000823049F08A81833031F08A81843019F05B
:1033E0008A81853079F589810E9452199A818D816F
:1033F000982B8981692F0E94A6198B819C81009747
:1034000039F02B813C818981B9010E94B91911C021
:103410008091CB059091CC0501969093CC0580933B
:10342000CB052091CB053091CC058981B9010E9453
:10343000B9198DEC95E0698141E00E944B2381E050
:103440008E8301C01E828E8126960FB6F894DEBF51
:103450000FBECDBFCF91DF910895DF93CF93CDB74E
:10346000DEB727970FB6F894DEBF0FBECDBF8983B6
:103470007B836A835D834C833F832E838981882F7E
:1034800090E00496382F22278A819B81820F931F18
:103490002C813D814E815F81B9010E94D91F279601
:1034A0000FB6F894DEBF0FBECDBFCF91DF91089568
:1034B000DF93CF9300D0CDB7DEB789837B836A8358
:1034C0002A813B8189816CE070E0A90124E030E031
:1034D0000E942D1A0F900F900F90CF91DF910895B9
:1034E000DF93CF93CDB7DEB727970FB6F894DEBF43
:1034F0000FBECDBF89837B836A835D834C83EA8162
:10350000FB8180818823A9F48A819B81FC0131960B
:103510008081882371F48A819B81FC0132968081AD
:10352000882339F48A819B81FC013396808188232A
:1035300021F08C819D81009719F41F821E8210C09A
:103540002A813B818981B9010E94581A2C813D81D1
:103550008981B9010E94661981E090E09F838E8382
:103560008E819F8127960FB6F894DEBF0FBECDBF28
:10357000CF91DF910895DF93CF9300D000D0CDB7E6
:10358000DEB789837B836A835D834C83EA81FB8119
:1035900080818F3FA9F48A819B81FC0131968081D3
:1035A0008F3F71F48A819B81FC01329680818F3F2D
:1035B00039F48A819B81FC01339680818F3FF1F041
:1035C000EA81FB8180818823A9F48A819B81FC01A7
:1035D00031968081882371F48A819B81FC01329627
:1035E0008081882339F48A819B81FC013396808114
:1035F000882321F08C819D81009711F41E8214C0D4
:103600002A813B818981B9010E94581A2C813D8110
:103610008981B9010E9466198DEC95E0698144E0C9
:103620000E944B2381E08E838E8126960FB6F894FC
:10363000DEBF0FBECDBFCF91DF9108950F931F93D3
:10364000DF93CF93CDB7DEB72A970FB6F894DEBFDE
:103650000FBECDBF8B837D836C835F834E833987A1
:1036600028871A8219828DEC95E06B810E940722CF
:103670009C011A86888599852817390710F481E0FE
:103680008A878A85882341F08DEC95E06B810E94C2
:1036900007229A83898304C0888599859A838983C0
:1036A0008DEC95E02C813D81EE81FF81A981BA816D
:1036B0006B81A9019F018D010E94C12089819A819E
:1036C0002A960FB6F894DEBF0FBECDBFCF91DF9123
:1036D0001F910F910895DF93CF93CDB7DEB72C974D
:1036E0000FB6F894DEBF0FBECDBF8C837E836D8393
:1036F00058874F831B821A8219828F81988528E010
:103700008130920728F080E098E09A83898304C092
:103710008F8198859A83898389819A81009719F48A
:103720001C861B8642C08DEC95E02D813E81E9818F
:10373000FA816C81A9019F010E9458218DEC95E0CE
:103740006C8140E20E944B2319C08C810E94711849
:103750008B838C810E946218882F90E08870907013
:103760001986009711F081E089879985992331F0B6
:103770008C810E9452191C861B8617C08C810E9466
:103780006218882F90E0807190701A86009711F46B
:1037900021E02A878A858823C1F68C8160E10E9416
:1037A000F91889819A819C878B878B859C852C96BB
:1037B0000FB6F894DEBF0FBECDBFCF91DF91089555
:1037C0000F931F93DF93CF93CDB7DEB72F970FB62D
:1037D000F894DEBF0FBECDBF8B837D836C835F8388
:1037E0004E83398728871B870A871A8219828E8120
:1037F0009F8128E08130920728F080E098E09A834A
:10380000898304C08E819F819A838983E885F985A5
:1038100080818823A9F488859985FC01319680816F
:10382000882371F488859985FC01329680818823EC
:1038300039F488859985FC0133968081882341F08D
:103840008A859B85009721F089819A81009719F4D8
:103850001A82198247C0288539858B81B9010E9457
:10386000581A2A853B858B81B9010E9466198DEC17
:1038700095E02C813D81E981FA816B81A9019F014D
:103880000E9458218DEC95E06B8140E20E944B2311
:1038900016C08B810E946218882F90E0887090700B
:1038A0001E86009711F081E08E879E85992339F05E
:1038B0008B8168E10E94F9181D861C8617C08B81D8
:1038C0000E946218882F90E0807190701F86009788
:1038D00011F421E02F878F858823D9F68B8160E151
:1038E0000E94F91889819A819D878C878C859D8596
:1038F0002F960FB6F894DEBF0FBECDBFCF91DF91EC
:103900001F910F910895DF93CF93CDB7DEB72E9718
:103910000FB6F894DEBF0FBECDBF8E8378876F835E
:103920005A8749871D821C821B821A8219828985C7
:103930009A8528E08130920728F080E098E09C8307
:103940008B8304C089859A859C838B838DEC95E05D
:103950006E810E9407229A8389838E810E9471184A
:103960008D838D81873131F08D818C3119F01C82EE
:103970001B8207C029813A818B819C8128173907D6
:1039800028F38DEC95E02F813885EB81FC816E81E9
:10399000A9019F010E9458218DEC95E06E8140E2C3
:1039A0000E944B2311C08E810E9471181D868823AE
:1039B00011F481E08D879D85992331F08E810E94DD
:1039C00052191C861B8617C08E810E946218882F90
:1039D00090E0807190701E86009711F421E02E8790
:1039E0008E85882301F78E8160E10E94F9188B8112
:1039F0009C819C878B878B859C852E960FB6F8942F
:103A0000DEBF0FBECDBFCF91DF9108950F931F93FF
:103A1000DF93CF93CDB7DEB767970FB6F894DEBFCD
:103A20000FBECDBF8D877F876E87598B488B3B8BB1
:103A30002A8B1D8B0C8B1C821B821A82198288890F
:103A40009989009709F426C18D850E94A2189A834E
:103A500089838D850E94CC18882F90E09C01277067
:103A600030703F8B2E8B8E899F898330910509F4AE
:103A700077C02E893F892430310509F4C6C08E896C
:103A80009F898230910509F0FFC029813A81FE01AA
:103A900035968DEC95E06D85A9019F0108E010E059
:103AA0000E94872289819A8108969A8389838D81D1
:103AB000EA89FB8980838A899B89FC0131968E8102
:103AC00080838A899B89FC0132968F8180838A89D1
:103AD0009B89FC013396888580838985882F90E0B7
:103AE000EC89FD8991838083EC89FD8980819181B6
:103AF000382F22278A85882F90E0820F931FEC8928
:103B0000FD89918380838B85882F90E09C838B83B4
:103B10008B819C81382F22278C85882F90E0820F03
:103B2000931F9C838B8329813A81AE85BF858DEC61
:103B300095E0EB81FC816D85A9019D018F010E94BB
:103B4000872229813A818B819C81820F931F9A83DE
:103B5000898329813A818D85B9010E94861994C093
:103B600029813A81FE0135968DEC95E06D85A9019C
:103B70009F0106E010E00E94872289819A810696C3
:103B80009A8389838D81EA89FB8980838A899B89CD
:103B9000FC0131968E8180838A899B89FC01329653
:103BA0008F8180838A899B89FC01339688858083F5
:103BB0008985882F90E09C838B838B819C81382F13
:103BC00022278A85882F90E0820F931F9C838B8306
:103BD00029813A81AE85BF858DEC95E0EB81FC8132
:103BE0006D85A9019D018F010E94872229813A815B
:103BF0008B819C81820F931F9A83898329813A81CB
:103C00008D85B9010E9486193FC029813A81FE0144
:103C100035968DEC95E06D85A9019F0102E010E0DD
:103C20000E94872289819A8102969A8389838D8155
:103C3000882F90E09C838B838B819C81382F222757
:103C40008E81882F90E0820F931F02979C838B8335
:103C500029813A81AE85BF858DEC95E0EB81FC81B1
:103C60006D85A9019D018F010E94872229813A81DA
:103C70008B819C81820F931F9A83898329813A814A
:103C80008D85B9010E9486198DEC95E06D8540E423
:103C90000E944B238B819C8167960FB6F894DEBF00
:103CA0000FBECDBFCF91DF911F910F9108950F935C
:103CB000DF93CF9300D0CDB7DEB789837B836A8350
:103CC0008DEC95E02A813B816981A90121E030E0FA
:103CD00001E00E94082381E090E00F900F900F9088
:103CE000CF91DF910F9108950F93DF93CF93CDB7CD
:103CF000DEB728970FB6F894DEBF0FBECDBF8C831A
:103D00007E836D8358874F838DEC95E06C810E9494
:103D1000AC219B838A838A819B810097A9F48C8143
:103D20000E94711889838981843131F089818823C7
:103D300019F089818C3119F41B821A8210C08FEF1F
:103D40009FEF9B838A830BC02A813B818F8198855B
:103D50008217930720F48F8198859B838A838A81B9
:103D60009B81009791F08DEC95E02D813E81EA8159
:103D7000FB816C81A9019F0100E00E9408238DEC6A
:103D800095E06C8140E40E944B238A819B812896B8
:103D90000FB6F894DEBF0FBECDBFCF91DF910F916C
:103DA0000895DF93CF930F920F92CDB7DEB789833B
:103DB000EEE4F0E089818083EDE4F0E080811A8216
:103DC000882314F081E08A838A818823A9F7EEE4AE
:103DD000F0E080810F900F90CF91DF910895DF93F5
:103DE000CF93CDB7DEB7A4E2B0E0E4E2F0E08081AB
:103DF00080618C93CF91DF910895DF93CF93CDB7FE
:103E0000DEB7A5E2B0E0E5E2F0E080818F7E8C9342
:103E1000CF91DF910895DF93CF93CDB7DEB7A5E2C1
:103E2000B0E0E5E2F0E0808180618C93CF91DF919A
:103E30000895DF93CF9300D0CDB7DEB79A838983FF
:103E40006B830E94FD1E80EF0E94D11E89819A81A2
:103E5000892F99270E94D11E89810E94D11E8B81B2
:103E60000E94D11E0E940B1F81E00F900F900F90B7
:103E7000CF91DF910895DF93CF9300D00F92CDB70C
:103E8000DEB789837B836A834C838981882F90E0A6
:103E90000496382F22278A819B81820F931F6C8181
:103EA0000E94191F0F900F900F900F90CF91DF91EC
:103EB0000895DF93CF930F920F92CDB7DEB789832A
:103EC0006A83898161E070E04A810E94DB180F906B
:103ED0000F90CF91DF910895DF93CF9300D0CDB7AE
:103EE000DEB789837B836A838A819B81892F9927A7
:103EF000982F898168E270E0492F0E94DB189A812F
:103F0000898169E270E0492F0E94DB180F900F90C1
:103F10000F90CF91DF910895DF93CF9300D0CDB76D
:103F2000DEB789837B836A838A819B81892F992766
:103F3000982F898164E270E0492F0E94DB189A81F2
:103F4000898165E270E0492F0E94DB180F900F9085
:103F50000F90CF91DF910895DF93CF930F92CDB75C
:103F6000DEB7898380E090E069810E94191F0F907D
:103F7000CF91DF910895DF93CF930F92CDB7DEB746
:103F800089838BE190E069810E94191F0F90CF9186
:103F9000DF910895DF93CF930F92CDB7DEB789837A
:103FA0008AE190E069810E94191F0F90CF91DF9103
:103FB0000895DF93CF93CDB7DEB728970FB6F89467
:103FC000DEBF0FBECDBF9C838B837E836D835887FE
:103FD0004F831A82198224C00E94FD1E80EF0E9426
:103FE000D11E8B819C81892F99270E94D11E8B81A4
:103FF0000E94D11E8B819C8101969C838B832D8195
:104000003E8189819A81F901E80FF91F80810E9420
:10401000D11E0E940B1F89819A8101969A83898300
:1040200029813A818F81988528173907A8F28F81D5
:10403000988528960FB6F894DEBF0FBECDBFCF91FE
:10404000DF910895DF93CF9300D0CDB7DEB79B8388
:104050008A830E94FD1E8FE00E94D11E8A819B816F
:10406000892F99270E94D11E8A810E94D11E80E04B
:104070000E94D11E89830E940B1F89810F900F908F
:104080000F90CF91DF910895DF93CF9300D0CDB7FC
:10409000DEB789837B836A838981882F90E00496C9
:1040A000382F22278A819B81820F931F0E94222012
:1040B0000F900F900F90CF91DF910895DF93CF93E2
:1040C0000F92CDB7DEB78983898161E070E00E94ED
:1040D00048180F90CF91DF9108950F931F93DF93AE
:1040E000CF9300D0CDB7DEB78B838B8168E270E0D1
:1040F0000E944818882F90E09A83898389819A8149
:10410000182F00278B8169E270E00E944818882FE1
:1041100090E0800F911F9A83898389819A810F9003
:104120000F900F90CF91DF911F910F9108950F93F2
:104130001F93DF93CF9300D0CDB7DEB78B838B81F6
:1041400064E270E00E944818882F90E09A83898387
:1041500089819A81182F00278B8165E270E00E9487
:104160004818882F90E0800F911F9A838983898156
:104170009A810F900F900F90CF91DF911F910F9127
:1041800008950F931F93DF93CF93CDB7DEB7619759
:104190000FB6F894DEBF0FBECDBF9A8789876B87B5
:1041A0005D874C873F872E87198B088B8B850E94F4
:1041B000972098878F832F8138858C859D85820FE6
:1041C000931F98878F838F81988597709E838D83A7
:1041D0008B85882F90E029853A85880F991FF901F2
:1041E000E80FF91F208131818D819E81820F931FFD
:1041F0009C838B832D813E8188899989820F931FAF
:1042000028E08130920790F120E038E08D819E8196
:10421000A901481B590BCA019A8389838B819C8110
:104220002E853F8549815A81B9010E94D91F8B850E
:10423000882F90E029853A85880F991FF901E80FAA
:10424000F91F608171812E853F8589819A81A9013D
:10425000480F591F2889398989819A81281B390B70
:10426000CB01BA01A9010E94D91F09C08B819C8191
:104270002E853F8548895989B9010E94D91F2F8110
:10428000388588899989820F931F98878F832F811A
:1042900038858B85B9010E948C1F61960FB6F89402
:1042A000DEBF0FBECDBFCF91DF911F910F9108955B
:1042B0000F931F93DF93CF93CDB7DEB727970FB63A
:1042C000F894DEBF0FBECDBF9A8389836B835D8375
:1042D0004C833F832E8389819A812C813D81EE819D
:1042E000FF816B8140E050E08F010E94C120279642
:1042F0000FB6F894DEBF0FBECDBFCF91DF911F91F7
:104300000F9108950F931F93DF93CF9300D0CDB7F4
:10431000DEB78B838B8166E270E00E944818882F9D
:1043200090E09A83898389819A81182F00278B8155
:1043300067E270E00E944818882F90E0800F911F7C
:104340009A83898389819A810F900F900F90CF91E2
:10435000DF911F910F910895DF93CF93CDB7DEB713
:1043600027970FB6F894DEBF0FBECDBF9E838D8317
:104370006F831C821B821A8219828F810E94822184
:104380009A83898389819A81009729F08F810E947D
:1043900082219C838B832B813C8189819A81281780
:1043A000390759F78B819C8127960FB6F894DEBFA9
:1043B0000FBECDBFCF91DF9108950F931F93DF9371
:1043C000CF9300D0CDB7DEB78B838B8160E270E0F6
:1043D0000E944818882F90E09A83898389819A8166
:1043E000182F00278B8161E270E00E944818882F07
:1043F00090E0800F911F9A83898389819A810F9021
:104400000F900F90CF91DF911F910F910895DF933F
:10441000CF93CDB7DEB727970FB6F894DEBF0FBEA8
:10442000CDBF9E838D836F831C821B821A8219826B
:104430008F810E94DD219A83898389819A810097E7
:1044400029F08F810E94DD219C838B832B813C810D
:1044500089819A812817390759F78B819C81279682
:104460000FB6F894DEBF0FBECDBFCF91DF91089598
:104470000F931F93DF93CF93CDB7DEB728970FB677
:10448000F894DEBF0FBECDBF9C838B837E836D838C
:1044900058874F831A82198226C00E94FD1E8FE022
:1044A0000E94D11E8B819C81892F99270E94D11E49
:1044B0008B810E94D11E8B819C8101969C838B8372
:1044C0002D813E8189819A818901080F191F80E021
:1044D0000E94D11EF80180830E940B1F89819A815E
:1044E00001969A83898329813A818F81988528173B
:1044F000390798F28F81988528960FB6F894DEBF19
:104500000FBECDBFCF91DF911F910F9108950F93F3
:104510001F93DF93CF93CDB7DEB72F970FB6F894E5
:10452000DEBF0FBECDBF98878F8369875B874A87C1
:104530003D872C871F870E878A859B8597709C8374
:104540008B838985882F90E02F8138850496880F8A
:10455000991FF901E80FF91F208131818B819C811E
:10456000820F931F9A8389832B813C818E859F853F
:10457000820F931F28E081309207B0F120E038E0ED
:104580008B819C81A901481B590BCA019E838D8395
:1045900089819A812C853D854D815E81B9010E947A
:1045A00038222C853D858D819E81820F931F9D87AA
:1045B0008C878985882F90E02F8138850496880F15
:1045C000991FF901E80FF91F608171812E853F85E0
:1045D0008D819E81A901481B590B2C853D85CB01FE
:1045E000B9010E94382209C089819A812C853D85B4
:1045F0004E855F85B9010E9438222F960FB6F89438
:10460000DEBF0FBECDBFCF91DF911F910F910895F7
:104610000F931F93DF93CF93CDB7DEB72A970FB6D3
:10462000F894DEBF0FBECDBF9C838B836D835F8309
:104630004E83398728870A878D810E94A2189A8322
:10464000898329813A81AE81BF818B819C81E885F4
:10465000F9856D81A9019D018F010E9487228A85BC
:10466000882371F429813A8188859985820F931F67
:104670009A83898329813A818D81B9010E948619A3
:104680002A960FB6F894DEBF0FBECDBFCF91DF9153
:104690001F910F910895DF93CF9300D00F920F9247
:1046A000CDB7DEB79A8389836B834C838B816C8112
:1046B0000E94591F8B810E945E208D838D818823EB
:1046C00011F081E08D838D818823A1F70F900F90E9
:1046D0000F900F900F90CF91DF910895DF93CF93BC
:1046E00000D00F92CDB7DEB79C838B836CE271E074
:1046F00080E090E00E94825D0E940B180E94EF1EF5
:1047000080E80E94AC1F85E50E94BB1F85E50E94E2
:10471000CA1F1A82198230C069817A8189819A817F
:104720000896AC01542F4427550F550F550F2B8178
:104730003C81CB01880F991FF901E80FF91F5183C4
:10474000408349815A8189819A810C96BC01762FD8
:104750006627770F770F770F2B813C81CA0104966C
:10476000880F991FF901E80FF91F71836083898110
:104770009A8101969A83898389819A8184309105EF
:104780005CF20F900F900F900F90CF91DF910895F2
:10479000DF93CF9300D00F920F92CDB7DEB79A83FD
:1047A00089837C836B8389819A810296FC012081B5
:1047B0003181428153818B819C810296FC018081F1
:1047C0009181A281B3811D82281739074A075B07AF
:1047D00011F481E08D838D810F900F900F900F90D9
:1047E0000F90CF91DF910895DF93CF9300D00F9278
:1047F000CDB7DEB79A8389837C836B83E981FA81A5
:1048000084E693E0918380830F900F900F900F9038
:10481000CF91DF910895DF93CF9300D00F92CDB762
:10482000DEB79A8389837C836B8389819A812B810C
:104830003C81B9010E94F423E981FA818AE995E07B
:1048400091838083EB81FC8182819381A481B581F6
:10485000E981FA8182839383A483B5830F900F90BB
:104860000F900F90CF91DF9108950F931F93DF93D7
:10487000CF930F920F92CDB7DEB78C017A83698305
:10488000A80189819A819C01215F3F4FCA01B9012A
:104890000E940B24C801C8010F900F90CF91DF91A7
:1048A0001F910F910895DF93CF930F920F92CDB781
:1048B000DEB79A838983E981FA81858996890F9089
:1048C0000F90CF91DF910895DF93CF930F920F92C6
:1048D000CDB7DEB79A8389830F900F90CF91DF9188
:1048E00008950F93DF93CF9300D00F92CDB7DEB72B
:1048F0009A8389837C836B8389819A818130910536
:1049000071F48B819C812FEF8F3F920741F48DEDE5
:1049100095E060E040E020E000E00E94AB4E0F90A8
:104920000F900F900F90CF91DF910F910895DF932B
:10493000CF93CDB7DEB781E090E06FEF7FEF0E94BD
:104940007124CF91DF9108950F931F93DF93CF933D
:104950000F920F92CDB7DEB78C017A836983A801DD
:1049600089819A819C01225E3F4FCA01B9010E9450
:10497000364FC801C8010F900F90CF91DF911F9162
:104980000F9108950F931F93DF93CF930F920F9280
:10499000CDB7DEB78C017A836983A80189819A81BA
:1049A0009C01265E3F4FCA01B9010E94364FC801E3
:1049B000C8010F900F90CF91DF911F910F91089533
:1049C0000F931F93DF93CF930F920F92CDB7DEB764
:1049D0008C017A836983A80189819A819C012A5E6E
:1049E0003F4FCA01B9010E94364FC801C8010F905C
:1049F0000F90CF91DF911F910F9108950F931F9307
:104A0000DF93CF930F920F92CDB7DEB78C017A83ED
:104A10006983A80189819A819C012E5E3F4FCA015A
:104A2000B9010E94364FC801C8010F900F90CF9175
:104A3000DF911F910F9108950F931F93DF93CF93F1
:104A40000F920F92CDB7DEB78C017A836983A801EC
:104A500089819A819C01225F3F4FCA01B9010E945E
:104A6000364FC801C8010F900F90CF91DF911F9171
:104A70000F910895DF93CF93CDB7DEB7CC54D040DC
:104A80000FB6F894DEBF0FBECDBF9CAF8BAFFE015B
:104A9000FD964083518362837383FE01EF5BFF4F7A
:104AA000318320831C861B860E944E5DDC01CB0176
:104AB0008F839887A987BA872EC00E944E5D9B017D
:104AC000AC018F819885A985BA85281B390B4A0BC3
:104AD0005B0B2A961FAE2A97FE01FD96808191817D
:104AE000A281B38182179307A407B50720F481E060
:104AF0002A968FAF2A972A969FAD2A97992329F055
:104B00008FEF29968FAF299751C262E370E080E062
:104B100090E00E94825D8BAD9CAD82960E94B43F76
:104B20002B961FAE2B971816190624F091E02B96A2
:104B30009FAF2B972B968FAD2B97882309F0BDCF76
:104B40008BAD9CAD82969E01275E3F4FB90142E23C
:104B500050E00E94653F898D823069F48BAD9CAD39
:104B600082960E9453248334910529F491E028967B
:104B70009FAF289703C028961FAE289728968FAD21
:104B80002897882309F409C28D8D9E8DAF8DB8A119
:104B9000582F4427332722278D8D9E8DAF8DB8A1A6
:104BA000BA2FA92F982F882780709070B070282B6B
:104BB000392B4A2B5B2B8D8D9E8DAF8DB8A1892F04
:104BC0009A2FAB2FBB278070A070B070282B392B89
:104BD0004A2B5B2B8D8D9E8DAF8DB8A18B2F992786
:104BE000AA27BB27822B932BA42BB52BFE01EF5BAF
:104BF000FF4F0190F081E02D80839183A283B383E6
:104C00008BAD9CAD9C01285F3F4FCE0149964C96E1
:104C1000B90146E050E00E948E63009751F5FE0115
:104C2000EF5BFF4F0190F081E02D208131814281C7
:104C30005381EBADFCAD80819181A281B3812817B6
:104C400039074A075B07A8F0FE01EF5BFF4F0190B1
:104C5000F081E02D2081318142815381EBADFCADAB
:104C600084819581A681B78182179307A407B50730
:104C700048F48BAD9CAD82960E94CA3E29961FAE29
:104C8000299794C18BAD9CADAC01425F5F4FCE01C3
:104C900049969C01205F3F4FCA01B90144E050E0B2
:104CA0000E949B631E821D820AC08BAD9CAD8296C2
:104CB0000E94843F8D819E8101969E838D838D818C
:104CC0009E818E3C91058CF353C18BAD9CAD829639
:104CD0000E94843F26969FAF8EAF269726968EAD74
:104CE0009FAD26978630910509F489C026968EAD32
:104CF0009FAD269787309105BCF426968EAD9FAD6B
:104D0000269781309105A9F126968EAD9FAD269705
:104D10008330910509F444C026968EAD9FAD269749
:104D2000009709F425C103C126968EAD9FAD269745
:104D30008633910509F492C026968EAD9FAD2697D5
:104D40008F3F910509F414C126968EAD9FAD26972D
:104D50008533910509F0EBC08BAD9CAD82960E9426
:104D6000843F8B878BAD9CAD82960E94843F8C875D
:104D7000FFC08BAD9CAD82960E94843F8B878BAD2C
:104D80009CADAC014E5D5F4F8BAD9CAD9C012E5E2A
:104D90003F4FCA01B90144E050E00E94653FE8C0BE
:104DA0008BAD9CAD82960E94843F8B878BAD9CAD72
:104DB000AC014E5D5F4F8BAD9CAD9C012A5E3F4FB9
:104DC000CA01B90144E050E00E94653F1C821B8289
:104DD0000AC08BAD9CAD82960E94843F8B819C81E2
:104DE00001969C838B838B85882F90E09C012450B7
:104DF00030408B819C81821793075CF3B9C08BADE7
:104E00009CAD82960E94843F8B878BAD9CADAC019C
:104E10004E5D5F4F8BAD9CAD9C01225E3F4FCA0142
:104E2000B90144E050E00E94653F1A8219820AC02D
:104E30008BAD9CAD82960E94843F89819A810196B8
:104E40009A8389838B85882F90E09C012450304081
:104E500089819A81821793075CF38AC08BAD9CADE0
:104E600082960E94843F8B878BAD9CAD4A96FC0155
:104E700080819181A281B3810097A105B105F1F0F4
:104E80008BAD9CAD9C01265E3F4FCE014396B90190
:104E90000E94364F8BAD9CAD9C012E5D3F4FCE01E5
:104EA0000D96B9010E943524CE0143969E01235FE1
:104EB0003F4FB9010E94C823882329F091E024962E
:104EC0009FAF249703C024961FAE249724968FADDE
:104ED00024978823B1F08BAD9CADAC014E5D5F4F44
:104EE0008BAD9CAD9C01265E3F4FCA01B90144E0E9
:104EF00050E00E94653F3CC08BAD9CAD82960E9405
:104F0000843F8B852C968FAF2C972C969FAD2C973A
:104F1000992321F081E02C968FAF2C972C968FADA2
:104F20002C979B8591509B87882331F721C08BADAF
:104F30009CAD82960E94843F8B8705C08BAD9CAD53
:104F400082960E94843F9B852D969FAF2D972D962C
:104F50008FAD2D97882321F091E02D969FAF2D974F
:104F60002D968FAD2D979B8591509B87882331F788
:104F70008BAD9CAD82960E94864127961FAE2797E7
:104F80001816190624F481E027968FAF27972796E5
:104F90009FAD2797992309F098CE8BAD9CAD829653
:104FA0000E94CA3E8C8529968FAF299729968FAD8E
:104FB0002997C45BDF4F0FB6F894DEBF0FBECDBF9D
:104FC000CF91DF9108950F931F93DF93CF93CDB7C8
:104FD000DEB7EA970FB6F894DEBF0FBECDBF9EAB2B
:104FE0008DAB6FAB59AF48AFCE01459660E070E036
:104FF00040E250E00E94B663CE0109966FEF4FEF9A
:105000002FEF0FEF0E94AB4E8DA99EA98C010E5D74
:105010001F4FCE0103969E01275F3F4FB9010E94AB
:105020000B249E012D5F3F4FC801B90143E450E0BE
:105030000E9473401AAE2FEF8F3F920711F481E068
:105040008AAF2AAD222309F04EC181E08D8B81E029
:105050008E8B86E08F8B188EEDA9FEA984819581B9
:10506000A681B781582F442733272227EDA9FEA90F
:1050700084819581A681B781BA2FA92F982F88277F
:1050800080709070B070282B392B4A2B5B2BEDA9C8
:10509000FEA984819581A681B781892F9A2FAB2F94
:1050A000BB278070A070B070282B392B4A2B5B2B4C
:1050B000EDA9FEA984819581A681B7818B2F9927BF
:1050C000AA27BB27822B932BA42BB52B8F87988BDA
:1050D000A98BBA8BCE01459604969E01215F3F4F66
:1050E000B90144E050E00E949B6388AD99AD892FDF
:1050F00099278D8F88AD8E8F80E890E09C8B8B8B6D
:10510000CE0145960A969E012D5E3F4FB90142E0C1
:1051100050E00E949B638DA99EA982969E012B5E02
:105120003F4FB9014CE150E00E942940CE01459625
:1051300060E070E040E250E00E94B6638DA99EA955
:105140009C01285F3F4FCE014596B90146E050E0F3
:105150000E949B638DA99EA982969E012B5E3F4F64
:10516000B90140E150E00E942940CE01459660E03F
:1051700070E040E250E00E94B6631A82198210C0CB
:105180008DA99EA982969E012B5E3F4FB90140E2F8
:1051900050E00E94294089819A8101969A838983EF
:1051A00089819A81863091055CF383E68D8B82E854
:1051B0008E8B83E58F8B83E6888F85E3898F81E0F3
:1051C0008A8F8FA98B8F8DE38C8F87E08D8F81E005
:1051D0008E8F8DA99EA99C01285F3F4FCE014596D9
:1051E0000A96B90146E050E00E949B638CE08DA3D3
:1051F00089E08EA3CE014596429629E533E0B901B8
:1052000047E050E00E949B63EDA9FEA983858DA72E
:10521000EDA9FEA984858EA7EDA9FEA985858FA796
:105220008DA99EA982969E012B5E3F4FB9014BE14D
:1052300050E00E9429408FA9833099F582E38D8B3D
:1052400084E08E8BEDA9FEA986858F8BEDA9FEA942
:105250008785888FEDA9FEA98089898FEDA9FEA990
:1052600081898A8F86E38B8F84E08C8FEDA9FEA9DC
:10527000828D8D8FEDA9FEA9838D8E8FEDA9FEA95C
:10528000848D8F8FEDA9FEA9858D88A38DA99EA9F8
:1052900082969E012B5E3F4FB9014CE050E00E9488
:1052A000294087E38D8B86E08E8B81E08F8B83E0B6
:1052B000888F86E0898F8FE08A8F8AE38B8F8BE3DC
:1052C0008C8F8FEF8D8F8DA99EA982969E012B5E6C
:1052D0003F4FB90149E050E00E9429408DA99EA9A5
:1052E00082960E946140EA960FB6F894DEBF0FBE28
:1052F000CDBFCF91DF911F910F910895EF92FF9253
:105300000F931F93DF93CF93CDB7DEB7A0970FB660
:10531000F894DEBF0FBECDBF9A8B898B7C8B6B8BD5
:105320002D8B3E8B4F8B588FE98EFA8E0B8F1C8FF7
:1053300018861F8289899A89089660E070E04AE1A0
:1053400050E00E94B66389899A8908962B893C8926
:10535000B90146E050E00E949B6361E070E080E0AC
:1053600090E020ED37E040E050E00E945E53DC0129
:10537000CB01E989FA8984839583A683B783E98978
:10538000FA8984819581A681B781E989FA89808328
:105390009183A283B38389899A89829664E470E0B9
:1053A0000E94C44118A2882311F401E008A318A1A7
:1053B000112319F01F8E1E8EEAC089899A890E94D6
:1053C00064241E821D820E944E5DDC01CB01898314
:1053D0009A83AB83BC83BFC08885882399F5E9890C
:1053E000FA8984819581A681B7810196A11DB11D9D
:1053F000E989FA8984839583A683B7830E944E5DE9
:105400009B01AC0189819A81AB81BC8179018A01C0
:10541000E81AF90A0A0B1B0BD801C70128EE33E082
:1054200040E050E0BC01CD010E945260DA01C901A8
:105430009C0189899A8961E0A9010E94E32781E0A2
:10544000888763C08885813009F040C089899A893E
:10545000298D3A8D4B8D5C8DFE013996BA01A901DB
:105460009F010E943A258F838F81823009F04DC0C1
:1054700089859A85AB85BC85E989FA89848395837A
:10548000A683B7830E944E5D9B01AC0189819A81FE
:10549000AB81BC8179018A01E81AF90A0A0B1B0B5E
:1054A000D801C70128EE33E040E050E0BC01CD0157
:1054B0000E945260DA01C9019C0189899A8963E0DE
:1054C000A9010E94E32782E088871FC08885823077
:1054D000E1F489899A89298D3A8D4B8D5C8DFE0185
:1054E0003D96BA01A9019F010E943A258F838F81C1
:1054F000853039F483E0888781E090E09E838D8356
:1055000004C08F81863009F418868F818F3F11F493
:105510001F8218868D819E8181309105C1F00E9485
:105520004E5D9B01AC0189819A81AB81BC81281BB6
:10553000390B4A0B5B0B8D899E89AF89B88D821719
:105540009307A407B50718F401E00D8F01C01D8E65
:105550008D8D882321F48885833009F03DCF89899A
:105560009A8982960E945F41E989FA8984819581AE
:10557000A681B7810196A11DB11DE989FA898483AD
:105580009583A683B7838D819E819F8F8E8F8E8D0D
:105590009F8DA0960FB6F894DEBF0FBECDBFCF9102
:1055A000DF911F910F91FF90EF900895DF93CF93BC
:1055B0000F920F92CDB7DEB79A83898389819A8142
:1055C00002960F900F90CF91DF910895DF93CF93C4
:1055D0000F920F92CDB7DEB79A83898389819A8122
:1055E0000296FC0180819181A281B381BC01CD0131
:1055F0000F900F90CF91DF910895DF93CF9300D05C
:105600000F920F92CDB7DEB79A8389837C836B8329
:1056100089819A810296FC012081318142815381E6
:105620008B819C810296FC0180819181A281B38152
:105630001D82281739074A075B0711F481E08D8323
:105640008D810F900F900F900F900F90CF91DF9161
:105650000895DF93CF9300D00F92CDB7DEB79A8332
:1056600089837C836B838B819C819C012E5F3F4F60
:1056700089819A81820F931F0F900F900F900F9046
:10568000CF91DF910895DF93CF9300D00F92CDB7E4
:10569000DEB79A8389837C836B83E981FA8184E610
:1056A00093E0918380830F900F900F900F90CF9194
:1056B000DF910895DF93CF9300D00F92CDB7DEB77F
:1056C0009A8389837C836B8389819A812B813C8136
:1056D000B9010E94F423E981FA818AE995E0918376
:1056E0008083EB81FC8182819381A481B581E981F2
:1056F000FA8182839383A483B5830F900F900F90D8
:105700000F90CF91DF9108950F931F93DF93CF9365
:105710000F920F92CDB7DEB78C017A836983A8010F
:1057200089819A819C01215F3F4FCA01B9010E9482
:105730000B24C801C8010F900F90CF91DF911F91EA
:105740000F910895DF93CF930F920F92CDB7DEB7ED
:105750009A838983E981FA81858996890F900F90D0
:10576000CF91DF910895DF93CF9300D00F92CDB703
:10577000DEB79A8389837C836B8389819A810F90BA
:105780000F900F900F90CF91DF910895DF93CF93FB
:1057900000D00F92CDB7DEB79A8389837C836B8369
:1057A00089819A812B813C81B9010E94B32BEB81C5
:1057B000FC8182819381A481B581E981FA81828310
:1057C0009383A483B58389819A810F900F900F9062
:1057D0000F90CF91DF910895DF93CF9300D00F9278
:1057E000CDB7DEB79A8389837C836B8389819A8165
:1057F0002B813C81B9010E94C62BE981FA81178275
:1058000016820F900F900F900F90CF91DF91089517
:10581000DF93CF93CDB7DEB72E970FB6F894DEBFE8
:105820000FBECDBF98878F837A8769875C874B8748
:1058300089859A859E838D8305C08D819E81019681
:105840009E838D83ED81FE818081882379F0ED81B7
:10585000FE8180818E3289F3ED81FE8180818033EB
:1058600060F7ED81FE8180818A3338F3ED81FE811E
:105870008081882309F06CC089859A859E838D83F9
:105880001C821B821A8219823BC0ED81FE818081BD
:105890008E32D9F489819A818F3F910521F01CF0D5
:1058A0001E861D8657C08B859C852B813C81B90146
:1058B0000E94292BFC01898180838B819C81019628
:1058C0009C838B831A82198216C089819A819C01DC
:1058D000220F331FC901880F991F880F991F280FA6
:1058E000391FED81FE818081882F90E0C097820F63
:1058F000931F9A8389838D819E8101969E838D83D8
:10590000ED81FE818081882331F08B819C81843000
:1059100091050CF4BACF89819A818F3F910509F0E6
:105920002CF48B819C81843091051CF01E861D8691
:1059300011C08B859C852B813C81B9010E94292B4C
:10594000FC018981808381E090E09E878D8702C081
:105950001E861D868D859E852E960FB6F894DEBF19
:105960000FBECDBFCF91DF9108950F93DF93CF93FB
:1059700000D00F92CDB7DEB79A8389837C836B8387
:1059800089819A818130910571F48B819C812FEFFF
:105990008F3F920741F483EE95E060E040E020E025
:1059A00000E00E94AB4E0F900F900F900F90CF91A0
:1059B000DF910F910895DF93CF93CDB7DEB781E0EC
:1059C00090E06FEF7FEF0E94B52CCF91DF910895AB
:1059D000EF92FF920F931F93DF93CF93CDB7DEB774
:1059E000C854D0400FB6F894DEBF0FBECDBF9CA701
:1059F0008BA77EA76DA758AB4FA70E944E5DDC0119
:105A0000CB018D879E87AF87B88B2FC00E944E5DDC
:105A10009B01AC018D859E85AF85B889281B390B0C
:105A20004A0B5B0B8DA59EA5CC01A0E0B0E02496AF
:105A30001FAE249782179307A407B50720F421E02F
:105A400024962FAF249724963FAD2497332339F023
:105A50008FEF9FEF23969FAF8EAF23970BC262E32A
:105A600070E080E090E00E94825D8BA59CA5089686
:105A70000E94B43F25961FAE25971816190624F0EC
:105A800091E025969FAF259725962FAD2597222348
:105A900009F0BCCF8BA59CA50E94E62A7B018C0156
:105AA0008BA59CA59C01285F3F4FCE014196B90173
:105AB0000E943524CE0141960E94E62ADC01CB01EA
:105AC000E816F9060A071B0741F48BA59CA5089662
:105AD0000E9453248533910529F031E021963FAF90
